:100000000C9402040C941F040C941F040C942128DB
:100010000C941D130C941F040C941F040C940A1CC4
:100020000C941F040C941F040C941F040C941F04C4
:100030000C941F040C941F040C941F040C941F04B4
:100040000C94B9150C941F040C94CB120C948612CA
:100050000C941F040C941F040C941F040C941F0494
:100060000C941F040C941F04EB1EEB1EEB1E021FCE
:100070000B1F141F1D1F341F4B1F621F6E1F7A1F83
:10008000861F9B1FA41FAD1FB61FC21FCB1FD41FEF
:10009000E61FFA1F0C20222038204A2053205C2023
:1000A00065207020084AD73B3BCE016E84BCBFFD63
:1000B000C12F3D6C74319ABD56833DDA3D00C77F38
:1000C00011BED9E4BB4C3E916BAAAABE00000080D1
:1000D0003F05A84CCDB2D44EB93836A9020C50B960
:1000E000918688083CA6AAAA2ABE000000803F3E4E
:1000F0000D0A002C0057506F733A002C002C4D5005
:100100006F733A003C436865636B003C416C6172FD
:100110006D003C486F6D65003C486F6C64003C525C
:10012000756E003C5175657565003C49646C6500F1
:100130000D0A003D00244E005D0D0A0020460020FF
:100140005400204D3800204D3900204D3500204D01
:100150003400204D3300204D3200204D3100204D21
:1001600030002047393400204739330020473931E7
:10017000002047393000204732310020473230001C
:1001800020473139002047313800204731370020DF
:1001900047005B473830005B4733005B4732005B0A
:1001A0004731005B4730005D0D0A002C005B47398A
:1001B000323A005D0D0A002C0033303A0032383AF2
:1001C0000035393A0035383A0035373A0035363A95
:1001D0000035353A0035343A005B47002028686F17
:1001E0006D696E672070756C6C2D6F66662C206D66
:1001F0006D290D0A002028686F6D696E672064659F
:10020000626F756E63652C206D736563290D0A241A
:1002100032393D002028686F6D696E67207365650F
:100220006B2C206D6D2F6D696E290D0A2432383DBF
:10023000002028686F6D696E6720666565642C20F4
:100240006D6D2F6D696E290D0A2432373D00290D21
:100250000A2432363D002028686F6D696E6720647D
:10026000697220696E76657274206D61736B2C20E3
:10027000696E743A002028686F6D696E6720637933
:10028000636C652C20626F6F6C290D0A2432353D3A
:1002900000202868617264206C696D6974732C2079
:1002A000626F6F6C290D0A2432343D002028736F71
:1002B0006674206C696D6974732C20626F6F6C2991
:1002C0000D0A2432333D002028696E766572742051
:1002D0007374657020656E61626C652C20626F6F4F
:1002E0006C290D0A2432323D0020286175746F207C
:1002F00073746172742C20626F6F6C290D0A243242
:10030000313D0020287265706F727420696E6368D9
:1003100065732C20626F6F6C290D0A2432303D000A
:1003200020286E2D646563696D616C732C20696E85
:1003300074290D0A2431393D00202861726320742C
:100340006F6C6572616E63652C206D6D290D0A24DA
:1003500031383D0020286A756E6374696F6E2064C1
:100360006576696174696F6E2C206D6D290D0A24A4
:1003700031373D002028737465702069646C6520F6
:1003800064656C61792C206D736563290D0A2431D5
:10039000363D00290D0A2431353D0020287374654F
:1003A0007020706F727420696E76657274206D6152
:1003B000736B2C20696E743A002028646566617541
:1003C0006C7420666565642C206D6D2F6D696E29D7
:1003D0000D0A2431343D0020287374657020707537
:1003E0006C73652C2075736563290D0A2431333DC8
:1003F0000020287A206D61782074726176656C2CFB
:10040000206D6D290D0A2431323D00202879206DA0
:1004100061782074726176656C2C206D6D290D0AEF
:100420002431313D00202878206D6178207472617C
:1004300076656C2C206D6D290D0A2431303D00202D
:10044000287A20616363656C2C206D6D2F73656362
:100450005E32290D0A24393D00202879206163632A
:10046000656C2C206D6D2F7365635E32290D0A2437
:10047000383D0020287820616363656C2C206D6D09
:100480002F7365635E32290D0A24373D0020287AD8
:10049000206D617820726174652C206D6D2F6D69FF
:1004A0006E290D0A24363D00202879206D617820C0
:1004B000726174652C206D6D2F6D696E290D0A2493
:1004C000353D00202878206D617820726174652C9C
:1004D000206D6D2F6D696E290D0A24343D00202892
:1004E0007A2C20737465702F6D6D290D0A24333DAD
:1004F000002028792C20737465702F6D6D290D0AEA
:1005000024323D002028782C20737465702F6D6D87
:10051000290D0A24313D0024303D00242420287672
:10052000696577204772626C2073657474696E67C1
:1005300073290D0A242320287669657720232070EB
:100540006172616D6574657273290D0A24472028F4
:100550007669657720706172736572207374617457
:1005600065290D0A244E2028766965772073746109
:100570007274757020626C6F636B73290D0A247836
:100580003D76616C756520287361766520477262DF
:100590006C2073657474696E67290D0A244E783D6A
:1005A0006C696E652028736176652073746172745E
:1005B000757020626C6F636B290D0A2443202863D9
:1005C0006865636B2067636F6465206D6F64652980
:1005D0000D0A245820286B696C6C20616C61726D67
:1005E000206C6F636B290D0A2448202872756E20D9
:1005F000686F6D696E67206379636C65290D0A7E8B
:1006000020286379636C65207374617274290D0A04
:100610002120286665656420686F6C64290D0A3F97
:10062000202863757272656E7420737461747573BB
:10063000290D0A6374726C2D7820287265736574B5
:10064000204772626C290D0A000D0A4772626C2005
:10065000302E396220283230313331323130292086
:100660005B27242720666F722068656C705D0D0A19
:10067000005D0D0A0044697361626C656400456E3B
:1006800061626C65640043617574696F6E3A2055F0
:100690006E6C6F636B656400272448277C272458A1
:1006A0002720746F20756E6C6F636B0052657365E5
:1006B0007420746F20636F6E74696E7565005B00E3
:1006C0002E204D506F733F0D0A0041626F727420EF
:1006D000647572696E67206379636C650048617246
:1006E000642F736F6674206C696D697400414C41AE
:1006F000524D3A20000D0A004C696E65206F7665F8
:1007000072666C6F7700486F6D696E67206E6F74EC
:1007100020656E61626C656400416C61726D206C75
:100720006F636B0042757379206F72207175657508
:10073000656400454550524F4D20726561642066E6
:1007400061696C2E205573696E67206465666175FA
:100750006C74730056616C7565203C203320757392
:1007600065630056616C7565203C20302E30005367
:10077000657474696E672064697361626C65640096
:10078000496E76616C69642073746174656D656E21
:1007900074004D6F64616C2067726F7570207669AC
:1007A0006F6C6174696F6E00496E76616C6964206C
:1007B00072616469757300556E737570706F7274D1
:1007C00065642073746174656D656E74004578703E
:1007D000656374656420636F6D6D616E64206C6524
:1007E0007474657200426164206E756D626572207A
:1007F000666F726D6174006572726F723A20006F7D
:100800006B0D0A0011241FBECFEFD8E0DEBFCDBFB5
:1008100011E0A0E0B1E0E0EDF9E602C005900D9234
:10082000A030B107D9F716E0A0E0B1E001C01D92F9
:10083000A63AB107E1F70E9421040C94E6340C9427
:1008400000000F931F930E9453120E94BE210E942A
:10085000E21B789481E1E0E4F5E0DF011D928A95E6
:10086000E9F781E0809340058093410506E011E0BF
:1008700080914005882399F10E94C6120E94CD26DE
:100880000E94E9110E9477150E9417120E943B12E4
:100890000E94B2270E94A51B0E9451220E945B0960
:1008A000109240051092420580919606982F81FF84
:1008B00002C01093500580914105813021F494FFCE
:1008C00002C00093410580914105863021F482E009
:1008D0000E94EE2A04C0109241050E94BC130E949F
:1008E00059130E9490040E942615C2CF80914205A0
:1008F00084FD15C0809142058061809342050E946D
:100900001D120E944012809141058350833038F4BB
:10091000809142058062809342050E94C51B089524
:1009200080915005882311F00E94991B0895EF9241
:10093000FF920F931F93CF93DF937B018C0120E0F5
:1009400030E040EA51E40E94CB330E94C8310E945B
:100950005F31EB010E94B226C801B70120E030E010
:100960004AE754E40E94CB337B018C0182E390E0A0
:10097000C89FB001C99F700DD89F700D112480E0F1
:1009800090E00E948B319B01AC01C801B7010E942D
:1009900011300E94C8310E945F31DC01CB010E94FE
:1009A000DE2600E911E00EC00E9459138091400537
:1009B000882351F484EF91E0F8013197F1F7019722
:1009C000D9F72197209781F7DF91CF911F910F9150
:1009D000FF90EF900895DF92EF92FF920F931F9395
:1009E000CF93DF93EC017A018B01D22E8091960692
:1009F00085FF03C0CE010E94D0278091410587303A
:100A0000D1F00E945913809140058823A1F40E94DF
:100A10004722882319F00E949004F3CFCE01B80139
:100A2000A7012D2D0E94CC2380914105882319F424
:100A300082E080934105DF91CF911F910F91FF904C
:100A4000EF90DF9008954F925F926F927F928F9216
:100A50009F92AF92BF92CF92DF92EF92FF920F934D
:100A60001F93DF93CF93CDB7DEB72C970FB6F894D3
:100A7000DEBF0FBECDBF85E08093410580916B0046
:100A8000817F80936B000E9425290E9459138091D9
:100A90004005882309F08FC08CE0DE011196FD012E
:100AA000982F11929A95E9F724E435E0F901119213
:100AB0008A95E9F79AE7692E96E0792E4D0169014A
:100AC000AA24BB2487E0482E512CC2010A2C02C064
:100AD000959587950A94E2F780FF3DC0109197069F
:100AE0008A2D0E94E826182341F1F301E080F1806D
:100AF000028113816091A2067091A3068091A406E1
:100B00009091A506A80197010E941230F40160831C
:100B1000718382839383F301B497C801B701208165
:100B20003181428153810E94CB330E949B33F60175
:100B300060837183828393830EC08091A20690911B
:100B4000A306A091A406B091A506B058F401808335
:100B50009183A283B3830894A11CB11C84E090E02C
:100B6000680E791E880E991EC80ED91E93E0A9162C
:100B7000B10409F0AACF0E94512210924105409180
:100B80009C0650919D0660919E0670919F06CE0135
:100B9000019620E00E94EB040E94991B0E94B2265D
:100BA0000E945B098091960683FF05C080916B00CF
:100BB0008E6080936B002C960FB6F894DEBF0FBE4C
:100BC000CDBFCF91DF911F910F91FF90EF90DF90FC
:100BD000CF90BF90AF909F908F907F906F905F90DD
:100BE0004F9008952F923F924F925F926F927F9213
:100BF0008F929F92AF92BF92CF92DF92EF92FF922D
:100C00000F931F93DF93CF93CDB7DEB7C255D0407C
:100C10000FB6F894DEBF0FBECDBF3C0123967FAF69
:100C20006EAF239725965FAF4EAF259726962FAFD1
:100C3000269727960FAF27972896EFAE28972C96E2
:100C4000ACAEBDAECEAEDFAE2C972D968FAE2D974F
:100C5000E22EFF24EE0CFF1CEE0CFF1C4E0D5F1D60
:100C600021965FAF4EAF2197DA012D903D904D90C8
:100C70005C90FC01EE0DFF1DC201B10120813181AC
:100C8000428153810E9412306DAB7EAB8FAB98AF27
:100C900010E0000F111F000F111F2596EEADFFADE4
:100CA0002597E00FF11FFEAFEDAFA080B180C280AD
:100CB000D380F301E00FF11FC601B501208131811E
:100CC000428153810E94123069AB7AAB8BAB9CABF3
:100CD00028962FAD2897E22FF0E0EE0FFF1FEE0FC2
:100CE000FF1F6E0E7F1ED3018D919D910D90BC91C3
:100CF000A02D89AF9AAFABAFBCAF23962EAD3FAD61
:100D00002397E20FF31F608171818281938129AD66
:100D10003AAD4BAD5CAD0E9411306DA77EA78FA799
:100D200098ABD201C101B05889A79AA7ABA7BCA7BD
:100D3000A601950150582DA33EA34FA358A7239673
:100D40004EAD5FAD2397E40EF51ED7016D917D91F9
:100D50008D919C912DA93EA94FA958AD0E941130AB
:100D60003B014C012396EEADFFAD23970E0F1F1FE5
:100D7000D8016D917D918D919C9129A93AA94BA99A
:100D80005CA90E9411305B016C0169A57AA58BA555
:100D90009CA5A60195010E94CB337B018C016DA11E
:100DA0007EA18FA198A5A40193010E94CB339B0142
:100DB000AC01C801B7010E9411301B012C0169A5CB
:100DC0007AA58BA59CA5A40193010E94CB337B013E
:100DD0008C016DA17EA18FA198A5A60195010E940D
:100DE000CB339B01AC01C801B7010E9412309B01BB
:100DF000AC01C201B1010E9485301B012C01AC96EF
:100E00008FADAC97882399F0C201B10120E030E0AA
:100E100040E050E00E94F9328823ECF0C201B101B9
:100E20002BED3FE049EC50E40E94113012C0C201AA
:100E3000B10120E030E040E050E00E94EB301816B5
:100E400054F0C201B1012BED3FE049EC50E40E94A7
:100E500012301B012C01C201B101AB962CAD3DAD8E
:100E60004EAD5FADAB970E94CB332DA53EA54FA5F0
:100E700058A90E9406333B014C01E0909106F09086
:100E800092060091930610919406C801B70120E0E4
:100E900030E040E850E40E94CB335B016C01AB963C
:100EA0006CAD7DAD8EAD9FADAB979B01AC010E944B
:100EB0001230A80197010E9411309B01AC01C601BC
:100EC000B5010E94CB330E9458349B01AC01C40190
:100ED000B3010E94F2300E94C8310E945F317CA3AE
:100EE0006BA36115710509F4BDC12D96BFAD2D979A
:100EF000BB23A1F080E090E00E948B319B01AC010C
:100F00002C966CAD7DAD8EAD9FAD2C970E94CB33F2
:100F10002C966CAF7DAF8EAF9FAF2C972BA13CA1D1
:100F2000B90180E090E00E948B317B018C01C2010D
:100F3000B101A80197010E94F2306F8F78A389A3B5
:100F40009AA36DA57EA58FA598A9A80197010E94D7
:100F5000F2306B8F7C8F8D8F9E8F6F8D78A189A1E2
:100F60009AA19B01AC010E94CB339B01AC0160E0D4
:100F700070E080E090E40E9411305B016C016F8DA5
:100F800078A189A19AA12BEA3AEA4AE25EE30E949B
:100F9000CB337B018C01C601B50120E030E040E895
:100FA00050E40E9412309B01AC01C801B7010E94BD
:100FB000CB336F8B788F898F9A8FC601B50120E074
:100FC00030E040E05FE30E94CB336D877E878F8700
:100FD000988B28963FAD2897E32FF0E0EE0FFF1F88
:100FE000EE0FFF1FCE010196E80FF91F29AD3AADB4
:100FF0004BAD5CAD208331834283538341E050E0AD
:101000005A8B498B88242696BFAD2697AB2FB0E02C
:10101000AA0FBB1FAA0FBB1F9C012A0F3B1F2F96B5
:101020003FAF2EAF2F9727965FAD2797452F50E004
:10103000440F551F440F551F81E090E08C0F9D1FFA
:10104000840F951F61969FAF8EAF61976396FFAF38
:10105000EEAF6397FFC093E1981508F446C069A509
:101060007AA58BA59CA52F89388D498D5A8D0E9414
:10107000CB337B018C016DA17EA18FA198A52D851D
:101080003E854F8558890E94CB339B01AC01C80136
:10109000B7010E9412307B018C0169A57AA58BA54E
:1010A0009CA52D853E854F8558890E94CB335B01D9
:1010B0006C016DA17EA18FA198A52F89388D498DD6
:1010C0005A8D0E94CB339B01AC01C601B5010E9431
:1010D000113069A77AA78BA79CA78394C701D80171
:1010E0008DA39EA3AFA3B8A763C0A989BA89BD0188
:1010F00080E090E00E948B312F8D38A149A15AA148
:101100000E94CB337B018C01C8010E94EF306B8BB6
:101110007C8B8D8B9E8BB701C8010E944E343B01A6
:101120004C012196EEADFFAD2197E080F180028168
:10113000138117FB109517F91095ADADBEAD2D902D
:101140003D904D905C90C801B7012B893C894D8939
:101150005E890E94CB335B016C01C201B101A40125
:1011600093010E94CB339B01AC01C601B5010E94E3
:10117000123069A77AA78BA79CA7C801B701A40161
:1011800093010E94CB337B018C01C201B1012B89F9
:101190003C894D895E890E94CB339B01AC01C8011B
:1011A000B7010E9411306DA37EA38FA398A7882456
:1011B0006DA97EA98FA998AD29A53AA54BA55CA5D7
:1011C0000E9412302F96EEADFFAD2F976083718392
:1011D0008283938369A97AA98BA99CA92DA13EA199
:1011E0004FA158A50E9412306196AEADBFAD619778
:1011F0006D937D938D939C9313976396EEADFFADA6
:10120000639760817181828193812B8D3C8D4D8D9F
:101210005E8D0E9412306396AEADBFAD63976D9345
:101220007D938D939C931397CE0101962C964CAD94
:101230005DAD6EAD7FAD2C972D962FAD2D970E9495
:10124000EB04809140058823E1F4E989FA8931961D
:10125000FA8BE98B29893A894BA15CA124173507C0
:1012600008F4F9CE23968EAD9FAD23972C964CAD06
:101270005DAD6EAD7FAD2C972D962FAD2D970E9455
:10128000EB04CE5ADF4F0FB6F894DEBF0FBECDBFD2
:10129000CF91DF911F910F91FF90EF90DF90CF9052
:1012A000BF90AF909F908F907F906F905F904F9086
:1012B0003F902F900895609144057091450580916D
:1012C0004605909147050E948D3120915606309138
:1012D000570640915806509159060E94F23060938B
:1012E0005D0570935E0580935F0590936005609146
:1012F00048057091490580914A0590914B050E94DF
:101300008D3120915A0630915B0640915C065091D8
:101310005D060E94F23060936105709362058093D0
:1013200063059093640560914C0570914D05809123
:101330004E0590914F050E948D3120915E063091AF
:101340005F0640916006509161060E94F230609302
:101350006505709366058093670590936805089509
:101360002F923F924F925F926F927F928F929F92B5
:10137000AF92BF92CF92DF92EF92FF920F931F93A3
:10138000CF93DF938C01E0916A05F0E0EE0FFF1F31
:10139000EE0FFF1FDC01AE0FBF1FE35AFA4F6D9136
:1013A0007D918D919C9120813181428153810E9458
:1013B00011301B012C01E0916B05F0E0EE0FFF1FD7
:1013C000EE0FFF1F0E0F1F1FE35AFA4FD8016D914A
:1013D0007D918D919C9120813181428153810E9428
:1013E00011303B014C018CE0EAE8F5E0DF011D9291
:1013F0008A95E9F7A0908605B0908705C09088058A
:10140000D0908905C601B50120E030E040E850E405
:101410000E94CB33A60195010E94CB337B018C0146
:10142000C201B101A20191010E94CB339B01AC0129
:10143000C801B7010E9411307B018C01C401B301C6
:10144000A40193010E94CB339B01AC01C801B701F9
:101450000E9411307B018C0120E030E040E050E040
:101460000E94EB30882324F484E08093510579C0F6
:10147000C801B7010E9458347B018C01C201B1013F
:10148000A40193010E9406339B01AC0117FB109548
:1014900017F91095C801B7010E94F2307B018C0149
:1014A00080915205833021F417FB109517F91095A0
:1014B000C601B50120E030E040E050E00E94EB3092
:1014C00088237CF417FB109517F91095D601C501F8
:1014D000B0588093860590938705A0938805B093B4
:1014E000890580916A05C82FD0E0CC0FDD1FCC0F95
:1014F000DD1FCF5ADA4FC401B301A80197010E9442
:10150000CB339B01AC01C201B1010E94113020E03C
:1015100030E040E05FE30E94CB3369AF7AAF8BAF3E
:101520009CAF80916B05C82FD0E0CC0FDD1FCC0F96
:10153000DD1FCF5ADA4FC201B101A80197010E9405
:10154000CB339B01AC01C401B3010E94123020E0F7
:1015500030E040E05FE30E94CB3369AF7AAF8BAFFE
:101560009CAFDF91CF911F910F91FF90EF90DF9093
:10157000CF90BF90AF909F908F907F906F905F9033
:101580004F903F902F9008952F923F924F925F92ED
:101590006F927F928F929F92AF92BF92CF92DF9283
:1015A000EF92FF920F931F93DF93CF93CDB7DEB7E8
:1015B000E2970FB6F894DEBF0FBECDBF4C0180910D
:1015C0004105863011F48CE0AEC619822CE0FE0194
:1015D0003696DF01822F1D928A95E9F780E090E030
:1015E000A0E0B0E08093860590938705A0938805DE
:1015F000B0938905EAE8F5E0DF011D922A95E9F745
:10160000109251051EA61DA61CA61BA6B2E04B2ECD
:10161000512C4C0E5D1E1E010894211C311CA3E0B0
:10162000AA2EF2E0BF2E01E0E1E06E2E712CABC1DC
:101630002E313105C9F12F313105D4F42431310572
:1016400084F421313105A4F52430310569F12530C8
:1016500031051CF437FF2AC025C02A30310511F5A9
:1016600023C02631310554F12C313105D9F41CC089
:101670002C3531058CF42A353105E4F42C33310551
:101680003CF426333105E4F42533310559F40CC01C
:101690002035310539F40AC02C35310529F02F35B4
:1016A000310554F010E00DC011E00BC012E009C08C
:1016B00013E007C014E005C016E003C017E001C046
:1016C00019E02531310509F495C026313105A4F51D
:1016D0002430310509F468C025303105A4F42130E7
:1016E000310509F466C02230310524F4232B09F4B6
:1016F0005DC02FC12230310509F45EC023303105B1
:1017000009F027C15CC02231310509F462C02331E0
:1017100031054CF42A30310509F443C0213131053B
:1017200009F017C14FC02331310509F459C02431E4
:10173000310509F00EC15BC02035310509F491C0B7
:1017400021353105ACF42533310509F482C0263347
:1017500031054CF42C31310509F44FC02E313105DF
:1017600009F0F7C04AC02C3331050CF0F2C074C048
:101770002C35310509F47FC02D3531054CF42A355F
:10178000310509F472C02B35310509F0E2C070C093
:101790002D35310509F489C02E35310509F0D9C040
:1017A00087C0B2E0BBA7D7C0E1E04AC010925205A3
:1017B000D2C000935205CFC0B0925205CCC0A092C7
:1017C0005205C9C010926A0500936B05B0926C0572
:1017D000C2C0B0926A0510926B0500936C05BBC045
:1017E00000936A05B0926B0510926C05B4C000932B
:1017F0005405B1C010925405AEC0C701B60120E037
:1018000030E040E251E40E94CB330E94A5340E94B4
:101810005A31F1E069317F0791F081E06A31780750
:101820002CF46851714009F094C00CC0A1E06C32F6
:101830007A0759F06D52714009F08BC008C0E4E09E
:10184000EBA789C0F3E0FBA786C085E029C096E03E
:101850002AC0A1E0ACA77FC0822F865380936D057C
:101860007AC0B4E0B093520576C00093550573C0BA
:101870001092550570C0C701B60120E030E040E28B
:1018800051E40E94CB330E94A5340E945A31E3E018
:1018900068397E0739F06959734009F05AC088E009
:1018A0008BA759C097E09BA756C00093530553C020
:1018B0001092530550C02630310534F423303105E1
:1018C00054F4772334F403C02E31310511F010E0C5
:1018D00003C015E001C018E02430310569F125305E
:1018E000310584F421303105B1F1223031051CF489
:1018F000232BC9F02EC022303105C1F02330310531
:1019000041F517C028303105F1F02930310524F4B4
:1019100025303105F1F414C029303105B9F02E31EC
:101920003105B9F403C00093560515C0B0925605B1
:1019300012C0009357050FC0AFEFA09357050BC01F
:101940001092570508C00093580505C0109258051D
:1019500002C0A09251051123B1F0930102C0220FE1
:10196000331F1A95E2F78DA59EA582239323892B19
:1019700021F0B5E0B093510506C0EDA5FEA5E22B20
:10198000F32BFEA7EDA79981F401E90FF11D10815A
:10199000112399F0812F81548A3110F082E00BC01D
:1019A0009F5F9983C401B101A2010E94F726892B90
:1019B00009F0D2C481E080935105809151058823BC
:1019C00009F0B1C4198277241FA618AAF0E8F9AB70
:1019D0008FEB8AAB0F2EF0E02F2EF0E03F2EF0E0E1
:1019E0004F2EF0E05F2EF02D1AA67E010894E11C28
:1019F000F11C16E073E0672E08C1AA80BB80CC8082
:101A0000DD80C601B50120E030E040E050E00E94FA
:101A1000EB30181614F0109351058091530588236C
:101A200081F080915405882309F4E9C0C601B5010D
:101A300023E333E34BEC51E40E94CB335B016C01B5
:101A4000DEC080915405882351F0C601B50123E31F
:101A500033E34BEC51E40E94CB335B016C01A09269
:101A60005905B0925A05C0925B05D0925C05C1C081
:101A70002A813B814C815D8180915405882351F0FE
:101A8000CA01B90123E333E34BEC51E40E94CB33A9
:101A90009B01AC01E02FFF27E7FDF095EE0FFF1F44
:101AA000EE0FFF1FE35DFB4F21AF32AF43AF54AFEB
:101AB000A0C06A817B818C819D810E94A5340E9497
:101AC0005F316AA796C02A803B804C805D8091C0C0
:101AD0002A813B814C815D8180915405882351F09E
:101AE000CA01B90123E333E34BEC51E40E94CB3349
:101AF0009B01AC01209386053093870540938805B0
:101B00005093890576C06A817B818C819D8120E01C
:101B100030E040E050E00E94EB3088230CF069C0D8
:101B20001093510566C0AA80BB80CC80DD80C601C1
:101B3000B50120E030E040E050E00E94EB30882327
:101B400014F410935105C601B5010E94A5340E94FA
:101B50005F31609369054DC02A813B814C815D8175
:101B600080915405882351F0CA01B90123E333E37E
:101B70004BEC51E40E94CB339B01AC012E833F839D
:101B80004887598791E0792A34C02A813B814C816A
:101B90005D8180915405882351F0CA01B90123E386
:101BA00033E34BEC51E40E94CB339B01AC012A8719
:101BB0003B874C875D87A2E07A2A1BC02A813B8144
:101BC0004C815D8180915405882351F0CA01B9018F
:101BD00023E333E34BEC51E40E94CB339B01AC0194
:101BE0002E873F87488B598BB4E07B2A02C06092D6
:101BF00051058FA598A9A9A9BAA95C016D01D601C3
:101C0000C501AFA698ABA9ABBAAB9981F401E90FB6
:101C1000F11D00810023A9F0802F81548A3110F03A
:101C200082E00DC09F5F9983C401B701AE014E5F92
:101C30005F4F0E94F726892B09F0A0C381E08093B3
:101C4000510580915105882309F06DC380914105AC
:101C5000873041F0809157050E941F1280915805EE
:101C60000E944212EDA5FEA5F1FF13C08E010E5E8B
:101C70001F4F80916D05B8010E949321882309F4BC
:101C800051C3AEE6B5E0F8018CE001900D928150B1
:101C9000E1F7FBA5F43009F446C1F53048F4F23021
:101CA00051F1F33008F0B0C0F13009F08FC10EC02F
:101CB0008BA5863009F437C1863008F4A5C087307B
:101CC00009F43CC1883009F081C177C1C201B1017A
:101CD00020E030E040E050E00E94EB3088230CF43C
:101CE0002FC180914105873009F470C1C201B10153
:101CF0000E9497046BC19AA5923011F0943149F477
:101D0000C201B1010E94A5340E945A3167307105A9
:101D100020F083E08093510558C1772021F4AAA5D3
:101D2000A23009F40DC1161617062CF44B010894C5
:101D30008108910804C080916D05882E9924582C43
:101D40008E010E5E1F4F882DB8010E9493218823BB
:101D500009F4E8C22DE5E22E25E0F22E96E0A92E48
:101D6000B12CAC0EBD1E680100E010E0672C77249A
:101D7000C301002E02C0959587950A94E2F780FF73
:101D80001FC0BAA5B43191F4F701608171818281DD
:101D90009381D5012D913D914D915C910E9411301F
:101DA000F60160837183828393830AC0F501808189
:101DB0009181A281B381F60180839183A283B38351
:101DC0000F5F1F4F84E090E0E80EF91EA80EB91EC9
:101DD000C80ED91E0330110559F68E010E5E1F4F35
:101DE000852DB8010E94882180916D0590E08815AD
:101DF000990509F0EAC0AEE6B5E0F8018CE0019083
:101E00000D928150E1F7E1C0772009F46AC086E0C5
:101E1000C82ED12CCC0EDD1E0DE515E0EE24FF24DE
:101E2000A72CBB24C5010E2C02C0959587950A945A
:101E3000E2F780FF35C0809155058823F9F0D8017D
:101E400051966D917D918D919C9154975D962D91B8
:101E50003D914D915C9190970E9412309B01AC0195
:101E6000F60160817181828193810E941230D601D6
:101E70006D937D938D939C9313971CC0F6016081A5
:101E8000718182819381D8012D913D914D915C9119
:101E90000E941230F60160837183828393830AC0AB
:101EA000F80180819181A281B381F60180839183C1
:101EB000A283B3830894E11CF11C84E090E0C80E77
:101EC000D91E0C5F1F4F93E0E916F10409F0AACF69
:101ED000CE01069640E050E060E87FEB20E00E94F3
:101EE000EB04BE01625E7F4FABA5A33011F486E028
:101EF00001C087E00E949321882309F413C28E0158
:101F0000025E1F4FC80140E050E060E87FEB20E038
:101F10000E94EB04ADE5B5E0F8018CE001900D9274
:101F20008150E1F752C0BBA5B43011F486E001C086
:101F300087E06DE575E00E94882148C0772021F494
:101F400086E08093510542C00DE5C02E05E0D02EFD
:101F500016E0A12EB12CAC0EBD1E00E010E0E72C67
:101F6000FF24C701002E02C0959587950A94E2F7D9
:101F700080FF17C0F6016081718182819381218980
:101F80003289438954890E941130D5012D913D91A8
:101F90004D915C910E941130F601658F768F878F8D
:101FA00090A30F5F1F4F84E090E0C80ED91EA80ECB
:101FB000B91E03301105A9F608C08CE0EAE7F5E088
:101FC000DF011D928A95E9F701C07724BDA5B2FD16
:101FD00003C0772009F492C180915305882399F0BA
:101FE0006FA578A989A99AA920E030E040E050E0E7
:101FF0000E94EB3088233CF480915205843019F024
:1020000086E080935105ECA5EE2339F080915205CE
:10201000823018F086E08093510580915105882325
:1020200009F081C1B6E0CB2ED12CCC0EDD1E0DE522
:1020300015E0EE24FF24A72CBB24C5010E2C02C002
:10204000959587950A94E2F780FF39C0FCA5FF2398
:1020500009F03FC0809155058823F9F0D8015196C9
:102060006D917D918D919C9154975D962D913D91AF
:102070004D915C9190970E9412309B01AC01F6014A
:1020800060817181828193810E941230D6016D93AB
:102090007D938D939C9313971CC0F6016081718191
:1020A00082819381D8012D913D914D915C910E9447
:1020B0001230F60160837183828393830AC0F80132
:1020C00080819181A281B381F60180839183A28373
:1020D000B3830894E11CF11C84E090E0C80ED91E83
:1020E0000C5F1F4F93E0E916F10409F0A6CF809131
:1020F0005205843040F48230A0F5882359F08130B5
:1021000009F0EFC012C0843009F0EBC0772009F469
:10211000E8C071C0772009F46EC0CE01069640E099
:1021200050E060E87FEB20E019C0772009F463C03D
:1021300020915305222361F4A0915905AFA7B091D6
:102140005A05B8ABE0915B05E9ABF0915C05FAABE1
:10215000CE0106964FA558A969A97AA90E94EB0459
:10216000C0C081E090E000906C0502C0880F991F0C
:102170000A94E2F780957822F1F1A0908605B0905C
:102180008705C0908805D0908905C601B50120E07B
:1021900030E040E050E00E94EB308823D1F5E09140
:1021A0006A05F0E0EE0FFF1FEE0FFF1FEF5AFA4F28
:1021B000E1ACF2AC03AD14ADC801B70120E030E0F2
:1021C00040E050E00E94EB308823C9F4E0916B05B9
:1021D000F0E0EE0FFF1FEE0FFF1FEF5AFA4F61AD59
:1021E00072AD83AD94AD20E030E040E050E00E945D
:1021F000EB30882321F486E08093510572C0C6013C
:10220000B50120E030E040E050E00E94EB30882350
:1022100049F0CE0106960E94B009809151058823AD
:10222000D1F081C0E0916B05F0E0EE0FFF1FEE0FE3
:10223000FF1FEF5AFA4F21AD32AD43AD54ADC80187
:10224000B7010E94063360938605709387058093DB
:102250008805909389053091520520916A05009177
:102260006B05E0906C0580905305882061F48091A7
:1022700059058FA790915A0598ABA0915B05A9AB22
:10228000B0915C05BAAB00D000D00F924DB75EB7ED
:102290004F5F5F4F8091860590918705A0918805DB
:1022A000B0918905EDB7FEB781839283A383B48390
:1022B00080E0323009F481E0DA0114968C938DE5E8
:1022C00095E0BE016A5F7F4F4AE855E0AFA4B8A829
:1022D000C9A8DAA80E94F2050F900F900F900F90F6
:1022E0000F90809151058823F1F4ADE5B5E0FE0132
:1022F00036968CE001900D928150E1F78091560561
:10230000882369F00E94B2261092500580915605EC
:10231000823019F40E94760402C010925605809112
:10232000510501C08AE0E2960FB6F894DEBF0FBEF9
:10233000CDBFCF91DF911F910F91FF90EF90DF9074
:10234000CF90BF90AF909F908F907F906F905F9055
:102350004F903F902F900895CA80DB80EC80FD80E5
:10236000C701B6010E94A5340E945A319B0117345F
:1023700009F45EC91D3409F006CB9DCA0F3484F4FC
:102380000D340CF036CC0C340CF093CB09340CF03B
:102390006FCB063409F431CB073409F028CC29CCB3
:1023A000043509F4C0CB053554F4023509F490CB5B
:1023B00003350CF0A8CB003509F019CC84CB0935D6
:1023C00009F4E3CB0A3509F4F9CB083509F00FCC51
:1023D000C3CBE1E5F5E085E4DF011D928A95E9F7DD
:1023E0008091870690918806A0918906B0918A060F
:1023F0008093590590935A05A0935B05B0935C05B3
:1024000010926A0591E090936B0582E080936C05D1
:102410009093550580916D05BF01635E7F4F0E94CB
:102420009321882319F48AE00E94182B08951092B2
:102430000001249A259A2C9808952C9808951F93AA
:10244000182F282F332727FD30958091000190E029
:102450002817390771F00E94B226112339F011169E
:1024600014F42D9801C02D9A2C9A01C02C98109329
:1024700000011F910895109201013B9A439808951D
:10248000439808951F93182F80910101181749F060
:102490000E94B226113011F4439A01C04398109360
:1024A00001011F910895E0ECF0E08081826080835B
:1024B0001092C50080E18093C400E1ECF0E08081DF
:1024C0008061808380818860808380818068808350
:1024D0000895282FE09104019E2F9F5F903431F4DE
:1024E00090E004C08091420584FD0FC080910501F9
:1024F0009817C1F3F0E0EA5EF94F2083909304014E
:102500008091C10080628093C10008951F920F9254
:102510000FB60F9211248F939F93EF93FF938091A7
:102520000501E82FF0E0EA5EF94F90819093C60034
:10253000982F9F5F903409F490E09093050180916B
:102540000401981729F48091C1008F7D8093C10008
:10255000FF91EF919F918F910F900FBE0F901F9061
:1025600018959091030180910201891711F48FEF62
:102570000895E92FF0E0EA56FA4F8081E92FEF5FE6
:10258000E03809F4E0E0E09303010895809102014E
:102590008093030108951F920F920FB60F9211249A
:1025A0002F933F934F935F936F937F938F939F935B
:1025B000AF93BF93EF93FF932091C6002132A1F018
:1025C000223218F42831B9F413C02F3319F02E3702
:1025D00091F404C080914205816003C0809142055E
:1025E00082608093420518C0809142058860F9CFCF
:1025F0000E94760411C0E09102019E2F9F5F9038E7
:1026000009F490E080910301981731F0F0E0EA5668
:10261000FA4F208390930201FF91EF91BF91AF9108
:102620009F918F917F916F915F914F913F912F91EA
:102630000F900FBE0F901F9018951F920F920FB61C
:102640000F9211242F933F934F935F936F937F9338
:102650008F939F93AF93BF93EF93FF9386B190E0D7
:102660008095909587709070892B91F0309903C078
:102670000E9476040DC0319904C0809142058860A3
:1026800005C0329905C08091420582608093420561
:10269000FF91EF91BF91AF919F918F917F916F913A
:1026A0005F914F913F912F910F900FBE0F901F9010
:1026B0001895CF93DF930E94F815809142058823E7
:1026C00009F457C080914205C82FD0E0CE01807632
:1026D0009070892BE9F086E080934105C6FF10C019
:1026E0008FEF0E94F62F81E00E94EE2A8091420532
:1026F0008F7E809342058091420584FFFCCF03C00A
:102700008EEF0E94F62F809142058F7980934205CB
:10271000C4FF04C081E0809340052BC0C0FF07C008
:102720000E94772B809142058E7F80934205C3FFE4
:1027300007C00E946C1B80914205877F80934205F1
:10274000C2FF07C00E94CF15809142058B7F809306
:102750004205C1FF0EC00E94991B8091960681FF21
:1027600003C081E080935005809142058D7F809366
:102770004205DF91CF91089580E066E071E00E940C
:10278000FF21882369F080910601882361F086E0AB
:1027900091E00E94D72A86E091E00E94C40A01C01D
:1027A0008AE00E94182B81E066E071E00E94FF2120
:1027B000882321F48AE00E94182B08958091060155
:1027C000882351F086E091E00E94D72A86E091E0CC
:1027D0000E94C40A0E94182B0895DF92EF92FF9284
:1027E0000F931F93DF93CF93CDB7DEB729970FB623
:1027F000F894DEBF0FBECDBF7C01FC018081843226
:1028000009F009C181E089838181873481F18834AD
:1028100074F48432C1F0853234F4882389F0833231
:1028200009F097C01AC0833409F093C02AC08E34CF
:1028300009F469C08835F1F1883409F08AC04CC0C8
:102840000E94E42AF3C082E08983F7018281882311
:1028500009F0E6C00E941E2EE9C082E08983F701DC
:102860008281882309F0DCC00E94602DDFC082E0F5
:102870008983F7018281882309F0D2C00E94742CD9
:10288000D5C082E08983F7018281882309F0C8C01E
:1028900080914105873021F40E94760485E007C0CD
:1028A000882309F0BFC087E08093410584E00E943F
:1028B000EE2ABCC082E08983F7018281882309F077
:1028C000AFC080914105863009F0B0C083E00E941E
:1028D000EE2A10924105AAC08091960684FD02C09E
:1028E00017E0A5C080914105882319F0863009F0D2
:1028F00099C00E94230580914005882309F096C065
:102900000E94BC1393C082E08983F70182818823EF
:1029100019F0DD24D3941EC080E0B7010E94FF218E
:10292000882329F080E0B7010E943B2D03C08AE094
:102930000E94182B81E0B7010E94FF21882321F417
:102940008AE00E94182B72C081E0B7010E943B2DE3
:102950006DC0DD24C7018E010F5F1F4FB801AE01AE
:102960004E5F5F4F0E94F726892B09F45DC0998165
:10297000F701E90FF11D80818D3309F051C0892FD6
:102980008F5F8983DD2041F1482F50E02981822F1C
:1029900090E0FC01E41BF50BEE0DFF1DD701A80F25
:1029A000B91F8C9180838C912F5F2983882371F7C5
:1029B000C7010E94C40A182F8823C9F56A817B8148
:1029C0008C819D810E94A5340E945F31DC01CB0186
:1029D000B7010E94F4212BC0C701B801AE014A5FC4
:1029E0005F4F0E94F726892BF9F08981E80EF11CD0
:1029F000F70180818823A1F46A817B818C819D818C
:102A00000E945A31DC01CB014E815F816885798556
:102A10000E94D41E03C0C7010E94C40A182F07C019
:102A200013E005C01BE003C011E001C010E0812FDE
:102A300029960FB6F894DEBF0FBECDBFCF91DF91C0
:102A40001F910F91FF90EF90DF9008951F9311E079
:102A500046C02A3011F02D30B1F40E9459138091F4
:102A60004005882309F041C0E0914C01EE2349F074
:102A7000F0E0EA5FFE4F108286E091E00E94ED13E5
:102A800017C080E015C080914D01882319F02932CC
:102A900031F512C0213218F12F3209F1283219F420
:102AA00010934D011CC090914C01953440F08EE084
:102AB0000E94182B10924C0110924D0110C0822FD1
:102AC0008156E92FF0E09F5F8A3120F4EA5FFE4FE4
:102AD000205202C0EA5FFE4F208390934C010E9477
:102AE000B112282F8F3F09F0B4CF1F910895109293
:102AF0004C0110924D010E94E92A87B1887F87B965
:102B000088B1876088B9ECE6F0E0808187608083D7
:102B1000E8E6F0E0808182608083089580919606E7
:102B200082FF02C0289A01C0289880914105833015
:102B300011F08530E9F480918B0680930C0280912E
:102B4000860690E0A0E0B0E00297A109B109880FE5
:102B5000991FAA1FBB1F819580930B021092B20090
:102B60008091700082608093700082E08093B10059
:102B700008951F920F920FB60F9211248F939F9377
:102B80009BB180918B068C71937E892B8BB915BC80
:102B90009F918F910F900FBE0F901F90189580916D
:102BA0004105823011F0109241050895CF93DF93D3
:102BB000C0911702D09118022097B9F081E080935C
:102BC0001C0220912A0230912B0240912C0250913C
:102BD0002D02CA01B9010E94CB33698B7A8B8B8B92
:102BE0009C8B1092180210921702DF91CF910895DA
:102BF0002F923F924F925F926F927F928F929F920D
:102C0000AF92BF92CF92DF92EF92FF920F931F93FA
:102C1000DF93CF93CDB7DEB7A9970FB6F894DEBF99
:102C20000FBECDBF8091410535C5809117029091AF
:102C30001802892B09F046C20E943622909318028E
:102C400080931702892B09F42EC580911C028823DA
:102C500019F010921C028CC080911B028F5F809330
:102C60001B02863011F410921B02E0911B0221E13D
:102C7000E29FF0011124E25BFE4FF0931A02E09311
:102C800019020091170210911802D80111962D9186
:102C90003D914D915C9114972183328343835483FA
:102CA00015962D913D914D915C9118972583368312
:102CB0004783508719962D913D914D915C911C97BA
:102CC00021873287438754878C9180831D966D912D
:102CD0007D918D919C915097658776878787908BA2
:102CE0000E948D316093210270932202809323020F
:102CF00090932402F80125A136A147A150A50E9476
:102D0000F23060931D0270931E0280931F02909315
:102D10002002809141058430E1F42091320230910B
:102D20003302409134025091350220932A023093AD
:102D30002B0240932C0250932D02CA01B9010E942C
:102D4000CB33D80151966D937D938D939C9354977B
:102D50000FC0F80161897289838994890E9458346F
:102D600060932A0270932B0280932C0290932D0281
:102D700080E090E0A0E0B0E08093260290932702EC
:102D8000A0932802B0932902A0911702B0911802D3
:102D9000B9A7A8A791962D903D904D905C909497DF
:102DA00060E070E080E09FE3A20191010E94F230B8
:102DB0006CA37DA38EA39FA380914105843009F06D
:102DC0005FC0B2E0B0932502E8A5F9A561887288DA
:102DD000838894886CA17DA18EA19FA1A4019301F9
:102DE0000E94CB337B018C01A8A5B9A59596AD9027
:102DF000BD90CD90DC909897A60195010E94EB3094
:102E000088230CF580E090E0A0E0B0E080933202EF
:102E100090933302A0933402B0933502A8A5B9A5CC
:102E200095966D917D918D919C919897A8019701B0
:102E30000E9411306093260270932702809328022B
:102E4000909329023FC1C201B10120E030E040E08F
:102E500050EC0E94CB33A60195010E94CB339B011D
:102E6000AC01C401B3010E9412300E945834609337
:102E7000320270933302809334029093350222C160
:102E800010922502E8A5F9A585A196A1A7A1B0A554
:102E90008093360290933702A0933802B0933902A0
:102EA0000E94AA235B016C0160933202709333028B
:102EB0008093340290933502A60195010E94CB3392
:102EC0003B014C01209117023091180239A728A725
:102ED000D90195962D903D904D905C909897519684
:102EE0006D917D918D919C915497A40193010E94C5
:102EF00011309B01AC016CA17DA18EA19FA10E940C
:102F0000CB339B01AC01C201B1010E94123020E021
:102F100030E040E05FE30E94CB337B018C0120E096
:102F200030E040E050E00E94F93218160CF0B6C0D4
:102F3000C801B701A20191010E94EB3088230CF077
:102F400099C0E8A5F9A5658D768D878D90A1A4011E
:102F500093010E9411309B01AC016CA17DA18EA157
:102F60009FA10E94CB3360933A0270933B028093FF
:102F70003C0290933D02A80197010E94EB30882308
:102F80000CF049C0A8A5B9A55D96ED90FD900D91F6
:102F90001C919097C801B7010E94583460932E028B
:102FA00070932F028093300290933102E8A5F9A527
:102FB000A188B288C388D488C601B501A801970149
:102FC0000E94EB30882321F4F1E0F09325027AC0CF
:102FD000C801B701A60195010E9411309B01AC0107
:102FE0006CA17DA18EA19FA10E94CB339B01AC015E
:102FF00060913602709137028091380290913902C7
:103000000E94113060933602709337028093380229
:103010009093390257C0E0923602F0923702009343
:10302000380210933902E0923A02F0923B02009388
:103030003C0210933D02A8A5B9A591962D913D9112
:103040004D915C919497CA01B9010E941230A80178
:1030500097010E94CB33A40193010E9412300E9479
:10306000583460932E0270932F0280933002909315
:10307000310228C0B2E0B093250280912A029091DB
:103080002B02A0912C02B0912D0280932E029093DE
:103090002F02A0933002B093310214C080E090E080
:1030A000A0E0B0E08093360290933702A0933802FC
:1030B000B0933902A0922E02B0922F02C092300239
:1030C000D092310280911402BAE08B9FD00111247A
:1030D000AC54BE4FB9A7A8A780911B0211968C9340
:1030E000E0911702F0911802FA8FE98F85A196A15D
:1030F000A7A1B0A58D8B9E8BAF8BB88F8091360228
:1031000090913702A0913802B0913902898B9A8B45
:10311000AB8BBC8B80912E0290912F02A09130023C
:10312000B09131028D879E87AF87B88B80913A022C
:1031300090913B02A0913C02B0913D0289879A8711
:10314000AB87BC878091260290912702A09128022C
:10315000B09129028D839E83AF83B887809132021C
:1031600090913302A0913402B091350289839A8301
:10317000AB83BC8380912A0290912B02A0912C02F8
:10318000B0912D028C8F9D8FAE8FBF8F90912502B5
:103190009B8FAD88BE88CF88D88C80E090E0A0E07F
:1031A000B0E088A399A3AAA3BBA30F2EF4EB2F2E04
:1031B000F2EA3F2EF1E14F2EF9E35F2EF02D9B8DC9
:1031C000992321F0913009F0B5C082C0A98DBA8D44
:1031D00091966D917D918D919C91949724EB32EA1B
:1031E00041E159E30E94CB337B018C0120E030E0C8
:1031F00040E05FE30E94CB339B01AC016C8D7D8D81
:103200008E8D9F8D0E94123024EB32EA41E159EB02
:103210000E94CB339B01AC01C601B5010E94123064
:103220005B016C0129893A894B895C890E94EB30EA
:1032300088230CF040C069897A898B899C8929850B
:103240003A854B855C850E94EB30882319F4B2E007
:10325000BB8F02C0E1E0EB8F6D897E898F89988DED
:1032600029893A894B895C890E9411309B01AC0104
:103270000E9412307B018C016C8D7D8D8E8D9F8D17
:103280002D853E854F8558890E9412309B01AC01E7
:10329000C801B7010E94F2301B012C01A988BA882D
:1032A000CB88DC888D859E85AF85B8898C8F9D8F76
:1032B000AE8FBF8FB0C06C8D7D8D8E8D9F8DA80120
:1032C00097010E9412306C8F7D8F8E8F9F8FA3C0CD
:1032D0006D857E858F859889A20191010E94CB33EF
:1032E0009B01AC01C601B5010E9411307B018C012C
:1032F00029853A854B855C850E94EB3087FD03C0AC
:103300005701680188C0C601B50129853A854B85FA
:103310005C850E9411302D853E854F8558890E941D
:10332000F2301B012C01A984BA84CB84DC8492E0A6
:103330009B8F71C0C201B101A98DBA8D91962D915B
:103340003D914D915C9194970E94CB337B018C0110
:103350006C8D7D8D8E8D9F8DA80197010E94F93215
:103360001816ACF5C801B70120E030E040E05FEB93
:103370000E94CB339B01AC016C8D7D8D8E8D9F8D1A
:103380000E9412309B01AC01C201B1010E94CB33FB
:103390009B01AC01C601B5010E9411303B014C01FB
:1033A0002D813E814F8158850E94F93218167CF498
:1033B0006C8D7D8D8E8D9F8DA80197010E9411309F
:1033C0006C8F7D8F8E8F9F8F6401530124C0C60147
:1033D000B5012D813E814F8158850E9411309B019E
:1033E000AC010E9412307B018C016C8D7D8D8E8D25
:1033F0009F8D29813A814B815C810E9412309B0113
:10340000AC01C801B7010E94F2301B012C01AD8054
:10341000BE80CF80D88468A179A18AA19BA1A20196
:1034200091010E94123068A379A38AA39BA324EB85
:1034300032EA41E159E30E94EB3087FF17C0C60131
:10344000B5012D813E814F8158850E94F9321816B1
:103450006CF464EB72EA81E199E328A139A14AA1F5
:103460005BA10E9411301B012C01A9CE8C8D9D8D7A
:10347000AE8DBF8D80932A0290932B02A0932C02D5
:10348000B0932D029B8D9093250269E37EE883E63D
:103490009DE328A139A14AA15BA10E94F2303B0122
:1034A0004C01C601B50120E030E040E050E00E9450
:1034B000F93218160CF098C0C601B50120911D0212
:1034C00030911E0240911F02509120020E94CB3386
:1034D0001B012C01E0902102F090220200912302B6
:1034E00010912402C801B701A20191010E9411307C
:1034F000A40193010E94CB330E94D8300E945A311C
:10350000A8A5B9A516966D937D938D939C93199755
:10351000C201B1010E94D8303B014C01A2019101CE
:103520000E94113020E030E543EC57E40E94CB3399
:103530000E94D8300E945A31E8A5F9A562837383AE
:1035400084839583C801B7010E94D830A4019301F8
:103550000E9411300E945F31A8A5B9A56C93C601E5
:10356000B5012D813E814F8158850E94EB30882323
:1035700061F580E090E0A0E0B0E080932A029093B3
:103580002B02A0932C02B0932D0260922102709224
:10359000220280922302909224020091170210913D
:1035A0001802C401B30120911D0230911E02409106
:1035B0001F02509120020E94F230D80195966D931F
:1035C0007D938D939C93989751C0E98DFA8DA5A218
:1035D000B6A2C7A2D0A62092210230922202409227
:1035E00023025092240247C0E0902102F090220270
:1035F0000091230210912402C801B701A401930194
:103600000E94CB330E94D8300E945A31A8A5B9A598
:1036100016966D937D938D939C931997FD0112825D
:10362000138214821582C801B7010E94D8300E940B
:103630005F31A8A5B9A56C931092180210921702D9
:103640000E942222809141058430A9F460912A02CF
:1036500070912B0280912C0290912D0220E030E09D
:1036600040E050E00E94EB30882329F40E94A1231F
:10367000B2E0B093410580911502809314028F5FF0
:1036800080931502873011F4109215028091410544
:10369000853049F0823039F0909113028091150203
:1036A000981709F0C2CAA9960FB6F894DEBF0FBEEC
:1036B000CDBFCF91DF911F910F91FF90EF90DF90E1
:1036C000CF90BF90AF909F908F907F906F905F90C2
:1036D0004F903F902F900895CF93DF9380914105B5
:1036E000833021F584E080934105C0911702D09189
:1036F00018022097B9F081E080931C0220912A02E1
:1037000030912B0240912C0250912D02CA01B90137
:103710000E94CB33698B7A8B8B8B9C8B1092180217
:10372000109217020E94F81510925005DF91CF9168
:10373000089580914105823039F483E080934105FA
:103740000E94F8150E948E15089583E2EBE1F2E0E5
:10375000DF011D928A95E9F789E1EAEFF1E0DF01E7
:103760001D928A95E9F7109212021092110210929E
:10377000180210921702109213021092140281E0A4
:1037800080931502109216020895809170008D7F2B
:10379000809370001092B1001092160290918C06E6
:1037A0009F3F21F48091420585FF0BC0892F90E057
:1037B0000E94DE268091960682FF02C02898089516
:1037C000289A08958AB18C6F8AB98BB183709091D1
:1037D0008B06892B8BB9209AE0E7F0E080818D7F02
:1037E00080831092B1001092B20082E08093B0000A
:1037F00081E48093B300EEE6F0E080818E7F8083E9
:1038000014BC15BC8081816080830E948E150E944B
:10381000C51B08951F920F920FB60F9211242F937C
:103820003F934F935F936F937F938F939F93AF9348
:10383000BF93CF93DF93EF93FF938091160288237A
:1038400009F0E7C180910A02882369F010920A0208
:103850008BB1837090910C02892B8BB980910B02F4
:1038600086BD82E085BD81E08093160278948091C8
:10387000110290911202892B09F062C090911302FB
:1038800080911402891709F453C0E09113028AE071
:10389000E89FF0011124EC54FE4FF0931202E093E4
:1038A0001102808180930D02918180910E0289170F
:1038B00009F446C090930E02E1E19E9FF0011124AD
:1038C000E25BFE4FF0931002E0930F0280918B06B3
:1038D0009081892780930C0281E080930A0285857C
:1038E0009685A785B089B595A79597958795809377
:1038F000FA019093FB01A093FC01B093FD0180932A
:10390000FE019093FF01A0930002B0930102809307
:10391000020290930302A0930402B0930502109256
:10392000060210920702109208021092090208C0C3
:103930000E94C51B8091420584608093420569C145
:10394000C0911102D09112022E813F814885598584
:103950008091060290910702A0910802B09109029D
:10396000280F391F4A1F5B1F20930602309307025E
:103970004093080250930902213A86E8380781E013
:10398000480780E058070CF41EC180910D0288237F
:1039900009F419C1205A364841405040209306028C
:1039A000309307024093080250930902815080939C
:1039B0000D0281E080930A02E0910F02F091100263
:1039C000208120930C024091FA015091FB016091FB
:1039D000FC017091FD0181819281A381B481481B1A
:1039E000590B6A0B7B0B4093FA015093FB016093D8
:1039F000FC017093FD0177FF34C0246020930C021A
:103A000085859685A785B089480F591F6A1F7B1F3A
:103A10004093FA015093FB016093FC017093FD0108
:103A200025FF0CC08091440590914505A091460565
:103A3000B09147050197A109B1090BC080914405D8
:103A400090914505A0914605B09147050196A11DAD
:103A5000B11D8093440590934505A0934605B0930E
:103A600047054091FE015091FF0160910002709165
:103A7000010285819681A781B085481B590B6A0B8D
:103A80007B0B4093FE015093FF0160930002709303
:103A9000010277FF36C020910C02286020930C02AF
:103AA00085859685A785B089480F591F6A1F7B1F9A
:103AB0004093FE015093FF01609300027093010256
:103AC00026FF0CC08091480590914905A0914A05B8
:103AD000B0914B050197A109B1090BC08091480530
:103AE00090914905A0914A05B0914B050196A11D01
:103AF000B11D8093480590934905A0934A05B09362
:103B00004B054091020250910302609104027091B2
:103B1000050281859285A385B485481B590B6A0BE4
:103B20007B0B409302025093030260930402709354
:103B3000050277FF36C020910C02206120930C0211
:103B400085859685A785B089480F591F6A1F7B1FF9
:103B500040930202509303026093040270930502A3
:103B600027FF0CC080914C0590914D05A0914E050A
:103B7000B0914F050197A109B1090BC080914C0587
:103B800090914D05A0914E05B0914F050196A11D54
:103B9000B11D80934C0590934D05A0934E05B093B5
:103BA0004F0580914105853039F48091430590910E
:103BB0000C02892380930C0280918B0690910C0259
:103BC000892780930C0280910D02882301F52091B2
:103BD00006023091070240910802509109028A8141
:103BE0009B81AC81BD8182179307A407B5077CF444
:103BF0001092120210921102809113028F5F809333
:103C0000130280911302873011F410921302109264
:103C10001602FF91EF91DF91CF91BF91AF919F91EC
:103C20008F917F916F915F914F913F912F910F9065
:103C30000FBE0F901F901895F999FECF92BD81BDD0
:103C400081E08FBB80B50895F894F999FECF92BDBD
:103C500081BD81E08FBB40B54627842F992787FD22
:103C60009095262F30E082239323892B39F06F3FE4
:103C700019F060BD84E006C084E104C0442321F053
:103C800060BD84E28FBBF99A789408958F929F92D9
:103C9000AF92BF92CF92DF92EF92FF920F93DF939A
:103CA000CF9300D0CDB7DEB75C016B017A014A013A
:103CB00000E01EC0002319F021E030E008C0202FF2
:103CC000332727FD30952227330F221F3327F60194
:103CD00061916F01062F020F9C012F5F3F4F3A83C6
:103CE00029830E94241E08948108910889819A8161
:103CF00081149104F9F6C7018A0D9B1D602F0E9463
:103D0000241E0F900F90CF91DF910F91FF90EF90B5
:103D1000DF90CF90BF90AF909F908F900895CF93FA
:103D2000DF93EC01FB019A0190E0B1E019C0F99931
:103D3000FECFF2BDE1BDBFBBA0B5992319F081E074
:103D400090E008C0892F992787FD90958827990FC3
:103D5000881F992731969A2F980FA99321503040A8
:103D60002115310521F7460F571FF999FECF52BD96
:103D700041BD81E08FBB80B520E030E0981711F4A1
:103D800021E030E0C901DF91CF91089580E090E01B
:103D900068E30E94241E81E090E066E576E040E55D
:103DA00050E00E94461E0895EF92FF920F931F93DA
:103DB000CF93DF93EC017A018B01FC018E319105E9
:103DC00040F4EC5CFF4FEE0FFF1F0590F491E02DE7
:103DD000099486E090C1CB01BA0120E030E040E0D8
:103DE00050E00E94EB30181614F088E084C1CC0F2C
:103DF000DD1FCC0FDD1FCA5AD94FE882F9820A8332
:103E00001B8376C1409362065093630660936406F9
:103E1000709365066DC14093660650936706609384
:103E200068067093690664C140936A0650936B06F6
:103E300060936C0670936D065BC1CB01BA0120E004
:103E400030E040E752E40E94CB3320E030E040E72E
:103E500052E40E94CB3360936E0670936F0680939A
:103E600070069093710644C1CB01BA0120E030E0A6
:103E700040E752E40E94CB3320E030E040E752E4D8
:103E80000E94CB336093720670937306809374061E
:103E9000909375062DC1CB01BA0120E030E040E7D8
:103EA00052E40E94CB3320E030E040E752E40E942D
:103EB000CB33609376067093770680937806909361
:103EC000790616C1DB01CA01B05880937A06909337
:103ED0007B06A0937C06B0937D060AC1DB01CA0174
:103EE000B05880937E0690937F06A0938006B0938F
:103EF0008106FEC0DB01CA01B05880938206909310
:103F00008306A0938406B0938506F2C0CB01BA0164
:103F100020E030E040E450E40E94EB30882314F4C9
:103F200089E0E9C0C801B7010E942E340E945F31C8
:103F300060938606DDC040938706509388066093A1
:103F4000890670938A06D4C0CB01BA010E94A534B9
:103F50000E945F3160938B06CBC0CB01BA010E94F7
:103F60002E340E945F3160938C06C2C0DB01CA010F
:103F7000BF7780938D0690938E06A0938F06B093A3
:103F80009006B6C0409391065093920660939306B4
:103F900070939406ADC0CB01BA010E942E340E94EA
:103FA0005F3160939506A4C0CB01BA0120E030E0F8
:103FB00040E050E00E94EB30882321F0809196068B
:103FC000816011C0809196068E7F0DC0CB01BA0131
:103FD00020E030E040E050E00E94EB30882331F0F8
:103FE0008091960682608093960682C080919606A4
:103FF0008D7FF9CFCB01BA0120E030E040E050E006
:104000000E94EB30882321F0809196068460EBCFEC
:10401000809196068B7FE7CFCB01BA0120E030E09C
:1040200040E050E00E94EB30882341F080919606FA
:1040300084FD02C08DE05FC08062D5CF809196067E
:104040008F7DD1CFCB01BA0120E030E040E050E0DD
:104050000E94EB30882321F080919606886003C08F
:1040600080919606877F809396060E94B22740C073
:10407000CB01BA0120E030E040E050E00E94EB309C
:10408000882321F0809196068061ADCF80919606BD
:104090008F7CA9CFCB01BA010E94A5340E945F3169
:1040A0006093970625C040939806509399066093B5
:1040B0009A0670939B061CC040939C0650939D06E5
:1040C00060939E0670939F0613C0CB01BA010E94B5
:1040D0002E340E945F317093A1066093A00608C041
:1040E0004093A2065093A3066093A4067093A5067E
:1040F0000E94C61E80E0DF91CF911F910F91FF902B
:10410000EF900895882309F47EC086EF9AE7ADE921
:10411000B3E48093560690935706A0935806B09345
:10412000590680935A0690935B06A0935C06B09361
:104130005D0680935E0690935F06A0936006B09341
:1041400061068AE08093860680E090E0AEE7B3E403
:104150008093870690938806A0938906B0938A0679
:1041600080E090ECAEE1B4E4809362069093630645
:10417000A0936406B09365068093660690936706E5
:10418000A0936806B093690680936A0690936B06C5
:10419000A0936C06B0936D0680E098ECAFE2B8E4B3
:1041A00080936E0690936F06A0937006B09371068D
:1041B0008093720690937306A0937406B09375066D
:1041C0008093760690937706A0937806B09379064D
:1041D0008AE097EDA3EABBE3809391069093920661
:1041E000A0939306B093940680EC80938B068AE0AC
:1041F00097EDA3EABCE380938D0690938E06A0937F
:104200008F06B093900682E08093960610929706F0
:1042100080E090E0A8E4B2E4809398069093990639
:10422000A0939A06B0939B0680E090E0AAEFB3E4D7
:1042300080939C0690939D06A0939E06B0939F0644
:104240008AEF90E09093A1068093A00680E090E032
:10425000A0E8BFE38093A2069093A306A093A406D0
:10426000B093A50689E180938C0683E08093950640
:1042700080E090E0A1E6B3EC80937A0690937B0611
:10428000A0937C06B0937D0680E090E0AAEFB2ECAC
:1042900080937E0690937F06A0938006B09381065C
:1042A00080E090E0AAE2B3EC8093820690938306CC
:1042B000A0938406B09385060E94C61E089580E0F0
:1042C00090E00E941C1E883379F486E596E061E058
:1042D00070E040E550E00E948F1E20E0892B09F439
:1042E00021E081E0282712C0853078F486E596E049
:1042F00061E070E04FE150E00E948F1E892B29F0B1
:1043000080E00E94822021E001C020E0822F0895F9
:104310009DE0899FC001112480509E4F4CE050E0E9
:104320000E94461E08950F931F93CF93DF93162F7D
:10433000072F9DE0899FE0011124C050DE4F862F9A
:10434000972FBE014CE050E00E948F1E892B11F088
:1043500081E00FC0E12FF02F8CE0DF011D928A95E4
:10436000E9F7CE01612F702F4CE050E00E94461E0D
:1043700080E0DF91CF911F910F910895EF92FF920E
:104380001F93DF93CF93CDB7DEB72C970FB6F8947A
:10439000DEBF0FBECDBF0E945F21882341F48AE0BB
:1043A0000E94182B81E00E9482200E941E2E10E0A5
:1043B0007E010894E11CF11C812FB7010E9493211A
:1043C000882319F48AE00E94182B1F5F1830A1F788
:1043D0002C960FB6F894DEBF0FBECDBFCF91DF9104
:1043E0001F91FF90EF90089597E4899FC0011124D9
:1043F00080509D4F46E450E00E94461E08950F9362
:104400001F93CF93DF938B0197E4899FE0011124E1
:10441000C050DD4FCB01BE0146E450E00E948F1E2C
:10442000892B11F081E009C0F8011082CE01B8019A
:1044300046E450E00E94461E80E0DF91CF911F913C
:104440000F9108952091200580912105821769F030
:10445000922F9F5F923109F490E0809123052817F5
:1044600011F49093230590932005089590912005D1
:1044700080912105891719F420E030E006C089E217
:10448000989F90011124225C3D4FC901089520E0BE
:104490009091200580912205981709F421E0822F40
:1044A00008958091440590914505A0914605B091ED
:1044B00047058093240590932505A0932605B09386
:1044C00027058091480590914905A0914A05B09132
:1044D0004B058093280590932905A0932A05B09356
:1044E0002B0580914C0590914D05A0914E05B09102
:1044F0004F0580932C0590932D05A0932E05B09326
:104500002F0508954F925F926F927F928F929F92A4
:10451000AF92BF92CF92DF92EF92FF920F931F93D1
:10452000CF93DF9380912105882309F482E1782ECF
:104530007A9460902305761409F4F2C089E2789E9B
:10454000400111248EE392E0880E991EF401A588A3
:10455000B688C788D08C21A132A143A154A1CA0139
:10456000B9010E941230F40125A136A147A150A53E
:104570000E94CB337B018C01B501C601A8019701D4
:104580000E94EB3087FD04C0D801C70157016D01BF
:10459000C501D601F401818B928BA38BB48B77205C
:1045A00011F432E1732E7A94761409F04EC08091A2
:1045B0002005681609F050C00E94D6154DC0769CA3
:1045C000E0011124C25CDD4F772011F422E1722E4C
:1045D0007A9480912005781611F40E94D615AD8842
:1045E000BE88CF88D88C69897A898B899C89A601F5
:1045F00095010E94EB30882331F129A13AA14BA10A
:104600005CA1CA01B9010E9412302DA13EA14FA1A7
:1046100058A50E94CB33F4012189328943895489FA
:104620000E9412307B018C01A60195010E94EB30A3
:1046300088232CF4E98AFA8A0B8B1C8B04C0A98A84
:10464000BA8ACB8ADC8A4E0102C099E2692E809137
:104650002305781609F0B3CFA0902305BA2CB394A4
:10466000F2E1BF1609F4BB2489E2A89E800111245F
:10467000025C1D4F5090210589E2482E4CC0B49C2D
:10468000E0011124C25CDD4FF801C188D288E388C3
:10469000F48869887A888B889C88C701B601A40150
:1046A00093010E94EB3088231CF5F80121A132A16F
:1046B00043A154A1CA01B9010E941230F80125A1F9
:1046C00036A147A150A50E94CB339B01AC01C70185
:1046D000B6010E9412307B018C01A40193010E945B
:1046E000EB3088232CF4E98AFA8A0B8B1C8BAB2CD9
:1046F00069897A898B899C892D893E894F89588D52
:104700000E94EB30882309F4AB2CB394F2E1BF167E
:1047100009F4BB248E01B51409F0B1CFA092230592
:10472000DF91CF911F910F91FF90EF90DF90CF908D
:10473000BF90AF909F908F907F906F905F904F90C1
:1047400008950E94D61580912005809323050E942C
:1047500082220895209120052F5F223109F420E064
:1047600080912105281729F460E070E080E090E056
:1047700012C030E089E290E0289FF001299FF00DFF
:10478000389FF00D1124E25CFD4F618972898389A5
:1047900094890E94583408952F923F924F925F92CD
:1047A0006F927F928F929F92AF92BF92CF92DF9241
:1047B000EF92FF920F931F93DF93CF93CDB7DEB7A6
:1047C000E0970FB6F894DEBF0FBECDBF98A78FA3BA
:1047D00049A75AA76BA77CA7222E9091210589E2B1
:1047E000989F400111242EE332E0820E931ED401E3
:1047F0001D961D921D921D921C92509780E090E094
:10480000A0E0B0E0F40185A396A3A7A3B0A710820F
:1048100089E996E7A6E9BEE781A392A3A3A3B4A37F
:104820002401332466247724F301EA5AF94FA08047
:10483000B180C280D380EFA1F8A5E60DF71DC601B7
:10484000B50120813181428153810E94CB330E9486
:104850009B339B01AC01E1E0F0E0EC0FFD1FE60DA6
:10486000F71D2083318342835383F301EC5DFA4FBC
:1048700080819181A281B381281B390B4A0B5B0B8C
:10488000DA01C90157FF07C088279927DC01821B7D
:10489000930BA40BB50BF20181839283A383B483A2
:1048A000F401E584F684078510898E159F05A0071D
:1048B000B10714F4D801C701F40185879687A7874B
:1048C000B08BCA01B9010E948D31A60195010E94E9
:1048D000F2305B016C01EDE0F0E0EC0FFD1FE60D46
:1048E000F71D608371838283938320E030E040E092
:1048F00050E00E94EB30882344F4D4011C91832DB6
:104900000E94E826182BF4011083D4019596ED90AF
:10491000FD900D911C919897C601B501A6019501D6
:104920000E94CB339B01AC01C801B7010E94123039
:104930007B018C01CB01D801F40185A396A3A7A329
:10494000B0A7339424E030E0620E731E420E531E73
:1049500033E0331609F068CFB701C8010E9458341C
:104960007B018C01D40195966D937D938D939C93DF
:1049700098971D968D919D910D90BC91A02D0097BB
:10498000A105B10509F4D5C169A57AA58BA59CA59A
:1049900020E030E040E050E00E94EB3088234CF40F
:1049A00089E996E7A6E9BEE789A79AA7ABA7BCA7BE
:1049B0000EC0222061F0C801B70129A53AA54BA578
:1049C0005CA50E94F23069A77AA78BA79CA760E03C
:1049D00070E080E89FE3A80197010E94F2306BA38A
:1049E0007CA38DA39EA3DE011D96BE8FAD8FE0E359
:1049F000F5E0FC8FEB8F22E636E03A8F298F80E0DE
:104A000090E0A0E0B0E08F8F98A3A9A3BAA3DE0145
:104A10005996B8ABAFA7ED8DFE8DE080F180028195
:104A20001381C801B70120E030E040E050E00E946F
:104A3000EB30882309F47CC0C801B7012BA13CA14D
:104A40004DA15EA10E94CB332B013C01AD8DBE8DEB
:104A50006D937D938D939C93139760E070E080E855
:104A60009FE3A30192010E94F2305B016C01E89484
:104A7000D7F8C601B501E98DFA8D208131814281D7
:104A800053810E94CB337B018C0169A57AA58BA54C
:104A90009CA5A80197010E94EB3087FD04C0E9A600
:104AA000FAA60BA71CA7D4019196BC91BDA7F4014F
:104AB000F2A1FEA7D40193962C90939794963C90E4
:104AC000C601B501E98DFA8D248535854685578562
:104AD0000E94CB337B018C016DA57EA5C101A8018D
:104AE00097010E94EB3087FD05C0D801C701EDA6F4
:104AF0009EA71D018DA59EA5D101F40181A392A3BE
:104B0000A3A3B4A3C301B201AB8DBC8D2D913D9184
:104B10004D915C910E94CB339B01AC016F8D78A1CC
:104B200089A19AA10E9411306F8F78A389A39AA3BB
:104B3000ED8DFE8D3496FE8FED8F2B8D3C8D2C5F91
:104B40003F4F3C8F2B8F898D9A8D04969A8F898F3A
:104B5000AFA5B8A9EA17FB0709F05DCF9091210531
:104B600080912005981771F480E090E0A0E0B0E01B
:104B7000F401818B928BA38BB48B818F928FA38F47
:104B8000B48F52C060E070E080E89FE32F8D38A1C1
:104B900049A15AA10E94113020E030E040E05FE3DB
:104BA0000E94CB330E9458345B016C01D401919672
:104BB0006D917D918D919C91949720918D0630916E
:104BC0008E0640918F06509190060E94CB33A6012D
:104BD00095010E94CB337B018C0160E070E080E89E
:104BE0009FE3A60195010E9411309B01AC01C80111
:104BF000B7010E94F2307B018C0120E030E040E000
:104C000050E00E94EB30882354F40F2EF0E0EF2E9A
:104C1000F0E0FF2EF0E00F2FF0E01F2FF02DF40159
:104C2000E18EF28E038F148F69A57AA58BA59CA5C2
:104C30009B01AC010E94CB337B018C01D4015D96BA
:104C40006D937D938D939C93909759965C90599713
:104C50005A964C905A975B963C905B975C962C903A
:104C6000D0903C05C0903D05B0903E05A0903F051A
:104C70002D2D3C2D4B2D5A2D0E94EB3087FD04C06D
:104C80006D2C7C2CF50105C0D801C7013701FA2F26
:104C9000EB2F652D742D832D922D93014F2F5E2FB9
:104CA0000E94EB3088232CF4852D942DA32DB22D5A
:104CB0000EC0C801B7012D2D3C2D4B2D5A2D0E9441
:104CC000EB3087FD06C08D2D9C2DAB2DBA2D7C01C0
:104CD0008D01F401E58AF68A078B108FA0E3B5E019
:104CE000FE013D968CE001900D928150E1F7F401B8
:104CF000858D968DA78DB0A180933C0590933D0541
:104D0000A0933E05B0933F05A4E2B5E0FE013196C5
:104D10008CE001900D928150E1F780912205809303
:104D200021058F5F823109F480E0809322050E9483
:104D30008222E0960FB6F894DEBF0FBECDBFCF91B2
:104D4000DF911F910F91FF90EF90DF90CF90BF9078
:104D5000AF909F908F907F906F905F904F903F901B
:104D60002F9008951F9319E206C00E945913809155
:104D70004005882381F490912005809121058917B1
:104D800031F0919FC0011124825C9D4F71F7809199
:104D90004105833051F31F9108958CE1E4E2F5E081
:104DA000DF011D928A95E9F71092200510922105E6
:104DB00081E08093220510922305089520EA3FE0C8
:104DC00004C0F9013197F1F701970097D1F70895E1
:104DD000813049F0813018F0823019F406C080E249
:104DE000089580E0089580E4089580E808956F9222
:104DF0007F928F929F92AF92BF92CF92DF92EF926B
:104E0000FF920F931F93CF93DF934C013B015A0105
:104E1000FB018081F401E80FF11DEF0189918D32D2
:104E200029F481812196CC24C39405C08B3211F4DE
:104E300081812196CC2420E030E040E050E0DD2468
:104E4000E0E070E0682F60536A30F8F4EF5FE9301B
:104E5000C0F47111DA94DA01C901F2E0880F991FE8
:104E6000AA1FBB1FFA95D1F7280F391F4A1F5B1FD6
:104E7000220F331F441F551F260F311D411D511D89
:104E800009C0772339F4D39405C06E3F29F4772302
:104E900019F471E08991D6CFEE2319F420E030E0C7
:104EA00051C0CA01B9010E948B317B018C0120E005
:104EB00030E040E050E00E94EB30882369F42BC0E2
:104EC000C801B7012AE037ED43E25CE30E94CB332F
:104ED0007B018C01F2E0DF0E8FEFD8168CF3D81631
:104EE00059F4C801B7012DEC3CEC4CEC5DE30E9499
:104EF000CB337B018C010FC0DD2069F0C801B70105
:104F000020E030E040E251E40E94CB337B018C0191
:104F1000DA941D149CF3CC2049F0D801C701B05895
:104F2000F50180839183A283B38305C0F501E082FC
:104F3000F18202831383882D80958C0FF301808387
:104F400021E030E0C901DF91CF911F910F91FF90D7
:104F5000EF90DF90CF90BF90AF909F908F907F9019
:104F60006F90089584B1817F84B985B18E6085B9D1
:104F70008091960683FF09C080916B008E608093BC
:104F80006B0080916800816008C080916B00817F18
:104F900080936B00809168008E7F809368000895F5
:104FA000CF92DF92EF92FF920F931F93CF93DF93F5
:104FB0006C01C0E0D0E0F601EC0FFD1FE080F18055
:104FC00002811381C801B70120E030E040E050E0E9
:104FD0000E94F93218166CF0FE01EA5AF94FC80126
:104FE000B70124A135A146A157A10E94EB30882327
:104FF000DCF480914105833069F40E946C1B06C08B
:105000000E94591380914005882391F480914105B5
:105010008430B1F30E9476048091420580648093CD
:1050200042050E94591304C02496CC30D10519F6CC
:10503000DF91CF911F910F91FF90EF90DF90CF9074
:1050400008951F920F920FB60F9211242F933F9342
:105050004F935F936F937F938F939F93AF93BF9380
:10506000EF93FF9380914105863059F0809142057E
:1050700085FD07C00E94760480914205806480937C
:105080004205FF91EF91BF91AF919F918F917F91D9
:105090006F915F914F913F912F910F900FBE0F90A5
:1050A0001F9018957F928F929F92AF92BF92CF924E
:1050B000DF92EF92FF920F931F93DF93CF93CDB7C1
:1050C000DEB72C970FB6F894DEBF0FBECDBF882E8B
:1050D000962E742E580169018091420584FDA1C06D
:1050E00060917A0670917B0680917C0690917D0696
:1050F00069837A838B839C83E0907E06F0907F06A1
:105100000091800610918106A80197010E94EB3062
:10511000882324F4E982FA820B831C83E0908206C0
:10512000F0908306009184061091850669817A814A
:105130008B819C81A80197010E94EB30882324F485
:10514000E982FA820B831C8329813A814B815C813D
:10515000CA01B9010E94123069837A838B839C83D0
:10516000992039F0DC01CB01B05889839A83AB8355
:10517000BC8329813A814B815C81882D80FC02C0EF
:1051800010EE01C014EE81FD186082FD10611093D5
:10519000430529873A874B875C872D833E834F835E
:1051A0005887C601B5012DE232EB4DED5FE30E9459
:1051B000CB33AB01BC01CE01019620E00E94CC2391
:1051C0000E94F8150E948E150EE018C083B177205A
:1051D00009F4802722FF02C081FD1B7F13FF02C05C
:1051E00082FD177F14FF02C083FD1F7E10934305CD
:1051F0000E94F8158091420584FD13C0212F30E0F4
:10520000C9018C719070892B09F70E94C51B0E94FF
:10521000CD260E94A51B8091A0069091A1060E9418
:10522000DE262C960FB6F894DEBF0FBECDBFCF9111
:10523000DF911F910F91FF90EF90DF90CF90BF9083
:10524000AF909F908F907F900895FF920F931F9340
:105250000E94CD2600919C0610919D0620919E06ED
:1052600030919F0684E061E040E00E945228009166
:105270009C0610919D0620919E0630919F0683E02A
:1052800061E040E00E94522882E0F82EFA940091FA
:1052900098061091990620919A0630919B0687E016
:1052A00060E041E00E94522881E0F81671F400911C
:1052B00098061091990620919A0630919B0687E0F6
:1052C00061E040E00E945228E1CFFF20F9F61F91F3
:1052D0000F91FF9008958F929F92AF92BF92CF92BD
:1052E000DF92EF92FF920F931F93DF93CF93CDB78F
:1052F000DEB72A970FB6F894DEBF0FBECDBF7B0195
:105300008C0120E030E040E050E00E94EB30882348
:105310003CF48DE20E94691217FB109517F9109565
:10532000A0909506DA2C0CC0C801B70120E030E04F
:1053300048EC52E40E94CB337B018C018EEFD80EF7
:10534000E1E0ED1588F3A0FE0AC0C801B70120E036
:1053500030E040E251E40E94CB337B018C01C80174
:10536000B70120E030E040E05FE30E9412300E948D
:105370005A316B017C019E012F5F3F4FF901EA0D0D
:10538000F11D8EE28083BB2449011EC0BA1409F4CA
:10539000B39484010B0D111DC701B6012AE030E062
:1053A00040E050E00E94C434605DF8016083B39433
:1053B000C701B6012AE030E040E050E00E94C4346A
:1053C000C901DA016C017D01C114D104E104F104C9
:1053D000E9F606C0FC01EB0DF11D2083B39403C078
:1053E000CE01019620E3BA14A8F3BA1489F48B2DE8
:1053F0008F5FFE01E80FF11D90E39183B82EB39407
:1054000007C0FE01EB0DF11D80810E946912BA9464
:10541000BB20B9F72A960FB6F894DEBF0FBECDBFFA
:10542000CF91DF911F910F91FF90EF90DF90CF9080
:10543000BF90AF909F908F9008958F929F92AF9260
:10544000BF92CF92DF92EF92FF920F93DF93CF93B1
:10545000CDB7DEB72A970FB6F894DEBF0FBECDBF2B
:105460006B017C01611571058105910521F480E3D3
:105470000E9469122FC000E04E010894811C911C0B
:105480005401A00EB11CC701B6012AE030E040E093
:1054900050E00E94C434605DF50160830F5FC70176
:1054A000B6012AE030E040E050E00E94C434C90177
:1054B000DA016C017D01C114D104E104F10401F7AA
:1054C00007C0FE01E00FF11D80810E9469120150AA
:1054D0000023B9F72A960FB6F894DEBF0FBECDBFF2
:1054E000CF91DF910F91FF90EF90DF90CF90BF9021
:1054F000AF909F908F900895EF92FF920F931F931C
:105500007B018C0197FF0BC08DE20E946912109500
:105510000095F094E094E11CF11C011D111DC801DF
:10552000B7010E941D2A1F910F91FF90EF900895DF
:105530000F931F93DF93CF93CDB7DEB728970FB6A6
:10554000F894DEBF0FBECDBF982FFE0131969E01AD
:10555000275F3F4F892F817081939695E217F3075C
:10556000C9F78E01085F1F4FF8018081805D0E949E
:105570006912015010400C171D07B1F728960FB69D
:10558000F894DEBF0FBECDBFCF91DF911F910F9179
:105590000895CF93DF93EC0102C00E946912FE01CF
:1055A000219684918823C9F7DF91CF910895CF93F5
:1055B000DF93EC0103C021960E9469128881882341
:1055C000D1F7DF91CF9108958BE195E00E94C92A30
:1055D000089589E496E00E94C92A08951F93182F20
:1055E0008EEB96E00E94C92A133091F0143028F413
:1055F000113041F01230B1F408C0143061F01530B0
:1056000089F40CC08CEA96E00BC088E996E008C0EB
:1056100086E896E005C08EE796E002C085E796E052
:105620000E94C92A81E796E00E94C92A1F91089525
:105630001F93182F882319F48FEF97E054C087EF3A
:1056400097E00E94C92A173099F1183078F4133086
:1056500019F1143030F41130C9F0123009F041C0A2
:1056600018C01530F9F0163000F519C01B3061F183
:105670001C3028F4193011F11A3018F51CC01D30F7
:1056800049F11D3020F11E3061F527C085EE97E00D
:1056900026C08DEC97E023C087EB97E020C088EA16
:1056A00097E01DC082E997E01AC080E897E017C034
:1056B0008FE697E014C083E697E011C084E597E099
:1056C0000EC083E397E00BC084E297E008C089E155
:1056D00097E005C086E097E002C088EF96E00E9460
:1056E000C92A85EF96E00E94C92A1F910895AF92BA
:1056F000BF92CF92DF92EF92FF920F931F93DF93AF
:10570000CF93CDB7DEB768970FB6F894DEBF0FBE64
:10571000CDBFDE011196E4E4F5E08CE001900D923E
:105720008150E1F7809141058430C9F0853038F42B
:10573000823079F0833080F4882341F01DC08630B8
:10574000A1F0863078F08730B9F412C08AE291E097
:1057500011C083E291E00EC08EE191E00BC088E1C0
:1057600091E008C082E191E005C08BE091E002C0C9
:1057700084E091E00E94C92A8DEF90E00E94C92A3E
:105780008DE0E82EF12CEC0EFD1E670100E010E02C
:105790005E010894A11CB11CF501E00FF11F6081AE
:1057A0007181828193810E948D31F801EA5AF94F0B
:1057B00020813181428153810E94F2309B01AC01F2
:1057C000F60160837183828393838091960680FFC4
:1057D0000DC0CA01B9012BE832E441E25DE30E9449
:1057E000CB33F6016083718382839383F6016191E9
:1057F0007191819191916F010E946B298BEF90E0E3
:105800000E94C92A0C5F1F4F0C30110529F685EF45
:1058100090E00E94C92A0EE615E0DD2480919606EC
:1058200080FF1BC0F8016081718182819381248592
:105830003585468557850E9412302BE832E441E2D7
:105840005DEB0E94CB339B01AC01F701608171815C
:10585000828193810E94123014C0F80160817181AD
:105860008281938124853585468557850E94123033
:105870009B01AC01F70160817181828193810E945B
:105880001130F7016083718382839383F701608114
:105890007181828193810E946B29F2E0DF1621F0F1
:1058A00083EF90E00E94C92AD39484E090E0E80E50
:1058B000F91E0C5F1F4F93E0D91609F0AFCF8FEEA2
:1058C00090E00E94C92A68960FB6F894DEBF0FBE1A
:1058D000CDBFCF91DF911F910F91FF90EF90DF909F
:1058E000CF90BF90AF90089580915205823091F093
:1058F000833028F4882341F08130B1F408C083302C
:1059000061F0843089F40CC083EA91E00BC08FE928
:1059100091E008C08BE991E005C087E991E002C001
:1059200082E991E00E94C92A8FE891E00E94C92A89
:1059300060916D0570E06A5C7F4F882777FD8095E8
:10594000982F0E947C2A80916A05882351F48091C7
:105950006B05813019F48AE891E005C085E891E093
:1059600002C080E891E00E94C92A809154058823F2
:1059700019F08BE791E002C086E791E00E94C92A06
:1059800080915505882319F081E791E002C08CE6EB
:1059900091E00E94C92A80915305882319F087E677
:1059A00091E002C082E691E00E94C92A80915605EA
:1059B000813041F0813018F0823059F406C08EE514
:1059C00091E005C08AE591E002C086E591E00E9481
:1059D000C92A80915705882359F0813019F08F3FEB
:1059E00059F403C082E591E005C08EE491E002C065
:1059F0008AE491E00E94C92A80915805882319F011
:105A0000813041F403C086E491E002C082E491E079
:105A10000E94C92A8FE391E00E94C92A609169051A
:105A200070E080E090E00E947C2A8CE391E00E948C
:105A3000C92A80915405882379F0609159057091A5
:105A40005A0580915B0590915C052BE832E441E2B8
:105A50005DE30E94CB3308C06091590570915A05EF
:105A600080915B0590915C050E946B2988E391E031
:105A70000E94C92A0895CF92DF92EF92FF920F936E
:105A80001F93E82E6B0185E391E00E94C92AFF2451
:105A900000E010E0C801B7010E947C2A83E391E096
:105AA0000E94C92AC6010E94D72A80E391E00E9481
:105AB000C92A1F910F91FF90EF90DF90CF9008952A
:105AC000CF92DF92EF92FF920F931F93DF93CF93CA
:105AD000CDB7DEB72C970FB6F894DEBF0FBECDBFA3
