:100000000C94AD030C94CA030C94CA030C94E1271E
:100010000C94B9120C94CA030C94CA030C94F115F5
:100020000C94CA030C94CA030C94CA030C94CA031C
:100030000C94CA030C94CA030C94CA030C94CA030C
:100040000C9451150C94CA030C9467120C94201252
:100050000C94CA030C94CA030C94CA030C94CA03EC
:100060000C94CA030C94CA03BA19BA19BA19D11953
:10007000DA19E319EC19031A1A1A311A461A4F1A27
:10008000581A611A6D1A761A7F1A911AA51AB71A98
:10009000CD1ADF1AE81AF11AFA1A051B084AD73BDB
:1000A0003BCE016E84BCBFFDC12F3D6C74319ABD47
:1000B00056833DDA3D00C77F11BED9E4BB4C3E916B
:1000C0006BAAAABE000000803F05A84CCDB2D44E5A
:1000D000B93836A9020C50B9918688083CA6AAAA5C
:1000E0002ABE000000803F3E0D0A002C0057506FD2
:1000F000733A002C002C4D506F733A003C436865F6
:10010000636B003C416C61726D003C486F6D650033
:100110003C486F6C64003C52756E003C51756575CF
:1001200065003C49646C65000D0A003D00244E00EA
:100130005D0D0A00204600205400204D3800204D5F
:100140003900204D3500204D3400204D3300204D26
:100150003200204D3100204D30002047393400203E
:1001600047393300204739310020473930002047D4
:1001700032310020473230002047313900204731EA
:10018000380020473137002047005B473830005B9C
:100190004733005B4732005B4731005B4730005D0F
:1001A0000D0A002C005B4739323A005D0D0A002C25
:1001B0000033303A0032383A0035393A0035383AAF
:1001C0000035373A0035363A0035353A0035343A9D
:1001D000005B47002028686F6D696E672070756C42
:1001E0006C2D6F66662C206D6D290D0A0020286825
:1001F0006F6D696E67206465626F756E63652C2034
:100200006D736563290D0A2432353D002028686F1F
:100210006D696E67207365656B2C206D6D2F6D6940
:100220006E290D0A2432343D002028686F6D696EF6
:100230006720666565642C206D6D2F6D696E290DD4
:100240000A2432333D00290D0A2432323D00202891
:10025000686F6D696E672064697220696E76657279
:1002600074206D61736B2C20696E743A00202868CD
:100270006F6D696E67206379636C652C20626F6FA8
:100280006C290D0A2432313D0020286861726420F7
:100290006C696D6974732C20626F6F6C290D0A2470
:1002A00032303D002028696E766572742073746563
:1002B0007020656E61626C652C20626F6F6C290D19
:1002C0000A2431393D0020286175746F20737461F0
:1002D00072742C20626F6F6C290D0A2431383D0036
:1002E00020287265706F727420696E636865732C64
:1002F00020626F6F6C290D0A2431373D0020286E73
:100300002D646563696D616C732C20696E74290DB1
:100310000A2431363D00202861726320746F6C65B9
:1003200072616E63652C206D6D290D0A2431353D97
:100330000020286A756E6374696F6E206465766943
:100340006174696F6E2C206D6D290D0A2431343D66
:10035000002028737465702069646C652064656C86
:1003600061792C206D736563290D0A2431333D00BA
:10037000290D0A2431323D002028737465702070E5
:100380006F727420696E76657274206D61736B2C68
:1003900020696E743A00202864656661756C74206B
:1003A000666565642C206D6D2F6D696E290D0A24BC
:1003B00031313D002028737465702070756C736551
:1003C0002C2075736563290D0A2431303D002028E7
:1003D0007A20616363656C2C206D6D2F7365635E9D
:1003E00032290D0A24393D00202879206163636594
:1003F0006C2C206D6D2F7365635E32290D0A2438D5
:100400003D0020287820616363656C2C206D6D2F82
:100410007365635E32290D0A24373D0020287A2057
:10042000765F6D61782C206D6D2F6D696E290D0AD8
:1004300024363D0020287920765F6D61782C206D70
:100440006D2F6D696E290D0A24353D002028782016
:10045000765F6D61782C206D6D2F6D696E290D0AA8
:1004600024343D0020287A2C20737465702F6D6D24
:10047000290D0A24333D002028792C2073746570DF
:100480002F6D6D290D0A24323D002028782C207311
:100490007465702F6D6D290D0A24313D0024303DA7
:1004A000002424202876696577204772626C2073C7
:1004B000657474696E6773290D0A24232028766990
:1004C0006577202320706172616D65746572732990
:1004D0000D0A24472028766965772070617273655C
:1004E00072207374617465290D0A244E2028766980
:1004F0006577207374617274757020626C6F636BC2
:1005000073290D0A24783D76616C75652028736126
:100510007665204772626C2073657474696E672912
:100520000D0A244E783D6C696E65202873617665EE
:10053000207374617274757020626C6F636B290D27
:100540000A24432028636865636B2067636F6465D2
:10055000206D6F6465290D0A245820286B696C6C26
:1005600020616C61726D206C6F636B290D0A2448E9
:10057000202872756E20686F6D696E6720637963DD
:100580006C65290D0A7E20286379636C652073747D
:10059000617274290D0A2120286665656420686FE0
:1005A0006C64290D0A3F202863757272656E742091
:1005B000737461747573290D0A6374726C2D7820DD
:1005C000287265736574204772626C290D0A000DEC
:1005D0000A4772626C20302E3961205B2724272065
:1005E000666F722068656C705D0D0A005D0D0A0013
:1005F00044697361626C656400456E61626C656438
:100600000043617574696F6E3A20556E6C6F636B51
:10061000656400272448277C2724582720746F20EE
:10062000756E6C6F636B00526573657420746F2018
:10063000636F6E74696E7565005B002E204D506FA0
:10064000733F0D0A0041626F727420647572696EA7
:1006500067206379636C650048617264206C696D22
:10066000697400414C41524D3A20000D0A00416C22
:1006700061726D206C6F636B0042757379206F72CD
:100680002071756575656400454550524F4D207267
:10069000656164206661696C2E205573696E672000
:1006A00064656661756C74730056616C7565203C99
:1006B000203320757365630056616C7565203C209E
:1006C000302E300053657474696E672064697361FD
:1006D000626C656400496E76616C69642073746154
:1006E00074656D656E74004D6F64616C2067726F28
:1006F00075702076696F6C6174696F6E00496E76F3
:10070000616C69642072616469757300556E7375FC
:1007100070706F727465642073746174656D656E5A
:100720007400457870656374656420636F6D6D61F6
:100730006E64206C657474657200426164206E752D
:100740006D62657220666F726D6174006572726FA2
:10075000723A20006F6B0D0A000011241FBECFEF0C
:10076000D8E0DEBFCDBF11E0A0E0B1E0ECE6F6E6F8
:1007700002C005900D92A030B107D9F716E0A0E0B5
:10078000B1E001C01D92AB3EB107E1F70E94CC037E
:100790000C9434330C9400000F931F930E94ED11BE
:1007A0000E942B1C0E94C915789480E1EDE9F5E0C8
:1007B000DF011D928A95E9F781E080939D05809382
:1007C0009E0506E011E080919D05882389F10E9435
:1007D00062120E94F1230E9483110E940F150E9451
:1007E000B1110E94D5110E9447250E94A0150E94B8
:1007F0004F2410929D0510929F058091CD06982F51
:1008000081FF02C01093AC0580919E05813021F4D8
:1008100094FF02C000939E0580919E05863021F4CE
:1008200082E00E94882904C010929E050E945613FF
:100830000E94F5120E94C0148091AC05882319F221
:100840000E946715C0CF80919F0584FD15C08091DF
:100850009F05806180939F050E94B7110E94DA1165
:1008600080919E058350833038F480919F0580628B
:1008700080939F050E94AE150895EF92FF920F930B
:100880001F93CF93DF937B018C0120E030E040EA9F
:1008900051E40E9419320E9416300E94AD2FEB01E4
:1008A0000E94C223C801B70120E030E04AE754E4C7
:1008B0000E9419327B018C0182E390E0C89FB00155
:1008C000C99F700DD89F700D112480E090E00E94A8
:1008D000D92F9B01AC01C801B7010E945F2E0E9475
:1008E00016300E94AD2FDC01CB010E94052400E9E7
:1008F00011E00EC00E94F51280919D05882351F4ED
:1009000084EF91E0F8013197F1F70197D9F721973A
:10091000209781F7DF91CF911F910F91FF90EF907A
:1009200008954F925F926F927F928F92AF92BF9293
:10093000CF92DF92EF92FF920F931F93DF93CF93AB
:1009400000D000D0CDB7DEB72B013C0129833A831C
:100950004B835C8380919E058730C9F00E94F5121D
:1009600080919D05882399F40E94DF238823B1F7A5
:10097000C301B20129813A814B815C810E94221F0F
:1009800080919E05882319F482E080939E050F9044
:100990000F900F900F90CF91DF911F910F91FF90CB
:1009A000EF90DF90CF90BF90AF908F907F906F903F
:1009B0005F904F9008952F923F924F925F926F9267
:1009C0007F928F929F92AF92BF92CF92DF92EF92DF
:1009D000FF920F931F9385E080939E0580916B009B
:1009E000817F80936B000E94872780919D058823DB
:1009F00009F070C08CE0E0EAF5E0DF011D928A9515
:100A0000E9F70E944F2410929E053091CE06232FC5
:100A100035FD02C06FEF01C061E026FD03C0DD249B
:100A2000DA9402C0DD24D39437FD03C0CC24CA94E9
:100A300002C0CC24C394E090D906F090DA0600916D
:100A4000DB061091DC06772767FD7095872F972FBF
:100A50000E94DB2FA80197010E9419321B012C0173
:100A60006D2D772767FD7095872F972F0E94DB2FBD
:100A7000A80197010E9419323B014C016C2D772788
:100A800067FD7095872F972F0E94DB2FA801970194
:100A90000E9419327B018C01A090D306B090D4063D
:100AA000C090D506D090D606C201B101A401930131
:100AB00088240E9491040E9467150E94C2230E940C
:100AC0004F248091CD0683FF05C080916B008E601E
:100AD00080936B001F910F91FF90EF90DF90CF906C
:100AE000BF90AF909F908F907F906F905F904F904E
:100AF0003F902F9008952F923F924F925F926F9266
:100B00007F928F929F92AF92BF92CF92DF92EF929D
:100B1000FF920F931F93DF93CF93CDB7DEB7C255EC
:100B2000D0400FB6F894DEBF0FBECDBF3C01239678
:100B30007FAF6EAF239725965FAF4EAF2597269672
:100B40002FAF269727960FAF27972896EFAE2897B7
:100B50002C96ACAEBDAECEAEDFAE2C972D968FAE42
:100B60002D97E22EFF24EE0CFF1CEE0CFF1C4E0D09
:100B70005F1D21965FAF4EAF2197DA012D903D901A
:100B80004D905C90FC01EE0DFF1DC201B101208172
:100B90003181428153810E94602E6DAB7EAB8FAB61
:100BA00098AF10E0000F111F000F111F2596EEAD3A
:100BB000FFAD2597E00FF11FFEAFEDAFA080B18034
:100BC000C280D380F301E00FF11FC601B50120817F
:100BD0003181428153810E94602E69AB7AAB8BAB2D
:100BE0009CAB28962FAD2897E22FF0E0EE0FFF1F69
:100BF000EE0FFF1F6E0E7F1ED3018D919D910D9004
:100C0000BC91A02D89AF9AAFABAFBCAF23962EADF0
:100C10003FAD2397E20FF31F608171818281938141
:100C200029AD3AAD4BAD5CAD0E945F2E6DA77EA79E
:100C30008FA798ABD201C101B05889A79AA7ABA7DB
:100C4000BCA7A601950150582DA33EA34FA358A7BA
:100C500023964EAD5FAD2397E40EF51ED7016D913F
:100C60007D918D919C912DA93EA94FA958AD0E94CF
:100C70005F2E3B014C012396EEADFFAD23970E0F87
:100C80001F1FD8016D917D918D919C9129A93AA941
:100C90004BA95CA90E945F2E5B016C0169A57AA536
:100CA0008BA59CA5A60195010E9419327B018C01A0
:100CB0006DA17EA18FA198A5A40193010E94193274
:100CC0009B01AC01C801B7010E945F2E1B012C01E2
:100CD00069A57AA58BA59CA5A40193010E94193250
:100CE0007B018C016DA17EA18FA198A5A601950124
:100CF0000E9419329B01AC01C801B7010E94602E0D
:100D00009B01AC01C201B1010E94D32E1B012C0139
:100D1000AC968FADAC97882399F0C201B10120E069
:100D200030E040E050E00E9447318823ECF0C201FF
:100D3000B1012BED3FE049EC50E40E945F2E12C060
:100D4000C201B10120E030E040E050E00E94392FC4
:100D5000181654F0C201B1012BED3FE049EC50E40C
:100D60000E94602E1B012C01C201B101AB962CAD7B
:100D70003DAD4EAD5FADAB970E9419322DA53EA59E
:100D80004FA558A90E9454313B014C01E090B9068F
:100D9000F090BA060091BB061091BC06C801B701DD
:100DA00020E030E040E850E40E9419325B016C0121
:100DB000AB966CAD7DAD8EAD9FADAB979B01AC019D
:100DC0000E94602EA80197010E945F2E9B01AC013A
:100DD000C601B5010E9419320E94A6329B01AC01E6
:100DE000C401B3010E94402F0E9416300E94AD2F13
:100DF0007CA36BA36115710509F4C2C12D96BFAD2B
:100E00002D97BB23A1F080E090E00E94D92F9B0199
:100E1000AC012C966CAD7DAD8EAD9FAD2C970E9434
:100E200019322C966CAF7DAF8EAF9FAF2C972BA154
:100E30003CA1B90180E090E00E94D92F7B018C0198
:100E4000C201B101A80197010E94402F6F8F78A3C2
:100E500089A39AA36DA57EA58FA598A9A80197013E
:100E60000E94402F6B8F7C8F8D8F9E8F6F8D78A10E
:100E700089A19AA19B01AC010E9419329B01AC018E
:100E800060E070E080E090E40E945F2E5B016C0106
:100E90006F8D78A189A19AA12BEA3AEA4AE25EE332
:100EA0000E9419327B018C01C601B50120E030E0BF
:100EB00040E850E40E94602E9B01AC01C801B701DC
:100EC0000E9419326F8B788F898F9A8FC601B50176
:100ED00020E030E040E05FE30E9419326D877E87BA
:100EE0008F87988B28963FAD2897E32FF0E0EE0F81
:100EF000FF1FEE0FFF1FCE010196E80FF91F29AD6E
:100F00003AAD4BAD5CAD208331834283538341E0E6
:100F100050E05A8B498B66242696BFAD2697AB2F9F
:100F2000B0E0AA0FBB1FAA0FBB1FA80FB91F2F96B7
:100F3000BFAFAEAF2F9727963FAD2797232F30E057
:100F4000220F331F220F331F280F391F61963FAF27
:100F50002EAF61976396FFAFEEAF639709C143E190
:100F6000461508F446C069A57AA58BA59CA52F89CE
:100F7000388D498D5A8D0E9419327B018C016DA1EB
:100F80007EA18FA198A52D853E854F8558890E9409
:100F900019329B01AC01C801B7010E94602E7B0190
:100FA0008C0169A57AA58BA59CA52D853E854F85CD
:100FB00058890E9419325B016C016DA17EA18FA13D
:100FC00098A52F89388D498D5A8D0E9419329B0121
:100FD000AC01C601B5010E945F2E69A77AA78BA755
:100FE0009CA76394C701D8018DA39EA3AFA3B8A704
:100FF00063C0A989BA89BD0180E090E00E94D92F21
:101000002F8D38A149A15AA10E9419327B018C0170
:10101000C8010E943D2F6B8B7C8B8D8B9E8BB70103
:10102000C8010E949C323B014C012196EEADFFAD00
:101030002197E080F1800281138117FB109517F949
:101040001095ADADBEAD2D903D904D905C90C8011A
:10105000B7012B893C894D895E890E9419325B0159
:101060006C01C201B101A40193010E9419329B01DC
:10107000AC01C601B5010E94602E69A77AA78BA7B3
:101080009CA7C801B701A40193010E9419327B01FA
:101090008C01C201B1012B893C894D895E890E9476
:1010A00019329B01AC01C801B7010E945F2E6DA3EC
:1010B0007EA38FA398A766246DA97EA98FA998AD5A
:1010C00029A53AA54BA55CA50E94602E2F96EEADF2
:1010D000FFAD2F97608371838283938369A97AA977
:1010E0008BA99CA92DA13EA14FA158A50E94602EBD
:1010F0006196AEADBFAD61976D937D938D939C93DB
:1011000013976396EEADFFAD639760817181828125
:1011100093812B8D3C8D4D8D5E8D0E94602E63964C
:10112000AEADBFAD63976D937D938D939C931397F5
:1011300069817A818B819C812D813E814F81588587
:10114000E984FA840B851C852C96ACACBDACCEAC86
:10115000DFAC2C972D968FAC2D970E949104809137
:101160009D05882369F5E989FA893196FA8BE98B1F
:1011700029893A894BA15CA12417350708F4EFCEE1
:101180002396AEADBFAD23976D917D918D919C91CE
:10119000139714962D913D914D915C911797189648
:1011A000ED90FD900D911C911B972C96ACACBDACB5
:1011B000CEACDFAC2C972D968FAC2D970E9491046E
:1011C000CE5ADF4F0FB6F894DEBF0FBECDBFCF9122
:1011D000DF911F910F91FF90EF90DF90CF90BF9024
:1011E000AF909F908F907F906F905F904F903F90C7
:1011F0002F900895AF92BF92CF92DF92EF92FF921D
:101200000F931F9359016A010E94DB2F2091A206C0
:101210003091A3064091A4065091A5060E94402F4C
:101220006093B9057093BA058093BB059093BC0594
:10123000C601B5010E94DB2F2091A6063091A706BA
:101240004091A8065091A9060E94402F6093BD05C9
:101250007093BE058093BF059093C005C801B70188
:101260000E94DB2F2091AA063091AB064091AC067C
:101270005091AD060E94402F6093C1057093C20546
:101280008093C3059093C4051F910F91FF90EF9039
:10129000DF90CF90BF90AF9008952F923F924F92E2
:1012A0005F926F927F928F929F92AF92BF92CF92F6
:1012B000DF92EF92FF920F931F93DF93CF93CDB7FF
:1012C000DEB7EE970FB6F894DEBF0FBECDBF3C0180
:1012D00080919E05863011F48CE0BFC719828CE0A6
:1012E000FE013696DF01482F1D924A95E9F7FE016F
:1012F0007296DF011D928A95E9F71092AD0544249C
:10130000552422241AAE33243A94A3E0AA2EF2E004
:10131000BF2E01E0E1E08E2E912CA5C12E313105CA
:10132000C9F12F313105D4F42431310584F4213150
:101330003105A4F52430310569F1253031051CF45F
:1013400037FF2AC025C02A30310511F523C02631C8
:10135000310554F12C313105D9F41CC02C3531053F
:101360008CF42A353105E4F42C3331053CF4263372
:101370003105E4F42533310559F40CC0203531052D
:1013800039F40AC02C35310529F02F35310554F0D8
:1013900010E00DC011E00BC012E009C013E007C05F
:1013A00014E005C016E003C017E001C019E02531C4
:1013B000310509F494C026313105A4F524303105F6
:1013C00009F467C025303105A4F42130310509F452
:1013D00065C02230310524F4232B09F45CC02EC1F2
:1013E0002230310509F45DC02330310509F026C1F2
:1013F0005BC02231310509F461C0233131054CF461
:101400002A30310509F443C02131310509F016C1F4
:101410004EC02331310509F458C02431310509F09B
:101420000DC15AC02035310509F491C0213531056F
:10143000ACF42533310509F482C0263331054CF470
:101440002C31310509F44EC02E31310509F0F6C0BA
:1014500049C02C3331050CF0F1C074C02C35310576
:1014600009F47FC02D3531054CF42A35310509F4D6
:1014700072C02B35310509F0E1C070C02D35310542
:1014800009F489C02E35310509F0D8C087C0B2E013
:101490004EC0E1E04FC01092AE05D2C00093AE0541
:1014A000CFC0B092AE05CCC0A092AE05C9C010921C
:1014B000C6050093C705B092C805C2C01092C60504
:1014C000B092C7050093C805BBC00093C605B09293
:1014D000C7051092C805B4C00093B005B1C0109202
:1014E000B005AEC0C701B60120E030E040E251E4F3
:1014F0000E9419320E94F3320E94A82FF1E0693154
:101500007F0791F041E06A3174072CF46851714013
:1015100009F094C00BC081E06C32780751F06D5235
:10152000714009F08BC008C0A4E033C0B3E0BAAF8B
:1015300087C0E5E0EAAF84C0F6E0FAAF81C02224BC
:1015400023947EC0822F86538093C90579C044E0DE
:101550004093AE0575C00093B10572C01092B105FD
:101560006FC0C701B60120E030E040E251E40E94C4
:1015700019320E94F3320E94A82F53E06839750790
:1015800039F06959734009F059C098E09AAF58C0D2
:10159000A7E0AAAF55C00093AF0552C01092AF05A7
:1015A0004FC02630310534F42330310554F477230D
:1015B00034F403C02E31310511F010E003C015E002
:1015C00001C018E02430310569F12530310584F47B
:1015D00021303105A9F1223031051CF4232BC9F04B
:1015E0002DC022303105C1F02330310539F517C047
:1015F00028303105E9F02930310524F42530310552
:10160000E9F413C029303105B1F02E313105B1F4C0
:1016100003C00093B20514C0B092B20511C000938C
:10162000B3050EC03092B3050BC01092B30508C0CD
:101630000093B40505C01092B40502C0A092AD0598
:10164000112389F0940102C0220F331F1A95E2F78B
:10165000C90184219521892B21F0B5E0B093AD0516
:1016600002C0422A532A9981F301E90FF11D10812A
:101670001123B9F0812F81548A3110F082E00FC01C
:101680009F5F9983C301BE016F5F7F4FAE014E5FC5
:101690005F4F0E948C24892B09F0F8C581E080936C
:1016A000AD058091AD05882309F0D7C5198299242D
:1016B0001BAE1CAEE0E8EDAFFFEBFEAF0F2EF0E08F
:1016C000AF2EF0E0BF2EF0E0CF2EF0E0DF2EF02DB9
:1016D000AEAABFAAC8AED9AE882476E0372E10C114
:1016E000EA80FB800C811D81C801B70120E030E059
:1016F00040E050E00E94392F181614F03092AD05EA
:101700008091AF05882381F08091B005882309F48A
:10171000F1C0C801B70123E333E34BEC51E40E946D
:1017200019327B018C01E6C08091B005882351F00D
:10173000C801B70123E333E34BEC51E40E941932B3
:101740007B018C01E092B505F092B6050093B705D8
:101750001093B805C9C02A813B814C815D8180917D
:10176000B005882351F0CA01B90123E333E34BEC00
:1017700051E40E9419329B01AC01E12FFF27E7FDE4
:10178000F095E954F040EE0FFF1FEE0FFF1F61E0F0
:1017900070E06C0F7D1FE60FF71F218B328B438BA0
:1017A000548BA2C06A817B818C819D810E94F3321F
:1017B0000E94AD2F862E98C0AA80BB80CC80DD8091
:1017C00093C08A819B81AC81BD818EAB9FABA8AF5A
:1017D000B9AF8091B005882309F486C06EA97FA9AE
:1017E00088AD99AD23E333E34BEC51E40E94193209
:1017F0006EAB7FAB88AF99AF77C06A817B818C81FC
:101800009D8120E030E040E050E00E94392F8823A5
:101810000CF06AC03092AD0567C0EA80FB800C8195
:101820001D81C801B70120E030E040E050E00E9497
:10183000392F882314F43092AD05C801B7010E94F6
:10184000F3320E94AD2F6093C5054EC02A813B81C3
:101850004C815D818091B005882351F0CA01B901A6
:1018600023E333E34BEC51E40E9419329B01AC01BA
:101870002E833F834887598791E0992A35C02A8172
:101880003B814C815D818091B005882351F0CA0174
:10189000B90123E333E34BEC51E40E9419329B017D
:1018A000AC012A873B874C875D87A2E09A2A1CC03F
:1018B0002A813B814C815D818091B005882351F064
:1018C000CA01B90123E333E34BEC51E40E9419321E
:1018D0009B01AC012E873F87488B598BB4E09B2A34
:1018E00003C0E3E0E093AD058BAD9CADADADBEAD07
:1018F0007C018D01D801C701EBAE9CAFADAFBEAF8F
:101900009981F301E90FF11D10811123B9F0812FA5
:1019100081548A3110F082E00FC09F5F9983C30128
:10192000BE016F5F7F4FAE014E5F5F4F0E948C2400
:10193000892B09F0BDC481E08093AD058091AD0590
:10194000882309F08AC480919E05873041F08091F8
:10195000B3050E94B9118091B4050E94DC1151FEBB
:1019600013C08E01025E1F4F8091C905B8010E940D
:10197000001C882309F470C4AAECB5E0F8018CE0DF
:1019800001900D928150E1F7FAADF43009F461C194
:10199000F53048F4F23051F1F33008F0AAC0F130DC
:1019A00009F0AFC10EC04AAD463009F452C146300D
:1019B00008F49FC0473009F457C1483009F0A1C16D
:1019C00097C1C601B50120E030E040E050E00E9440
:1019D000392F88230CF44AC180919E05873009F481
:1019E00090C1C601B5010E943D048BC152E085162D
:1019F00019F064E1861651F4C601B5010E94F33274
:101A00000E94A82FCB010197069720F083E08093D6
:101A1000AD0576C1992021F482E0881609F426C12B
:101A20007B010894E108F10894E18916B1F48E2D48
:101A300069EB75E00E94F51B8091C90590E08E1559
:101A40009F0509F05DC1EAECF5E0DF0151978CE0FC
:101A50000D9001928150E1F753C18E2C3EE1A32EEF
:101A6000B12CAC0EBD1E8E2DB5010E94001C88232A
:101A700009F4F2C300E010E040E050E0C92CDD249E
:101A8000BE016A5F7F4FC601002E02C09595879503
:101A90000A94E2F780FF0FC09501240F351FFB0168
:101AA000E40FF51F80819181A281B381F9018083C8
:101AB0009183A283B3830F5F1F4F4C5F5F4F03304F
:101AC000110509F78E01025E1F4F882DB8010E9493
:101AD000F51B8091C90590E08E159F0509F010C196
:101AE000AAECB5E0F8018CE001900D928150E1F78D
:101AF00007C1992009F47AC08E010A5F1F4F29EBB4
:101B0000E22E25E0F22ECC24DD24A92CBB24C50135
:101B10000C2C02C0959587950A94E2F780FF35C09A
:101B20008091B1058823F9F0D70151966D917D918F
:101B30008D919C9154975D962D913D914D915C9125
:101B400090970E94602E9B01AC01F8016081718129
:101B5000828193810E94602ED8016D937D938D9335
:101B60009C9313971CC0F8016081718182819381DD
:101B7000D7012D913D914D915C910E94602EF8010D
:101B800060837183828393830AC0F701808191818E
:101B9000A281B381F80180839183A283B3830894E7
:101BA000C11CD11C0C5F1F4F44E050E0E40EF51E39
:101BB00053E0C516D10409F0AACF6E817F818885D4
:101BC00099852A853B854C855D85EE84FF8408894F
:101BD00019890F2EF0E0AF2EF0E0BF2EF0E8CF2EE7
:101BE000FFEBDF2EF02D88240E9491046AAD653052
:101BF00011F487E001C086E09AE2692E712C6C0E28
:101C00007D1EB3010E94001C882309F425C36AA528
:101C10007BA58CA59DA52EA53FA548A959A9EAA8F5
:101C2000FBA80CA91DA90F2EF0E0AF2EF0E0BF2EEF
:101C3000F0E8CF2EFFEBDF2EF02D88240E949104D8
:101C4000A9EBB5E0F3018CE001900D928150E1F732
:101C500057C07AAD763011F487E001C086E069EBB9
:101C600075E00E94F51B4DC0992021F486E0809319
:101C7000AD0547C009EB15E086E0C82ED12CCC0E8F
:101C8000DD1EEE24FF24A92CBB24C5010E2C02C0AE
:101C9000959587950A94E2F780FF1CC0D8016D9155
:101CA0007D918D919C91139751962D913D914D91E0
:101CB0005C9154970E945F2EF60120813181428110
:101CC00053810E945F2ED8015D966D937D938D9315
:101CD0009C9390970894E11CF11C0C5F1F4FE4E06B
:101CE000F0E0CE0EDF1EF3E0EF16F10471F608C04F
:101CF0008CE0E6EDF5E0DF011D928A95E9F701C081
:101D0000992442FC03C0992009F492C28091AF0546
:101D1000882399F06BAD7CAD8DAD9EAD20E030E0B9
:101D200040E050E00E94392F88233CF48091AE05BA
:101D3000843019F086E08093AD05222039F080913F
:101D4000AE05823018F086E08093AD058091AD0538
:101D5000882309F082C28E010A5F1F4FB9EBEB2E78
:101D6000B5E0FB2ECC24DD24A92CBB24C5010C2C12
:101D700002C0959587950A94E2F780FF33C0222030
:101D8000D9F58091B1058823D1F0F7016189728975
:101D900083899489258D368D478D50A10E94602EB0
:101DA0009B01AC01D8016D917D918D919C910E9418
:101DB000602EF80160837183828393831DC0D801F4
:101DC0006D917D918D919C91F701208131814281AE
:101DD00053810E94602ED8016D937D938D939C93C7
:101DE00013970AC0F70180819181A281B381F80124
:101DF00080839183A283B3830894C11CD11C0C5FA0
:101E00001F4F44E050E0E40EF51E53E0C516D10428
:101E100009F0ACCF8091AE05843048F4823008F0F0
:101E20004EC0882359F0813009F0F5C122C08430BA
:101E300009F0F1C1992009F4EEC18DC0992009F48F
:101E40008AC06E817F81888599852A853B854C85EE
:101E50005D85EE84FF84088919890F2EF0E0AF2E8E
:101E6000F0E0BF2EF0E8CF2EFFEBDF2EF02D882420
:101E700023C0992009F46FC06E817F818885998580
:101E80002A853B854C855D85EE84FF840889198908
:101E90008090AF05882061F4A091B505ABAFB091FB
:101EA000B605BCAFE091B705EDAFF091B805FEAF58
:101EB000ABACBCACCDACDEAC0E949104ACC181E05B
:101EC00090E00090C80502C0880F991F0A94E2F7BD
:101ED0008095982209F43FC06EA97FA988AD99AD7D
:101EE00020E030E040E050E00E94392F882309F0E4
:101EF00043C0E091C605F0E0EE0FFF1FEE0FFF1F9D
:101F00008E010F5F1F4FE00FF11FC188D288E38859
:101F1000F488C701B60120E030E040E050E00E94C4
:101F2000392F8823E1F48091C70590E0880F991F2D
:101F3000880F991F080F191FD80151966D917D9137
:101F40008D919C91549720E030E040E050E00E9459
:101F5000392F882321F486E08093AD055CC16EA9FA
:101F60007FA988AD99AD20E030E040E050E00E94CC
:101F7000392F882309F4F8C0E091C605F0E0EE0F90
:101F8000FF1FEE0FFF1F8E010F5F1F4FD801AE0F17
:101F9000BF1FE754FA4F15966D917D918D919C91DD
:101FA000189720813181428153810E945F2E1B014D
:101FB0002C01E091C705F0E0EE0FFF1FEE0FFF1FB1
:101FC0000E0F1F1FE754FA4FD80115966D917D91A2
:101FD0008D919C91189720813181428153810E947B
:101FE0005F2E3B014C018CE0FE017296DF011D92D9
:101FF0008A95E9F76EA97FA988AD99AD20E030E018
:1020000040E850E40E9419322EA93FA948AD59ADCD
:102010000E9419327B018C01C201B101A201910120
:102020000E9419329B01AC01C801B7010E945F2ECA
:102030007B018C01C401B301A40193010E941932F8
:102040009B01AC01C801B7010E945F2E7B018C018E
:1020500020E030E040E050E00E94392F882324F453
:1020600084E08093AD05F9C0C801B7010E94A63293
:102070007B018C01C201B101A40193010E94543182
:102080009B01AC0117FB109517F91095C801B7011A
:102090000E94402F6B017C018091AE05833021F4BA
:1020A000F7FAF094F7F8F0946EA97FA988AD99AD8E
:1020B00020E030E040E050E00E94392F88236CF4AB
:1020C000F7FAF094F7F8F0944EA95FA968AD79ADEE
:1020D00070584EAB5FAB68AF79AF0091C605A02ECC
:1020E000BB24AA0CBB1CAA0CBB1C8E010F5F1F4F8C
:1020F000A00EB11EC401B301A70196010E941932BE
:102100009B01AC01C201B1010E945F2E20E030E0D2
:1021100040E05FE30E941932D50151966D937D93A3
:102120008D939C9354978091C70590E0880F991FD9
:10213000880F991F080F191FC201B101A70196014D
:102140000E9419329B01AC01C401B3010E94602EB0
:1021500020E030E040E05FE30E941932F801618B3B
:10216000728B838B948B15C0E091C705F0E0EE0F66
:10217000FF1FEE0FFF1FEC0FFD1F228933894489DB
:102180005589C701B6010E9454316EAB7FAB88AF51
:1021900099AF9091AE052091C6050091C705E090DA
:1021A000C8058090AF05882061F4F091B505FBAFBC
:1021B0004091B6054CAF5091B7055DAF6091B80541
:1021C0006EAF00D000D00F92EDB7FEB731964EA99A
:1021D0005FA968AD79ADADB7BEB711964D935D936C
:1021E0006D937C93149780E0923009F481E08483AE
:1021F00089EB95E0BE016A5F7F4FAE014E5E5F4F97
:10220000ABACBCACCDACDEAC0E947B050F900F90AC
:102210000F900F900F908091AD058823F1F4A9EBFA
:10222000B5E0FE0136968CE001900D928150E1F709
:102230008091B205882369F00E94C2231092AC05F8
:102240008091B205823019F40E94230402C01092DA
:10225000B2058091AD0501C08AE0EE960FB6F89404
:10226000DEBF0FBECDBFCF91DF911F910F91FF90C9
:10227000EF90DF90CF90BF90AF909F908F907F9026
:102280006F905F904F903F902F900895CA80DB80B1
:10229000EC80FD80C701B6010E94F3320E94A82F96
:1022A0009B01173409F43AC81D3409F0DCC979C917
:1022B0001F3484F41D340CF017CB1C340CF072CA9C
:1022C00019340CF048CA163409F40ACA173409F054
:1022D00008CB0ACB143509F4A0CA153554F41235CD
:1022E00009F46FCA13350CF088CA103509F0F9CA21
:1022F00063CA193509F4C3CA1A3509F4D9CA18359D
:1023000009F0EFCAA3CAEDEAF5E085E3DF011D920B
:102310008A95E9F78091B0069091B106A091B20636
:10232000B091B3068093B5059093B605A093B70519
:10233000B093B8051092C60591E09093C70582E06E
:102340008093C8059093B1058091C905BF01635E74
:102350007F4F0E94001C882319F48AE00E94C9293B
:10236000089510920001249A259A2C9808952C988B
:1023700008951F93182F282F332727FD309580911C
:10238000000190E02817390771F00E94C223112341
:1023900039F0111614F42D9801C02D9A2C9A01C011
:1023A0002C98109300011F910895109201013B9AFF
:1023B00043980895439808951F93182F8091010121
:1023C000181749F00E94C223113011F4439A01C03A
:1023D0004398109301011F910895E0ECF0E0808193
:1023E0008D7F80831092C50087E68093C400E1EC66
:1023F000F0E080818061808380818860808380813B
:10240000806880830895282FE09104019E2F9F5FAC
:10241000903431F490E004C080919F0584FD0FC09A
:10242000809105019817C1F3F0E0EE59F94F208330
:10243000909304018091C10080628093C10008954F
:102440001F920F920FB60F9211248F939F93EF93C9
:10245000FF9380910501E82FF0E0EE59F94F90814C
:102460009093C600982F9F5F903409F490E090936A
:10247000050180910401981729F48091C1008F7D96
:102480008093C100FF91EF919F918F910F900FBEAC
:102490000F901F9018959091030180910201891768
:1024A00011F4EFEF0DC0E92FF0E0EE51FA4FE081AB
:1024B000892F8F5F80930301803811F410920301FC
:1024C0008E2F0895809102018093030108951F9239
:1024D0000F920FB60F9211242F933F934F935F9358
:1024E0006F937F938F939F93AF93BF93EF93FF93DC
:1024F0002091C6002132A1F0223218F42831B9F41B
:1025000013C02F3319F02E3791F404C080919F052A
:10251000816003C080919F05826080939F0518C0F1
:1025200080919F058860F9CF0E94230411C0E0913B
:1025300002019E2F9F5F903809F490E08091030183
:10254000981731F0F0E0EE51FA4F2083909302019A
:10255000FF91EF91BF91AF919F918F917F916F917B
:102560005F914F913F912F910F900FBE0F901F9051
:1025700018951F920F920FB60F9211242F933F932D
:102580004F935F936F937F938F939F93AF93BF937B
:10259000EF93FF9386B190E080959095877090704F
:1025A000892B91F0309903C00E9423040DC031990A
:1025B00004C080919F05886005C0329905C0809154
:1025C0009F05826080939F05FF91EF91BF91AF912E
:1025D0009F918F917F916F915F914F913F912F913B
:1025E0000F900FBE0F901F901895CF93DF9380919F
:1025F0009F05882309F457C080919F05C82FD0E01C
:10260000CE0180769070892BE9F086E080939E055C
:10261000C6FF10C08FEF0E94B22981E00E94882976
:1026200080919F058F7E80939F0580919F0584FFF9
:10263000FCCF03C08EEF0E94B22980919F058F7955
:1026400080939F05C4FF04C081E080939D052BC04B
:10265000C0FF07C00E94212A80919F058E7F809332
:102660009F05C3FF07C00E94711580919F05877F5A
:1026700080939F05C2FF07C00E947B1580919F0534
:102680008B7F80939F05C1FF0EC00E9467158091CC
:10269000CD0681FF03C081E08093AC0580919F054A
:1026A0008D7F80939F05DF91CF91089580E066E054
:1026B00071E00E946C1C882369F0809106018823D8
:1026C00061F086E091E00E94712986E091E00E942D
:1026D0004D0901C08AE00E94C92981E066E071E0ED
:1026E0000E946C1C882321F48AE00E94C929089565
:1026F00080910601882351F086E091E00E947129C3
:1027000086E091E00E944D090E94C9290895DF9258
:10271000EF92FF920F931F93DF93CF93CDB7DEB766
:1027200029970FB6F894DEBF0FBECDBF7C01FC0128
:102730008081843209F009C181E0898381818734F5
:1027400081F1883474F48432C1F0853234F4882302
:1027500089F0833209F097C01AC0833409F093C01E
:102760002AC08E3409F469C08835F1F1883409F043
:102770008AC04CC00E947E29F3C082E08983F701A1
:102780008281882309F0E6C00E94C82CE9C082E05B
:102790008983F7018281882309F0DCC00E940A2C1A
:1027A000DFC082E08983F7018281882309F0D2C0EB
:1027B0000E941E2BD5C082E08983F7018281882385
:1027C00009F0C8C080919E05873021F40E9423043F
:1027D00085E007C0882309F0BFC087E080939E058D
:1027E00084E00E948829BCC082E08983F70182814D
:1027F000882309F0AFC080919E05863009F0B0C0F3
:1028000083E00E94882910929E05AAC08091CD067F
:1028100084FD02C017E0A5C080919E05882319F0B1
:10282000863009F099C00E94DB0480919D058823C1
:1028300009F096C00E94561393C082E08983F70185
:102840008281882319F0DD24D3941EC080E0B70173
:102850000E946C1C882329F080E0B7010E94E52BC0
:1028600003C08AE00E94C92981E0B7010E946C1C64
:10287000882321F48AE00E94C92972C081E0B7014F
:102880000E94E52B6DC0DD24C7018E010F5F1F4F35
:10289000B801AE014E5F5F4F0E948C24892B09F472
:1028A0005DC09981F701E90FF11D80818D3309F039
:1028B00051C0892F8F5F8983DD2041F1482F50E07F
:1028C0002981822F90E0FC01E41BF50BEE0DFF1D2A
:1028D000D701A80FB91F8C9180838C912F5F29831A
:1028E000882371F7C7010E944D09182F8823C9F565
:1028F0006A817B818C819D810E94F3320E94AD2F81
:10290000DC01CB01B7010E94611C2BC0C701B801DB
:10291000AE014A5F5F4F0E948C24892BF9F08981B8
:10292000E80EF11CF70180818823A1F46A817B8184
:102930008C819D810E94A82FDC01CB014E815F819B
:10294000688579850E94A31903C0C7010E944D09BB
:10295000182F07C013E005C01BE003C011E001C041
:1029600010E0812F29960FB6F894DEBF0FBECDBFC1
:10297000CF91DF911F910F91FF90EF90DF9008951D
:102980001F9311E044C02A3011F02D30D1F40E9481
:10299000F51280919D05882309F03FC0E091380130
:1029A000EE2349F0F0E0EA5FFE4F108286E091E00E
:1029B0000E94871301C080E00E94C929109238014B
:1029C00006C080913901882329F0293201F510923F
:1029D00039011DC02132D8F02F32C9F0283219F444
:1029E0001093390114C090913801913380F4822FF3
:1029F0008156E92FF0E09F5F8A3120F4EA5FFE4FB5
:102A0000205202C0EA5FFE4F2083909338010E945B
:102A10004B12282F8F3F09F0B6CF1F9108951092C7
:102A20003801109239010E94832987B1887F87B9C4
:102A300088B1876088B9ECE6F0E0808187608083A8
:102A4000E8E6F0E080818260808308958091CD0681
:102A500082FF02C0289A01C0289880919E05833089
:102A6000F9F48091B80680935C018091AF0690E004
:102A7000A0E0B0E00297A109B109880F991FAA1F31
:102A8000BB1F819580935B01109258011092B20098
:102A90008091700082608093700082E08093B1002A
:102AA00008951F920F920FB60F9211248F939F9348
:102AB0009BB18091B8068C71937E892B8BB915BC24
:102AC0009F918F910F900FBE0F901F90189580913E
:102AD0009E05823029F483E080939E050E9426158E
:102AE000089580919E05833029F484E080939E05AB
:102AF0001092AC0508958091590190915A01892B4B
:102B0000E1F060914A0170914B0180914C019091EC
:102B10004D010E94D31E81E0809357018DE7809381
:102B2000560110924E0110924F01109250011092D6
:102B3000510182E080939E05089510929E050895AC
:102B40008FE1EAE3F1E0DF011D928A95E9F7109247
:102B50005A011092590110925D0108958091700000
:102B60008D7F809370001092B1009091DD069F3FA1
:102B700021F480919F0585FF0BC0892F90E00E9472
:102B800005248091CD0682FF02C028980895289AD6
:102B900008958AB18C6F8AB98BB183709091B80611
:102BA000892B8BB9209AE0E7F0E080818D7F8083CC
:102BB0001092B1001092B20082E08093B00081E4E4
:102BC0008093B300EEE6F0E080818E7F808314BCBA
:102BD00015BC8081816080830E9426150E94AE15FD
:102BE00008951F920F920FB60F921124AF92BF92C9
:102BF000CF92DF92EF92FF920F931F932F933F9309
:102C00004F935F936F937F938F939F93AF93BF93F4
:102C1000EF93FF9380915D01882309F0C3C28091F7
:102C20005801882369F0109258018BB183709091FC
:102C30005C01892B8BB980915B0186BD82E085BDEB
:102C400081E080935D0178948091590190915A01BF
:102C5000892B09F07FC00E949E1CFC0190935A01B1
:102C600080935901009709F446C18091B80690817C
:102C7000892780935C0161E0609358012585368542
:102C800047855089DA01C901B595A795979587952C
:102C900080933A0190933B01A0933C01B0933D0196
:102CA00080933E0190933F01A0934001B093410176
:102CB0008093420190934301A0934401B093450156
:102CC00020934601309347014093480150934901B6
:102CD00020934A0130934B0140934C0150934D0196
:102CE00080919E058330B1F586A997A9A0ADB1ADBD
:102CF0008093520190935301A0935401B0935501D6
:102D0000E6A0F7A000A511A5E0924E01F0924F01B8
:102D100000935001109351018DE78093560186A5D1
:102D200097A5A0A9B1A9281739074A075B0721F47D
:102D300082E0809357010EC082A993A9A4A9B5A9E6
:102D4000E816F9060A071B0719F41092570102C08A
:102D50006093570190915701992309F465C08091C0
:102D60005601815080935601882309F05DC08AEF97
:102D700080935601913081F5E0915901F0915A010B
:102D800082A593A5A4A5B5A520914E0130914F0130
:102D90004091500150915101820F931FA41FB51F04
:102DA00080934E0190934F01A0935001B093510135
:102DB00022A933A944A955A982179307A407B507E7
:102DC00098F11092570120934E0130934F01409398
:102DD00050015093510128C0923031F580914E013D
:102DE00090914F01A0915001B0915101E091590192
:102DF000F0915A0122A533A544A555A528173907F6
:102E00004A075B072CF4821B930BA40BB50B04C081
:102E1000B595A7959795879580934E0190934F010F
:102E2000A0935001B0935101A0904E01B0904F017A
:102E3000C0905001D090510188EEA81683E0B806EA
:102E400080E0C80680E0D8066CF480915201909131
:102E50005301A0915401B0915501885E9340A04068
:102E6000B0400CC08091520190915301A091540147
:102E7000B09155018A199B09AC09BD098093520193
:102E800090935301A0935401B093550120915201A6
:102E900030915301409154015091550157FF80C129
:102EA000E0915901F0915A0186A997A9A0ADB1AD61
:102EB000280F391F4A1F5B1F209352013093530183
:102EC000409354015093550180919E058430D9F46C
:102ED00080915701823031F082E0809357018DE775
:102EE0008093560182A593A5A4A5B5A58A159B0537
:102EF000AC05BD0544F00E94AE1580919F0584602D
:102F000080939F054DC1208120935C0181E08093D7
:102F1000580140913A0150913B0160913C01709100
:102F20003D0181819281A381B481481B590B6A0BB9
:102F30007B0B40933A0150933B0160933C017093AB
:102F40003D0177FF38C0246020935C0180914601E9
:102F500090914701A0914801B0914901480F591F34
:102F60006A1F7B1F40933A0150933B0160933C01E1
:102F700070933D0125FF0CC08091A0059091A105A3
:102F8000A091A205B091A3050197A109B1090BC0B9
:102F90008091A0059091A105A091A205B091A305F3
:102FA0000196A11DB11D8093A0059093A105A0934A
:102FB000A205B093A30540913E0150913F0160915D
:102FC00040017091410185819681A781B085481BA0
:102FD000590B6A0B7B0B40933E0150933F0160936A
:102FE00040017093410177FF3AC020915C01286055
:102FF00020935C018091460190914701A091480186
:10300000B0914901480F591F6A1F7B1F40933E0131
:1030100050933F01609340017093410126FF0CC023
:103020008091A4059091A505A091A605B091A70552
:103030000197A109B1090BC08091A4059091A50544
:10304000A091A605B091A7050196A11DB11D809381
:10305000A4059093A505A093A605B093A70540915C
:103060004201509143016091440170914501818575
:103070009285A385B485481B590B6A0B7B0B409343
:10308000420150934301609344017093450177FFDF
:103090003AC020915C01206120935C01809146013F
:1030A00090914701A0914801B0914901480F591FE3
:1030B0006A1F7B1F40934201509343016093440178
:1030C0007093450127FF0CC08091A8059091A90538
:1030D000A091AA05B091AB050197A109B1090BC058
:1030E0008091A8059091A905A091AA05B091AB0582
:1030F0000196A11DB11D8093A8059093A905A093E9
:10310000AA05B093AB0520914A0130914B01409143
:103110004C0150914D01215030404040504020938F
:103120004A0130934B0140934C0150934D012115BE
:1031300031054105510539F180915701823049F13E
:10314000E6A4F7A400A911A9E216F30604071507DF
:1031500000F182E0809357012E153F05400751078B
:10316000C1F482A993A9A4A9B5A9A816B906CA064B
:10317000DB0611F48DE704C08AEF90915601891B9C
:103180008093560106C010925A01109259010E9474
:103190008F1C80915C019091B806892780935C0117
:1031A00010925D01FF91EF91BF91AF919F918F912F
:1031B0007F916F915F914F913F912F911F910F914F
:1031C000FF90EF90DF90CF90BF90AF900F900FBE29
:1031D0000F901F901895F999FECF92BD81BD81E0A7
:1031E0008FBB80B50895F894F999FECF92BD81BD4B
:1031F00081E08FBB40B54627842F992787FD9095A6
:10320000262F30E082239323892B39F06F3F19F06A
:1032100060BD84E006C084E104C0442321F060BDA9
:1032200084E28FBBF99A789408958F929F92AF921F
:10323000BF92CF92DF92EF92FF920F93DF93CF93E3
:1032400000D0CDB7DEB75C016B017A014A0100E026
:103250001EC0002319F021E030E008C0202F3327E2
:1032600027FD30952227330F221F3327F601619166
:103270006F01062F020F9C012F5F3F4F3A83298376
:103280000E94F31808948108910889819A81811419
:103290009104F9F6C7018A0D9B1D602F0E94F31857
:1032A0000F900F90CF91DF910F91FF90EF90DF90F3
:1032B000CF90BF90AF909F908F900895CF93DF9362
:1032C000EC01FB019A0190E0B1E019C0F999FECF41
:1032D000F2BDE1BDBFBBA0B5992319F081E090E03C
:1032E00008C0892F992787FD90958827990F881FF7
:1032F000992731969A2F980FA99321503040211584
:10330000310521F7460F571FF999FECF52BD41BD38
:1033100081E08FBB80B520E030E0981711F421E008
:1033200030E0C901DF91CF91089580E090E064E33F
:103330000E94F31881E090E062EA76E049E450E010
:103340000E9415190895EF92FF920F931F93CF9348
:10335000DF93EC017A018B01FC018A31910540F485
:10336000EC5CFF4FEE0FFF1F0590F491E02D0994E8
:1033700086E056C1CB01BA0120E030E040E050E0E9
:103380000E94392F181614F088E04AC1CC0FDD1FB7
:10339000CC0FDD1FCE55D94FE882F9820A831B83FB
:1033A0003CC14093DF065093E0066093E1067093C2
:1033B000E20633C14093E3065093E4066093E506CA
:1033C0007093E6062AC14093E7065093E80660939F
:1033D000E9067093EA0621C1CB01BA0120E030E092
:1033E00040E752E40E94193220E030E040E752E426
:1033F0000E9419326093BD067093BE068093BF068B
:103400009093C0060AC1CB01BA0120E030E040E74A
:1034100052E40E94193220E030E040E752E40E947A
:1034200019326093C1067093C2068093C3069093CD
:10343000C406F3C0CB01BA0120E030E040E752E41B
:103440000E94193220E030E040E752E40E94193235
:103450006093C5067093C6068093C7069093C8060E
:10346000DCC0CB01BA0120E030E040E450E40E942F
:10347000392F882314F489E0D3C0C801B7010E9412
:103480007C320E94AD2F6093AF06C7C04093B00658
:103490005093B1066093B2067093B306BEC0CB01E1
:1034A000BA010E94F3320E94AD2F6093B806B5C0F6
:1034B000CB01BA010E947C320E94AD2F6093DD06E1
:1034C000ACC0DB01CA01BF778093C9069093CA06DE
:1034D000A093CB06B093CC06A0C04093B9065093FE
:1034E000BA066093BB067093BC0697C0CB01BA01C5
:1034F0000E947C320E94AD2F6093DE068EC0CB010D
:10350000BA0120E030E040E050E00E94392F8823EB
:1035100021F08091CD06816011C08091CD068E7F13
:103520000DC0CB01BA0120E030E040E050E00E9445
:10353000392F882331F08091CD0682608093CD06AB
:103540006CC08091CD068D7FF9CFCB01BA0120E010
:1035500030E040E050E00E94392F882321F0809134
:10356000CD068460EBCF8091CD068B7FE7CFCB017A
:10357000BA0120E030E040E050E00E94392F88237B
:1035800021F08091CD06886003C08091CD06877FB1
:103590008093CD060E94472540C0CB01BA0120E0B0
:1035A00030E040E050E00E94392F882321F08091E4
:1035B000CD068061C3CF8091CD068F7EBFCFCB017A
:1035C000BA010E94F3320E94AD2F6093CE0625C04F
:1035D0004093CF065093D0066093D1067093D206E5
:1035E0001CC04093D3065093D4066093D5067093C5
:1035F000D60613C0CB01BA010E947C320E94AD2FC7
:103600007093D8066093D70608C04093D9065093AC
:10361000DA066093DB067093DC060E94951980E061
:10362000DF91CF911F910F91FF90EF900895882324
:1036300009F47AC080E090E0AAE7B3E48093A206A0
:103640009093A306A093A406B093A5068093A60624
:103650009093A706A093A806B093A9068093AA0604
:103660009093AB06A093AC06B093AD062AE02093EE
:10367000AF068093B0069093B106A093B206B093C4
:10368000B30680E090E0AAEFB3E48093DF06909366
:10369000E006A093E106B093E2068093E3069093E0
:1036A000E406A093E506B093E6068093E7069093C0
:1036B000E806A093E906B093EA0680E090EAACE061
:1036C000B7E48093BD069093BE06A093BF06B09367
:1036D000C0068093C1069093C206A093C306B09320
:1036E000C4068093C5069093C606A093C706B09300
:1036F000C8068AE097EDA3EABBE38093B9069093EE
:10370000BA06A093BB06B093BC0680EC8093B806C3
:103710008DEC9CECACE4BDE38093C9069093CA06A3
:10372000A093CB06B093CC0682E08093CD06109296
:10373000CE0680E090E0A8ECB1E48093CF069093B1
:10374000D006A093D106B093D20680E090E0AAE71D
:10375000B3E48093D3069093D406A093D506B09398
:10376000D60684E690E09093D8068093D70680E052
:1037700090E0A0E8BFE38093D9069093DA06A09387
:10378000DB06B093DC0689E18093DD0683E080935D
:10379000DE060E949519089580E090E00E94EB18E3
:1037A000843379F482EA96E061E070E049E450E025
:1037B0000E945E1920E0892B09F421E081E028278E
:1037C00012C0853078F482EA96E061E070E04FE163
:1037D00050E00E945E19892B29F080E00E94171B9F
:1037E00021E001C020E0822F08959DE0899FC00163
:1037F000112480509E4F4CE050E00E94151908950E
:103800000F931F93CF93DF93162F072F9DE0899F70
:10381000E0011124C050DE4F862F972FBE014CE0EF
:1038200050E00E945E19892B11F081E00FC0E12F5A
:10383000F02F8CE0DF011D928A95E9F7CE01612F10
:10384000702F4CE050E00E94151980E0DF91CF917D
:103850001F910F910895EF92FF921F93DF93CF93E3
:10386000CDB7DEB72C970FB6F894DEBF0FBECDBF35
:103870000E94CC1B882341F48AE00E94C92981E080
:103880000E94171B0E94C82C10E07E010894E11CC6
:10389000F11C812FB7010E94001C882319F48AE0D3
:1038A0000E94C9291F5F1830A1F72C960FB6F89413
:1038B000DEBF0FBECDBFCF91DF911F91FF90EF9084
:1038C000089593E3899FC001112480509D4F42E3E6
:1038D00050E00E94151908950F931F93CF93DF9323
:1038E0008B0193E3899FE0011124C050DD4FCB0190
:1038F000BE0142E350E00E945E19892B11F081E085
:1039000009C0F8011082CE01B80142E350E00E94E4
:10391000151980E0DF91CF911F910F91089590913B
:10392000720580917305981741F0809173058F5F40
:10393000823109F480E080937305089590917205B7
:1039400080917305981719F420E030E008C0909139
:1039500073058AE3989F90011124225A3E4FC901B2
:103960000895AF92BF92CF92DF92EF92FF920F93A2
:103970001F9359016A0160937505709376058093D2
:103980007705909378052093790530937A054093D5
:103990007B0550937C05E0927D05F0927E050093B7
:1039A0007F05109380050E94DB2F2091A2063091A5
:1039B000A3064091A4065091A5060E94402F609353
:1039C0009105709392058093930590939405C60199
:1039D000B5010E94DB2F2091A6063091A7064091E9
:1039E000A8065091A9060E94402F609395057093F8
:1039F00096058093970590939805C801B7010E949A
:103A0000DB2F2091AA063091AB064091AC06509175
:103A1000AD060E94402F6093990570939A0580939C
:103A20009B0590939C051F910F91FF90EF90DF9065
:103A3000CF90BF90AF9008952F923F924F925F9298
:103A40006F927F928F929F92AF92BF92CF92DF92AE
:103A5000EF92FF920F931F93CF93DF93EC015A01E4
:103A60006B0118012901CB01BA010E94A63224EE94
:103A700038E34EE552E40E9419320E94262F0E943C
:103A8000AD2F6EA37FA388A799A76D857E858F85AF
:103A900098890E94DB2F7B018C0129A13AA14BA1BF
:103AA0005CA1CA01B9010E94602E2D8D3E8D4F8D03
:103AB00058A10E9419329B01AC01C801B7010E94B4
:103AC000402F3B014C01C601B501A20191010E94AA
:103AD0005F2E9B01AC01C401B3010E9419329B010E
:103AE000AC01C801B7010E94602E20E030E040E048
:103AF0005FE30E9419320E94262F0E94A82F7B01AB
:103B00008C0116161706180619062CF01EA61FA6FD
:103B100018AA19AA30C069897A898B899C89A2015F
:103B200091010E945F2E9B01AC01C401B3010E9470
:103B300019320E94262F0E94AD2F6EA77FA788AB57
:103B400099ABE616F7060807190720F4EEA6FFA6BC
:103B500008AB19AB2D853E854F8558898EA59FA54D
:103B6000A8A9B9A9281739074A075B0720F42EA787
:103B70003FA748AB59ABDF91CF911F910F91FF90B9
:103B8000EF90DF90CF90BF90AF909F908F907F90FD
:103B90006F905F904F903F902F9008955F926F923B
:103BA0007F928F929F92AF92BF92CF92DF92EF92CD
:103BB000FF920F931F93CF93DF9380917205882319
:103BC00009F482E1982F915080917305981711F4B0
:103BD000992E07C0992311F482E101C0892F982EF4
:103BE0009A948AE3989F80011124025A1E4F2AE377
:103BF000722E882483944BC0979CE0011124C25AF2
:103C0000DE4FA98CBA8CCB8CDC8C6D897E898F8938
:103C1000988DA60195010E94392F882391F1AD8AD4
:103C2000BE8ACF8AD88E8DA2F801E588F6880789EA
:103C3000108DC801B701A60195010E94392F882374
:103C400004F529A13AA14BA15CA1CA01B9010E94C6
:103C5000602E2D8D3E8D4F8D58A10E9419329B01F3
:103C6000AC01C801B7010E94602E7B018C01A60146
:103C700095010E94392F882324F4ED8AFE8A0F8B48
:103C8000188F992011F492E1992E9A948E018091C7
:103C90007305981609F0B0CF709073057394F2E134
:103CA0007F1609F47724909173058AE3989FE001C9
:103CB0001124C25ADE4F8AE3582E6624639450C002
:103CC000759C600111248EE591E0C80ED91EF601A5
:103CD00085889688A788B08CC801B701A501940192
:103CE0000E94392F882314F529A13AA14BA15CA188
:103CF000CA01B9010E94602E2D8D3E8D4F8D58A1B5
:103D00000E9419329B01AC01C801B7010E94602ECC
:103D10007B018C01A50194010E94392F882334F482
:103D2000F601E58AF68A078B108F65A28DA188239C
:103D300021F4F60185A1882369F04D895E896F8998
:103D4000788DF601058916892789308DCE010E946C
:103D50001C1D1DA27394F2E17F1609F47724E6017D
:103D600080917205ED88FE880F89188D781609F00C
:103D7000A7CFCE01B801A70100E010E020E030E0BD
:103D80000E941C1D1DA2DF91CF911F910F91FF90EA
:103D9000EF90DF90CF90BF90AF909F908F907F90EB
:103DA0006F905F900895AF92BF92CF92DF92EF92A3
:103DB000FF920F931F93CF93DF935B016C01909160
:103DC00073058AE3989FE0011124C25ADE4FC601B1
:103DD000B5010E94DB2F2D8D3E8D4F8D58A10E9485
:103DE00019327B018C016D857E858F8598890E94B3
:103DF000DB2F9B01AC01C801B7010E94402F6D8FE2
:103E00007E8F8F8F98A3AD86BE86CF86D88A80E0BE
:103E100090E0A0E0B0E08D8B9E8BAF8BB88F898F48
:103E20009A8FAB8FBC8F81E08DA30E94CE1DDF9156
:103E3000CF911F910F91FF90EF90DF90CF90BF90A7
:103E4000AF9008952F923F924F925F926F927F9220
:103E50008F929F92AF92BF92CF92DF92EF92FF929A
:103E60000F931F93DF93CF93CDB7DEB7CC54D040E1
:103E70000FB6F894DEBF0FBECDBF6DA77EA78FA78C
:103E800098AB29AB3AAB4BAB5CABEDAAFEAA0FAB40
:103E900018AFA9AEBAAECBAEDCAE382C909172059D
:103EA0008AE3989F200111242EE531E0420E531E33
:103EB0006DA57EA58FA598A92091A2063091A30695
:103EC0004091A4065091A5060E9419320E94E93142
:103ED0006DAF7EAF8FAF21969FAF219769A97AA969
:103EE0008BA99CA92091A6063091A7064091A8060F
:103EF0005091A9060E9419320E94E93122966FAFB3
:103F0000229723967FAF239724968FAF24972596E9
:103F10009FAF2597C801B7012091AA063091AB0643
:103F20004091AC065091AD060E9419320E94E931D1
:103F300026966FAF269727967FAF279728968FAF45
:103F4000289729969FAF29978091750590917605BE
:103F5000A0917705B091780521962CAD3DAD4EAD81
:103F60005FAD2197281B390B4A0B5B0BDA01C901A6
:103F700057FF07C0B095A095909581959F4FAF4F83
:103F8000BF4FF20181839283A383B483809179052B
:103F900090917A05A0917B05B0917C0525962CAD7A
:103FA0003DAD4EAD5FAD2597281B390B4A0B5B0B22
:103FB000DA01C90157FF07C0B095A095909581958A
:103FC0009F4FAF4FBF4FF20185839683A783B08782
:103FD00080917D0590917E05A0917F05B09180052F
:103FE00029962CAD3DAD4EAD5FAD2997281B390B01
:103FF0004A0B5B0B57FF07C05095409530952195B4
:104000003F4F4F4F5F4FD20119962D933D934D93E4
:104010005C931C971596ED90FD900D911C9118974F
:1040200011968D919D910D90BC91A02D8E159F059F
:10403000A007B10710F4D801C70182179307A4079E
:10404000B50710F4DA01C901F20185879687A787C1
:10405000B08B0097A105B10509F47AC36DA57EA5C3
:104060008FA598A9209191053091920540919305D3
:10407000509194050E945F2E5B016C016D877E87D5
:104080008F87988B69A97AA98BA99CA920919505FE
:104090003091960540919705509198050E945F2EAA
:1040A0007B018C01698B7A8B8B8B9C8B6DA97EA994
:1040B0008FA998AD2091990530919A0540919B0563
:1040C00050919C050E945F2E3B014C016D8B7E8BB5
:1040D0008F8B988FC601B501A60195010E941932F8
:1040E0005B016C01C801B701A80197010E94193258
:1040F0009B01AC01C601B5010E94602E7B018C01C1
:10410000C401B301A40193010E9419329B01AC01C7
:10411000C801B7010E94602E0E94A6327B018C016B
:10412000D2015D966D937D938D939C93909769AD2D
:104130007AAD8BAD9CAD20E030E040E050E00E94D5
:10414000392F88234CF429E936E746E95EE729AFA1
:104150003AAF4BAF5CAF0EC0332061F0C801B7017E
:1041600029AD3AAD4BAD5CAD0E94402F69AF7AAF3F
:104170008BAF9CAF60E070E080E89FE3A8019701FF
:104180000E94402F69A77AA78BA79CA789E996E789
:10419000A6E9BEE7F20181A392A3A3A3B4A39E0163
:1041A000235F3F4F38A72FA339E1232E312C2C0E4C
:1041B0003D1E4DEB56E05EA34DA32D963FAE2EAEB9
:1041C0002D97AFA1B8A5ED90FD900D911C91C80160
:1041D000B70120E030E040E050E00E94392F882312
:1041E00051F480E090E0A0E0B0E0F10180839183A1
:1041F000A283B38370C0C801B70129A53AA54BA516
:104200005CA50E9419329B01AC01D1016D937D9395
:104210008D939C93139760E070E080E89FE30E9489
:10422000402F0E94A82F9B0177FF03C03095219556
:104230003F4FB901882777FD8095982F0E94DB2F8B
:104240005B016C01EDA1FEA122A133A144A155A106
:104250000E9419327B018C0169AD7AAD8BAD9CADAA
:10426000A80197010E94392F87FD04C0E9AEFAAE7C
:104270000BAF1CAFD20191967C90919792969C9037
:10428000929793966C90939794968C90C601B501F3
:10429000EDA1FEA120813181428153810E9419321A
:1042A0007B018C01672D792D862D982DA801970112
:1042B0000E94392F87FD06C0D801C7017E2C992E98
:1042C0006A2E8B2E872D992DA62DB82DF20181A354
:1042D00092A3A3A3B4A32FA138A52C5F3F4F38A767
:1042E0002FA344E050E0240E351E8DA19EA104961C
:1042F0009EA38DA32D96AEADBFAD2D972A173B077C
:1043000009F05FCF69AD7AAD8BAD9CAD9B01AC017F
:104310000E941932F201618B728B838B948B69AD91
:104320007AAD8BAD9CAD24EE38E34EE552E40E94AD
:1043300019320E94262F0E94AD2FD201D2966D9382
:104340007D938D939C93D59791966D917D918D9151
:104350009C9194972AEE36ED4CEF5BE30E94193264
:104360000E94262F0E94A82FF20162A773A784A79C
:1043700095A7658D768D878D90A120E23CEB4EEB65
:104380005CE40E9419327B018C01D2011D966D9173
:104390007D918D919C9150970E94DB2F9B01AC01E8
:1043A000C801B7010E94402F0E94262F0E94AD2F06
:1043B000F20166AB77AB80AF91AF1082E98CFA8CDB
:1043C0000B8D1C8DC801B70120E030E040E050E0CB
:1043D0000E94392F88231CF480E2D2018C936D8CCB
:1043E0007E8C8F8C98A0C401B30120E030E040E0C7
:1043F00050E00E94392F882324F4F20180818064E8
:104400008083A9A0BAA0CBA0DCA0C601B50120E0A2
:1044100030E040E050E00E94392F882324F4D2019C
:104420008C9180688C9380E090E0A0E0B0E0F20195
:10443000818F928FA38FB48F9091720580917305B5
:10444000981709F4DBC030908D0520908E05F0910F
:104450008F052A96FFAF2A97209190052B962FAFB4
:104460002B97632D722D8F2F922F20E030E040E0AC
:1044700050E00E94473118160CF0C0C060918105D1
:104480007091820580918305909184059058A801D0
:1044900097010E9419327B018C01C401B301209164
:1044A00085053091860540918705509188050E94C9
:1044B00019329B01AC01C801B7010E945F2E7B013C
:1044C0008C01C601B5012091890530918A05409182
:1044D0008B0550918C050E9419329B01AC01C801DB
:1044E000B7010E945F2E7B018C0123E333E343E796
:1044F0005FE30E94392F88230CF080C0D2015196CF
:104500006C90519752967C90529753968C905397FB
:1045100054969C90B301C401232D322D2A964FADA1
:104520002A972B965FAD2B970E94392F87FD08C0E5
:10453000632C722C2A968FAC2A972B969FAC2B97C4
:10454000C301D401F201818F928FA38FB48FC80170
:10455000B70123E333E343E75FEB0E9447311816CB
:104560000CF04CC060E070E080E89FE3A801970188
:104570000E945F2E20E030E040E05FE30E941932AD
:104580000E94A6325B016C01D20191966D917D91E2
:104590008D919C9194972091C9063091CA064091C3
:1045A000CB065091CC060E941932A60195010E94BB
:1045B00019327B018C0160E070E080E89FE3A60186
:1045C00095010E945F2E9B01AC01C801B7010E94BA
:1045D000402F7B018C01B301C401A80197010E9407
:1045E000392F87FD04C0D801C70137014D01C30130
:1045F000D401F201818F928FA38FB48FD20159968B
:10460000AC9059975A96BC905A975B96CC905B9712
:104610005C96DC905C9791962D913D914D915C91CB
:104620009497CA01B9010E94602EF201258D368D42
:10463000478D50A10E94193220E030E040E050E068
:104640000E94602E7B018C01B501C601A801970173
:104650000E94392F87FD04C0D801C70157016D01A1
:10466000C501D601F201858B968BA78BB08F81E0B7
:1046700085A329962CAD3DAD4EAD5FAD2997298719
:104680003A874B875C8725968CAD9DADAEADBFADAF
:1046900025978D839E83AF83B88721962CAD3DAD42
:1046A0004EAD5FAD219729833A834B835C83A1E8AC
:1046B000B5E0FE0179968CE001900D928150E1F712
:1046C000F20181899289A389B48980938D059093A1
:1046D0008E05A0938F05B0939005A5E7B5E0FE0188
:1046E00031968CE001900D928150E1F72DA53EA509
:1046F0004FA558A9209391053093920540939305B7
:104700005093940589A99AA9ABA9BCA98093950552
:1047100090939605A0939705B09398052DA93EA96F
:104720004FA958AD2093990530939A0540939B0566
:1047300050939C0580917405809372058091720559
:104740008F5F823109F480E0809374050E94CE1D52
:10475000C45BDF4F0FB6F894DEBF0FBECDBFCF9165
:10476000DF911F910F91FF90EF90DF90CF90BF905E
:10477000AF909F908F907F906F905F904F903F9001
:104780002F9008951F931AE306C00E94F51280919E
:104790009D05882391F49091720580917305981777
:1047A00041F080917305819FC0011124825A9E4F70
:1047B00061F780919E05833041F31F910895909198
:1047C000730580917405981711F080E00895809129
:1047D000AC05882311F481E008950E94671581E0FB
:1047E00008958091720580937305809172058F5FA3
:1047F000823109F480E08093740588E2E5E7F5E012
:10480000DF011D928A95E9F7089520EA3FE004C090
:10481000F9013197F1F701970097D1F708951F93A8
:10482000A0EABFE040E951E015E335E031C06A306D
:1048300071058105910540F4232F2A95F1F7615008
:1048400070408040904024C0643671058105910518
:1048500040F4212F2A95F1F76A5070408040904033
:1048600017C0683E23E0720720E0820720E092072D
:1048700040F4FA013197F1F764567040804090405F
:1048800007C0FD013197F1F7685E734080409040AA
:10489000611571058105910551F61F910895EF92FB
:1048A000FF920F931F936091A0057091A1058091D5
:1048B000A2059091A3052091A4053091A5054091F2
:1048C000A6055091A705E090A805F090A9050091D4
:1048D000AA051091AB050E94B11C6091A0057091D2
:1048E000A1058091A2059091A3052091A405309186
:1048F000A5054091A6055091A705E090A805F09068
:10490000A9050091AA051091AB050E94FA081F9114
:104910000F91FF90EF9008956F927F928F929F92E8
:10492000AF92BF92CF92DF92EF92FF920F931F93BD
:10493000CF93DF934C013B015A01FB018081F401CD
:10494000E80FF11DEF0189918D3229F481812196C3
:10495000CC24C39405C08B3211F481812196CC24E0
:1049600020E030E040E050E0DD24E0E070E0682F3F
:1049700060536A30F8F4EF5FE930C0F47111DA94F3
:10498000DA01C901F2E0880F991FAA1FBB1FFA952F
:10499000D1F7280F391F4A1F5B1F220F331F441FF7
:1049A000551F260F311D411D511D09C0772339F4B4
:1049B000D39405C06E3F29F4772319F471E08991EF
:1049C000D6CFEE2319F420E030E051C0CA01B9017E
:1049D0000E94D92F7B018C0120E030E040E050E0C4
:1049E0000E94392F882369F42BC0C801B7012AE03F
:1049F00037ED43E25CE30E9419327B018C01F2E067
:104A0000DF0E8FEFD8168CF3D81659F4C801B70112
:104A10002DEC3CEC4CEC5DE30E9419327B018C01E7
:104A20000FC0DD2069F0C801B70120E030E040E2AE
:104A300051E40E9419327B018C01DA941D149CF31D
:104A4000CC2049F0D801C701B058F501808391838B
:104A5000A283B38305C0F501E082F1820283138350
:104A6000882D80958C0FF301808321E030E0C9010F
:104A7000DF91CF911F910F91FF90EF90DF90CF903A
:104A8000BF90AF909F908F907F906F90089584B16A
:104A9000817F84B985B18E6085B98091CD0683FF11
:104AA00009C080916B008E6080936B0080916800DC
:104AB000816008C080916B00817F80936B00809142
:104AC00068008E7F8093680008952F923F924F92E6
:104AD0005F926F927F928F929F92AF92BF92CF928E
:104AE000DF92EF92FF920F931F93DF93CF93CDB797
:104AF000DEB7A9970FB6F894DEBF0FBECDBF382E34
:104B0000562E49A738014901FE0131968CE0DF019C
:104B10001D928A95E9F7032D30FC02C010E00FC00A
:104B20006091A2067091A3068091A4069091A506BB
:104B30000E94E93169837A838B839C8311E001FFB2
:104B40000FC01F5F6091A6067091A7068091A8060E
:104B50009091A9060E94E9316D837E838F839887A7
:104B600002FF0FC01F5F6091AA067091AB06809193
:104B7000AC069091AD060E94E93169877A878B87F0
:104B80009C8789859A85AB85BC852D813E814F8127
:104B900058852DA33EA34FA358A7281739074A07C6
:104BA0005B0720F48DA39EA3AFA3B8A789819A8148
:104BB000AB81BC814DA15EA16FA178A548175907B3
:104BC0006A077B0720F48DA39EA3AFA3B8A7612F2C
:104BD00070E080E090E00E94D92F0E94A6325B0135
:104BE0006C016DA17EA18FA198A50E94D92FA6016D
:104BF00095010E94402F7B018C012091BD063091D0
:104C0000BE064091BF065091C0060E94193220E0B6
:104C100030E041EE55E40E94402F0E94262F0E9472
:104C2000AD2F69A37AA38BA39CA3C401B301A601F2
:104C300095010E9419329B01AC01C801B7010E9485
:104C400019329B01AC0160EC71EE84E69CE40E9499
:104C5000402F0E94E9317B018C0158EFE51654E2A8
:104C6000F50651E0050750E0150718F457016801F3
:104C700007C038EFA32E34E2B32E31E0C32ED12C7F
:104C80004090CE0660EE46228091B8064826552018
:104C900011F480EE48268DA19EA1AFA1B8A5B695CE
:104CA000A79597958795662477244301681A790A12
:104CB0008A0A9B0A8091AF06A6019501281B31093B
:104CC000410951092D8B3E8B4F8B588F6D8E7E8EF7
:104CD0008F8E98A2698E7A8E8B8E9C8E198A1A8AF4
:104CE0001B8A1C8A46E450E160E070E04D875E87D5
:104CF0006F87788B84E0282E242423B159A555236F
:104D000011F06EE0262730FE1DC089819A81AB81AB
:104D1000BC81680E791E8A1E9B1E16141704180487
:104D2000190484F421FF02C0522C03C07EEF372205
:104D3000542C8DA19EA1AFA1B8A5681A790A8A0A40
:104D40009B0A01C0542C31FE2CC08D819E81AF8105
:104D5000B8854D8D5E8D6F8D78A1480F591F6A1FE4
:104D60007B1F4D8F5E8F6F8F78A314161506160666
:104D70001706BCF422FF03C058E0552602C06DEFB1
:104D800036228D8D9E8DAF8DB8A14DA15EA16FA1F4
:104D900078A5841B950BA60BB70B8D8F9E8FAF8FBD
:104DA000B8A332FE2CC089859A85AB85BC85498D18
:104DB0005A8D6B8D7C8D480F591F6A1F7B1F498F41
:104DC0005A8F6B8F7C8F1416150616061706BCF4C7
:104DD00023FF03C050E1552602C06BEF3622898DB8
:104DE0009A8DAB8DBC8D2DA13EA14FA158A5821BE4
:104DF000930BA40BB50B898F9A8FAB8FBC8F0E943E
:104E0000F512332009F46AC080919D05882309F0CA
:104E100065C08BB13CE15322837E582A5BB8609118
:104E2000AF0670E080E090E00E940F244BB86D89DF
:104E30007E898F89988D0E940F24EA14FB040C054B
:104E40001D0508F05ACF4D855E856F8578894A0D1E
:104E50005B1D6C1D7D1D4D875E876F87788B4E387F
:104E600080E2580780E0680780E0780708F445CFC3
:104E70004D585042604070404D875E876F87788BF9
:104E800029893A894B895C8969A17AA18BA19CA166
:104E9000260F371F481F591F298B3A8B4B8B5C8B72
:104EA00060E077E883E993E00E941233C901DA01F8
:104EB0005C016D01AE14BF04C006D10610F45701A9
:104EC00068018091AF06A6019501281B31094109AF
:104ED00051092D8B3E8B4F8B588F0FCFA9960FB654
:104EE000F894DEBF0FBECDBFCF91DF911F910F9120
:104EF000FF90EF90DF90CF90BF90AF909F908F90FA
:104F00007F906F905F904F903F902F900895FF9209
:104F10000F931F930E9426150091D3061091D4067B
:104F20002091D5063091D60684E061E040E00E94F1
:104F300065250091D3061091D4062091D5063091B5
:104F4000D60683E061E040E00E9465258091D706A7
:104F50009091D8060E94052442E0F42EFA94009124
:104F6000CF061091D0062091D1063091D20687E06D
:104F700060E041E00E9465258091D7069091D806B7
:104F80000E94052481E0F816A1F40091CF0610914B
:104F9000D0062091D1063091D20687E061E040E052
:104FA0000E9465258091D7069091D8060E9405241D
:104FB000D5CFFF2099F60E94AE151F910F91FF905B
:104FC00008951F920F920FB60F9211242F933F93C3
:104FD0004F935F936F937F938F939F93AF93BF9301
:104FE000EF93FF9380919E05863059F080919F0545
:104FF00085FD07C00E94230480919F0580648093F3
:105000009F05FF91EF91BF91AF919F918F917F91FC
:105010006F915F914F913F912F910F900FBE0F9025
:105020001F9018958F929F92AF92BF92CF92DF926E
:10503000EF92FF920F931F93DF93CF93CDB7DEB71D
:105040002A970FB6F894DEBF0FBECDBF7B018C014F
:1050500020E030E040E050E00E94392F88233CF40B
:105060008DE20E94031217FB109517F91095A0907E
:10507000DE06DA2C0CC0C801B70120E030E048ECB5
:1050800052E40E9419327B018C018EEFD80EE1E0D0
:10509000ED1588F3A0FE0AC0C801B70120E030E09A
:1050A00040E251E40E9419327B018C01C801B70132
:1050B00020E030E040E05FE30E94602E0E94A82FD5
:1050C0006B017C019E012F5F3F4FF901EA0DF11D3D
:1050D0008EE28083BB2449011EC0BA1409F4B39444
:1050E00084010B0D111DC701B6012AE030E040E03C
:1050F00050E00E941233605DF8016083B394C701F1
:10510000B6012AE030E040E050E00E941233C901CD
:10511000DA016C017D01C114D104E104F104E9F666
:1051200006C0FC01EB0DF11D2083B39403C0CE013A
:10513000019620E3BA14A8F3BA1489F48B2D8F5F7B
:10514000FE01E80FF11D90E39183B82EB39407C0E0
:10515000FE01EB0DF11D80810E940312BA94BB2069
:10516000B9F72A960FB6F894DEBF0FBECDBFCF9128
:10517000DF911F910F91FF90EF90DF90CF90BF9044
:10518000AF909F908F9008958F929F92BF92CF92F1
:10519000DF92EF92FF920F931F93DF93CF93CDB7E0
:1051A000DEB72A970FB6F894DEBF0FBECDBF7B01E6
:1051B0008C0197FF0BC08DE20E94031210950095A1
:1051C000F094E094E11CF11C011D111D67017801B0
:1051D000C114D104E104F10421F480E30E9403121C
:1051E0002FC0BB244E010894811C911C84010B0D1F
:1051F000111DC701B6012AE030E040E050E00E94F6
:105200001233605DF8016083B394C701B6012AE0F0
:1052100030E040E050E00E941233C901DA016C0135
:105220007D01C114D104E104F10401F707C0FE01BE
:10523000EB0DF11D80810E940312BA94BB20B9F7D7
:105240002A960FB6F894DEBF0FBECDBFCF91DF9187
:105250001F910F91FF90EF90DF90CF90BF909F90A4
:105260008F9008950F931F93DF93CF93CDB7DEB741
:1052700028970FB6F894DEBF0FBECDBF982FFE0162
:1052800031969E01275F3F4F892F817081939695BC
:10529000E217F307C9F78E01085F1F4FF8018081FD
:1052A000805D0E940312015010400C171D07B1F7DA
:1052B00028960FB6F894DEBF0FBECDBFCF91DF9119
:1052C0001F910F910895CF93DF93EC0102C00E94CC
:1052D0000312FE01219684918823C9F7DF91CF91B3
:1052E0000895CF93DF93EC0103C021960E9403122F
:1052F00088818823D1F7DF91CF91089581EA94E0E6
:105300000E94632908958FEC95E00E946329089517
:105310001F93182F89E396E00E946329133091F0C0
:10532000143028F4113041F01230B1F408C01430B8
:1053300061F0153089F40CC087E296E00BC083E180
:1053400096E008C081E096E005C089EF95E002C0D4
:1053500080EF95E00E9463298CEE95E00E9463291E
:105360001F9108951F93182F83E696E00E946329EA
:105370001E3F29F01F3F39F488E596E002C085E41E
:1053800096E00E9463298BE396E00E9463291F91B7
:1053900008951F93182F882319F484E597E04DC0D2
:1053A0008CE497E00E946329163079F1173070F48D
:1053B000133011F1143028F41130C1F01230D9F546
:1053C00018C01430E1F01530B1F51CC0193031F1BE
:1053D0001A3028F41730E1F0183069F51CC01B3082
:1053E00019F11B30F0F01C3031F521C08AE397E051
:1053F00020C082E297E01DC08CE097E01AC08DEFDC
:1054000096E017C087EE96E014C085ED96E011C0D7
:1054100084EC96E00EC088EB96E00BC089EA96E03B
:1054200008C088E896E005C089E796E002C08EE6ED
:1054300096E00E9463298BE696E00E9463291F9103
:105440000895AF92BF92CF92DF92EF92FF920F93A7
:105450001F93DF93CF93CDB7DEB768970FB6F8945D
:10546000DEBF0FBECDBFDE011196E0EAF5E08CE0B5
:1054700001900D928150E1F780919E058430C9F032
:10548000853038F4823079F0833080F4882341F01D
:105490001DC08630A1F0863078F08730B9F412C094
:1054A00082E291E011C08BE191E00EC086E191E0D3
:1054B0000BC080E191E008C08AE091E005C083E084
:1054C00091E002C08CEF90E00E94632985EF90E0AC
:1054D0000E9463298DE0E82EF12CEC0EFD1E670181
:1054E00000E010E05E010894A11CB11CF501E00F82
:1054F000F11F60817181828193810E94DB2FF8010D
:10550000EE55F94F20813181428153810E94402F15
:105510009B01AC01F6016083718382839383809148
:10552000CD0680FF0DC0CA01B9012BE832E441E28B
:105530005DE30E941932F601608371838283938355
:10554000F60161917191819191916F010E941228F0
:1055500083EF90E00E9463290C5F1F4F0C30110510
:1055600029F68DEE90E00E9463290AEC15E0DD2417
:105570008091CD0680FF1BC0F8016081718182811E
:10558000938124853585468557850E94602E2BE8BA
:1055900032E441E25DEB0E9419329B01AC01F7015C
:1055A00060817181828193810E94602E14C0F80114
:1055B00060817181828193812485358546855785F7
:1055C0000E94602E9B01AC01F70160817181828194
:1055D00093810E945F2EF70160837183828393839E
:1055E000F70160817181828193810E941228F2E02B
:1055F000DF1621F08BEE90E00E946329D39484E0C3
:1056000090E0E80EF91E0C5F1F4F93E0D91609F0E9
:10561000AFCF87EE90E00E94632968960FB6F894AA
:10562000DEBF0FBECDBFCF91DF911F910F91FF90D5
:10563000EF90DF90CF90BF90AF9008958091AE052E
:10564000823091F0833028F4882341F08130B1F426
:1056500008C0833061F0843089F40CC08BE991E09C
:105660000BC087E991E008C083E991E005C08FE8AD
:1056700091E002C08AE891E00E94632987E891E006
:105680000E9463296091C90570E06A5C7F4F88279A
:1056900077FD8095982F0E94C4288091C6058823A5
:1056A00051F48091C705813019F482E891E005C07A
:1056B0008DE791E002C088E791E00E946329809124
:1056C000B005882319F083E791E002C08EE691E0EF
:1056D0000E9463298091B105882319F089E691E041
:1056E00002C084E691E00E9463298091AF0588237F
:1056F00019F08FE591E002C08AE591E00E946329EC
:105700008091B205813041F0813018F0823059F437
:1057100006C086E591E005C082E591E002C08EE416
:1057200091E00E9463298091B305882359F081306C
:1057300019F08F3F59F403C08AE491E005C086E474
:1057400091E002C082E491E00E9463298091B40557
:10575000882319F0813041F403C08EE391E002C048
:105760008AE391E00E94632987E391E00E94632924
:105770006091C50570E080E090E00E94C42884E359
:1057800091E00E9463298091B005882379F06091AF
:10579000B5057091B6058091B7059091B8052BE8D5
:1057A00032E441E25DE30E94193208C06091B50520
:1057B0007091B6058091B7059091B8050E941228A6
:1057C00080E391E00E9463290895CF92DF92EF92E7
:1057D000FF920F931F93E82E6B018DE291E00E94E0
:1057E0006329FF2400E010E0C801B7010E94C4282B
:1057F0008BE291E00E946329C6010E94712988E230
:1058000091E00E9463291F910F91FF90EF90DF902C
:10581000CF900895CF92DF92EF92FF920F931F9354
:10582000DF93CF93CDB7DEB72C970FB6F894DEBFDA
:105830000FBECDBFFF246E010894C11CD11C8F2D5B
:10584000B6010E94001C882321F48AE00E94C92925
:1058500090C081ED91E00E94632983E0F816E9F0A1
:105860008F1530F0E1E0FE1691F0EF1598F00CC0C6
:10587000F5E0FF16C1F0FF1698F086E0F816B1F0DB
:10588000E7E0FE16D1F415C08DEC91E014C089EC70
:1058900091E011C085EC91E00EC081EC91E00BC06D
:1058A0008DEB91E008C089EB91E005C085EB91E0BC
:1058B00002C081EB91E00E9463298601EE24809171
:1058C000CD0680FF0CC0F8016081718182819381D7
:1058D0002BE832E441E25DE30E94193205C0F80191
:1058E00060817181828193810E941228F2E0EF161B
:1058F00019F08FEA91E002C08BEA91E00E946329DF
:10590000E3940C5F1F4F83E0E816C9F6F394E8E0D8
:10591000FE1609F094CF85EA91E00E94632906ED16
:1059200015E0FF248091CD0680FF0CC0F801608156
:105930007181828193812BE832E441E25DE30E9430
:10594000193205C0F80160817181828193810E94C2
:105950001228F2E0FF1619F083EA91E002C08FE905
:1059600091E00E946329F3940C5F1F4F83E0F816C7
:10597000C9F62C960FB6F894DEBF0FBECDBFCF91FF
:10598000DF911F910F91FF90EF90DF90CF900895DE
:105990008DE994E00E9463296091A2067091A306AC
:1059A0008091A4069091A5060E9412288AE894E0AE
:1059B0000E9463296091A6067091A7068091A806AF
:1059C0009091A9060E94122887E794E00E9463291B
:1059D0006091AA067091AB068091AC069091AD06DD
:1059E0000E94122884E694E00E9463296091DF06F9
:1059F0007091E0068091E1069091E2060E941228E3
:105A00008CE494E00E9463296091E3067091E406BF
:105A10008091E5069091E6060E94122884E394E0C6
:105A20000E9463296091E7067091E8068091E9067B
:105A30009091EA060E9412288CE194E00E9463296A
:105A40006091BD067091BE068091BF069091C00620
:105A500020E030E041E655E40E94402F0E941228E9
:105A600082E094E00E9463296091C1067091C206B1
:105A70008091C3069091C40620E030E041E655E4F1
:105A80000E94402F0E94122888EE93E00E94632912
:105A90006091C5067091C6068091C7069091C806B0
:105AA00020E030E041E655E40E94402F0E94122899
:105AB0008EEC93E00E9463296091AF0670E080E075
:105AC00090E00E94C42884EB93E00E9463296091D7
:105AD000B0067091B1068091B2069091B3060E9413
