:100000000C94DB030C94F8030C94F8030C949E29D5
:100010000C9406330C94F8030C94F8030C94F80336
:100020000C94F8030C94F8030C94F8030C94781DCA
:100030000C94F8030C94F8030C94F8030C94F80354
:100040000C9425160C94F8030C94C7130C9482138B
:100050000C94F8030C94F8030C94F8030C94F80334
:100060000C94F8030C94F80326212D213021332120
:10007000382142214E21C321C321C32158215B21B4
:1000800064216D21C321C321C321C321C321C32105
:100090007721852193219D21A021A921B221B7217A
:1000A000084AD73B3BCE016E84BCBFFDC12F3D6CDF
:1000B00074319ABD56833DDA3D00C77F11BED9E445
:1000C000BB4C3E916BAAAABE000000803F05A84C25
:1000D000CDB2D44EB93836A9020C50B991868808F1
:1000E0003CA6AAAA2ABE000000803F3E0D0A002CB2
:1000F00052583A002C4275663A002C002C57506F2B
:10010000733A002C002C4D506F733A003C446F6FD3
:1001100072003C436865636B003C416C61726D002A
:100120003C486F6D65003C486F6C64003C52756ED6
:10013000003C49646C65005D0D0A005B302E396936
:100140002E32303135303330323A000D0A003D0066
:10015000244E005D0D0A002053002046002054006C
:10016000204D3800204D3900204D3500204D340001
:10017000204D3300204D3200204D3100204D300005
:1001800020473934002047393300204739310020D7
:1001900047393000204732300020473231002047B5
:1001A00031390020473138002047313700204700DF
:1001B000473830004733382E35004733382E340067
:1001C0004733382E33004733382E32004733004749
:1001D00032004731004730005B005D0D0A005B5480
:1001E0004C4F3A005D0D0A002C005B4739323A0053
:1001F0005D0D0A002C003A003330003238005B47B6
:10020000005D0D0A003A002C005B5052423A002972
:100210000D0A00206D61782074726176656C2C2067
:100220006D6D0020616363656C2C206D6D2F7365AF
:10023000635E3200206D617820726174652C206DE0
:100240006D2F6D696E002C20737465702F6D6D00BD
:100250007A00790078002028003D002400202868DA
:100260006F6D696E672070756C6C2D6F66662C20E3
:100270006D6D290D0A002028686F6D696E67206416
:1002800065626F756E63652C206D736563290D0A59
:100290002432373D002028686F6D696E67207365D2
:1002A000656B2C206D6D2F6D696E290D0A24323619
:1002B0003D002028686F6D696E6720666565642C57
:1002C000206D6D2F6D696E290D0A2432353D002990
:1002D0000D0A2432343D002028686F6D696E672056
:1002E00064697220696E76657274206D61736B3A11
:1002F000002028686F6D696E67206379636C652CD8
:1003000020626F6F6C290D0A2432333D002028686B
:10031000617264206C696D6974732C20626F6F6CFC
:10032000290D0A2432323D002028736F6674206C38
:10033000696D6974732C20626F6F6C290D0A243209
:10034000313D0020287265706F727420696E636899
:1003500065732C20626F6F6C290D0A2432303D00CA
:10036000202861726320746F6C6572616E63652C06
:10037000206D6D290D0A2431333D0020286A756EE9
:100380006374696F6E20646576696174696F6E2C41
:10039000206D6D290D0A2431323D00290D0A2431CA
:1003A000313D002028737461747573207265706F1D
:1003B0007274206D61736B3A00202870726F6265F1
:1003C0002070696E20696E766572742C20626F6F82
:1003D0006C290D0A2431303D0020286C696D697448
:1003E0002070696E7320696E766572742C20626F5E
:1003F0006F6C290D0A24363D002028737465702027
:10040000656E61626C6520696E766572742C20621F
:100410006F6F6C290D0A24353D00290D0A24343DE7
:1004200000202864697220706F727420696E76658E
:100430007274206D61736B3A00290D0A24333D00FC
:1004400020287374657020706F727420696E7665F1
:100450007274206D61736B3A00202873746570208C
:1004600069646C652064656C61792C206D736563CB
:10047000290D0A24323D00202873746570207075A0
:100480006C73652C2075736563290D0A24313D005A
:1004900024303D0024242028766965772047726245
:1004A0006C2073657474696E6773290D0A242320A8
:1004B0002876696577202320706172616D657465A7
:1004C0007273290D0A2447202876696577207061A8
:1004D00072736572207374617465290D0A24492052
:1004E0002876696577206275696C6420696E666F2D
:1004F000290D0A244E20287669657720737461726D
:1005000074757020626C6F636B73290D0A24783DDB
:1005100076616C7565202873617665204772626C20
:100520002073657474696E67290D0A244E783D6CDA
:10053000696E6520287361766520737461727475C5
:100540007020626C6F636B290D0A24432028636856
:1005500065636B2067636F6465206D6F6465290D4B
:100560000A245820286B696C6C20616C61726D20C4
:100570006C6F636B290D0A2448202872756E206801
:100580006F6D696E67206379636C65290D0A7E2043
:10059000286379636C65207374617274290D0A2174
:1005A00020286665656420686F6C64290D0A3F2009
:1005B0002863757272656E74207374617475732923
:1005C0000D0A6374726C2D7820287265736574202F
:1005D0004772626C290D0A000D0A4772626C203066
:1005E0002E3969205B27242720666F722068656C8E
:1005F000705D0D0A005D0D0A00436865636B204461
:100600006F6F720044697361626C656400456E616E
:10061000626C65640043617574696F6E3A20556E53
:100620006C6F636B656400272448277C2724582758
:1006300020746F20756E6C6F636B00526573657408
:1006400020746F20636F6E74696E7565005B000DBA
:100650000A00486F6D696E67206661696C005072B0
:100660006F6265206661696C0041626F727420641C
:100670007572696E67206379636C6500536F667489
:10068000206C696D69740048617264206C696D69E1
:100690007400414C41524D3A20000D0A00496E76DB
:1006A000616C69642067636F64652049443A005552
:1006B0006E646566696E6564206665656420726156
:1006C000746500556E737570706F72746564206325
:1006D0006F6D6D616E64004D6F64616C2067726F49
:1006E00075702076696F6C6174696F6E004C696E0D
:1006F00065206F766572666C6F7700486F6D696E06
:1007000067206E6F7420656E61626C656400416C79
:1007100061726D206C6F636B004E6F742069646C46
:100720006500454550524F4D2072656164206661F9
:10073000696C2E205573696E672064656661756CFF
:1007400074730056616C7565203C203320757365A9
:10075000630053657474696E672064697361626CC9
:1007600065640056616C7565203C203000496E76EA
:10077000616C69642073746174656D656E740042A8
:100780006164206E756D62657220666F726D617452
:1007900000457870656374656420636F6D6D616E8C
:1007A00064206C6574746572006572726F723A20B1
:1007B000006F6B0D0A0011241FBECFEFD8E0DEBF23
:1007C000CDBF11E0A0E0B1E0E4E4F2E702C00590A3
:1007D0000D92A030B107D9F716E0A0E0B1E001C05A
:1007E0001D92AD3CB107E1F70E94FA030C94203949
:1007F0000C9400000E944F130E94C3220E943B16DB
:100800000E94A43280E2E7E2F5E0DF011D928A95C2
:10081000E9F781E08093270578948091BC0684FFF6
:1008200003C081E0809328050E94C2130E949112A8
:100830000E94A5120E942A130E941B290E94712D5A
:100840000E941F280E94481D0E947D230E948A1238
:100850001092270510922A0510922B051092290557
:100860000E947915E1CF80912A0584FD27C08FB7BA
:10087000F89490912A05906190932A058FBF0E9469
:10088000AD120E942D1390912805892F8C7021F4B0
:1008900080912905813091F4943031F49FB7F89418
:1008A00080912B05806205C09FB7F89480912B053D
:1008B000886080932B059FBF0E941C1D08950E9495
:1008C000392984E00E94D22983E00E94D2290E9423
:1008D000311480912705882321F40E948A120E94F6
:1008E0001B290895EF92FF920F931F93CF93DF93ED
:1008F0007B018C0180912805823009F447C0C80132
:10090000B70120E030E040EA51E40E94F9370E944C
:100910008D360E942436EB010E946215C801B70192
:1009200020E030E04AE754E40E94F9377B018C0173
:1009300082E390E0C89FB001C99F700DD89F700DF1
:10094000112480E090E00E9450369B01AC01C80168
:10095000B7010E94D6340E948D360E942436DC01F5
:10096000CB010E94E82800E911E00EC00E9431147A
:1009700080912705882351F484EF91E0F8013197A5
:10098000F1F70197D9F72197209781F7DF91CF9160
:100990001F910F91FF90EF900895DF92EF92FF92D9
:1009A0000F931F93CF93DF93EC017A018B01D22E2B
:1009B0008091BC0685FF03C0CE010E94442980912E
:1009C0002805823099F00E943114809127058823F0
:1009D00069F40E947323882319F00E942814F3CF2E
:1009E000CE01B801A7012D2D0E940325DF91CF91E3
:1009F0001F910F91FF90EF90DF900895AF92BF92FB
:100A0000CF92DF92EF920F931F93CF93DF93EC017E
:100A10005A016B01122F80912805823009F466C0BB
:100A20000E94621510924605802F0E94742D0E942C
:100A3000872D882351F09FB7F89480912B05806112
:100A400080932B059FBF0E94311480912705882336
:100A500009F04CC0CE01B601A501212F0E94CD04A2
:100A600081E0809339059FB7F89480912A058260D0
:100A700080932A059FBF0E94311480912705882307
:100A8000A9F5809128058823B1F780913905813037
:100A9000A9F4EE2051F0EAE3F5E0DF011E978CE0C7
:100AA0000D9001928150E1F70CC09FB7F8948091AE
:100AB0002B05806180932B059FBF03C081E080934D
:100AC0004605109239050E9431148091270588232C
:100AD00069F40E94481D0E941F280E947D23CE01B8
:100AE0006CE275E00E94D3320E943B30DF91CF91DF
:100AF0001F910F91EF90DF90CF90BF90AF9008952E
:100B00002F923F924F925F926F927F928F929F921D
:100B1000AF92BF92CF92DF92EF92FF920F931F930B
:100B2000DF93CF93CDB7DEB7EF970FB6F894DEBF64
:100B30000FBECDBF9CAB8BAB7EAB6DAB3A010FABA9
:100B400018AF29AF3AAFCBAEDCAEEDAEFEAEAFAE76
:100B50009924880C991C880C991C880D991D9AABB6
:100B600089AB9A01280D391D38AB2FA7D901AD905B
:100B7000BD90CD90DC90C601B501E9A9FAA920810C
:100B80003181428153810E94D7346DA37EA38FA30C
:100B900098A765966FAD6597462E5524440C551C55
:100BA000440C551C2BA93CA9240D351D3EA72DA78F
:100BB000C301840D951D9CA78BA7DC01ED90FD90D2
:100BC0000D911C91C801B701F90120813181428149
:100BD00053810E94D73469A37AA38BA39CA3D60127
:100BE000C501B0588D8F9E8FAF8FB8A3D801C701B4
:100BF000B058898F9A8FAB8FBC8FADA9BEA98A0ED2
:100C00009B1EF40160817181828193812DA13EA19F
:100C10004FA158A50E94D6343B014C012DA93EA9F5
:100C2000420E531ED2016D917D918D919C9129A10F
:100C30003AA14BA15CA10E94D6345B016C016D8D81
:100C40007E8D8F8D98A1A60195010E94F9377B01B9
:100C50008C01698D7A8D8B8D9C8DA40193010E94EE
:100C6000F9379B01AC01C801B7010E94D6341B01C2
:100C70002C016D8D7E8D8F8D98A1A40193010E9412
:100C8000F9377B018C01698D7A8D8B8D9C8DA60146
:100C900095010E94F9379B01AC01C801B7010E9480
:100CA000D7349B01AC01C201B1010E944A355B01FE
:100CB0006C0167968FAD6797882399F0C601B501DF
:100CC00020E030E040E050E00E94BE378823ECF0A6
:100CD000C601B5012BED3FE049EC50E40E94D6344B
:100CE00012C0C601B50120E030E040E050E00E94B3
:100CF000B035181654F0C601B5012BED3FE049ECB4
:100D000050E40E94D7345B016C01E090B806F0908B
:100D1000B9060091BA061091BB066FA978AD89ADEE
:100D20009AAD9B01AC010E94D734A80197010E94A3
:100D3000D6349B01AC01C801B7010E94F9370E946B
:100D400086387B018C01C601B50120E030E040E02F
:100D50005FE30E94F9372FA938AD49AD5AAD0E9423
:100D6000F9379F77A80197010E94B7350E948D3609
:100D70000E942436788F6F8B6115710509F487C145
:100D8000BFADBB2381F080E090E00E9450369B0114
:100D9000AC016BAD7CAD8DAD9EAD0E94F9376BAFF4
:100DA0007CAF8DAF9EAF2F89388DB90180E090E088
:100DB0000E9450367B018C01C601B501A801970144
:100DC0000E94B7356B8B7C8B8D8B9E8B6696EFADBF
:100DD0006697F0E0EE0FFF1FEE0FFF1F8BA99CA997
:100DE0008E0F9F1F9AA789A7ADA9BEA9EA0FFB1F67
:100DF0006081718182819381E9A5FAA52081318189
:100E0000428153810E94D634A80197010E94B735D0
:100E10006F87788B898B9A8B6B897C898D899E896A
:100E20009B01AC010E94F9379B01AC0160E070E0CE
:100E300080E090E40E94D6345B016C016B897C8970
:100E40008D899E892BEA3AEA4AE25EE30E94F937ED
:100E50007B018C01C601B50120E030E040E850E4A0
:100E60000E94D7349B01AC01C801B7010E94F93739
:100E70006B877C878D879E87C601B50120E030E0B7
:100E800040E05FE30E94F93769837A838B839C8318
:100E900021E030E03E832D839924F1C03BE03915F9
:100EA00008F446C06D8D7E8D8F8D98A12B853C8575
:100EB0004D855E850E94F9377B018C01698D7A8DA5
:100EC0008B8D9C8D29813A814B815C810E94F93701
:100ED0009B01AC01C801B7010E94D7347B018C0192
:100EE0006D8D7E8D8F8D98A129813A814B815C819A
:100EF0000E94F9375B016C01698D7A8D8B8D9C8D19
:100F00002B853C854D855E850E94F9379B01AC01A0
:100F1000C601B5010E94D6346D8F7E8F8F8F98A346
:100F20009394C701D801898F9A8FAB8FBC8F61C012
:100F3000AD81BE81BD0180E090E00E9450362B89DA
:100F40003C894D895E890E94F9377B018C01C8017B
:100F50000E94B4356F83788789879A87B701C80163
:100F60000E947C383B014C01EFA5F8A9E080F1809C
:100F70000281138117FB109517F91095ABA5BCA53D
:100F80002D903D904D905C90C801B7012F81388520
:100F900049855A850E94F9375B016C01C201B10194
:100FA000A40193010E94F9379B01AC01C601B50170
:100FB0000E94D7346D8F7E8F8F8F98A3C801B701A1
:100FC000A40193010E94F9377B018C01C201B10198
:100FD0002F81388549855A850E94F9379B01AC01DC
:100FE000C801B7010E94D634698F7A8F8B8F9C8F8E
:100FF00099246DA17EA18FA198A52D8D3E8D4F8D39
:1010000058A10E94D734E9A9FAA960837183828329
:10101000938369A17AA18BA19CA1298D3A8D4B8DD7
:101020005C8D0E94D734ADA5BEA56D937D938D9345
:101030009C931397E9A5FAA56081718182819381C0
:101040002F85388949895A890E94D734A9A5BAA51C
:101050006D937D938D939C9313978BA99CA94BAD16
:101060005CAD6DAD7EAD2FAD0E94CD0480912705A6
:101070008823B1F4ED81FE813196FE83ED832D81CD
:101080003E818F89988D2817390708F407CF8DA9DD
:101090009EA94BAD5CAD6DAD7EAD2FAD0E94CD0474
:1010A000EF960FB6F894DEBF0FBECDBFCF91DF91A4
:1010B0001F910F91FF90EF90DF90CF90BF90AF9076
:1010C0009F908F907F906F905F904F903F902F9068
:1010D00008952F923F924F925F926F927F928F92DC
:1010E0009F92AF92BF92CF92DF92EF92FF920F93B7
:1010F0001F93DF93CF93CDB7DEB7A8970FB6F894C1
:10110000DEBF0FBECDBF1C01E6E8F5E089E3DF01DD
:101110001D928A95E9F73196A7E4B5E08AE00D9033
:1011200001928150E1F71982AA24BB241CA27724E2
:1011300066241F8E1E8E61E0462E512C99249394B6
:1011400052E0852EA6C2802F81548A3118F081E0AA
:101150000C946B129F5F9983C101BE016F5F7F4F3B
:10116000AE014E5F5F4F0E943028882319F482E061
:101170000C946B12CA80DB80EC80FD80C701B60145
:101180000E94D3380E942436162F70E0882777FDFE
:101190008095982F0E9452369B01AC01C701B60181
:1011A0000E94D63420E030E048EC52E40E94F93747
:1011B0000E945C380E9424369B01073421F00D34D4
:1011C00009F08DC141C1183209F446C0193200F549
:1011D000143170F4113108F0E2C0143009F448C041
:1011E000143008F494C01A3011F00C945A1236C01E
:1011F0001C31A1F11D3128F4163110F00C945A1253
:10120000FBC01E3159F1163211F00C945A127FC0F6
:10121000103509F483C0113588F4153349F11633BC
:1012200040F41B3209F4F1C0113311F00C945A123E
:10123000ECC01C3310F00C945A12FEC01C3571F037
:101240001D3528F41A3510F40C945A12B8C01F3505
:1012500010F00C945A12C7C087E0F2C02115310576
:1012600039F4BCA1BB2311F00C945812E1E0ECA3BB
:101270001C31A9F01D3128F4143051F01A3069F4F2
:101280000AC0153371F11C3581F11E3131F418C0DB
:101290009092860502C08092860580E0D1C021151B
:1012A000310531F02A30310511F00C945A1204C086
:1012B000F3E0F093860529C024E02093860525C03D
:1012C0002115310531F02A30310511F00C945A12F4
:1012D00004C085E08093860518C096E0909386054B
:1012E00014C0A7E0A0938605D8CF2115310531F0B1
:1012F0002A30310511F00C945A1204C0B8E0B093B2
:10130000860503C0E9E0E093860580E0D8C0FCA133
:10131000FF2311F00C94581282E08CA3123089F054
:10132000133028F4112351F0113069F40AC0163239
:1013300061F0103581F1133031F403C0109287054C
:1013400002C01093870581E07BC02E313105B1F0DA
:101350002F31310530F42431310511F00C945A123B
:1013600009C02832310571F02233310511F00C9497
:101370005A120CC094E0909387050BC0A5E0A0938F
:10138000870507C0B6E0B093870503C0E7E0E093A8
:10139000870581E094C0F8E0F0938705D4CF12313F
:1013A00039F0133149F0113129F410928B0502C044
:1013B00090928B0582E044C080928B05FBCF611533
:1013C000710551F41A3521F410928A050C94871294
:1013D00090928A050C9487126A30710511F40C946E
:1013E00084120C945A121D3519F49092880502C08B
:1013F0001092880585E024C0143119F49092890573
:1014000002C01092890586E01BC08CA1882311F0D0
:101410000C945812113329F410928C0593E09CA37C
:1014200009C02A30310511F00C945A1290928C05A3
:10143000A3E0ACA388E043C0165310938D0589E068
:10144000232BE9F10C945C12672B11F00C945C12C5
:10145000163018F41330C0F40AC0183010F40C948D
:101460005A121A3008F11E3111F00C945A1212302F
:1014700041F01E3131F0112311F490928E058AE073
:101480001EC080928E05FBCF143039F0153041F02C
:10149000133041F49092900505C08092900502C0EF
:1014A000109290058BE00BC0183019F0193031F410
:1014B00003C080928F0502C010928F058CE09201CC
:1014C00002C0220F331F8A95E2F7C9018A219B21AE
:1014D000892B11F00C945E12A22AB32ADAC00035CF
:1014E00009F46CC001359CF40A34F1F10B3434F486
:1014F000063421F1093409F0DDC72AC00C3409F49F
:101500004BC00C34ECF10E3409F0D4C749C004359B
:1015100099F005353CF4023509F45AC0033509F059
:10152000C9C760C0093509F473C00A3509F47CC025
:10153000083509F0BFC760C029E081C0C09291059D
:10154000D0929205E0929305F092940520E077C046
:10155000C0929505D0929605E0929705F092980575
:10156000B1E06B2A21E06BC0C0929905D0929A0538
:10157000E0929B05F0929C05E2E06E2A22E05FC0BB
:10158000C0929D05D0929E05E0929F05F092A00525
:10159000F4E06F2A23E053C01093A10524E04FC06C
:1015A000C701B6010E941F366093A2057093A30580
:1015B0008093A4059093A50525E041C0C092A6059F
:1015C000D092A705E092A805F092A90526E037C0C1
:1015D000C092AA05D092AB05E092AC05F092AD05A1
:1015E00027E02DC0C092AE05D092AF05E092B005C5
:1015F000F092B10528E023C0C092B305D092B405A3
:10160000E092B505F092B60521E0722A2AE017C0F3
:10161000C092B705D092B805E092B905F092BA052C
:1016200082E0782A2BE00BC0C092BB05D092BC05AB
:10163000E092BD05F092BE0594E0792A2CE082018B
:10164000022E02C0000F111F0A94E2F78E8D9F8DAB
:1016500080239123892B11F089E13DC781E693E036
:1016600002C0959587952A95E2F780FF0CC0C701C7
:10167000B60120E030E040E050E00E94B035882321
:1016800014F484E028C7AE8DBF8DA02BB12BBF8F83
:10169000AE8F9981F101E90FF11D0081002309F05E
:1016A00052CD772029F0BCA1BB2311F4E2E0ECA3DA
:1016B000FE8DF5FF0FC08091A2059091A305A0912A
:1016C000A405B091A50580589649A849B04014F0EA
:1016D0008BE101C780918805813039F48CA182307B
:1016E000B1F59E8D90FD33C0EBC6809148058823EF
:1016F00071F5AE8DA0FF1BC080918905813039F551
:101700006091910570919205809193059091940557
:1017100023E333E34BEC51E40E94F93760939105E6
:1017200070939205809393059093940510C08091D7
:10173000550590915605A0915705B0915805809395
:10174000910590939205A0939305B0939405EE8D27
:10175000FF8DF0FD10C08091510590915205A09130
:101760005305B09154058093AE059093AF05A093B7
:10177000B005B093B10580918605813041F4FE8DAE
:10178000F6FFA0C68E8D9F8D8F7B9F8F8E8F809151
:101790008B05882341F0813061F492E09BA31AA26B
:1017A000A1E0A9A30BC01BA2B1E0BAA3E2E0E9A3A8
:1017B00005C0F1E0FBA322E02AA319A280918905CC
:1017C000813051F543EBE42E45E0F42E00E010E0CB
:1017D000C72CDD24C601002E02C0959587950A947A
:1017E000E2F780FF10C0D7016D917D918D919C91A2
:1017F00023E333E34BEC51E40E94F937F7016083B4
:101800007183828393830F5F1F4F84E090E0E80E23
:10181000F91E03301105F1F69CA1933049F4809133
:101820008C05813029F4A4E07A1611F085E253C6C4
:10183000DE011696EAE6F5E08CE001900D9281500B
:10184000E1F7B1FE12C090918D05973008F03CC6CB
:1018500080914D05891749F0892FBE016A5F7F4F3E
:101860000E949822882309F431C68091860582302F
:1018700021F0883009F0FDC09AC0772009F428C60D
:101880008E8D9F8D80759070892B09F41BC6609199
:10189000A6057091A7058091A8059091A9050E94C1
:1018A000D3380E942436673008F00EC62091A10577
:1018B000243131F0223009F0FDC5BE8DB7FDFAC5E7
:1018C000662319F0615068A303C0E0918D05E8A379
:1018D0008E010E5E1F4F88A1B8010E9498228823B6
:1018E00009F4F4C5780133EB832E35E0932E2EE511
:1018F000C22E25E0D22E00E010E0A72CBB24C501AB
:10190000002E02C0959587950A94E2F780FF3BC0B0
:101910008091A105843169F5D6016D917D918D91FC
:101920009C91139758962D913D914D915C915B97A9
:101930000E94D634F40120813181428153810E947A
:10194000D634D7016D937D938D939C93139702307A
:10195000D1F4209182053091830540918405509106
:1019600085050E94D634F701608371838283938357
:101970000AC0F40180819181A281B381F701808343
:101980009183A283B3830F5F1F4F84E090E0E80E42
:10199000F91E880E991EC80ED91E0330110509F0D4
:1019A000AECFAE8DBF8DAF7ABF8FAE8F02C1772025
:1019B00009F48EC503EB15E09EE5C92E95E0D92EFE
:1019C00086E0882E912C8C0E9D1EEE24FF24A72CE1
:1019D000BB24C5010E2C02C0959587950A94E2F7A9
:1019E00080FF2CC0F6016081718182819381D401D6
:1019F0002D913D914D915C910E94D634F80120814A
:101A00003181428153810E94D634D8016D937D93F8
:101A10008D939C931397B2E0EB16D1F4209182053D
:101A20003091830540918405509185050E94D634FC
:101A3000F80160837183828393830AC0F601808DED
:101A4000918DA28DB38DF80180839183A283B3839E
:101A50000894E11CF11C0C5F1F4F84E090E0C80E5D
:101A6000D91E880E991E93E0E916F10409F0B1CF52
:101A70009FC0ACA1A33009F47CC0772009F479C0E1
:101A80001EE5C12E15E0D12E03EB15E0B6E0AB2E1E
:101A9000B12CAC0EBD1EEE24FF24872C9924C4016A
:101AA0000E2C02C0959587950A94E2F780FD0BC035
:101AB000F60180819181A281B381F80180839183B5
:101AC000A283B38346C080918605873009F441C064
:101AD00080918A05882361F5D5016D917D918D9165
:101AE0009C91F601208D318D428D538D0E94D7340B
:101AF000D8012D913D914D915C910E94D734F80110
:101B00006083718382839383F2E0EF1611F5209155
:101B100082053091830540918405509185050E948E
:101B2000D734D8016D937D938D939C93139711C0F7
:101B3000F8016081718182819381D6012D913D915F
:101B40004D915C910E94D734F80160837183828348
:101B500093830894E11CF11C84E090E0C80ED91E28
:101B60000C5F1F4FA80EB91E93E0E916F10409F0AF
:101B700096CF80918605853049F0873099F0833083
:101B8000B9F4772009F41CA286E004C0772009F498
:101B90001CA287E0BE016E5E7F4F0E9498228823C0
:101BA00039F494C480918705823010F08EE193C49B
:101BB00018A210918705183049F4772009F45FC204
:101BC000ACA1A13009F45BC28FE185C4BCA1B230E5
:101BD00009F055C21123E9F06091910570919205C9
:101BE000809193059091940520E030E040E050E032
:101BF0000E94B035882309F463C4143030F41230E5
:101C000060F4113009F03BC204C0183008F037C24C
:101C100013C2772009F432C232C2772009F458C4C3
:101C2000FBA1EF2FF0E0F8A7EFA39AA1892F90E096
:101C30009EA38DA381E090E08C010DA002C0000F57
:101C4000111F0A94E2F70FA002C0880F991F0A948F
:101C5000E2F7082B192B872D90E080239123892B05
:101C600011F480E238C4EFA1F8A5EE0FFF1FEE0FCC
:101C7000FF1FDF01A95BBA4FEA57FA4F65A576A5AA
:101C800087A590A957962D913D914D915C915A97BA
:101C90000E94D6345B016C01EDA1FEA1EE0FFF1F87
:101CA000EE0FFF1FDF01A95BBA4FEA57FA4F65A598
:101CB00076A587A590A957962D913D914D915C9160
:101CC0005A970E94D6341B012C01AE8DA7FF02C18A
:101CD0000EE515E063EBE62E65E0F62EF801608177
:101CE000718182819381D7012D913D914D915C91BC
:101CF0000E94B035882359F40C5F1F4FE4E0F0E0F8
:101D0000EE0EFF1EF5E00A361F0741F7E3C3809190
:101D100089058130B1F46091AA057091AB0580917D
:101D2000AC059091AD0523E333E34BEC51E40E9405
:101D3000F9376093AA057093AB058093AC05909337
:101D4000AD05E090AA05F090AB050091AC051091AF
:101D5000AD05C801B70120E030E040E850E40E9442
:101D6000F937A80197010E94F9377B018C01C60160
:101D7000B501A60195010E94F9379B01AC01C8018C
:101D8000B7010E94D6347B018C01C201B101A201CE
:101D900091010E94F9379B01AC01C801B7010E9473
:101DA000D6347B018C0120E030E040E050E00E941E
:101DB000B035882314F482E28EC3C801B7010E94B3
:101DC00086387B018C01C601B501A20191010E94F8
:101DD000F2289B01AC0117FB109517F91095C8016B
:101DE000B7010E94B7357B018C0180918705833054
:101DF00021F417FB109517F910956090AA057090C3
:101E0000AB058090AC059090AD05C401B30120E016
:101E100030E040E050E00E94B03588237CF417FBAE
:101E2000109517F91095D401C301B0588093AA05F5
:101E30009093AB05A093AC05B093AD058E8D9F8DAF
:101E40008F779F8F8E8FAFA1B8A5AA0FBB1FAA0F48
:101E5000BB1FA657BA4FB8A7AFA3C201B101A801D3
:101E600097010E94F9379B01AC01C601B5010E94A0
:101E7000D63420E030E040E05FE30E94F937EFA184
:101E8000F8A563877487858796878DA19EA1880FA3
:101E9000991F880F991F86579A4F9EA38DA3C6013D
:101EA000B501A80197010E94F9379B01AC01C2015D
:101EB000B1010E94D73420E030E040E05FE30E94AF
:101EC000F937ADA1BEA11B966D937D938D939C9325
:101ED0001E97D5C0862C992408211921012B11F4B5
:101EE00083E2F9C2EE8DFF8DE17FFF8FEE8F80914F
:101EF0008905813041F535E9E32E35E0F32E00E028
:101F000010E0C401002E02C0959587950A94E2F76F
:101F100080FF10C0D7016D917D918D919C9123E33D
:101F200033E34BEC51E40E94F937F701608371838E
:101F3000828393830F5F1F4F84E090E0E80EF91EC9
:101F400003301105F1F6EFA0F8A4EE0CFF1CEE0C27
:101F5000FF1CAAE8B5E0EA0EFB1EC601B501F701B9
:101F600023853485458556850E94D6345B016C01F6
:101F70000DA11EA1000F111F000F111F06571A4FB0
:101F8000C201B101D8011B962D913D914D915C91FB
:101F90001E970E94D6349B01AC01C601B5010E9478
:101FA000F2285B016C01F701638574858585968550
:101FB000D8011B962D913D914D915C911E970E94E9
:101FC000F2283B014C016093AA057093AB05809306
:101FD000AC059093AD05C601B501A40193010E9423
:101FE000D6347B018C01E89417F9C801B7012AE0C7
:101FF00037ED43EA5BE30E94BE3718160CF03FC092
:10200000C801B70120E030E040E05FE30E94BE3746
:1020100018160CF45FC2C401B3012FE632E143E8A5
:102020005AE30E94F9379B01AC01C801B7010E9435
:10203000BE37181624F54EC2772009F449C20EE5C2
:1020400015E083EBE82E85E0F82EF80160817181C0
:1020500082819381D7012D913D914D915C910E9498
:10206000B035882361F40C5F1F4FE4E0F0E0EE0E22
:10207000FF1EF5E00A361F0741F72CC21CA28E8D09
:102080009F8D8E7D9C7F2CA1222321F08E8D9F8D94
:102090008E7D907E892B11F084E21DC28091A20575
:1020A0009091A305A091A405B091A50580935A0530
:1020B00090935B05A0935C05B0935D0580918805C6
:1020C000809348058091910590919205A091930588
:1020D000B09194058093550590935605A0935705AC
:1020E000B0935805E090AE05F090AF050091B005B3
:1020F0001091B10560915105709152058091530581
:1021000090915405A80197010E94B0358823C1F031
:1021100080915005882321F0B801A7010E94111376
:102120008091AE059091AF05A091B005B091B10539
:102130008093510590935205A0935305B093540595
:102140008091B2058093590590919005809150053A
:10215000891779F0409151055091520560915305CE
:1021600070915405892F0E941113809190058093DE
:10217000500590918F0580914F05891739F0892F6F
:102180000E94351380918F0580934F0580918605BD
:10219000813051F46091A6057091A7058091A80542
:1021A0009091A9050E94720480918B0580934B0544
:1021B00080918905809349058CA18330D9F4809161
:1021C0008C0580934C05813049F48091BB0590913A
:1021D000BC05A091BD05B091BE0504C080E090E0B3
:1021E000A0E0B0E08093820590938305A0938405DE
:1021F000B093850590918D0580914D05891759F013
:1022000090934D05AAE6B5E0FE0136968CE001906C
:102210000D928150E1F780918A0580934A05809163
:102220008605853059F1863048F4833039F18430A1
:1022300008F044C0823009F05AC00AC0883009F45E
:1022400045C0893009F44CC0863009F050C038C010
:102250008E010E5E1F4F88A1B8010E948D228091D1
:102260004D0598A1891709F042C0AAE6B5E0F8012A
:102270008CE001900D928150E1F739C0ACA1AA2306
:1022800049F083EB95E040E050E060E87FEB20E030
:102290000E94CD048E010E5E1F4FC80140E050E049
:1022A00060E87FEB20E00E94CD04AEE5B5E0F801E8
:1022B0008CE001900D928150E1F719C086E001C0D9
:1022C00087E06EE575E00E948D2211C0A6E7B5E0BB
:1022D000E3EBF5E08CE001900D928150E1F707C04F
:1022E0008CE0E6E7F5E0DF011D928A95E9F7809141
:1022F000870580934705883009F4C2C0BCA1B2307D
:1023000009F0BEC0833009F44AC0843028F481301B
:10231000C1F0823028F50DC0853009F47AC08530CF
:1023200008F469C0863009F482C0873009F09FC084
:102330008DC083EB95E040E050E060E87FEB20E06B
:102340000CC040915505509156056091570570910C
:10235000580583EB95E0209148050E94CD0487C085
:1023600000D00F92EDB7FEB731960091AA051091FB
:10237000AB052091AC053091AD05C0905505D090CE
:102380005605E0905705F09058058AA1ADB7BEB745
:1023900011968C9399A1918381E082831DC000D016
:1023A0000F92EDB7FEB731960091AA051091AB05DB
:1023B0002091AC053091AD05C0905505D0905605E3
:1023C000E0905705F09058058AA1ADB7BEB71196B9
:1023D0008C9399A1918312828EE595E063EB75E071
:1023E00045E955E0A09048058BA00E9480050F901C
:1023F0000F900F903CC0409155055091560560914B
:1024000057057091580583EB95E02091480500E051
:102410001BC040915505509156056091570570912C
:10242000580583EB95E02091480500E01CC04091E1
:10243000550550915605609157057091580583EBED
:1024400095E02091480501E0EE240FC0409155052C
:1024500050915605609157057091580583EB95E0B2
:102460002091480501E0EE24E3940E94FE04AEE5CD
:10247000B5E0E3EBF5E08CE001900D928150E1F7DF
:1024800080918E0580934E05882329F10E94621564
:1024900081E0809329050E94311480914E0582309D
:1024A00019F40E94330402C010924E0580E013C05C
:1024B00088E111C084E10FC087E10DC085E10BC048
:1024C00086E109C08CE107C08DE105C087E003C04B
:1024D0008AE101C081E2A8960FB6F894DEBF0FBE74
:1024E000CDBFCF91DF911F910F91FF90EF90DF90C3
:1024F000CF90BF90AF909F908F907F906F905F90A4
:102500004F903F902F90089584E00C945F0A83E0F1
:102510000C945F0A8EE595E06CE275E00E94D33280
:102520000895E7E4F5E08FE3DF011D928A95E9F76E
:1025300080914D05BF016D5D7F4F0E9498228823D9
:1025400019F487E00E94E12D0895239A259AE0EB83
:10255000F0E080818F7780830895E0EBF0E0808168
:102560008F7780830895EF92FF920F931F937A01E4
:102570008B01882331F48091B0008F778093B00075
:102580004BC0813011F42D9801C02D9A83E88093BF
:10259000B0008091B100887F82608093B100C80153
:1025A000B70120E030E040E050E00E94B0358823E1
:1025B0005CF40F2EF0E0EF2EF0E0FF2EF0E00F2F96
:1025C000F0E01F2FF02D14C0C801B70120E030E06B
:1025D0004AE754E40E94BE37181654F40F2EF0E078
:1025E000EF2EF0E0FF2EFAE70F2FF4E41F2FF02D6F
:1025F000C801B7012CE53FE842E85EE30E94F937E5
:1026000020E030E040E05FE30E94D7340E948D3646
:102610000E9424366093B3001F910F91FF90EF90BA
:102620000895DF92EF92FF920F931F93D82E7A01B5
:102630008B0180912805823039F00E9462158D2D22
:10264000B801A7010E94B3121F910F91FF90EF9064
:10265000DF9008953B9A43980895439808958230F7
:1026600011F4439A0895439808951F93182F809169
:102670002805823039F00E946215123011F4439A15
:1026800001C043981F91089590910101809100012C
:10269000891710F0891B08958058891B0895E0EC74
:1026A000F0E08081826080831092C50080E1809399
:1026B000C400E1ECF0E080818061808380818860EB
:1026C00080838081806880830895282FE0910201B3
:1026D0009E2F9F5F903431F490E004C080912A05D2
:1026E00084FD0FC0809103019817C1F3F0E0E1541D
:1026F000FA4F2083909302018091C1008062809301
:10270000C10008951F920F920FB60F9211248F935C
:102710009F93EF93FF9380910301E82FF0E0E15442
:10272000FA4F90819093C600982F9F5F903409F4E0
:1027300090E09093030180910201981729F4809111
:10274000C1008F7D8093C100FF91EF919F918F9188
:102750000F900FBE0F901F901895909101018091DE
:102760000001891711F48FEF0895E92FF0E0E1508F
:10277000FA4F8081E92FEF5FE03809F4E0E0E09361
:1027800001010895809100018093010108951F9235
:102790000F920FB60F9211242F933F934F935F9395
:1027A0006F937F938F939F93AF93BF93EF93FF9319
:1027B0009091C6009F3361F0903428F4983119F15C
:1027C000913221F514C09034C1F09E37F9F406C05F
:1027D0009FB7F89480912A05816005C09FB7F8944F
:1027E00080912A05826080932A059FBF20C09FB7F1
:1027F000F89480912A058860F6CF9FB7F89480916D
:102800002A058062F0CF0E94330411C0E0910001DC
:102810002E2F2F5F203809F420E080910101281726
:1028200031F0F0E0E150FA4F908320930001FF91E6
:10283000EF91BF91AF919F918F917F916F915F9138
:102840004F913F912F910F900FBE0F901F901895B1
:102850009FB7F89480912A05826080932A059FBFD4
:102860000895CF92DF92EF92FF920F931F93CF9331
:10287000DF93FF24F39428E0D22E90E2C92E00E1EA
:1028800080E4E82E80912B05882381F1F0922805C1
:10289000182F81FF02C081E00FC082FF02C082E0DA
:1028A0000BC083FF02C083E007C084FF02C084E046
:1028B00003C085FF03C085E00E94763210FF0FC081
:1028C00081E00E94B22D9FB7F89480912A058F7EF7
:1028D00080932A059FBF80912A0584FFFCCF8FB784
:1028E000F89490912B0510922B058FBF10912A051B
:1028F000112309F4C5C0C12FD0E014FF04C081E04A
:1029000080932705D6C010FF0AC00E94482E9FB7AB
:10291000F89480912A058E7F80932A059FBFCE016F
:1029200088769070892B09F43DC0909128059923F1
:1029300049F0892F8C7771F1983021F40E945D164F
:10294000F092290590912805992319F482E080934B
:102950002905C6FF09C0983011F4E092280580913E
:102960002905886080932905C3FF06C0809128054A
:1029700085FD02C000932805C5FF0CC086E00E94BB
:10298000B22D8091290581FD146084608093290512
:10299000C09228059FB7F89480912A058779809383
:1029A0002A059FBFC12FD0E011FF4AC0CE01887613
:1029B0009070892BE9F580912805882331F0807586
:1029C000B9F18091290581FF33C08091290582FFEB
:1029D0001CC080915005882371F0409151055091A1
:1029E000520560915305709154050E94B31280EA1C
:1029F0009FE00E94E82880914F05882331F00E94D3
:102A00002F1388EE93E00E94E8280E946223892B0E
:102A100059F08091290583FD07C0D09228050E94B6
:102A20007F160E94FD1502C01092280510922905FC
:102A30009FB7F89480912A058D7F80932A059FBFC8
:102A4000C2FF1EC080912805807371F08091290516
:102A500082FF04C00E94AD120E942D1380912905AF
:102A600082608093290504C01092290510922805E0
:102A70009FB7F89480912A058B7F80932A059FBF8A
:102A8000809128058C7711F00E947F16809128058F
:102A9000803251F48091290581FF06C00E94B53231
:102AA000882311F40093280580912905882309F0D3
:102AB000E9CEDF91CF911F910F91FF90EF90DF90C2
:102AC000CF9008959FB7F89480912A0582608093F3
:102AD0002A059FBF0E94311480912705882341F465
:102AE0000E946223892BB1F780912805883091F3E9
:102AF00008950F931F930E94AD2D8091280581307A
:102B000021F482E00E94B22D28C00E94B5328823B1
:102B100041F080912A05806280932A050E94311439
:102B200002C01092280584E091E00E943E3315C057
:102B30009A3011F09D3029F5E12FF0E0EC5FFE4F67
:102B400010820E94311480912705882331F48091EE
:102B50000401882321F40E94E12D00E025C0843285
:102B600029F484E091E00E946A33F5CF8091280532
:102B7000813011F489E0EFCF84E091E00E94690890
:102B8000EACF002321F0993209F500E01FC091320D
:102B9000E8F09F32D9F0983211F401E017C01F34E9
:102BA00028F08BE00E94E12D10E010C0892F8156A3
:102BB000A12FB0E0E12FEF5F8A3120F4AC5FBE4F70
:102BC000905202C0AC5FBE4F9C931E2F0E94AD136B
:102BD000982F8F3F09F0ACCF8FB7F89490912A05CA
:102BE000926090932A058FBF0E943114809127052F
:102BF000882361F31F910F9108958091BC0682FF95
:102C000002C0289A01C02898809128058C70E1F0B4
:102C10008091F4018093DC018091F3018093DB01CA
:102C20008091AF0690E0A0E0B0E00297A109B10961
:102C3000880F991FAA1FBB1F81958093DA0180918D
:102C40006F00826080936F0008951F920F920FB6FD
:102C50000F9211248F939F939BB18091F3018C71FC
:102C6000937E892B8BB915BC9F918F910F900FBECE
:102C70000F901F9018958AB18C618AB9209A8AB1F9
:102C8000806E8AB9E1E8F0E080818F7E8083808168
:102C900088608083E0E8F0E080818C7F80838081A1
:102CA0008F708083EEE6F0E08081887F808314BCA3
:102CB00015BC8081816080830895CF93DF93C0919C
:102CC000F601D091F7012097B9F081E08093FB01E4
:102CD000209111023091120240911302509114027E
:102CE000CA01B9010E94F937698B7A8B8B8B9C8B57
:102CF0001092F7011092F601DF91CF9108952F9273
:102D00003F924F925F926F927F928F929F92AF927B
:102D1000BF92CF92DF92EF92FF920F931F93DF93B8
:102D2000CF93CDB7DEB7E9970FB6F894DEBF0FBEED
:102D3000CDBF80912805807709F422C660911102E9
:102D400070911202809113029091140220E030E001
:102D500040E050E00E94B035882309F011C617C644
:102D60008091F6019091F701892B09F07EC20E94B3
:102D700062239093F7018093F601892B09F407C62B
:102D80008091FB01882319F01092FB01CAC0809149
:102D9000FA018F5F8093FA01853011F41092FA01E5
:102DA000E091FA0121E1E29FF0011124EC5AFE4F7B
:102DB000F093F901E093F8010091F6011091F70109
:102DC000D8018C91808311962D913D914D915C910C
:102DD000149793E0220F331F441F551F9A95D1F784
:102DE000218332834383548315962D913D914D91D8
:102DF0005C91189783E0220F331F441F551F8A955B
:102E0000D1F7258336834783508719962D913D91BD
:102E10004D915C911C9773E0220F331F441F551F87
:102E20007A95D1F721873287438754871D962D9154
:102E30003D914D915C91509763E0220F331F441FE9
:102E4000551F6A95D1F7258736874787508B1D9682
:102E50006D917D918D919C9150970E945036609319
:102E6000FC017093FD018093FE019093FF01F80136
:102E700025A136A147A150A50E94B7359B01AC0101
:102E80006093000270930102809302029093030208
:102E900060E070E080EA9FE30E94B735609304022F
:102EA00070930502809306029093070280E090E001
:102EB000A0E0B0E08093080290930902A0930A0278
:102EC000B0930B02809128058077E1F020911902E0
:102ED00030911A0240911B0250911C022093110262
:102EE000309312024093130250931402CA01B901A5
:102EF0000E94F937D80151966D937D938D939C93E1
:102F000054970FC0F80161897289838994890E945E
:102F1000863860931102709312028093130290938B
:102F2000140280E090E0A0E0B0E080930D02909366
:102F30000E02A0930F02B09310020091F6011091BF
:102F4000F701D80191968D919D910D90BC91A02D86
:102F500088AB99ABAAABBBAB60E070E080E09FE3CD
:102F600028A939A94AA95BA90E94B7351B012C01E0
:102F700080912805807709F456C0B2E0B0930C0226
:102F8000F801A5A0B6A0C7A0D0A4618872888388E4
:102F90009488C201B101A40193010E94F9379B01F9
:102FA000AC01C601B5010E94D6347B018C0120E042
:102FB00030E040E050E00E94B0358823FCF468A97E
:102FC00079A98AA99BA920E030E040E050EC0E945A
:102FD000F937A60195010E94F9379B01AC01C401A4
:102FE000B3010E94D7340E9486386093190270930F
:102FF0001A0280931B0290931C0237C1E0920D02CB
:10300000F0920E0200930F021093100280E090E005
:10301000A0E0B0E08093190290931A02A0931B02E3
:10302000B0931C0222C110920C02F80185A196A156
:10303000A7A1B0A580931D0290931E02A0931F022A
:10304000B09320020E94E1245B016C01609319029D
:1030500070931A0280931B0290931C02A6019501A3
:103060000E94F9373B014C012091F6013091F701A4
:1030700039AF28AFD90195968D919D910D90BC9156
:10308000A02D8B8F9C8FAD8FBE8FF90161897289C6
:1030900083899489A40193010E94D6349B01AC01D9
:1030A000C201B1010E94F9379B01AC016B8D7C8D8F
:1030B0008D8D9E8D0E94D73420E030E040E05FE3AC
:1030C0000E94F9377B018C0120E030E040E050E0C5
:1030D0000E94BE3718160CF0B4C0C801B7012B8D82
:1030E0003C8D4D8D5E8D0E94B03588230CF095C0CF
:1030F000A8ADB9AD5D966D917D918D919C919097A4
:10310000A40193010E94D6349B01AC01C201B1011C
:103110000E94F93760932102709322028093230268
:1031200090932402A80197010E94B03588230CF0E7
:1031300047C0E8ADF9ADE58CF68C078D10A1C8014C
:10314000B7010E948638609315027093160280932F
:10315000170290931802A8ADB9AD5196AD90BD90ED
:10316000CD90DC905497C601B501A80197010E944B
:10317000B035882321F4B1E0B0930C0276C0C801C9
:10318000B701A60195010E94D6349B01AC01C20192
:10319000B1010E94F9379B01AC0160911D02709151
:1031A0001E0280911F02909120020E94D6346093EB
:1031B0001D0270931E0280931F029093200255C03F
:1031C000E0921D02F0921E0200931F021093200253
:1031D000E0922102F0922202009323021093240233
:1031E000E8ADF9AD21A132A143A154A1CA01B901B1
:1031F0000E94D734A80197010E94F937A4019301D6
:103200000E94D7340E94863860931502709316028C
:10321000809317029093180228C0F2E0F0930C02FA
:103220008091110290911202A0911302B0911402A8
:103230008093150290931602A0931702B093180280
:1032400014C080E090E0A0E0B0E080931D02909375
:103250001E02A0931F02B0932002A0921502B0920A
:103260001602C0921702D09218028091F101B6E0C6
:103270008B9FD0011124A755BE4FB9AFA8AF809145
:10328000FA0112968C93E091F601F091F701FA8F12
:10329000E98F85A196A1A7A1B0A58D8B9E8BAF8B41
:1032A000B88FBC01CD0120910402309105024091FC
:1032B0000602509107020E94D6346CA37DA38EA310
:1032C0009FA320E030E040E050E00E94B03588232A
:1032D00044F480E090E0A0E0B0E08CA39DA3AEA316
:1032E000BFA380911D0290911E02A0911F02B09178
:1032F0002002898B9A8BAB8BBC8B809115029091AD
:103300001602A0911702B09118028D879E87AF8791
:10331000B88B8091210290912202A0912302B0915A
:10332000240289879A87AB87BC8780910D02909190
:103330000E02A0910F02B09110028D839E83AF8385
:10334000B8878091190290911A02A0911B02B09146
:103350001C0289839A83AB83BC8380911102909174
:103360001202A0911302B091140288A399A3AAA3F8
:10337000BBA390910C029F8FAD88BE88CF88D88C5C
:103380008EE393ECAEE2B9E38CA79DA7AEA7BFA7EF
:1033900080E090E0A0E0B0E088A799A7AAA7BBA72B
:1033A0000F2EFEE36F2EF3EC7F2EFEE28F2EF9E35D
:1033B0009F2EF02D9F8D992321F0913009F0B3C0FD
:1033C00080C0C401B301A98DBA8D91962D913D9114
:1033D0004D915C9194970E94F9377B018C0120E01C
:1033E00030E040E05FE30E94F9379B01AC0168A147
:1033F00079A18AA19BA10E94D7349B01AC01C40191
:10340000B3010E94F9379B01AC01C601B5010E94CE
:10341000D6345B016C0129893A894B895C890E9409
:10342000B03588230CF040C069897A898B899C89E2
:1034300029853A854B855C850E94B035882319F42F
:10344000B2E0BF8F02C0E1E0EF8F6D897E898F8986
:10345000988D29893A894B895C890E94D6349B01D1
:10346000AC010E94D7347B018C0168A179A18AA1AB
:103470009BA12D853E854F8558890E94D7349B019D
:10348000AC01C801B7010E94B7353B014C01A988C6
:10349000BA88CB88DC888D859E85AF85B88988A35E
:1034A00099A3AAA3BBA3B0C068A179A18AA19BA13B
:1034B000A80197010E94D73468A379A38AA39BA38C
:1034C000A3C06D857E858F859889A40193010E9494
:1034D000F9379B01AC01C601B5010E94D6347B01CE
:1034E0008C0129853A854B855C850E94B03587FD26
:1034F00003C05701680188C0C601B50129853A8516
:103500004B855C850E94D6342D853E854F85588934
:103510000E94B7353B014C01A984BA84CB84DC847A
:1035200092E09F8F71C0C401B301A98DBA8D9196AD
:103530002D913D914D915C9194970E94F9377B01BB
:103540008C0168A179A18AA19BA1A80197010E9481
:10355000BE371816ACF5C801B70120E030E040E0F6
:103560005FEB0E94F9379B01AC0168A179A18AA1A8
:103570009BA10E94D7349B01AC01C401B3010E94FE
:10358000F9379B01AC01C601B5010E94D6341B017D
:103590002C012D813E814F8158850E94BE3718161F
:1035A0007CF468A179A18AA19BA1A80197010E943E
:1035B000D63468A379A38AA39BA36201510124C0D6
:1035C000C601B5012D813E814F8158850E94D634B8
:1035D0009B01AC010E94D7347B018C0168A179A1C9
:1035E0008AA19BA129813A814B815C810E94D734B9
:1035F0009B01AC01C801B7010E94B7353B014C01EA
:10360000AD80BE80CF80D88468A579A58AA59BA50A
:10361000A40193010E94D73468A779A78AA79BA722
:103620002CA53DA54EA55FA50E94B03588232CF49E
:103630006CA57DA58EA59FA518C0C601B5012CA1BE
:103640003DA14EA15FA10E94BE3718160CF56CA5D6
:103650007DA58EA59FA52EE333EC4EE259E30E9493
:10366000D7346CA77DA78EA79FA728A539A54AA503
:103670005BA50E94D6343B014C01C601B5012D81EA
:103680003E814F8158850E94BE3718160CF492CEA9
:1036900088A199A1AAA1BBA18093110290931202C3
:1036A000A0931302B09314029F8D90930C02C60155
:1036B000B501209100023091010240910202509127
:1036C00003020E94F9376CAB7DAB8EAB9FAB0E94BF
:1036D0009D351B012C016091FC017091FD018091D1
:1036E000FE019091FF010E949D353B014C01A2011A
:1036F00091010E94D6340E942436A8ADB9AD6D93D5
:103700007C93672BB1F580912805807791F180E05B
:1037100090E0A0E0B0E08093110290931202A09399
:103720001302B09314028093080290930902A093AD
:103730000A02B0930B022092FC013092FD014092EC
:10374000FE015092FF010091F6011091F701C201B4
:10375000B10120910002309101024091020250918A
:1037600003020E94B735F80165A376A387A390A74B
:10377000FEC068A579A58AA59BA520910802309175
:10378000090240910A0250910B020E94D7347B013A
:103790008C01C401B3012CA93DA94EA95FA90E94C7
:1037A000D6349B01AC01C801B7010E94B7357B013B
:1037B0008C01C201B1012CA93DA94EA95FA90E94AB
:1037C000D634A80197010E94F937609308027093DC
:1037D000090280930A0290930B02C801B70120EC02
:1037E00031EE44E65EE40E94F9370E949D350E9466
:1037F0002436AB01BC01403DF7E05F07F0E06F0706
:10380000F0E07F0728F4A8ADB9AD15961C9233C03F
:10381000403ABFE05B07B0E06B07B0E07B0728F4FD
:1038200021E0E8ADF9AD25830FC040343FE15307F7
:1038300030E0630730E0730710F4E2E001C0E3E03A
:10384000A8ADB9AD1596EC93A8ADB9AD15962C9170
:103850001597022E04C076956795579547950A945B
:10386000D2F78D919C91119702C0880F991F2A95CC
:10387000E2F78D939C934030B0E05B07B1E06B07BB
:10388000B0E07B0728F4E8ADF9AD5483438308C06A
:10389000EFEFFFEFA8ADB9AD1496FC93EE9313973D
:1038A0008091F2018093F1018F5F8093F201863065
:1038B00011F41092F201C601B5012D813E814F81B4
:1038C00058850E94BE371816ACF4E091F601F091CD
:1038D000F701A5A2B6A2C7A2D0A68CA99DA9AEA9A0
:1038E000BFA98093FC019093FD01A093FE01B093CA
:1038F000FF0146C0C601B50120E030E040E050E0E5
:103900000E94BE371816B4F580E090E0A0E0B0E069
:103910008093110290931202A0931302B0931402A9
:103920008093080290930902A0930A02B0930B02BD
:103930002092FC013092FD014092FE015092FF0165
:103940000091F6011091F701C201B101209100022E
:103950003091010240910202509103020E94B7355A
:10396000D80195966D937D938D939C9398970E9423
:10397000D8240DC01092F7011092F6010E944E2338
:103980009091F0018091F201981709F0E9C9E99648
:103990000FB6F894DEBF0FBECDBFCF91DF911F9160
:1039A0000F91FF90EF90DF90CF90BF90AF909F90DE
:1039B0008F907F906F905F904F903F902F900895E1
:1039C000FF920F931F93CF93DF931092F301109206
:1039D000F401C0E0D0E00C2FFC2E8091B00690E006
:1039E0000C2E02C0959587950A94E2F780FF08C0D7
:1039F0001091F3018C2F0E945420182B1093F30187
:103A00008091B10690E002C095958795FA94E2F70F
:103A100080FF08C01091F401802F0E945E20182BB7
:103A20001093F4012196C330D105A9F6DF91CF910F
:103A30001F910F91FF90089580916F008D7F80936B
:103A40006F0080918100887F816080938100109257
:103A5000F5019091B2069F3F21F480912B058823B8
:103A600051F080912805843031F0892F90E00E9438
:103A7000E82891E001C090E08091BC0682FF02C07E
:103A800081E09827992311F0289A0895289808959D
:103A90000E941C1D8BE2EAEFF1E0DF011D928A9586
:103AA000E9F783E2EDECF1E0DF011D928A95E9F799
:103AB0001092EF011092EE011092F7011092F601B0
:103AC0001092F0011092F10181E08093F2011092C6
:103AD000F5010E94E01C8BB1837E9091F301892B4C
:103AE0008BB98BB18F719091F401892B8BB90895AB
:103AF0001F920F920FB60F9211242F933F934F9363
:103B00005F936F937F938F939F93AF93BF93CF9365
:103B1000DF93EF93FF938091F501882309F007C2AB
:103B20009BB18091DC01807E9F71892B8BB98BB119
:103B3000837E9091DB01892B8BB98091DA0186BD60
:103B400082E085BD81E08093F50178948091EE015B
:103B50009091EF01892B09F0A2C09091F001809122
:103B6000F101891709F490C09091F00186E0989FC7
:103B7000E0011124C755DE4FD093EF01C093EE0151
:103B80008B819C81909389008093880088819981A2
:103B90009093EA018093E9019A818091EB01891762
:103BA00061F19093EB01E1E19E9FF0011124EC5A49
:103BB000FE4FF093ED01E093EC0185859685A78596
:103BC000B089B695A795979587958093CD019093E9
:103BD000CE01A093CF01B093D0018093D1019093F7
:103BE000D201A093D301B093D4018093D5019093D7
:103BF000D601A093D701B093D801E091EC01F091E8
:103C0000ED018091F401908189278093DC012D8161
:103C100081819281A381B481022E04C0B695A795BB
:103C2000979587950A94D2F78093DD019093DE01F2
:103C3000A093DF01B093E00185819681A781B085D3
:103C4000022E04C0B695A795979587950A94D2F74A
:103C50008093E1019093E201A093E301B093E4012A
:103C600081859285A385B48504C0B695A79597955F
:103C700087952A95D2F78093E5019093E601A0936A
:103C8000E701B093E8010BC00E941C1D9FB7F89498
:103C900080912A05846080932A059FBF48C10E94B5
:103CA0008D2D1092DB012091DD013091DE014091DC
:103CB000DF015091E0018091CD019091CE01A09162
:103CC000CF01B091D001280F391F4A1F5B1F2093ED
:103CD000CD013093CE014093CF015093D001E091BC
:103CE000EC01F091ED0185859685A785B089821755
:103CF0009307A407B507A8F584E08093DB018585C9
:103D00009685A785B089281B390B4A0B5B0B20933E
:103D1000CD013093CE014093CF015093D0018081EB
:103D200085FF0CC080912C0590912D05A0912E054A
:103D3000B0912F050197A109B1090BC080912C0505
:103D400090912D05A0912E05B0912F050196A11DF2
:103D5000B11D80932C0590932D05A0932E05B09353
:103D60002F052091E1013091E2014091E301509152
:103D7000E4018091D1019091D201A091D301B09141
:103D8000D401280F391F4A1F5B1F2093D1013093A4
:103D9000D2014093D3015093D40185859685A785A0
:103DA000B08982179307A407B507B8F58091DB01A6
:103DB00088608093DB0185859685A785B089281B5F
:103DC000390B4A0B5B0B2093D1013093D201409306
:103DD000D3015093D401808186FF0CC080913005BF
:103DE00090913105A0913205B09133050197A10959
:103DF000B1090BC08091300590913105A091320539
:103E0000B09133050196A11DB11D809330059093AB
:103E10003105A0933205B09333052091E50130912F
:103E2000E6014091E7015091E8018091D501909120
:103E3000D601A091D701B091D801280F391F4A1F90
:103E40005B1F2093D5013093D6014093D701509347
:103E5000D80185859685A785B08982179307A40721
:103E6000B507B8F58091DB0180618093DB01858522
:103E70009685A785B089281B390B4A0B5B0B2093CD
:103E8000D5013093D6014093D7015093D80180815A
:103E900087FF0CC08091340590913505A0913605BF
:103EA000B09137050197A109B1090BC08091340584
:103EB00090913505A0913605B09137050196A11D69
:103EC000B11D8093340590933505A0933605B093CA
:103ED000370580912805843039F480913805909118
:103EE000DB0189238093DB018091E9019091EA0154
:103EF00001979093EA018093E901892B79F410925C
:103F0000EF011092EE018091F0018F5F8093F0013C
:103F10008091F001863011F41092F0018091F3014C
:103F20009091DB0189278093DB011092F501FF91CD
:103F3000EF91DF91CF91BF91AF919F918F917F9141
:103F40006F915F914F913F912F910F900FBE0F9006
:103F50001F901895F999FECF92BD81BD81E08FBB6E
:103F600080B50895F894F999FECF92BD81BD81E0A6
:103F70008FBB40B54627842F992787FD9095262F24
:103F800030E082239323892B39F06F3F19F060BD15
:103F900084E006C084E104C0442321F060BD84E2D3
:103FA0008FBBF99A789408958F929F92AF92BF92A7
:103FB000CF92DF92EF92FF920F93DF93CF9300D0D7
:103FC000CDB7DEB75C016B017A014A0100E01EC08B
:103FD000002319F021E030E008C0202F332727FD0F
:103FE00030952227330F221F3327F60161916F018D
:103FF000062F020F9C012F5F3F4F3A8329830E94B7
:10400000B21F08948108910889819A8181149104D2
:10401000F9F6C7018A0D9B1D602F0E94B21F0F90F9
:104020000F90CF91DF910F91FF90EF90DF90CF90A5
:10403000BF90AF909F908F900895CF93DF93EC0146
:10404000FB019A0190E0B1E019C0F999FECFF2BDF1
:10405000E1BDBFBBA0B5992319F081E090E008C095
:10406000892F992787FD90958827990F881F992771
:1040700031969A2F980FA993215030402115310580
:1040800021F7460F571FF999FECF52BD41BD81E080
:104090008FBB80B520E030E0981711F421E030E0CC
:1040A000C901DF91CF910895882311F484E0089528
:1040B000813011F080E1089588E00895882311F49B
:1040C00080E20895813011F080E8089580E4089539
:1040D000882311F482E00895813011F080E1089581
:1040E00084E0089580E090E00E94AA1F893011F0DA
:1040F00020E00CC08FE796E061E070E04DE450E016
:104100000E941D2020E0892B09F021E0822F0895D4
:1041100080E093E060E00E94B21F81E593E060E000
:104120000E94B21F089580E090E069E00E94B21FF3
:1041300081E090E06FE776E04DE450E00E94D41F0C
:104140000895CF92DF92EF92FF920F931F93082F63
:104150006A017B01CB01BA0120E030E040E050E091
:104160000E94B035882314F484E00EC1043608F4AC
:1041700059C0045690E0033008F04BC0913089F0EC
:10418000913030F09230D1F0933009F0F8C031C066
:10419000E02FF0E0EE0FFF1FEE0FFF1FE158F94F89
:1041A00008C0E02FF0E0EE0FFF1FEE0FFF1FE557F6
:1041B000F94FC082D182E282F382E1C010E0000FA9
:1041C000111F000F111F0956194FC701B60120E03A
:1041D00030E040E752E40E94F93720E030E040E769
:1041E00052E40E94F937F8016083718382839383DC
:1041F000C6C0E02FF0E0EE0FFF1FEE0FFF1FED55E2
:10420000F94FD701C601B05880839183A283B3834D
:10421000B6C00A3008F4B7C09F5F943009F4B3C049
:104220000A50A9CFC701B6010E94D3380E94243694
:10423000E02FF0E0EC31F10508F0A5C0EC5CFF4F99
:10424000EE0FFF1F0590F491E02D0994633010F4F8
:1042500086E09AC06093AF0692C06093B2068FC0AA
:104260006093B00602C06093B1060E94E01C87C054
:10427000662321F08091BC06846009C08091BC0651
:104280008B7F05C0662331F08091BC0680648093EB
:10429000BC0675C08091BC068F7BF9CF662321F0E8
:1042A0008091BC068068F3CF8091BC068F77EFCFFA
:1042B0006093B30664C0C092B406D092B506E09293
:1042C000B606F092B7065BC0C092B806D092B906A7
:1042D000E092BA06F092BB0652C0662321F08091AC
:1042E000BC068160D4CF8091BC068E7FD0CF662380
:1042F00041F08091BC0684FD02C08AE045C0806226
:10430000C6CF8091BC068F7DC2CF662321F08091FD
:10431000BC06886003C08091BC06877F8093BC0682
:104320000E941B292CC0662321F08091BC0680616D
:10433000AECF8091BC068F7CAACF6093BD061FC014
:10434000C092BE06D092BF06E092C006F092C106AF
:1043500016C0C092C206D092C306E092C406F09284
:10436000C5060DC06093C6061092C70608C0C0926D
:10437000C806D092C906E092CA06F092CB060E9407
:10438000932080E001C083E01F910F91FF90EF9098
:10439000DF90CF9008958AE08093AF0689E1809303
:1043A000B2061092B0061092B10683E08093B30675
:1043B0008AE097EDA3EABCE38093B4069093B50638
:1043C000A093B606B093B7068FE692E1A3E0BBE3F5
:1043D0008093B8069093B906A093BA06B093BB0633
:1043E0001092BD0680E090E0A8ECB1E48093BE0698
:1043F0009093BF06A093C006B093C10620E030E0C2
:104400004AEF53E42093C2063093C3064093C40698
:104410005093C5068AEF90E09093C7068093C60636
:1044200080E090E0A0E8BFE38093C8069093C906BF
:10443000A093CA06B093CB061092BC0680E090E031
:10444000AAE7B3E480937F0690938006A093810649
:10445000B09382068093830690938406A09385068A
:10446000B09386068093870690938806A09389066A
:10447000B0938A0620938B0630938C0640938D066A
:1044800050938E0620938F063093900640939106AA
:10449000509392062093930630939406409395068A
:1044A0005093960680E090EAACE0B7E480939706DC
:1044B00090939806A0939906B0939A0680939B06D2
:1044C00090939C06A0939D06B0939E0680939F06B2
:1044D0009093A006A093A106B093A20680E090E07E
:1044E000A8E4B3EC8093A3069093A406A093A5063A
:1044F000B093A6068093A7069093A806A093A9065A
:10450000B093AA068093AB069093AC06A093AD0639
:10451000B093AE060E94932008959DE0899FC0014C
:10452000112480509E4F4CE050E00E94D41F08950B
:104530000F931F93CF93DF93162F072F9DE0899F33
:10454000E0011124C050DE4F862F972FBE014CE0B2
:1045500050E00E941D20892B11F081E00FC0E12F57
:10456000F02F8CE0DF011D928A95E9F7CE01612FD3
:10457000702F4CE050E00E94D41F80E0DF91CF917B
:104580001F910F910895EF92FF921F93DF93CF93A6
:10459000CDB7DEB72C970FB6F894DEBF0FBECDBFF8
:1045A0000E947220882371F487E00E94E12D0E940E
:1045B000CB210E9488208EEA93E060E00E94B21F27
:1045C0000E94F83010E07E010894E11CF11C812F5C
:1045D000B7010E949822882319F487E00E94E12DF8
:1045E0001F5F1830A1F72C960FB6F894DEBF0FBEF0
:1045F000CDBFCF91DF911F91FF90EF900895BC0147
:104600008EEA93E040E550E00E94D41F0895CF93D6
:10461000DF93EC016EEA73E040E550E00E941D205C
:10462000892B11F081E009C018828EEA93E0BE0167
:1046300040E550E00E94D41F80E0DF91CF910895C3
:1046400091E5899FC001112480509D4F40E550E0C5
:104650000E94D41F08950F931F93CF93DF938B0174
:1046600091E5899FE0011124C050DD4FCB01BE01CF
:1046700040E550E00E941D20892B11F081E009C027
:10468000F8011082CE01B80140E550E00E94D41F2D
:1046900080E0DF91CF911F910F9108952091070540
:1046A00080910805821769F0922F9F5F923109F47B
:1046B00090E080910A05281711F490930A059093D1
:1046C000070508959091070580910805891719F449
:1046D00020E030E006C089E2989F900111242B5D14
:1046E0003D4FC901089520E090910705809109058B
:1046F000981709F421E0822F089580912C0590915C
:104700002D05A0912E05B0912F0580930B05909358
:104710000C05A0930D05B0930E0580913005909186
:104720003105A0913205B091330580930F05909328
:104730001005A0931105B093120580913405909156
:104740003505A0913605B0913705809313059093F8
:104750001405A0931505B0931605089580910805DA
:1047600090910705891710F0891B08958E5E891BAB
:1047700008954F925F926F927F928F929F92AF9225
:10478000BF92CF92DF92EF92FF920F931F93CF933E
:10479000DF9380910805882309F482E1782E7A94CA
:1047A00060900A05761409F4F2C089E2789E40010F
:1047B000112485E292E0880E991EF401A588B6883E
:1047C000C788D08C21A132A143A154A1CA01B9014B
:1047D0000E94D734F40125A136A147A150A50E941B
:1047E000F9377B018C01B501C601A80197010E9430
:1047F000B03587FD04C0D801C70157016D01C5015F
:10480000D601F401818B928BA38BB48B772011F4AA
:1048100032E1732E7A94761409F04EC08091070528
:10482000681609F050C00E945D164DC0769CE001EC
:104830001124CB5DDD4F772011F422E1722E7A94A2
:1048400080910705781611F40E945D16AD88BE8828
:10485000CF88D88C69897A898B899C89A601950132
:104860000E94B035882331F129A13AA14BA15CA166
:10487000CA01B9010E94D7342DA13EA14FA158A56C
:104880000E94F937F40121893289438954890E94B1
:10489000D7347B018C01A60195010E94B035882395
:1048A0002CF4E98AFA8A0B8B1C8B04C0A98ABA8A79
:1048B000CB8ADC8A4E0102C099E2692E80910A05FA
:1048C000781609F0B3CFA0900A05BA2CB394F2E1A0
:1048D000BF1609F4BB2489E2A89E800111240B5D58
:1048E0001D4F5090080589E2482E4CC0B49CE00151
:1048F0001124CB5DDD4FF801C188D288E388F488AC
:1049000069887A888B889C88C701B601A4019301C5
:104910000E94B03588231CF5F80121A132A143A1E2
:1049200054A1CA01B9010E94D734F80125A136A1CA
:1049300047A150A50E94F9379B01AC01C701B60100
:104940000E94D7347B018C01A40193010E94B035F1
:1049500088232CF4E98AFA8A0B8B1C8BAB2C69898F
:104960007A898B899C892D893E894F89588D0E942F
:10497000B035882309F4AB2CB394F2E1BF1609F4E7
:10498000BB248E01B51409F0B1CFA0920A05DF91C6
:10499000CF911F910F91FF90EF90DF90CF90BF903C
:1049A000AF909F908F907F906F905F904F90089501
:1049B0000E945D168091070580930A050E94B92325
:1049C0000895209107052F5F223109F420E080919E
:1049D0000805281729F460E070E080E090E012C03C
:1049E00030E089E290E0289FF001299FF00D389F88
:1049F000F00D1124EB5DFD4F6189728983899489E3
:104A00000E94863808952F923F924F925F926F9244
:104A10007F928F929F92AF92BF92CF92DF92EF924E
:104A2000FF920F931F93DF93CF93CDB7DEB7E0973D
:104A30000FB6F894DEBF0FBECDBF98A78FA349A7CE
:104A40005AA76BA77CA7222E9091080589E2989F10
:104A50004001112425E232E0820E931ED4011D96FE
:104A60001D921D921D921C92509780E090E0A0E054
:104A7000B0E0F40185A396A3A7A3B0A7108289E9AB
:104A800096E7A6E9BEE781A392A3A3A3B4A324015A
:104A9000332466247724F301E158F94FA080B180D4
:104AA000C280D380EFA1F8A5E60DF71DC601B501C0
:104AB00020813181428153810E94F9370E94C93798
:104AC0009B01AC01E1E0F0E0EC0FFD1FE60DF71DEE
:104AD0002083318342835383F301E55FFA4F808162
:104AE0009181A281B381281B390B4A0B5B0BDA0140
:104AF000C90157FF07C088279927DC01821B930B48
:104B0000A40BB50BF20181839283A383B483F401D8
:104B1000E584F684078510898E159F05A007B107E7
:104B200010F4D801C701F40185879687A787B08B59
:104B3000CA01B9010E945236A60195010E94B735FB
:104B40005B016C01EDE0F0E0EC0FFD1FE60DF71DE1
:104B5000608371838283938320E030E040E050E003
:104B60000E94B035882344F4D4011C91832D0E9407
:104B70005E20182BF4011083D4019596ED90FD90E2
:104B80000D911C919897C601B501A60195010E944F
:104B9000F9379B01AC01C801B7010E94D7347B01F2
:104BA0008C01CB01D801F40185A396A3A7A3B0A7DC
:104BB000339424E030E0620E731E420E531E33E045
:104BC000331609F068CFB701C8010E9486387B010F
:104BD0008C01D40195966D937D938D939C939897BA
:104BE0001D968D919D910D90BC91A02D0097A105D2
:104BF000B10509F40BC269A57AA58BA59CA520E097
:104C000030E040E050E00E94B03588232CF489E980
:104C100096E7A6E9BEE71EC0222061F0C801B701F1
:104C200029A53AA54BA55CA50E94B73569A77AA727
:104C30008BA79CA769A57AA58BA59CA520E030E051
:104C400040E85FE30E94B035882344F480E090E0C0
:104C5000A0E8BFE389A79AA7ABA7BCA760E070E074
:104C600080E89FE3A80197010E94B7356BA37CA35E
:104C70008DA39EA3DE011D96BE8FAD8FE7E1F5E00B
:104C8000FC8FEB8F2BE836E03A8F298F80E090E0A5
:104C9000A0E0B0E08F8F98A3A9A3BAA3DE01599634
:104CA000B8ABAFA7ED8DFE8DE080F180028113815E
:104CB000C801B70120E030E040E050E00E94B0358C
:104CC000882309F47CC0C801B7012BA13CA14DA1E8
:104CD0005EA10E94F9372B013C01AD8DBE8D6D9315
:104CE0007D938D939C93139760E070E080E89FE341
:104CF000A30192010E94B7355B016C01E894D7F8DB
:104D0000C601B501E98DFA8D20813181428153813F
:104D10000E94F9377B018C0169A57AA58BA59CA51A
:104D2000A80197010E94B03587FD04C0E9A6FAA644
:104D30000BA71CA7D4019196BC91BDA7F401F2A1C9
:104D4000FEA7D40193962C90939794963C90C6011D
:104D5000B501E98DFA8D24853585468557850E94F4
:104D6000F9377B018C016DA57EA5C101A8019701D2
:104D70000E94B03587FD05C0D801C701EDA69EA7EA
:104D80001D018DA59EA5D101F40181A392A3A3A32A
:104D9000B4A3C301B201AB8DBC8D2D913D914D915A
:104DA0005C910E94F9379B01AC016F8D78A189A1BC
:104DB0009AA10E94D6346F8F78A389A39AA3ED8D10
:104DC000FE8D3496FE8FED8F2B8D3C8D2C5F3F4FEB
:104DD0003C8F2B8F898D9A8D04969A8F898FAFA5E2
:104DE000B8A9EA17FB0709F05DCF909108058091FB
:104DF0000705981751F480E090E0A0E0B0E0F401DE
:104E0000818B928BA38BB48B11C06F8D78A189A1FC
:104E10009AA124EA30E74DE75FE30E94BE371816F7
:104E200054F480E090E0A0E0B0E0F401818F928F34
:104E3000A38FB48F66C06F8D78A189A19AA124EA4F
:104E400030E74DE75FEB0E94BE37181644F084EA66
:104E500090E7ADE7BFEB8F8F98A3A9A3BAA360E05B
:104E600070E080E89FE32F8D38A149A15AA10E94EC
:104E7000D63420E030E040E05FE30E94F9370E9442
:104E800086385B016C01D40191966D917D918D9175
:104E90009C9194972091B4063091B5064091B60646
:104EA0005091B7060E94F937A60195010E94F93783
:104EB0007B018C0160E070E080E89FE3A601950132
:104EC0000E94D6349B01AC01C801B7010E94B735DE
:104ED0007B018C0120E030E040E050E00E94B035E2
:104EE000882354F40F2EF0E0EF2EF0E0FF2EF0E0D8
:104EF0000F2FF0E01F2FF02DF401E18EF28E038FC3
:104F0000148F69A57AA58BA59CA59B01AC010E9475
:104F1000F9377B018C01D4015D966D937D938D9360
:104F20009C93909759965C9059975A964C905A97A3
:104F30005B963C905B975C962C90D0902305C0903C
:104F40002405B0902505A09026052D2D3C2D4B2D38
:104F50005A2D0E94B03587FD04C06D2C7C2CF501C4
:104F600005C0D801C7013701FA2FEB2F652D742D2D
:104F7000832D922D93014F2F5E2F0E94B0358823F1
:104F80002CF4852D942DA32DB22D0EC0C801B70190
:104F90002D2D3C2D4B2D5A2D0E94B03587FD06C07E
:104FA0008D2D9C2DAB2DBA2D7C018D01F401E58A50
:104FB000F68A078B108FA7E1B5E0FE013D968CE0E5
:104FC00001900D928150E1F7F401858D968DA78DAA
:104FD000B0A18093230590932405A0932505B09359
:104FE0002605ABE0B5E0FE0131968CE001900D9214
:104FF0008150E1F780910905809308058F5F823128
:1050000009F480E0809309050E94B923E0960FB669
:10501000F894DEBF0FBECDBFCF91DF911F910F91EE
:10502000FF90EF90DF90CF90BF90AF909F908F90C8
:105030007F906F905F904F903F902F9008958CE1FC
:10504000EBE0F5E0DF011D928A95E9F71092070584
:105050001092080581E08093090510920A050895D1
:105060006F927F928F929F92AF92BF92CF92DF9278
:10507000EF92FF920F931F93CF93DF934C013B016D
:105080005A01FB018081F401E80FF11DEF018991C4
:105090008D3229F481812196CC24C39405C08B32B2
:1050A00011F481812196CC2420E030E040E050E0F2
:1050B000DD24E0E070E0682F60536A30F8F4EF5FC1
:1050C000E930C0F47111DA94DA01C901F2E0880F15
:1050D000991FAA1FBB1FFA95D1F7280F391F4A1F26
:1050E0005B1F220F331F441F551F260F311D411D0B
:1050F000511D09C0772339F4D39405C06E3F29F4BC
:10510000772319F471E08991D6CFEE2311F480E072
:1051100050C0CA01B9010E9450367B018C0120E0C9
:1051200030E040E050E00E94B035882369F42BC0A5
:10513000C801B7012AE037ED43E25CE30E94F9378A
:105140007B018C01F2E0DF0E8FEFD8168CF3D816BE
:1051500059F4C801B7012DEC3CEC4CEC5DE30E9426
:10516000F9377B018C010FC0DD2069F0C801B70160
:1051700020E030E040E251E40E94F9377B018C01ED
:10518000DA941D149CF3CC2049F0D801C701B05823
:10519000F50180839183A283B38305C0F501E0828A
:1051A000F18202831383882D80958C0FF301808315
:1051B00081E0DF91CF911F910F91FF90EF90DF90F1
:1051C000CF90BF90AF909F908F907F906F900895F9
:1051D00020EA3FE004C0F9013197F1F70197009709
:1051E000D1F70895AF92BF92CF92DF92EF92FF92E4
:1051F0000F931F937B018C0159016A01A80197014C
:105200000E94F9377B018C01C601B501A601950109
:105210000E94F9379B01AC01C801B7010E94D73445
:105220000E9486381F910F91FF90EF90DF90CF90F2
:10523000BF90AF90089584B1897E84B985B18661AD
:1052400085B98091BC0683FF09C080916B0086619F
:1052500080936B0080916800816008C080916B0032
:10526000897E80936B00809168008E7F80936800B8
:105270000895EBE6F0E08081897E8083E8E6F0E047
:1052800080818E7F80830895CF92DF92EF92FF928C
:105290000F931F93CF93DF936C01C0E0D0E0F60132
:1052A000EC0FFD1FE080F18002811381C801B7017E
:1052B00020E030E040E050E00E94BE3718166CF06D
:1052C000FE01E158F94FC801B70124A135A146A15B
:1052D00057A10E94B03588231CF58091280588309D
:1052E00091F49FB7F89480912A05886080932A05ED
:1052F0009FBF0E943114809127058823B1F48091CB
:1053000028058823B1F70E9433049FB7F894809151
:105310002B05856080932B059FBF0E94311405C02B
:105320002496CC30D10509F0BACFDF91CF911F91EF
:105330000F91FF90EF90DF90CF9008951F920F9202
:105340000FB60F9211242F933F934F935F936F9358
:105350007F938F939F93AF93BF93EF93FF9380912E
:105360002805813071F080912B05882351F40E942B
:1053700033049FB7F89480912B05836080932B05AD
:105380009FBFFF91EF91BF91AF919F918F917F91BF
:105390006F915F914F913F912F910F900FBE0F90A2
:1053A0001F9018952F923F924F925F926F927F922B
:1053B0008F929F92AF92BF92CF92DF92EF92FF9225
:1053C0000F931F93DF93CF93CDB7DEB76B970FB6D5
:1053D000F894DEBF0FBECDBF982F8091270588239C
:1053E00009F006C22091C2063091C3064091C4065E
:1053F0005091C5062E8B3F8B488F598F43EA56E05C
:105400005C8B4B8B5A01662477248824992400E016
:1054100010E01E010894211C311C44E0442E512C44
:105420004C0E5D1EA92FB0E0BB8FAA8F802F0E946B
:105430006820F101E00FF11F8083802F0E9454202B
:10544000F201E00FF11F80838A8D9B8D002E02C038
:10545000959587950A94E2F780FF15C0F501608164
:1054600071818281938120E030E040EC5FEB0E940B
:10547000F9376B017C01B301C401A70196010E94B9
:10548000BE37181624F4C301D4016C017D010F5FEF
:105490001F4F24E030E0A20EB31E0330110529F0A7
:1054A000D701C60136014D01C1CF0E941F280E94BD
:1054B0007D233324339435E0232E8091BC0686FD72
:1054C00002C03D8A03C031E033253D8BCE010796F3
:1054D0006CE275E00E94D3328091BD06482E5524BF
:1054E00027E0622E712C6C0E7D1E530199248824B6
:1054F00000E010E08A8D9B8D002E02C09595879567
:105500000A94E2F780FF2AC0C201002E02C09595DE
:1055100087950A94E2F780FF04C0F7FAF094F7F851
:10552000F094332021F4F7FAF094F7F8F094839490
:10553000D5016D917D918D919C91A70196010E945D
:10554000D734F5016083718382839383E4E0F0E0D4
:10555000EC0FFD1FE00FF11F8081982A0F5F1F4F96
:1055600024E030E0A20EB31E0330110519F6682DB9
:1055700070E080E090E00E9450360E9486389B01E7
:10558000AC01909238056E897F89888D998D0E9433
:10559000F937AB01BC01CE01079620E00E9403253C
:1055A0000E947F160E94FD1543B13D89332311F0FF
:1055B00056E1452720E030E0E4E0F0E0EC0FFD1F8D
:1055C000E20FF31F9081892D892359F0E1E0F0E08B
:1055D000EC0FFD1FE20FF31F8081842311F09095E3
:1055E00099222F5F3F4F2330310531F790923805D4
:1055F0000E947F1680912A05847349F080912A05C4
:10560000847211F00E9433040E943114F1C0892D7C
:105610008C7151F60E94481D0E941F280E947D2314
:105620008091C6069091C7060E94E8288091BE0628
:105630009091BF06A091C006B091C1068E8B9F8B42
:10564000A88FB98F222021F091E039262A9435CFF6
:105650008091BD06A82EBB249CE2C92E95E0D92ED0
:1056600083EAE82E86E0F82E00E010E08A8D9B8D1C
:10567000002E02C0959587950A94E2F780FF25C019
:10568000C501002E02C0959587950A94E2F780FD2A
:1056900005C080E090E0A0E0B0E012C0F701B49750
:1056A000D7016D917D918D919C91208131814281B5
:1056B00053810E94F9370E94C937AC01CB01DA014E
:1056C000F60180839183A283B3830F5F1F4F24E091
:1056D00030E0C20ED31EE20EF31E0330110531F688
:1056E0000E947D236091C8067091C9068091CA0608
:1056F0009091CB0620E030E040E050E00E94BE37C1
:1057000018160CF072C000E010E08A8D9B8D002E00
:1057100002C0959587950A94E2F780FF30C080918A
:10572000BD0690E0002E02C0959587950A94E2F799
:1057300080FF16C06091C8067091C9068091CA06A4
:105740009091CB06AB89BC892D913D914D915C9197
:105750000E94D734F30160837183828393831AC0DC
:105760008091C8069091C906A091CA06B091CB0657
:10577000B058F30180839183A283B3830BC08CE282
:1057800095E0602F0E94B732D3016D937D938D9386
:105790009C9313970F5F1F4FE4E0F0E06E0E7F1EA7
:1057A0002B893C892C5F3F4F3C8B2B8B03301105A1
:1057B00009F0ABCF4091C2065091C3066091C40678
:1057C0007091C506CE01079620E00E940325109235
:1057D00028059FB7F89480912A05826080932A0556
:1057E0009FBF0E9431140E94621584E080932805B7
:1057F0006B960FB6F894DEBF0FBECDBFCF91DF9191
:105800001F910F91FF90EF90DF90CF90BF90AF90DE
:105810009F908F907F906F905F904F903F902F90D0
:1058200008958F929F92AF92BF92CF92DF92EF92A4
:10583000FF920F931F93DF93CF93CDB7DEB72A97D5
:105840000FB6F894DEBF0FBECDBF7B018C01A42E36
:1058500020E030E040E050E00E94B03588233CF486
:105860008DE20E94651317FB109517F91095DA2C3D
:105870000CC0C801B70120E030E048EC52E40E94BF
:10588000F9377B018C018EEFD80EE1E0ED1588F33E
:10589000A0FE0AC0C801B70120E030E040E251E4B8
:1058A0000E94F9377B018C01C801B70120E030E08C
:1058B00040E05FE30E94D7340E941F366B017C01F9
:1058C0009E012F5F3F4FF901EA0DF11D8EE28083AB
:1058D000BB2449011EC0BA1409F4B39484010B0D12
:1058E000111DC701B6012AE030E040E050E00E94FF
:1058F000FE38605DF8016083B394C701B6012AE009
:1059000030E040E050E00E94FE38C901DA016C014D
:105910007D01C114D104E104F104E9F606C0FC01E3
:10592000EB0DF11D2083B39403C0CE01019620E35B
:10593000BA14A8F3BA1489F48B2D8F5FFE01E80F17
:10594000F11D90E39183B82EB39407C0FE01EB0DD7
:10595000F11D80810E946513BA94BB20B9F72A9685
:105960000FB6F894DEBF0FBECDBFCF91DF911F9170
:105970000F91FF90EF90DF90CF90BF90AF909F90EE
:105980008F90089543E00E94112C08959B01AC0173
:105990008091BC0680FF0AC0CA01B9012BE832E43D
:1059A00041E25DE30E94F93741E003C0CA01B90159
:1059B00040E00E94112C08959B01AC018091BC062F
:1059C00080FF0AC0CA01B9012BE832E441E25DE37D
:1059D0000E94F93744E003C0CA01B90143E00E94C4
:1059E000112C08951F93DF93CF9300D00F92CDB762
:1059F000DEB7282F882321F480E30E9465131EC0A0
:105A000010E0AE014F5F5F4FFA01E10FF11D822FF1
:105A10006AE00E94F238905D90831F5F822F0E949F
:105A2000F238282F882381F707C0FE01E10FF11D0E
:105A300080810E94651311501123B9F70F900F90C8
:105A40000F90CF91DF911F9108950F931F93DF93D4
:105A5000CF93CDB7DEB728970FB6F894DEBF0FBE51
:105A6000CDBF982FFE0131969E01275F3F4F892FB2
:105A7000817081939695E217F307C9F78E01085F4D
:105A80001F4FF8018081805D0E9465130150104016
:105A90000C171D07B1F728960FB6F894DEBF0FBE9E
:105AA000CDBFCF91DF911F910F910895CF93DF93D9
:105AB000EC0102C00E946513FE01219684918823A7
:105AC000C9F7DF91CF910895CF93DF93EC0103C025
:105AD00021960E94651388818823D1F7DF91CF91A9
