:100000000C9418040C9435040C9435040C949A2721
:100010000C94AA300C9435040C9435040C943504DB
:100020000C9435040C9435040C9435040C94451B45
:100030000C9435040C9435040C9435040C9435045C
:100040000C9443140C9435040C94A7120C94621273
:100050000C9435040C9435040C9435040C9435043C
:100060000C9435040C943504651E651E651E701EC7
:10007000791E821E8B1EA21EB91ED01EDC1EE81E1B
:10008000F41E091F121F1B1F241F301F391F421F80
:10009000541F681F7A1F8C1FA21FB81FCA1FD31FAF
:1000A000DC1FE51FF01F084AD73B3BCE016E84BC26
:1000B000BFFDC12F3D6C74319ABD56833DDA3D00C2
:1000C000C77F11BED9E4BB4C3E916BAAAABE00000B
:1000D00000803F05A84CCDB2D44EB93836A9020CE9
:1000E00050B9918688083CA6AAAA2ABE00000080C2
:1000F0003F3E0D0A002C0057506F733A002C002C25
:100100004D506F733A003C436865636B003C416C33
:1001100061726D003C486F6D65003C486F6C640017
:100120003C52756E003C5175657565003C49646CC8
:1001300065005D0D0A005B302E39652E323031349A
:10014000303532393A000D0A003D00244E005D0D75
:100150000A00204600205400204D3800204D390070
:10016000204D3500204D3400204D3300204D32000D
:10017000204D3100204D30002047393400204739D0
:1001800033002047393100204739300020473230D2
:1001900000204732310020473139002047313800F4
:1001A00020473137002047005B473830005B47333A
:1001B000005B4732005B4731005B4730005D0D0A52
:1001C000002C005B4739323A005D0D0A002C003AE2
:1001D000003330003238005B47005D0D0A002C0010
:1001E0005B50726F62653A002028686F6D696E67B8
:1001F0002070756C6C2D6F66662C206D6D290D0A54
:10020000002028686F6D696E67206465626F756E87
:1002100063652C206D736563290D0A2433303D001E
:100220002028686F6D696E67207365656B2C206D83
:100230006D2F6D696E290D0A2432393D0020286822
:100240006F6D696E6720666565642C206D6D2F6D1E
:10025000696E290D0A2432383D00290D0A243237EF
:100260003D002028686F6D696E672064697220699F
:100270006E76657274206D61736B3A002028686F2A
:100280006D696E67206379636C652C20626F6F6C9B
:10029000290D0A2432363D00202868617264206CE2
:1002A000696D6974732C20626F6F6C290D0A24329A
:1002B000353D002028736F6674206C696D69747316
:1002C0002C20626F6F6C290D0A2432343D002028E7
:1002D000696E76657274206C696D69742070696EE0
:1002E000732C20626F6F6C290D0A2432333D00207D
:1002F00028696E76657274207374657020656E610E
:10030000626C652C20626F6F6C290D0A2432323DBD
:100310000020286175746F2073746172742C2062E0
:100320006F6F6C290D0A2432313D002028726570F0
:100330006F727420696E636865732C20626F6F6CD6
:10034000290D0A2432303D0020286E2D6465636932
:100350006D616C732C20696E74290D0A2431393D4E
:1003600000202861726320746F6C6572616E636532
:100370002C206D6D290D0A2431383D0020286A7526
:100380006E6374696F6E20646576696174696F6EFF
:100390002C206D6D290D0A2431373D0020287374FF
:1003A00065702069646C652064656C61792C206DD2
:1003B000736563290D0A2431363D00290D0A243165
:1003C000353D00202864697220706F727420696E58
:1003D00076657274206D61736B3A00290D0A2431C1
:1003E000343D0020287374657020706F727420692A
:1003F0006E76657274206D61736B3A002028737499
:1004000065702070756C73652C2075736563290D9C
:100410000A2431333D0020287A206D6178207472DF
:100420006176656C2C206D6D290D0A2431323D00FA
:10043000202879206D61782074726176656C2C209B
:100440006D6D290D0A2431313D00202878206D6121
:10045000782074726176656C2C206D6D290D0A24EC
:1004600031303D0020287A20616363656C2C206D5B
:100470006D2F7365635E32290D0A24393D002028F3
:100480007920616363656C2C206D6D2F7365635EED
:1004900032290D0A24383D002028782061636365E5
:1004A0006C2C206D6D2F7365635E32290D0A243725
:1004B0003D0020287A206D617820726174652C20BF
:1004C0006D6D2F6D696E290D0A24363D0020287947
:1004D000206D617820726174652C206D6D2F6D69BF
:1004E0006E290D0A24353D00202878206D61782082
:1004F000726174652C206D6D2F6D696E290D0A2453
:10050000343D0020287A2C20737465702F6D6D297E
:100510000D0A24333D002028792C20737465702F38
:100520006D6D290D0A24323D002028782C2073742B
:1005300065702F6D6D290D0A24313D0024303D007A
:100540002424202876696577204772626C207365C1
:100550007474696E6773290D0A24232028766965EF
:1005600077202320706172616D6574657273290D47
:100570000A24472028766965772070617273657256
:10058000207374617465290D0A244E2028766965EC
:1005900077207374617274757020626C6F636B7313
:1005A000290D0A24783D76616C7565202873617683
:1005B00065204772626C2073657474696E67290DDB
:1005C0000A244E783D6C696E65202873617665203B
:1005D0007374617274757020626C6F636B290D0A9D
:1005E00024432028636865636B2067636F6465201C
:1005F0006D6F6465290D0A245820286B696C6C2086
:10060000616C61726D206C6F636B290D0A24482048
:100610002872756E20686F6D696E67206379636CF0
:1006200065290D0A7E20286379636C6520737461E7
:100630007274290D0A2120286665656420686F6C34
:1006400064290D0A3F202863757272656E742073E9
:100650007461747573290D0A6374726C2D78202887
:100660007265736574204772626C290D0A000D0A69
:100670004772626C20302E3965205B272427206664
:100680006F722068656C705D0D0A005D0D0A004494
:10069000697361626C656400456E61626C656400DB
:1006A00043617574696F6E3A20556E6C6F636B654C
:1006B0006400272448277C2724582720746F20753E
:1006C0006E6C6F636B00526573657420746F20638A
:1006D0006F6E74696E7565005B000D0A0050726F75
:1006E0006265206661696C0041626F727420647596
:1006F00072696E67206379636C6500486172642F6C
:10070000736F6674206C696D697400414C41524D81
:100710003A20000D0A00496E76616C6964206763B7
:100720006F64652049443A00556E646566696E657C
:10073000642066656564207261746500556E73752A
:1007400070706F7274656420636F6D6D616E6400AC
:100750004D6F64616C2067726F75702076696F6C85
:100760006174696F6E004C696E65206F76657266A4
:100770006C6F7700486F6D696E67206E6F742065CF
:100780006E61626C656400416C61726D206C6F63B8
:100790006B004E6F742069646C6500454550524F84
:1007A0004D2072656164206661696C2E2055736905
:1007B0006E672064656661756C74730056616C7554
:1007C00065203C203320757365630053657474693C
:1007D0006E672064697361626C65640056616C7554
:1007E00065203C203000496E76616C69642073742A
:1007F0006174656D656E7400426164206E756D6232
:10080000657220666F726D617400457870656374FF
:10081000656420636F6D6D616E64206C65747465D2
:1008200072006572726F723A20006F6B0D0A0000E1
:1008300011241FBECFEFD8E0DEBFCDBF11E0A0E096
:10084000B1E0ECE6FDE602C005900D92A030B107E4
:10085000D9F716E0A0E0B1E001C01D92A33BB107BB
:10086000E1F70E9437040C94B4360C9400001F93F7
:100870000E942F120E94FC200E9459140E9499305D
:100880008EE1EBE1F5E0DF011D928A95E9F781E069
:1008900080931B0578948091A30684FF03C081E0B8
:1008A00080931C0511E00E94A2120E94ED110E948B
:1008B00001120E941B120E941B270E94002B0E9403
:1008C00010260E94231B0E94AF210E94BC08109298
:1008D0001B0510921D058091A30681FF03C0109394
:1008E0002B0502C010922B050E94A213DCCF809131
:1008F0001D0584FD14C080911D05806180931D0538
:100900000E9405120E941E1280911C05847339F00A
:1009100080911D05806280931D050E94F71A08953D
:1009200084E080931C050E943F2784E00E94CB272F
:1009300083E00E94CB270E94031380911B0588232C
:1009400041F40E94BC0810921C050E94F71A0E94F4
:100950001B270895EF92FF920F931F93CF93DF937E
:100960007B018C0180911C05823009F447C0C801CD
:10097000B70120E030E040EA51E40E948D350E944A
:1009800021340E94B833EB010E948B13C801B701D8
:1009900020E030E04AE754E40E948D357B018C0171
:1009A00082E390E0C89FB001C99F700DD89F700D81
:1009B000112480E090E00E94E4339B01AC01C80167
:1009C000B7010E946A320E9421340E94B833DC01D0
:1009D000CB010E94D92600E911E00EC00E9403134A
:1009E00080911B05882351F484EF91E0F801319741
:1009F000F1F70197D9F72197209781F7DF91CF91F0
:100A00001F910F91FF90EF900895DF92EF92FF9268
:100A10000F931F93CF93DF93EC017A018B01D22EBA
:100A20008091A30685FF03C0CE010E944A278091D2
:100A30001C058230D1F00E94031380911B0588238E
:100A4000A1F40E94A521882319F00E94F912F3CF86
:100A5000CE01B801A7012D2D0E942A2380911C05EB
:100A6000882319F488E080931C05DF91CF911F91B2
:100A70000F91FF90EF90DF9008957F928F929F9259
:100A8000AF92BF92CF92DF92EF92FF920F931F939C
:100A9000CF93DF936C014A015B01722E80911C059C
:100AA000803111F00E94F9120E948B1380911B0576
:100AB000882309F06BC0C601B501A401272D0E944F
:100AC000050581E080932C0580911D05826080934F
:100AD0001D050E94031380911B05882309F056C051
:100AE00080911C05882311F0883099F780912C059E
:100AF000813029F480911D05806480931D050E943A
:100B0000031380911B05882309F040C08DE2E82E75
:100B100085E0F82EC0E0D0E086010C0F1D1FF70124
:100B200061917191819191917F010E94E633FE0163
:100B3000EA59F94F20813181428153810E944B3320
:100B4000F80160837183828393832496CC30D1052E
:100B500019F70E9403130E94231B0E9410260E9473
:100B6000AF21C601B501A401272D0E940505809182
:100B70001D05826080931D050E948B1380911B05CB
:100B8000882321F40E94BC080E94522CDF91CF914F
:100B90001F910F91FF90EF90DF90CF90BF90AF909B
:100BA0009F908F907F9008952F923F924F925F92E7
:100BB0006F927F928F929F92AF92BF92CF92DF926D
:100BC000EF92FF920F931F93DF93CF93CDB7DEB7D2
:100BD000EF970FB6F894DEBF0FBECDBF9CAB8BABCB
:100BE0007EAB6DAB3A010FAB18AF29AF3AAFCBAECE
:100BF000DCAEEDAEFEAEAFAE9924880C991C880C2D
:100C0000991C880D991D9AAB89AB9A01280D391D45
:100C100038AB2FA7D901AD90BD90CD90DC90C60127
:100C2000B501E9A9FAA920813181428153810E944D
:100C30006B326DA37EA38FA398A765966FAD659762
:100C4000462E5524440C551C440C551C2BA93CA97C
:100C5000240D351D3EA72DA7C301840D951D9CA70E
:100C60008BA7DC01ED90FD900D911C91C801B7019F
:100C7000F90120813181428153810E946B3269A345
:100C80007AA38BA39CA3D601C501B0588D8F9E8FEC
:100C9000AF8FB8A3D801C701B058898F9A8FAB8F97
:100CA000BC8FADA9BEA98A0E9B1EF4016081718123
:100CB000828193812DA13EA14FA158A50E946A3245
:100CC0003B014C012DA93EA9420E531ED2016D914C
:100CD0007D918D919C9129A13AA14BA15CA10E948B
:100CE0006A325B016C016D8D7E8D8F8D98A1A6019E
:100CF00095010E948D357B018C01698D7A8D8B8DDC
:100D00009C8DA40193010E948D359B01AC01C8010B
:100D1000B7010E946A321B012C016D8D7E8D8F8D73
:100D200098A1A40193010E948D357B018C01698DEE
:100D30007A8D8B8D9C8DA60195010E948D359B012E
:100D4000AC01C801B7010E946B329B01AC01C2012A
:100D5000B1010E94DE325B016C0180913905823065
:100D600099F4C601B50120E030E040E050E00E9477
:100D700052358823ECF0C601B5012BED3FE049EC7C
:100D800050E40E946A3212C0C601B50120E030E092
:100D900040E050E00E944433181654F0C601B501FB
:100DA0002BED3FE049EC50E40E946B325B016C019B
:100DB000E0909E06F0909F060091A0061091A1067B
:100DC0006FA978AD89AD9AAD9B01AC010E946B32E1
:100DD000A80197010E946A329B01AC01C801B701CA
:100DE0000E948D350E941A367B018C01C601B50127
:100DF00020E030E040E05FE30E948D352FA938AD60
:100E000049AD5AAD0E948D359F77A80197010E9488
:100E10004B330E9421340E94B833788F6F8B611559
:100E2000710509F487C1BFADBB2381F080E090E07C
:100E30000E94E4339B01AC016BAD7CAD8DAD9EADEA
:100E40000E948D356BAF7CAF8DAF9EAF2F89388DF3
:100E5000B90180E090E00E94E4337B018C01C6017F
:100E6000B501A80197010E944B336B8B7C8B8D8B56
:100E70009E8B6696EFAD6697F0E0EE0FFF1FEE0FCC
:100E8000FF1F8BA99CA98E0F9F1F9AA789A7ADA9A9
:100E9000BEA9EA0FFB1F6081718182819381E9A560
:100EA000FAA520813181428153810E946A32A801D2
:100EB00097010E944B336F87788B898B9A8B6B8954
:100EC0007C898D899E899B01AC010E948D359B0197
:100ED000AC0160E070E080E090E40E946A325B0167
:100EE0006C016B897C898D899E892BEA3AEA4AE2FA
:100EF0005EE30E948D357B018C01C601B50120E0C7
:100F000030E040E850E40E946B329B01AC01C80124
:100F1000B7010E948D356B877C878D879E87C601C0
:100F2000B50120E030E040E05FE30E948D35698349
:100F30007A838B839C8321E030E03E832D83992448
:100F4000F1C033E1391508F446C06D8D7E8D8F8D6B
:100F500098A12B853C854D855E850E948D357B0152
:100F60008C01698D7A8D8B8D9C8D29813A814B8185
:100F70005C810E948D359B01AC01C801B7010E94C4
:100F80006B327B018C016D8D7E8D8F8D98A12981B7
:100F90003A814B815C810E948D355B016C01698DCA
:100FA0007A8D8B8D9C8D2B853C854D855E850E9431
:100FB0008D359B01AC01C601B5010E946A326D8F6F
:100FC0007E8F8F8F98A39394C701D801898F9A8FB2
:100FD000AB8FBC8F61C0AD81BE81BD0180E090E070
:100FE0000E94E4332B893C894D895E890E948D35AE
:100FF0007B018C01C8010E9448336F837887898701
:101000009A87B701C8010E9410363B014C01EFA539
:10101000F8A9E080F1800281138117FB109517F980
:101020001095ABA5BCA52D903D904D905C90C8014E
:10103000B7012F81388549855A850E948D355B011E
:101040006C01C201B101A40193010E948D359B0185
:10105000AC01C601B5010E946B326D8F7E8F8F8F00
:1010600098A3C801B701A40193010E948D357B01AB
:101070008C01C201B1012F81388549855A850E94B2
:101080008D359B01AC01C801B7010E946A32698F9E
:101090007A8F8B8F9C8F99246DA17EA18FA198A5AB
:1010A0002D8D3E8D4F8D58A10E946B32E9A9FAA972
:1010B000608371838283938369A17AA18BA19CA1B0
:1010C000298D3A8D4B8D5C8D0E946B32ADA5BEA5EE
:1010D0006D937D938D939C931397E9A5FAA56081F9
:1010E0007181828193812F85388949895A890E942B
:1010F0006B32A9A5BAA56D937D938D939C9313979D
:101100008BA99CA94BAD5CAD6DAD7EAD2FAD0E94A2
:10111000050580911B058823B1F4ED81FE81319690
:10112000FE83ED832D813E818F89988D28173907A5
:1011300008F407CF8DA99EA94BAD5CAD6DAD7EAD1A
:101140002FAD0E940505EF960FB6F894DEBF0FBED7
:10115000CDBFCF91DF911F910F91FF90EF90DF9066
:10116000CF90BF90AF909F908F907F906F905F9047
:101170004F903F902F90089560911F05709120052A
:1011800080912105909122050E94E6332091660608
:101190003091670640916806509169060E944B3372
:1011A00060934B0570934C0580934D0590934E05CD
:1011B0006091230570912405809125059091260565
:1011C0000E94E63320916A0630916B0640916C06CE
:1011D00050916D060E944B3360934F0570935005FC
:1011E00080935105909352056091270570912805D1
:1011F0008091290590912A050E94E63320916E0680
:1012000030916F0640917006509171060E944B33E9
:10121000609353057093540580935505909356053C
:1012200008952F923F924F925F926F927F928F928A
:101230009F92AF92BF92CF92DF92EF92FF920F9365
:101240001F93DF93CF93CDB7DEB7A9970FB6F8946E
:10125000DEBF0FBECDBF99A788A7EFE6F5E087E315
:10126000DF011D928A95E9F73196A9E3B5E089E09F
:101270000D9001928150E1F7198288246624AA24F6
:10128000BB24772418A21F8EA1E04A2E512CF4E033
:101290002F2E99249394E2E03E2E44C2802F815455
:1012A0008A3118F081E00C94D4119F5F998388A54E
:1012B00099A5BE016F5F7F4FAE014E5F5F4F0E94E9
:1012C0002126882319F482E00C94D411CA80DB8093
:1012D000EC80FD80C701B6010E9467360E94B833DA
:1012E000162F70E0882777FD8095982F0E94E633AF
:1012F0009B01AC01C701B6010E946A3220E030E0D8
:1013000048EC52E40E948D350E9467360E94B83343
:10131000262F073421F00D3409F02AC1E2C01E3116
:10132000D1F11F31B8F4143168F4113108F0A7C0BD
:101330001430C9F1143008F47BC01A3011F00C9449
:10134000C51129C0163108F4BCC01C3111F00C9431
:10135000C51121C0103509F470C0113570F4153372
:1013600011F1163328F4163211F00C94C51160C037
:101370001C3310F00C94C511ADC01C3561F01D3547
:1013800028F41A3510F40C94C51189C01F3510F0DB
:101390000C94C5118DC0222331F4882011F00C94D7
:1013A000C311882483941C31A9F01D3128F4143012
:1013B00051F01A3069F40AC0153341F11C3551F16E
:1013C0001E3131F414C090926F0502C030926F0547
:1013D00080E084C0222321F02A3009F0D6C704C05F
:1013E000B3E0B0936F0510C020926F050DC02223AB
:1013F00021F02A3009F0C9C704C0E5E0E0936F0589
:1014000003C0F6E0F0936F0580E0A3C087E080930F
:101410006F05DECF222321F02A3009F0B6C704C0C1
:1014200098E090936F05F0CFA9E0A0936F05ECCF03
:10143000882009F0A8C772E0872E123089F0133097
:1014400028F4112351F0113069F40AC0163261F00A
:10145000103589F0133031F403C01092700502C0CA
:101460001093700581E03AC0243109F08EC72092B4
:10147000700581E06EC0B5E0B0937005F3CF123116
:1014800039F0133149F0113129F41092740502C07A
:101490009092740582E022C030927405FBCF1A3519
:1014A00019F41092730502C09092730583E016C080
:1014B0001D3519F49092710502C01092710584E0F7
:1014C0000DC0143119F49092720502C01092720589
:1014D00085E004C016531093750586E02223C9F1F8
:1014E00056C7662309F053C7163018F41330B0F40A
:1014F00008C0183008F449C71A3000F11E3109F04D
:1015000044C7123041F01E3131F0112311F4909292
:10151000760587E01EC030927605FBCF143039F097
:10152000153041F0133041F49092780505C03092A7
:10153000780502C01092780588E00BC0183019F0C9
:10154000193031F403C03092770502C0109277054C
:1015500089E0920102C0220F331F8A95E2F7C90188
:101560008A219B21892B09F014C7A22AB32ADAC049
:10157000003509F46CC001359CF40A34F1F10B34E8
:1015800034F4063421F1093409F0FFC62AC00C34C2
:1015900009F44BC00C34ECF10E3409F0F6C649C026
:1015A000043599F005353CF4023509F45AC0033589
:1015B00009F0EBC660C0093509F473C00A3509F4B7
:1015C0007CC0083509F0E1C660C029E081C0C09246
:1015D0007905D0927A05E0927B05F0927C0520E0B7
:1015E00077C0C0927D05D0927E05E0927F05F09293
:1015F0008005E1E06E2A21E06BC0C0928105D092A7
:101600008205E0928305F0928405F2E06F2A22E0E1
:101610005FC0C0928505D0928605E0928705F09262
:10162000880524E0622A23E053C01093890524E052
:101630004FC0812F90E0A0E0B0E080938A059093A6
:101640008B05A0938C05B0938D0525E041C0C09219
:101650008E05D0928F05E0929005F092910526E0DC
:1016600037C0C0929205D0929305E0929405F09213
:10167000950527E02DC0C0929605D0929705E0927F
:101680009805F092990528E023C0C0929A05D0925F
:101690009B05E0929C05F0929D0581E0782A2AE066
:1016A00017C0C0929E05D0929F05E092A005F092CF
:1016B000A10592E0792A2BE00BC0C092A205D0923E
:1016C000A305E092A405F092A505A4E07A2A2CE0F7
:1016D0008201022E02C0000F111F0A94E2F78F8DC3
:1016E00098A180239123892B11F089E15DC681E6C1
:1016F00093E002C0959587952A95E2F780FF0CC08C
:10170000C701B60120E030E040E050E00E944433E1
:10171000882314F484E048C6EF8DF8A1E02BF12B68
:10172000F8A3EF8F9981E8A5F9A5E90FF11D0081D4
:10173000002309F0B3CD8E8E882051F0772071F40C
:1017400080916F05833049F0853039F08AE12CC6ED
:10175000772021F0F2E0FE8F01C01E8E2F8D25FF35
:101760000FC080918A0590918B05A0918C05B09156
:101770008D05805A9648A140B04014F08BE114C604
:1017800080917105813039F4FE8DF230B1F52F8DE5
:1017900020FD33C000C680913A05882371F58F8DF6
:1017A00080FF1BC080917205813039F56091790509
:1017B00070917A0580917B0590917C0523E333E35A
:1017C0004BEC51E40E948D356093790570937A0556
:1017D00080937B0590937C0510C080914605909185
:1017E0004705A0914805B0914905809379059093EC
:1017F0007A05A0937B05B0937C05AF8DB8A1B0FDB1
:1018000010C08091420590914305A0914405B0918C
:1018100045058093960590939705A0939805B093FE
:10182000990580916F05813041F4BF8DB6FFB5C534
:10183000EF8DF8A1EF7BF8A3EF8F809174058823DB
:1018400041F0813061F4F2E0FBA31AA221E029A368
:101850000BC01BA281E08AA392E099A305C0A1E07E
:10186000ABA3B2E0BAA319A280917205813059F5F9
:101870006AE9E62E65E0F62E00E010E0C72CDD24D4
:10188000C601002E02C0959587950A94E2F780FF65
:1018900011C0F701608171818281938123E333E379
:1018A0004BEC51E40E948D35D7016D937D938D9360
:1018B0009C9313970F5F1F4FE4E0F0E0EE0EFF1EC6
:1018C00003301105E9F6DE011696E7E5F5E08CE058
:1018D00001900D928150E1F7A6FE12C0909175051E
:1018E000973008F05CC580913E05891749F0892F33
:1018F000BE016A5F7F4F0E94D120882309F451C541
:1019000080916F05823021F0883009F0C7C07AC01D
:101910008F8D98A180759070892B09F43EC56091D8
:101920008E0570918F0580919005909191050E9490
:1019300067360E94B833673008F031C520918905B9
:10194000243131F0223009F020C5FF8DF7FD1DC58F
:10195000662319F0862F815002C0809175058E0193
:101960000E5E1F4FB8010E94D120882309F419C5CB
:101970005BE4852E55E0952E4AE9C42E45E0D42E31
:10198000780100E010E0A72CBB24C501002E02C0A6
:10199000959587950A94E2F780FF21C0809189058B
:1019A000843199F4D4016D917D918D919C91F601D2
:1019B00020813181428153810E946A32D7016D9327
:1019C0007D938D939C9313970AC0F601808191813A
:1019D000A281B381F70180839183A283B3830F5FD8
:1019E0001F4F84E090E0880E991EC80ED91EE80EA5
:1019F000F91E0330110549F6AF8DB8A1AF7AB8A32F
:101A0000AF8FD0C03BE4C32E35E0D32E26E0822E2C
:101A1000912C8C0E9D1E0AE915E0EE24FF24A72CC4
:101A2000BB24C5010E2C02C0959587950A94E2F758
:101A300080FF1AC0F6016081718182819381D40197
:101A40002D913D914D915C910E946A32F801208167
:101A50003181428153810E946A32D8016D937D9316
:101A60008D939C9313970AC0F601808D918DA28D62
:101A7000B38DF80180839183A283B3830894E11C22
:101A8000F11C84E090E0C80ED91E880E991E0C5FF0
:101A90001F4F93E0E916F10421F684C0772009F482
:101AA00068C09BE4E92E95E0F92E0AE915E086E08E
:101AB000882E912C8C0E9D1ECC24DD24A72CBB24BB
:101AC000C5010C2C02C0959587950A94E2F780FD1C
:101AD0000BC0F70180819181A281B381F8018083DD
:101AE0009183A283B38335C080916F05873089F1DC
:101AF000809173058823D9F4D4016D917D918D91E6
:101B00009C91F701208D318D428D538D0E946B3257
:101B10009B01AC01D8016D917D918D919C910E94AA
:101B20006B32F801608371838283938312C0D80182
:101B30006D917D918D919C91F70120813181428140
:101B400053810E946B32D8016D937D938D939C934A
:101B500013970894C11CD11CE4E0F0E0EE0EFF1EC8
:101B60000C5F1F4F8E0E9F1EF3E0CF16D10409F0BD
:101B7000A7CF80916F05853031F0873069F08330D1
:101B800089F486E001C087E0BE016E5E7F4F0E944F
:101B9000D120882339F405C480917005823010F07B
:101BA0008EE102C410917005153049F4772009F4D4
:101BB0005AC22E8D213009F456C28FE1F5C38E8DA5
:101BC000823009F050C2112309F44DC260917905A9
:101BD00070917A0580917B0590917C0520E030E042
:101BE00040E050E00E944433882309F4D4C312300B
:101BF00008F439C2143020F0143009F034C20EC297
:101C0000BBA1AB2FB0E0BFA3AEA3FAA1EF2FF0E0D2
:101C1000FDA3ECA381E090E08C010CA002C0000FBA
:101C2000111F0A94E2F70EA002C0880F991F0A94B0
:101C3000E2F7082B192B872D90E080239123892B25
:101C400011F480E2B1C3EEA1FFA1EE0FFF1FEE0F72
:101C5000FF1FDF01A75CBA4FE159FA4F63A574A5D6
:101C600085A596A552962D913D914D915C915597E4
:101C70000E946A325B016C01ECA1FDA1EE0FFF1F17
:101C8000EE0FFF1FDF01A75CBA4FE159FA4F63A5C2
:101C900074A585A596A552962D913D914D915C9187
:101CA00055970E946A321B012C012F8D27FF04C11A
:101CB0000BE415E07AE9E72E75E0F72ED8016D9177
:101CC0007D918D919C91F7012081318142815381D9
:101CD0000E944433882359F40C5F1F4F84E090E046
:101CE000E80EF91E95E00735190741F75CC38091AE
:101CF00072058130B1F460919205709193058091E5
:101D000094059091950523E333E34BEC51E40E9455
:101D10008D3560939205709393058093940590930D
:101D20009505E0909205F09093050091940510912F
:101D30009505C801B70120E030E040E850E40E947A
:101D40008D35A80197010E948D357B018C01C6015C
:101D5000B501A60195010E948D359B01AC01C8011A
:101D6000B7010E946A327B018C01C201B101A2015C
:101D700091010E948D359B01AC01C801B7010E9401
:101D80006A327B018C0120E030E040E050E00E94AC
:101D90004433882314F482E207C3C801B7010E94C8
:101DA0001A367B018C01C601B501A20191010E9486
:101DB000F2269B01AC0117FB109517F91095C8018D
:101DC000B7010E944B337B018C01809170058330F9
:101DD00021F417FB109517F91095609092057090FB
:101DE00093058090940590909505C401B30120E07F
:101DF00030E040E050E00E94443388237CF417FB3D
:101E0000109517F91095D401C301B058809392052D
:101E100090939305A0939405B0939505AF8DB8A1C9
:101E2000AF77B8A3AF8FEEA1FFA1EE0FFF1FEE0FAC
:101E3000FF1FED58FA4FFFA3EEA3C201B101A801A5
:101E400097010E948D359B01AC01C601B5010E942E
:101E50006A3220E030E040E05FE30E948D35AEA1C1
:101E6000BFA11A966D937D938D939C931D97ECA1C2
:101E7000FDA1EE0FFF1FEE0FFF1FED58FA4FFDA360
:101E8000ECA3C601B501A80197010E948D359B0105
:101E9000AC01C201B1010E946B3220E030E040E0B1
:101EA0005FE30E948D35ACA1BDA11A966D937D9321
:101EB0008D939C931D97D7C0862C992408211921B6
:101EC000012B11F483E270C2EF8DF8A1E17FF8A33A
:101ED000EF8F80917205813041F54DE7E42E45E0AA
:101EE000F42E00E010E0C401002E02C09595879505
:101EF0000A94E2F780FF10C0D7016D917D918D911A
:101F00009C9123E333E34BEC51E40E948D35F701C0
:101F100060837183828393830F5F1F4F84E090E01F
:101F2000E80EF91E03301105F1F6EEA0FFA0EE0C4D
:101F3000FF1CEE0CFF1CA3E7B5E0EA0EFB1EC6017A
:101F4000B501F70122853385448555850E946A32A3
:101F50005B016C010CA11DA1000F111F000F111FCF
:101F60000D581A4FC201B101D8011A962D913D9119
:101F70004D915C911D970E946A329B01AC01C60194
:101F8000B5010E94F2265B016C01F7016285738541
:101F900084859585D8011A962D913D914D915C913E
:101FA0001D970E94F2263B014C01609392057093AD
:101FB00093058093940590939505C601B501A401FE
:101FC00093010E946A327B018C01E89417F9C801E1
:101FD000B7012AE037ED43EA5BE30E945235181659
:101FE0000CF041C0C801B70120E030E040E05FE301
:101FF0000E94523518160CF4D6C1C401B3012FE665
:1020000032E143E85AE30E948D359B01AC01C801DF
:10201000B7010E945235181634F5C5C10BE415E01E
:102020009AE9E92E95E0F92EF801608171818281AB
:102030009381D7012D913D914D915C910E94443344
:10204000882359F40C5F1F4FE4E0F0E0EE0EFF1E12
:10205000F5E007351F0741F7A6C10E94032B88232F
:1020600011F084E2A1C18F8D98A18E7D9C7F2E8D71
:10207000222321F08F8D98A18E7D907E892B11F0E7
:1020800085E292C18091710580933A05809179052E
:1020900090917A05A0917B05B0917C0580934605CF
:1020A00090934705A0934805B0934905E0909605A5
:1020B000F09097050091980510919905609142055F
:1020C000709143058091440590914505A8019701C1
:1020D0000E944433882381F0E0924205F092430548
:1020E000009344051093450580914105882321F014
:1020F000B801A7010E9407129091780580914105CF
:10210000891769F09093410540914205509143052C
:102110006091440570914505892F0E9407129091A6
:10212000770580914005891729F090934005892F04
:102130000E94201280916F05813051F460918E05CC
:1021400070918F0580919005909191050E94AA044D
:102150008091740580933D058091720580933B05C5
:102160009091750580913E05891759F090933E0531
:10217000A7E5B5E0FE0136968CE001900D92815006
:10218000E1F78091730580933C0580916F05853060
:1021900009F43FC0863048F48330D9F1843008F028
:1021A00058C0823009F06EC00AC0883009F459C0A6
:1021B000893009F460C0863009F064C04CC0609179
:1021C0008E0570918F0580919005909191050E94E8
:1021D00067360E94B833662319F0162F115002C0DB
:1021E00010913E0582E1E82EF12CEC0EFD1E812FB0
:1021F000B7010E94C62080913E05811709F042C0B8
:10220000A7E5B5E0F7018CE001900D928150E1F770
:1022100039C08E8D882349F08AE995E040E050E08E
:1022200060E87FEB20E00E9405058E010E5E1F4FE7
:10223000C80140E050E060E87FEB20E00E94050527
:10224000ABE4B5E0F8018CE001900D928150E1F72C
:1022500019C086E001C087E06BE475E00E94C620EB
:1022600011C0A3E6B5E0EAE9F5E08CE001900D923B
:102270008150E1F707C08CE0E3E6F5E0DF011D9255
:102280008A95E9F78091700580933905853009F4C6
:1022900065C0BE8DB23009F061C0843040F4823038
:1022A00008F5882341F0813009F04FC00CC084301C
:1022B00009F04BC03CC08AE995E040E050E060E89E
:1022C0007FEB20E00CC0409146055091470560919E
:1022D0004805709149058AE995E020913A050E94E8
:1022E000050533C000D0009192051091930520910F
:1022F000940530919505C0904605D0904705E09033
:102300004805F09049058AA1EDB7FEB7818399A1F0
:1023100092838BE495E06AE975E04DE755E0A09083
:102320003A058BA00E94D4050F900F900EC04091EB
:1023300046055091470560914805709149058AE925
:1023400095E020913A050E943D05ABE4B5E0EAE94D
:10235000F5E08CE001900D928150E1F780917605D7
:1023600080933F05882301F10E948B1310922B0567
:1023700080913F05823019F40E94770402C01092C8
:102380003F0580E011C088E10FC084E10DC087E106
:102390000BC085E109C086E107C08CE105C08DE175
:1023A00003C087E001C081E2A9960FB6F894DEBFB2
:1023B0000FBECDBFCF91DF911F910F91FF90EF9096
:1023C000DF90CF90BF90AF909F908F907F906F9055
:1023D0005F904F903F902F900895E9E3F5E086E3FA
:1023E000DF011D928A95E9F780913E05BF01625E8B
:1023F0007F4F0E94D120882319F487E00E94A02DEE
:102400000895249A259A2C9808952C9808951F933E
:10241000182F80911C05823061F00E948B131123CC
:1024200011F42C9806C0113011F42D9801C02D9A8A
:102430002C9A1F9108953B9A4398089543980895C4
:102440001F93182F80911C05823039F00E948B1346
:10245000123011F4439A01C043981F910895E0ECA3
:10246000F0E08081826080831092C50080E18093DB
:10247000C400E1ECF0E0808180618083808188602D
:1024800080838081806880830895282FE0910201F5
:102490009E2F9F5F903431F490E004C080911D0521
:1024A00084FD0FC0809103019817C1F3F0E0EA5D4D
:1024B000F94F2083909302018091C1008062809344
:1024C000C10008951F920F920FB60F9211248F939F
:1024D0009F93EF93FF9380910301E82FF0E0EA5D73
:1024E000F94F90819093C600982F9F5F903409F424
:1024F00090E09093030180910201981729F4809154
:10250000C1008F7D8093C100FF91EF919F918F91CA
:102510000F900FBE0F901F90189590910101809120
:102520000001891711F48FEF0895E92FF0E0EA55C3
:10253000FA4F8081E92FEF5FE03809F4E0E0E093A3
:1025400001010895809100018093010108951F9277
:102550000F920FB60F9211242F933F934F935F93D7
:102560006F937F938F939F93AF93BF93EF93FF935B
:102570002091C6002132A1F0223218F42831B9F49A
:1025800013C02F3319F02E3791F404C080911D052C
:10259000816003C080911D05826080931D0518C075
:1025A00080911D058860F9CF0E94770411C0E091E9
:1025B00000019E2F9F5F903809F490E08091010107
:1025C000981731F0F0E0EA55FA4F2083909300011C
:1025D000FF91EF91BF91AF919F918F917F916F91FB
:1025E0005F914F913F912F910F900FBE0F901F90D1
:1025F000189580912B05882329F080911D05826014
:1026000080931D050895CF93DF9380911D05882346
:1026100009F478C0C82FD0E0CE0180769070892B65
:1026200009F181E080931C05C6FF14C0C5FF02C0FC
:102630008FEF01C08DEF0E94783081E00E942B2B3C
:1026400080911D058F7E80931D0580911D0584FF5F
:10265000FCCF03C08EEF0E94783080911D058F79EA
:1026600080931D05C4FF04C081E080931B0550C00A
:10267000C0FF07C00E94552B80911D058E7F80935F
:102680001D05C3FF12C080911C05803149F480E212
:1026900080931C050E9487140E94A91410922B0598
:1026A00080911D05877F80931D05C1FF1AC0809111
:1026B0001C05883089F480E180931C050E94A914D0
:1026C0000E941B148091A30681FF04C081E08093C7
:1026D0002B0502C010922B0580911D058D7F8093E4
:1026E0001D05C2FF0FC00E949421892B21F088E0B4
:1026F00080931C0502C010921C0580911D058B7FE4
:1027000080931D0580911C05847311F00E94A9140B
:10271000DF91CF91089580911C05803151F481E0C3
:1027200080932B0506C00E94031380911B0588230C
:1027300041F40E949421892BB1F780911C058031CE
:1027400091F308950F931F930E94262B80911C05EF
:10275000813021F482E00E942B2B1CC010921C05BA
:1027600084E091E00E94E63015C09A3011F09D306F
:1027700029F5E12FF0E0EC5FFE4F10820E94031379
:1027800080911B05882331F480910401882321F472
:102790000E94A02D00E025C0843229F484E091E05D
:1027A0000E941231F5CF80911C05813011F489E02F
:1027B000EFCF84E091E00E941109EACF002321F0DD
:1027C000993209F500E01FC09132E8F09F32D9F04C
:1027D000983211F401E017C0153428F08BE00E9404
:1027E000A02D10E010C0892F8156A12FB0E0E12F5D
:1027F000EF5F8A3120F4AC5FBE4F905202C0AC5FF5
:10280000BE4F9C931E2F0E948D12982F8F3F09F070
:10281000ACCF80912B05882329F080911D05826023
:1028200080931D050E94031380911B05882359F393
:102830001F910F9108958091A30682FF02C0289AEC
:1028400001C0289880911C058471E1F08091980660
:102850008093D201809197068093D1018091960652
:1028600090E0A0E0B0E00297A109B109880F991F9C
:10287000AA1FBB1F81958093D00180916F00826059
:1028800080936F0008951F920F920FB60F9211243C
:102890008F939F939BB1809197068C71937E892B28
:1028A0008BB915BC9F918F910F900FBE0F901F9009
:1028B00018958AB18C618AB98BB1837E9091970605
:1028C000892B8BB9209A8AB1806E8AB98BB18F71AE
:1028D00090919806892B8BB9E1E8F0E080818F7E9A
:1028E0008083808188608083E0E8F0E080818C7F55
:1028F000808380818F708083EEE6F0E08081887F26
:10290000808314BC15BC8081816080830895CF933F
:10291000DF93C091EA01D091EB012097B9F081E0FB
:102920008093EF0120910502309106024091070249
:1029300050910802CA01B9010E948D35698B7A8BCA
:102940008B8B9C8B1092EB011092EA01DF91CF915F
:1029500008952F923F924F925F926F927F928F9243
:102960009F92AF92BF92CF92DF92EF92FF920F931E
:102970001F93DF93CF93CDB7DEB7E9970FB6F894E7
:10298000DEBF0FBECDBF13C68091EA019091EB016F
:10299000892B09F07EC20E9494219093EB018093D1
:1029A000EA01892B09F40AC68091EF01882319F006
:1029B0001092EF01CAC08091EE018F5F8093EE010B
:1029C000853011F41092EE01E091EE0121E1E29FD9
:1029D000F0011124E65BFE4FF093ED01E093EC0172
:1029E0000091EA011091EB01D8018C91808311963E
:1029F0002D913D914D915C91149793E0220F331FDF
:102A0000441F551F9A95D1F7218332834383548302
:102A100015962D913D914D915C91189783E0220F71
:102A2000331F441F551F8A95D1F72583368347836B
:102A3000508719962D913D914D915C911C9773E0B3
:102A4000220F331F441F551F7A95D1F721873287F4
:102A5000438754871D962D913D914D915C915097E0
:102A600063E0220F331F441F551F6A95D1F7258756
:102A700036874787508B1D966D917D918D919C91E6
:102A800050970E94E4336093F0017093F1018093BA
:102A9000F2019093F301F80125A136A147A150A5B9
:102AA0000E944B339B01AC016093F4017093F501DC
:102AB0008093F6019093F70160E070E080EA9FE375
:102AC0000E944B336093F8017093F9018093FA01EF
:102AD0009093FB0180E090E0A0E0B0E08093FC01E7
:102AE0009093FD01A093FE01B093FF0180911C051E
:102AF0008032E1F420910D0230910E0240910F02DC
:102B00005091100220930502309306024093070271
:102B100050930802CA01B9010E948D35D80151961F
:102B20006D937D938D939C9354970FC0F8016189A9
:102B30007289838994890E941A3660930502709382
:102B40000602809307029093080280E090E0A0E0E4
:102B5000B0E08093010290930202A0930302B0932D
:102B600004020091EA011091EB01D80191968D9138
:102B70009D910D90BC91A02D88AB99ABAAABBBAB3E
:102B800060E070E080E09FE328A939A94AA95BA929
:102B90000E944B331B012C0180911C05803209F0EF
:102BA00056C0B2E0B0930002F801A5A0B6A0C7A03D
:102BB000D0A46188728883889488C201B101A4017D
:102BC00093010E948D359B01AC01C601B5010E94A5
:102BD0006A327B018C0120E030E040E050E00E944E
:102BE00044338823FCF468A979A98AA99BA920E029
:102BF00030E040E050EC0E948D35A60195010E9426
:102C00008D359B01AC01C401B3010E946B320E945F
:102C10001A3660930D0270930E0280930F02909308
:102C2000100237C1E0920102F09202020093030207
:102C30001093040280E090E0A0E0B0E080930D02E9
:102C400090930E02A0930F02B093100222C1109233
:102C50000002F80185A196A1A7A1B0A58093110259
:102C600090931202A0931302B09314020E940823BF
:102C70005B016C0160930D0270930E0280930F0252
:102C800090931002A60195010E948D353B014C01E5
:102C90002091EA013091EB0139AF28AFD901959627
:102CA0008D919D910D90BC91A02D8B8F9C8FAD8FA0
:102CB000BE8FF9016189728983899489A401930186
:102CC0000E946A329B01AC01C201B1010E948D35A4
:102CD0009B01AC016B8D7C8D8D8D9E8D0E946B3226
:102CE00020E030E040E05FE30E948D357B018C0105
:102CF00020E030E040E050E00E94523518160CF021
:102D0000B4C0C801B7012B8D3C8D4D8D5E8D0E94E6
:102D1000443388230CF095C0A8ADB9AD5D966D9194
:102D20007D918D919C919097A40193010E946A32AC
:102D30009B01AC01C201B1010E948D356093150267
:102D4000709316028093170290931802A8019701BE
:102D50000E94443388230CF047C0E8ADF9ADE58C00
:102D6000F68C078D10A1C801B7010E941A36609336
:102D7000090270930A0280930B0290930C02A8AD93
:102D8000B9AD5196AD90BD90CD90DC905497C601F1
:102D9000B501A80197010E944433882321F4B1E0D2
:102DA000B093000276C0C801B701A60195010E9448
:102DB0006A329B01AC01C201B1010E948D359B01B9
:102DC000AC016091110270911202809113029091F6
:102DD00014020E946A32609311027093120280936F
:102DE00013029093140255C0E0921102F092120265
:102DF0000093130210931402E0921502F09216024F
:102E00000093170210931802E8ADF9AD21A132A189
:102E100043A154A1CA01B9010E946B32A8019701D4
:102E20000E948D35A40193010E946B320E941A36D4
:102E30006093090270930A0280930B0290930C0234
:102E400028C0F2E0F0930002809105029091060202
:102E5000A0910702B09108028093090290930A02A0
:102E6000A0930B02B0930C0214C080E090E0A0E0AD
:102E7000B0E08093110290931202A0931302B093DA
:102E80001402A0920902B0920A02C0920B02D092E0
:102E90000C028091E701B6E08B9FD0011124A1566E
:102EA000BE4FB9AFA8AF8091EE0112968C93E0911E
:102EB000EA01F091EB01FA8FE98F85A196A1A7A114
:102EC000B0A58D8B9E8BAF8BB88FBC01CD012091AF
:102ED000F8013091F9014091FA015091FB010E94F3
:102EE0006A326CA37DA38EA39FA320E030E040E074
:102EF00050E00E944433882344F480E090E0A0E056
:102F0000B0E08CA39DA3AEA3BFA3809111029091CA
:102F10001202A0911302B0911402898B9A8BAB8B91
:102F2000BC8B8091090290910A02A0910B02B09192
:102F30000C028D879E87AF87B88B80911502909188
:102F40001602A0911702B091180289879A87AB8761
:102F5000BC878091010290910202A0910302B0917E
:102F600004028D839E83AF83B88780910D02909178
:102F70000E02A0910F02B091100289839A83AB8355
:102F8000BC838091050290910602A0910702B09146
:102F9000080288A399A3AAA3BBA3909100029F8FC4
:102FA000AD88BE88CF88D88C8EE393ECAEE2B9E3CF
:102FB0008CA79DA7AEA7BFA780E090E0A0E0B0E0FF
:102FC00088A799A7AAA7BBA70F2EFEE36F2EF3EC45
:102FD0007F2EFEE28F2EF9E39F2EF02D9F8D9923F9
:102FE00021F0913009F0B3C080C0C401B301A98DB4
:102FF000BA8D91962D913D914D915C9194970E943F
:103000008D357B018C0120E030E040E05FE30E94E1
:103010008D359B01AC0168A179A18AA19BA10E9479
:103020006B329B01AC01C401B3010E948D359B0141
:10303000AC01C601B5010E946A325B016C012989AD
:103040003A894B895C890E94443388230CF040C044
:1030500069897A898B899C8929853A854B855C8524
:103060000E944433882319F4B2E0BF8F02C0E1E02C
:10307000EF8F6D897E898F89988D29893A894B894F
:103080005C890E946A329B01AC010E946B327B0119
:103090008C0168A179A18AA19BA12D853E854F85D0
:1030A00058890E946B329B01AC01C801B7010E9494
:1030B0004B333B014C01A988BA88CB88DC888D85CD
:1030C0009E85AF85B88988A399A3AAA3BBA3B0C0E6
:1030D00068A179A18AA19BA1A80197010E946B32E6
:1030E00068A379A38AA39BA3A3C06D857E858F85E2
:1030F0009889A40193010E948D359B01AC01C60102
:10310000B5010E946A327B018C0129853A854B8585
:103110005C850E94443387FD03C05701680188C065
:10312000C601B50129853A854B855C850E946A32C6
:103130002D853E854F8558890E944B333B014C01BC
:10314000A984BA84CB84DC8492E09F8F71C0C401CF
:10315000B301A98DBA8D91962D913D914D915C91C0
:1031600094970E948D357B018C0168A179A18AA179
:103170009BA1A80197010E9452351816ACF5C80111
:10318000B70120E030E040E05FEB0E948D359B010D
:10319000AC0168A179A18AA19BA10E946B329B011D
:1031A000AC01C401B3010E948D359B01AC01C60185
:1031B000B5010E946A321B012C012D813E814F8195
:1031C00058850E94523518167CF468A179A18AA10D
:1031D0009BA1A80197010E946A3268A379A38AA3E0
:1031E0009BA36201510124C0C601B5012D813E811E
:1031F0004F8158850E946A329B01AC010E946B325C
:103200007B018C0168A179A18AA19BA129813A81C6
:103210004B815C810E946B329B01AC01C801B701FC
:103220000E944B333B014C01AD80BE80CF80D884DF
:1032300068A579A58AA59BA5A40193010E946B327C
:1032400068A779A78AA79BA72CA53DA54EA55FA532
:103250000E94443388232CF46CA57DA58EA59FA5E0
:1032600018C0C601B5012CA13DA14EA15FA10E94CD
:10327000523518160CF56CA57DA58EA59FA52EE3DD
:1032800033EC4EE259E30E946B326CA77DA78EA708
:103290009FA728A539A54AA55BA50E946A323B01D4
:1032A0004C01C601B5012D813E814F8158850E9498
:1032B000523518160CF492CE88A199A1AAA1BBA1EF
:1032C0008093050290930602A0930702B093080230
:1032D0009F8D90930002C601B5012091F4013091B9
:1032E000F5014091F6015091F7010E948D356CABCC
:1032F0007DAB8EAB9FAB0E9431331B012C016091E3
:10330000F0017091F1018091F2019091F3010E941E
:1033100031333B014C01A20191010E946A320E94AB
:10332000B833A8ADB9AD6D937C93672BB1F580919F
:103330001C05803291F580E090E0A0E0B0E0809341
:10334000050290930602A0930702B09308028093AF
:10335000FC019093FD01A093FE01B093FF01209228
:10336000F0013092F1014092F2015092F30100918C
:10337000EA011091EB01C201B1012091F4013091F9
:10338000F5014091F6015091F7010E944B33F8018D
:1033900065A376A387A390A7FEC068A579A58AA593
:1033A0009BA52091FC013091FD014091FE015091BF
:1033B000FF010E946B327B018C01C401B3012CA977
:1033C0003DA94EA95FA90E946A329B01AC01C801C8
:1033D000B7010E944B337B018C01C201B1012CA9C2
:1033E0003DA94EA95FA90E946A32A80197010E94D7
:1033F0008D356093FC017093FD018093FE019093E5
:10340000FF01C801B70120EC31EE44E65EE40E9402
:103410008D350E9431330E94B833AB01BC01403D71
:10342000F7E05F07F0E06F07F0E07F0728F4A8AD52
:10343000B9AD15961C9233C0403ABFE05B07B0E0CF
:103440006B07B0E07B0728F421E0E8ADF9AD2583F8
:103450000FC040343FE1530730E0630730E07307AB
:1034600010F4E2E001C0E3E0A8ADB9AD1596EC932D
:10347000A8ADB9AD15962C911597022E04C076957E
:103480006795579547950A94D2F78D919C9111971E
:1034900002C0880F991F2A95E2F78D939C934030C4
:1034A000B0E05B07B1E06B07B0E07B0728F4E8AD64
:1034B000F9AD5483438308C0EFEFFFEFA8ADB9AD7A
:1034C0001496FC93EE9313978091E8018093E701A3
:1034D0008F5F8093E801863011F41092E801C601F5
:1034E000B5012D813E814F8158850E9452351816B5
:1034F000ACF4E091EA01F091EB01A5A2B6A2C7A25B
:10350000D0A68CA99DA9AEA9BFA98093F0019093E4
:10351000F101A093F201B093F30149C0C601B501D6
:1035200020E030E040E050E00E9452351816CCF523
:1035300080E090E0A0E0B0E0809305029093060266
:10354000A0930702B09308028093FC019093FD01C1
:10355000A093FE01B093FF012092F0013092F1019F
:103560004092F2015092F3010091EA011091EB01B7
:10357000C201B1012091F4013091F5014091F601B1
:103580005091F7010E944B33D80195966D937D932E
:103590008D939C9398970E94FF2288E080931C054E
:1035A0000DC01092EB011092EA010E9480219091CF
:1035B000E6018091E801981709F0E6C9E9960FB68F
:1035C000F894DEBF0FBECDBFCF91DF911F910F9159
:1035D000FF90EF90DF90CF90BF90AF909F908F9033
:1035E0007F906F905F904F903F902F9008958091C3
:1035F0006F008D7F80936F0080918100887F816054
:10360000809381001092E901909199069F3F21F4E7
:1036100080911D0585FF0AC080911C05843031F022
:10362000892F90E00E94D92691E001C090E080911E
:10363000A30682FF02C081E09827992311F0289AFF
:103640000895289808950E94F71A8BE2EEEEF1E0B3
:10365000DF011D928A95E9F783E2E3ECF1E0DF01F7
:103660001D928A95E9F71092E5011092E4011092FB
:10367000EB011092EA011092E6011092E70181E05D
:103680008093E8011092E90108951F920F920FB6FE
:103690000F9211242F933F934F935F936F937F93D8
:1036A0008F939F93AF93BF93CF93DF93EF93FF934A
:1036B0008091E901882309F004C29BB18091D20175
:1036C000807E9F71892B8BB98BB1837E9091D101C4
:1036D000892B8BB98091D00186BD82E085BD81E0C8
:1036E0008093E90178948091E4019091E501892B20
:1036F00009F09FC09091E6018091E701891709F4D4
:1037000090C09091E60186E0989FE0011124C15697
:10371000DE4FD093E501C093E4018B819C819093AF
:10372000890080938800888199819093E00180933B
:10373000DF019A818091E101891761F19093E101A4
:10374000E1E19E9FF0011124E65BFE4FF093E3015F
:10375000E093E20185859685A785B089B695A79502
:10376000979587958093C3019093C401A093C50159
:10377000B093C6018093C7019093C801A093C9017B
:10378000B093CA018093CB019093CC01A093CD015B
:10379000B093CE01E091E201F091E30180919806AF
:1037A000908189278093D2012D8181819281A3818B
:1037B000B481022E04C0B695A795979587950A9473
:1037C000D2F78093D3019093D401A093D501B09305
:1037D000D60185819681A781B085022E04C0B69559
:1037E000A795979587950A94D2F78093D7019093E0
:1037F000D801A093D901B093DA0181859285A38580
:10380000B48504C0B695A795979587952A95D2F764
:103810008093DB019093DC01A093DD01B093DE0186
:1038200008C00E94F71A80911D05846080931D05D1
:1038300048C10E940A2B1092D1012091D3013091EE
:10384000D4014091D5015091D6018091C30190914E
:10385000C401A091C501B091C601280F391F4A1FAC
:103860005B1F2093C3013093C4014093C501509363
:10387000C601E091E201F091E30185859685A78577
:10388000B08982179307A407B507A8F584E0809351
:10389000D10185859685A785B089281B390B4A0BF0
:1038A0005B0B2093C3013093C4014093C501509337
:1038B000C601808185FF0CC080911F059091200575
:1038C000A0912105B09122050197A109B1090BC072
:1038D00080911F0590912005A0912105B0912205AE
:1038E0000196A11DB11D80931F0590932005A09303
:1038F0002105B09322052091D7013091D801409144
:10390000D9015091DA018091C7019091C801A0912D
:10391000C901B091CA01280F391F4A1F5B1F2093AC
:10392000C7013093C8014093C9015093CA018585EE
:103930009685A785B08982179307A407B507B8F5C0
:103940008091D10188608093D10185859685A78576
:10395000B089281B390B4A0B5B0B2093C7013093AE
:10396000C8014093C9015093CA01808186FF0CC0F1
:103970008091230590912405A0912505B0912605FD
:103980000197A109B1090BC08091230590912405ED
:10399000A0912505B09126050196A11DB11D80932A
:1039A000230590932405A0932505B0932605209127
:1039B000DB013091DC014091DD015091DE0180910D
:1039C000CB019091CC01A091CD01B091CE01280FF7
:1039D000391F4A1F5B1F2093CB013093CC014093CA
:1039E000CD015093CE0185859685A785B089821734
:1039F0009307A407B507B8F58091D1018061809342
:103A0000D10185859685A785B089281B390B4A0B7E
:103A10005B0B2093CB013093CC014093CD015093AD
:103A2000CE01808187FF0CC08091270590912805E9
:103A3000A0912905B0912A050197A109B1090BC0F0
:103A40008091270590912805A0912905B0912A051C
:103A50000196A11DB11D8093270590932805A09381
:103A60002905B0932A0580911C05843039F4809192
:103A70001E059091D10189238093D1018091DF01AE
:103A80009091E00101979093E0018093DF01892BF1
:103A900079F41092E5011092E4018091E6018F5FC4
:103AA0008093E6018091E601863011F41092E601E0
:103AB000809197069091D10189278093D10110922E
:103AC000E901FF91EF91DF91CF91BF91AF919F916C
:103AD0008F917F916F915F914F913F912F910F90B7
:103AE0000FBE0F901F901895F999FECF92BD81BD22
:103AF00081E08FBB80B50895F894F999FECF92BD0F
:103B000081BD81E08FBB40B54627842F992787FD73
:103B10009095262F30E082239323892B39F06F3F35
:103B200019F060BD84E006C084E104C0442321F0A4
:103B300060BD84E28FBBF99A789408958F929F922A
:103B4000AF92BF92CF92DF92EF92FF920F93DF93EB
:103B5000CF9300D0CDB7DEB75C016B017A014A018B
:103B600000E01EC0002319F021E030E008C0202F43
:103B7000332727FD30952227330F221F3327F601E5
:103B800061916F01062F020F9C012F5F3F4F3A8317
:103B900029830E947C1D08948108910889819A815B
:103BA00081149104F9F6C7018A0D9B1D602F0E94B4
:103BB0007C1D0F900F90CF91DF910F91FF90EF90B0
:103BC000DF90CF90BF90AF909F908F900895CF934C
:103BD000DF93EC01FB019A0190E0B1E019C0F99983
:103BE000FECFF2BDE1BDBFBBA0B5992319F081E0C6
:103BF00090E008C0892F992787FD90958827990F15
:103C0000881F992731969A2F980FA99321503040F9
:103C10002115310521F7460F571FF999FECF52BDE7
:103C200041BD81E08FBB80B520E030E0981711F4F2
:103C300021E030E0C901DF91CF91089580E090E06C
:103C40000E94741D873011F020E00CC086E696E0DB
:103C500061E070E04DE450E00E94E71D20E0892B18
:103C600009F021E0822F089580E090E067E00E9453
:103C70007C1D81E090E066E676E04DE450E00E9435
:103C80009E1D0895EF92FF920F931F93CF93DF93A2
:103C9000EC017A018B01CB01BA0120E030E040E079
:103CA00050E00E944433882314F484E0A4C1FE0150
:103CB000CF31D10540F4EC5CFF4FEE0FFF1F0590B4
:103CC000F491E02D099483E096C1CC0FDD1FCC0F59
:103CD000DD1FCA59D94FE882F9820A831B8388C144
:103CE000E0927206F09273060093740610937506C4
:103CF0007FC1E0927606F0927706009378061093E3
:103D0000790676C1E0927A06F0927B0600937C06F3
:103D100010937D066DC1C801B70120E030E040E797
:103D200052E40E948D3520E030E040E752E40E94EA
:103D30008D3560937E0670937F0680938006909306
:103D4000810656C1C801B70120E030E040E752E4E7
:103D50000E948D3520E030E040E752E40E948D352E
:103D60006093820670938306809384069093850601
:103D70003FC1C801B70120E030E040E752E40E94B3
:103D80008D3520E030E040E752E40E948D356093AD
:103D9000860670938706809388069093890628C1CB
:103DA000D801C701B05880938A0690938B06A093E0
:103DB0008C06B0938D061CC1D801C701B058809302
:103DC0008E0690938F06A0939006B093910610C133
:103DD000D801C701B0588093920690939306A093A0
:103DE0009406B093950604C1C801B70120E030E005
:103DF00040E450E40E944433882314F486E0FBC07E
:103E0000C801B7010E94F0350E94B833609396064E
:103E1000EFC0C801B7010E9467360E94B8336093B3
:103E20009706E6C0C801B7010E9467360E94B83302
:103E300060939806DDC0C801B7010E94F0350E946A
:103E4000B83360939906D4C0D801C701BF77809377
:103E50009A0690939B06A0939C06B0939D06C8C0BB
:103E6000E0929E06F0929F060093A0061093A10692
:103E7000BFC0C801B7010E94F0350E94B8336093FB
:103E8000A206B6C0C801B70120E030E040E050E033
:103E90000E944433882321F08091A306816011C0E1
:103EA0008091A3068E7F0DC0C801B70120E030E0ED
:103EB00040E050E00E944433882331F08091A30613
:103EC00082608093A30694C08091A3068D7FF9CF72
:103ED000C801B70120E030E040E050E00E944433E8
:103EE000882321F08091A3068460EBCF8091A30604
:103EF0008B7FE7CFC801B70120E030E040E050E021
:103F00000E944433882321F08091A3068064D9CF96
:103F10008091A3068F7BD5CFC801B70120E030E0A8
:103F200040E050E00E944433882341F08091A30692
:103F300084FD02C08AE05FC08062C3CF8091A30687
:103F40008F7DBFCFC801B70120E030E040E050E0F6
:103F50000E944433882321F08091A306886003C027
:103F60008091A306877F8093A3060E941B2740C0F1
:103F7000C801B70120E030E040E050E00E94443347
:103F8000882321F08091A30680619BCF8091A306B6
:103F90008F7C97CFC801B7010E9467360E94B83363
:103FA0006093A40625C0E092A506F092A6060093B1
:103FB000A7061093A8061CC0E092A906F092AA06D4
:103FC0000093AB061093AC0613C0C801B7010E9462
:103FD000F0350E94B8337093AE066093AD0608C00A
:103FE000E092AF06F092B0060093B1061093B206CD
:103FF0000E94341E80E0DF91CF911F910F91FF90BE
:10400000EF900895E6E6F6E080E090E0AAE7B3E4FA
:104010008093660690936706A0936806B09369063E
:1040200080936A0690936B06A0936C06B0936D061E
:1040300080936E0690936F06A0937006B0937106FE
:104040008AE08093960620E030E04AEF53E4209324
:10405000720630937306409374065093750620934E
:10406000760630937706409378065093790620932E
:104070007A0630937B0640937C0650937D0680E061
:1040800090EAACE0B7E480937E0690937F06A0931D
:104090008006B09381068093820690938306A09356
:1040A0008406B09385068093860690938706A09336
:1040B0008806B09389068FE692E1A3E0BBE3809384
:1040C0009E0690939F06A093A006B093A10610921F
:1040D000970680EC809398068AE097EDA3EABCE30C
:1040E00080939A0690939B06A0939C06B0939D069E
:1040F00082E085AF16AE80E090E0A8ECB1E480935A
:10410000A5069093A606A093A706B093A8062093B1
:10411000A9063093AA064093AB065093AC068AEFEB
:1041200090E09093AE068093AD0680E090E0A0E82A
:10413000BFE38093AF069093B006A093B106B0930F
:10414000B20689E18093990683E08093A20680E01D
:1041500090E0A8E4B3EC80938A0690938B06A0933A
:104160008C06B0938D0680938E0690938F06A09355
:104170009006B09391068093920690939306A09335
:104180009406B09395060E94341E08959DE0899F81
:10419000C001112480509E4F4CE050E00E949E1DB3
:1041A00008950F931F93CF93DF93162F072F9DE052
:1041B000899FE0011124C050DE4F862F972FBE014A
:1041C0004CE050E00E94E71D892B11F081E00FC008
:1041D000E12FF02F8CE0DF011D928A95E9F7CE01E7
:1041E000612F702F4CE050E00E949E1D80E0DF9117
:1041F000CF911F910F910895EF92FF921F93DF933C
:10420000CF93CDB7DEB72C970FB6F894DEBF0FBEB5
:10421000CDBF0E941E1E882339F487E00E94A02D86
:104220000E9402200E94AE2E10E07E010894E11C44
:10423000F11C812FB7010E94D120882319F487E057
:104240000E94A02D1F5F1830A1F72C960FB6F8948E
:10425000DEBF0FBECDBFCF91DF911F91FF90EF90DA
:104260000895BC0180EE93E046E450E00E949E1D5C
:104270000895CF93DF93EC0160EE73E046E450E0E5
:104280000E94E71D892B11F081E009C0188280EEA1
:1042900093E0BE0146E450E00E949E1D80E0DF9165
:1042A000CF91089597E4899FC001112480509D4FBC
:1042B00046E450E00E949E1D08950F931F93CF93F4
:1042C000DF938B0197E4899FE0011124C050DD4FFB
:1042D000CB01BE0146E450E00E94E71D892B11F09E
:1042E00081E009C0F8011082CE01B80146E450E037
:1042F0000E949E1D80E0DF91CF911F910F91089544
:104300002091FB048091FC04821769F0922F9F5F3B
:10431000923109F490E08091FE04281711F49093F3
:10432000FE049093FB0408959091FB048091FC049B
:10433000891719F420E030E006C089E2989F9001C7
:104340001124275E3D4FC901089520E09091FB04A0
:104350008091FD04981709F421E0822F089580913F
:104360001F0590912005A0912105B0912205809311
:10437000FF0490930005A0930105B093020580917E
:10438000230590912405A0912505B09126058093E1
:10439000030590930405A0930505B093060580914D
:1043A000270590912805A0912905B0912A058093B1
:1043B000070590930805A0930905B0930A05089591
:1043C0004F925F926F927F928F929F92AF92BF9225
:1043D000CF92DF92EF92FF920F931F93CF93DF93D1
:1043E0008091FC04882309F482E1782E7A9460900D
:1043F000FE04761409F4F2C089E2789E400111248B
:1044000089E192E0880E991EF401A588B688C788D4
:10441000D08C21A132A143A154A1CA01B9010E94AB
:104420006B32F40125A136A147A150A50E948D351C
:104430007B018C01B501C601A80197010E9444339C
:1044400087FD04C0D801C70157016D01C501D60120
:10445000F401818B928BA38BB48B772011F432E122
:10446000732E7A94761409F04EC08091FB0468167E
:1044700009F050C00E9487144DC0769CE0011124C1
:10448000C75EDD4F772011F422E1722E7A9480917D
:10449000FB04781611F40E948714AD88BE88CF887B
:1044A000D88C69897A898B899C89A60195010E949B
:1044B0004433882331F129A13AA14BA15CA1CA015F
:1044C000B9010E946B322DA13EA14FA158A50E94B7
:1044D0008D35F40121893289438954890E946B32D8
:1044E0007B018C01A60195010E94443388232CF4A2
:1044F000E98AFA8A0B8B1C8B04C0A98ABA8ACB8AF8
:10450000DC8A4E0102C099E2692E8091FE04781681
:1045100009F0B3CFA090FE04BA2CB394F2E1BF1619
:1045200009F4BB2489E2A89E80011124075E1D4F77
:104530005090FC0489E2482E4CC0B49CE001112448
:10454000C75EDD4FF801C188D288E388F4886988A6
:104550007A888B889C88C701B601A40193010E94C8
:10456000443388231CF5F80121A132A143A154A1B1
:10457000CA01B9010E946B32F80125A136A147A1F9
:1045800050A50E948D359B01AC01C701B6010E9468
:104590006B327B018C01A40193010E944433882378
:1045A0002CF4E98AFA8A0B8B1C8BAB2C69897A89EB
:1045B0008B899C892D893E894F89588D0E9444336F
:1045C000882309F4AB2CB394F2E1BF1609F4BB24A1
:1045D0008E01B51409F0B1CFA092FE04DF91CF9106
:1045E0001F910F91FF90EF90DF90CF90BF90AF9011
:1045F0009F908F907F906F905F904F9008950E9452
:1046000087148091FB048093FE040E94E0210895AA
:104610002091FB042F5F223109F420E08091FC04FB
:10462000281729F460E070E080E090E012C030E0EC
:1046300089E290E0289FF001299FF00D389FF00D4E
:104640001124E75EFD4F61897289838994890E94F4
:104650001A3608952F923F924F925F926F927F92F7
:104660008F929F92AF92BF92CF92DF92EF92FF9282
:104670000F931F93DF93CF93CDB7DEB7E0970FB6BD
:10468000F894DEBF0FBECDBF98A78FA349A75AA746
:104690006BA77CA7222E9091FC0489E2989F400191
:1046A000112429E132E0820E931ED4011D961D9241
:1046B0001D921D921C92509780E090E0A0E0B0E027
:1046C000F40185A396A3A7A3B0A7108289E996E772
:1046D000A6E9BEE781A392A3A3A3B4A32401332434
:1046E00066247724F301EA59F94FA080B180C28093
:1046F000D380EFA1F8A5E60DF71DC601B501208115
:104700003181428153810E948D350E945D359B012C
:10471000AC01E1E0F0E0EC0FFD1FE60DF71D20839A
:10472000318342835383F301E150FB4F80819181B8
:10473000A281B381281B390B4A0B5B0BDA01C9013B
:1047400057FF07C088279927DC01821B930BA40B16
:10475000B50BF20181839283A383B483F401E584D2
:10476000F684078510898E159F05A007B10710F400
:10477000D801C701F40185879687A787B08BCA0146
:10478000B9010E94E633A60195010E944B335B01FB
:104790006C01EDE0F0E0EC0FFD1FE60DF71D60830E
:1047A00071838283938320E030E040E050E00E94F8
:1047B0004433882344F4D4011C91832D0E94E326C2
:1047C000182BF4011083D4019596ED90FD900D9176
:1047D0001C919897C601B501A60195010E948D35DF
:1047E0009B01AC01C801B7010E946B327B018C01B7
:1047F000CB01D801F40185A396A3A7A3B0A7339456
:1048000024E030E0620E731E420E531E33E0331676
:1048100009F068CFB701C8010E941A367B018C01EC
:10482000D40195966D937D938D939C9398971D9647
:104830008D919D910D90BC91A02D0097A105B10582
:1048400009F4D5C169A57AA58BA59CA520E030E027
:1048500040E050E00E94443388234CF489E996E715
:10486000A6E9BEE789A79AA7ABA7BCA70EC02220DE
:1048700061F0C801B70129A53AA54BA55CA50E9426
:104880004B3369A77AA78BA79CA760E070E080E80C
:104890009FE3A80197010E944B336BA37CA38DA3D8
:1048A0009EA3DE011D96BE8FAD8FEBE0F5E0FC8F81
:1048B000EB8F22E736E03A8F298F80E090E0A0E08E
:1048C000B0E08F8F98A3A9A3BAA3DE015996B8AB25
:1048D000AFA7ED8DFE8DE080F18002811381C801CC
:1048E000B70120E030E040E050E00E9444338823EC
:1048F00009F47CC0C801B7012BA13CA14DA15EA168
:104900000E948D352B013C01AD8DBE8D6D937D9345
:104910008D939C93139760E070E080E89FE3A30180
:1049200092010E944B335B016C01E894D7F8C601F9
:10493000B501E98DFA8D20813181428153810E9438
:104940008D357B018C0169A57AA58BA59CA5A80155
:1049500097010E94443387FD04C0E9A6FAA60BA77D
:104960001CA7D4019196BC91BDA7F401F2A1FEA7AA
:10497000D40193962C90939794963C90C601B501E0
:10498000E98DFA8D24853585468557850E948D35BC
:104990007B018C016DA57EA5C101A80197010E9434
:1049A000443387FD05C0D801C701EDA69EA71D01B0
:1049B0008DA59EA5D101F40181A392A3A3A3B4A3C5
:1049C000C301B201AB8DBC8D2D913D914D915C9198
:1049D0000E948D359B01AC016F8D78A189A19AA1B0
:1049E0000E946A326F8F78A389A39AA3ED8DFE8D02
:1049F0003496FE8FED8F2B8D3C8D2C5F3F4F3C8F7F
:104A00002B8F898D9A8D04969A8F898FAFA5B8A91F
:104A1000EA17FB0709F05DCF9091FC048091FB043D
:104A2000981771F480E090E0A0E0B0E0F401818B91
:104A3000928BA38BB48B818F928FA38FB48F52C034
:104A400060E070E080E89FE32F8D38A149A15AA172
:104A50000E946A3220E030E040E05FE30E948D3542
:104A60000E941A365B016C01D40191966D917D9183
:104A70008D919C91949720919A0630919B0640913C
:104A80009C0650919D060E948D35A60195010E94BD
:104A90008D357B018C0160E070E080E89FE3A6012A
:104AA00095010E946A329B01AC01C801B7010E94C6
:104AB0004B337B018C0120E030E040E050E00E946D
:104AC0004433882354F40F2EF0E0EF2EF0E0FF2E55
:104AD000F0E00F2FF0E01F2FF02DF401E18EF28EA9
:104AE000038F148F69A57AA58BA59CA59B01AC01AA
:104AF0000E948D357B018C01D4015D966D937D9371
:104B00008D939C93909759965C9059975A964C9098
:104B10005A975B963C905B975C962C90D0901705CB
:104B2000C0901805B0901905A0901A052D2D3C2DA8
:104B30004B2D5A2D0E94443387FD04C06D2C7C2CD4
:104B4000F50105C0D801C7013701FA2FEB2F652DFC
:104B5000742D832D922D93014F2F5E2F0E9444338D
:104B600088232CF4852D942DA32DB22D0EC0C801C1
:104B7000B7012D2D3C2D4B2D5A2D0E94443387FD1E
:104B800006C08D2D9C2DAB2DBA2D7C018D01F4011D
:104B9000E58AF68A078B108FABE0B5E0FE013D9603
:104BA0008CE001900D928150E1F7F401858D968D96
:104BB000A78DB0A18093170590931805A0931905B0
:104BC000B0931A05AFEFB4E0FE0131968CE001908E
:104BD0000D928150E1F78091FD048093FC048F5F7A
:104BE000823109F480E08093FD040E94E021E09688
:104BF0000FB6F894DEBF0FBECDBFCF91DF911F91EE
:104C00000F91FF90EF90DF90CF90BF90AF909F906B
:104C10008F907F906F905F904F903F902F9008956E
:104C20008CE1EFEFF4E0DF011D928A95E9F7109235
:104C3000FB041092FC0481E08093FD041092FE04BA
:104C400008956F927F928F929F92AF92BF92CF9270
:104C5000DF92EF92FF920F931F93CF93DF934C015C
:104C60003B015A01FB018081F401E80FF11DEF01C6
:104C700089918D3229F481812196CC24C39405C079
:104C80008B3211F481812196CC2420E030E040E089
:104C900050E0DD24E0E070E0682F60536A30F8F403
:104CA000EF5FE930C0F47111DA94DA01C901F2E082
:104CB000880F991FAA1FBB1FFA95D1F7280F391F1C
:104CC0004A1F5B1F220F331F441F551F260F311D24
:104CD000411D511D09C0772339F4D39405C06E3F9F
:104CE00029F4772319F471E08991D6CFEE2311F4DA
:104CF00080E050C0CA01B9010E94E4337B018C01FD
:104D000020E030E040E050E00E944433882369F422
:104D10002BC0C801B7012AE037ED43E25CE30E94F3
:104D20008D357B018C01F2E0DF0E8FEFD8168CF30E
:104D3000D81659F4C801B7012DEC3CEC4CEC5DE3FE
:104D40000E948D357B018C010FC0DD2069F0C80108
:104D5000B70120E030E040E251E40E948D357B0154
:104D60008C01DA941D149CF3CC2049F0D801C701C2
:104D7000B058F50180839183A283B38305C0F50108
:104D8000E082F18202831383882D80958C0FF301DA
:104D9000808381E0DF91CF911F910F91FF90EF9081
:104DA000DF90CF90BF90AF909F908F907F906F904B
:104DB000089520EA3FE004C0F9013197F1F7019727
:104DC0000097D1F70895813049F0813018F0823092
:104DD00019F406C080E2089580E0089580E4089503
:104DE00080E80895AF92BF92CF92DF92EF92FF9248
:104DF0000F931F937B018C0159016A01A801970150
:104E00000E948D357B018C01C601B501A60195017B
:104E10000E948D359B01AC01C801B7010E946B3225
:104E20000E941A361F910F91FF90EF90DF90CF9064
:104E3000BF90AF90089584B1817F84B98091A3061B
:104E4000982F86FF03C085B1817F02C085B18E6037
:104E500085B993FF09C080916B008E6080936B00D1
:104E600080916800816008C080916B00817F809391
:104E70006B00809168008E7F809368000895EBE658
:104E8000F0E08081817F8083E8E6F0E080818E7FA2
:104E900080830895CF92DF92EF92FF920F931F933A
:104EA000CF93DF936C01C0E0D0E0F601EC0FFD1F63
:104EB000E080F18002811381C801B70120E030E079
:104EC00040E050E00E94523518166CF0FE01EA599D
:104ED000F94FC801B70124A135A146A157A10E94ED
:104EE00044338823D4F480911C05803161F480918F
:104EF0001D05886080931D050E94031380911B058A
:104F00008823D1F30EC00E94770480911D0580662E
:104F100080931D050E94031304C02496CC30D10554
:104F200021F6DF91CF911F910F91FF90EF90DF90CD
:104F3000CF9008951F920F920FB60F9211242F93C6
:104F40003F934F935F936F937F938F939F93AF9311
:104F5000BF93EF93FF9380911C05813059F08091AE
:104F60001D0585FD07C00E94770480911D058066A0
:104F700080931D05FF91EF91BF91AF919F918F910C
:104F80007F916F915F914F913F912F910F900FBE45
:104F90000F901F9018952F923F924F925F926F92B1
:104FA0007F928F929F92AF92BF92CF92DF92EF92B9
:104FB000FF920F931F93DF93CF93CDB7DEB7689720
:104FC0000FB6F894DEBF0FBECDBF982E80911B05A3
:104FD000882309F0CBC18091A9069091AA06A091DF
:104FE000AB06B091AC068F87988BA98BBA8BE090FB
:104FF0008A06F0908B0600918C0610918D06D09059
:105000008E06C0908F06B0909006A0909106C801C1
:10501000B7012D2D3C2D4B2D5A2D0E9452351816BF
:1050200034F48D2D9C2DAB2DBA2D7C018D01D090AB
:105030009206C0909306B0909406A0909506C80181
:10504000B7012D2D3C2D4B2D5A2D0E94523518168F
:1050500034F48D2D9C2DAB2DBA2D7C018D01C80112
:10506000B70120E030E040EC5FEB0E948D356B0132
:105070007C010E94102601E095E09D871E010894A6
:10508000211C311C492C552446015701B7FAB09414
:10509000B7F8B094D201A170B070BC8BAB8BF201A9
:1050A000E270F070FE8BED8BC20184709070988F6F
:1050B0008F8B8091A30686FD02C00E8703C091E00E
:1050C00090279E873101F10160E020E030E0C201CD
:1050D000022E02C0959587950A94E2F780FF0DC0D5
:1050E0006F5F002329F480829182A282B3820DC077
:1050F000C082D182E282F38208C080E090E0A0E02A
:10510000B0E080839183A283B3832F5F3F4F3496B7
:1051100023303105E1F63091A406232F35FF09C075
:1051200089819A81AB81BC81B05889839A83AB8392
:10513000BC8326FF09C08D819E81AF81B885B058A0
:105140008D839E83AF83B88737FF09C089859A8591
:10515000AB85BC85B05889879A87AB87BC87AB89FC
:10516000BC89AB2B11F410E001C014E0ED89FE897D
:10517000EF2B09F018608F89988D892B09F0106149
:1051800010931E0570E080E090E00E94E4330E94DE
:105190001A369B01AC016F85788989899A890E94AA
:1051A0008D35AB01BC01C10120E00E942A230E9481
:1051B000A9140E941B1483B19E85992311F0AEE0BF
:1051C0008A2712FF02C081FD1B7F13FF02C082FDF0
:1051D000177F14FF02C083FD1F7E10931E050E94DF
:1051E000A91480911D0584FF03C00E940313BEC053
:1051F000812F8C7101F70E94231B0E941026809141
:10520000AD069091AE060E94D9268091A506909198
:10521000A606A091A706B091A8068F87988BA98BA8
:10522000BA8B9D85992329F0A1E00A2791509D878B
:1052300040CF9FE1C92E95E0D92E86E6882E86E0E4
:10524000982EAA24BB24C2010A2C02C095958795EA
:105250000A94E2F780FF49C01091A4068A2D0E94AB
:10526000E326182369F1F401E4A0F5A006A117A133
:105270006091AF067091B0068091B1069091B20630
:10528000A80197010E946B32D3016D937D938D939A
:105290009C931397C801B701F401208131814281A9
:1052A00053810E948D350E945D35D6016C93119615
:1052B0007C93119712968C93129713969C9328C007
:1052C0008091AF069091B006A091B106B091B20660
:1052D000B058F30180839183A283B383D6011D92DA
:1052E0001D921D921C92139713C0F601608171816B
:1052F000828193810E94E633D4012D913D914D919D
:105300005C910E944B33F3016083718382839383AA
:105310000894A11CB11C84E090E0680E791EC80EB0
:10532000D91E880E991E93E0A916B10409F08BCFFF
:105330000E94AF214091A9065091AA066091AB0648
:105340007091AC06CE01019620E00E942A2388E0ED
:1053500080931C0580911D05826080931D050E942D
:1053600003130E948B1384E080931C0568960FB68C
:10537000F894DEBF0FBECDBFCF91DF911F910F918B
:10538000FF90EF90DF90CF90BF90AF909F908F9065
:105390007F906F905F904F903F902F9008958F92E5
:1053A0009F92AF92BF92CF92DF92EF92FF920F93B4
:1053B0001F93DF93CF93CDB7DEB72A970FB6F8943C
:1053C000DEBF0FBECDBF7B018C0120E030E040E0AE
:1053D00050E00E94443388233CF48DE20E94451241
:1053E00017FB109517F91095A090A206DA2C0CC0A7
:1053F000C801B70120E030E048EC52E40E948D354E
:105400007B018C018EEFD80EE1E0ED1588F3A0FE54
:105410000AC0C801B70120E030E040E251E40E9438
:105420008D357B018C01C801B70120E030E040E000
:105430005FE30E946B320E94B3336B017C019E01DB
:105440002F5F3F4FF901EA0DF11D8EE28083BB24EF
:1054500049011EC0BA1409F4B39484010B0D111D47
:10546000C701B6012AE030E040E050E00E949236E9
:10547000605DF8016083B394C701B6012AE030E0B3
:1054800040E050E00E949236C901DA016C017D01D2
:10549000C114D104E104F104E9F606C0FC01EB0DEE
:1054A000F11D2083B39403C0CE01019620E3BA140A
:1054B000A8F3BA1489F48B2D8F5FFE01E80FF11D5C
:1054C00090E39183B82EB39407C0FE01EB0DF11D5C
:1054D00080810E944512BA94BB20B9F72A960FB674
:1054E000F894DEBF0FBECDBFCF91DF911F910F911A
:1054F000FF90EF90DF90CF90BF90AF909F908F90F4
:1055000008951F93DF93CF9300D00F92CDB7DEB7EE
:10551000282F882321F480E30E9445121EC010E04A
:10552000AE014F5F5F4FFA01E10FF11D822F6AE07C
:105530000E948636905D90831F5F822F0E94863680
:10554000282F882381F707C0FE01E10FF11D80811C
:105550000E94451211501123B9F70F900F900F9030
:10556000CF91DF911F9108950F931F93DF93CF93F6
:10557000CDB7DEB728970FB6F894DEBF0FBECDBF0C
:10558000982FFE0131969E01275F3F4F892F817032
:1055900081939695E217F307C9F78E01085F1F4FB5
:1055A000F8018081805D0E944512015010400C1767
:1055B0001D07B1F728960FB6F894DEBF0FBECDBF1A
:1055C000CF91DF911F910F910895CF93DF93EC015D
:1055D00002C00E944512FE01219684918823C9F7DA
:1055E000DF91CF910895CF93DF93EC0103C0219613
:1055F0000E94451288818823D1F7DF91CF910895C9
:105600003D98459A089586B18295869587708095D4
:105610008170089580912C05813091F4359910C0E6
:1056200010922C05EDE2F5E0DF011E978CE00D9065
:1056300001928150E1F780911D05886080931D05DE
:10564000089580E495E00E94E52A08958EE696E0AC
:105650000E94E52A08951F93182F88ED96E00E9476
:10566000E52A133091F0143028F4113041F0123053
:10567000B1F408C0143061F0153089F40CC086EC28
:1056800096E00BC082EB96E008C080EA96E005C089
:1056900088E996E002C08FE896E00E94E52A8BE850
:1056A00096E00E94E52A1F910895AF92BF92CF9293
:1056B000DF92EF92FF920F931F93DF93CF93CDB7BB
:1056C000DEB768970FB6F894DEBF0FBECDBFDE0120
:1056D0001196EFE1F5E08CE001900D928150E1F739
:1056E00080911C058430E1F0853038F48130D9F0A8
:1056F000813050F08230F1F419C0803159F080329D
:1057000061F08830B9F403C08CE291E011C085E209
:1057100091E00EC080E291E00BC08AE191E008C008
:1057200084E191E005C08DE091E002C086E091E067
:105730000E94E52A8FEF90E00E94E52A8DE0E82E96
:10574000F12CEC0EFD1E670100E010E05E010894F4
:10575000A11CB11CF501E00FF11F608171818281F4
:1057600093810E94E633F801EA59F94F2081318193
:10577000428153810E944B339B01AC01F60160834F
:105780007183828393838091A30680FF0DC0CA0139
:10579000B9012BE832E441E25DE30E948D35F60168
:1057A0006083718382839383F6016191719181910A
:1057B00091916F010E94CF298DEF90E00E94E52A20
:1057C0000C5F1F4F0C30110529F687EF90E00E9407
:1057D000E52A07E515E0DD248091A30680FF1BC0C4
:1057E000F8016081718182819381248535854685A8
:1057F00057850E946B322BE832E441E25DEB0E9458
:105800008D359B01AC01F7016081718182819381AB
:105810000E946B3214C0F801608171818281938192
:1058200024853585468557850E946B329B01AC01E6
:10583000F70160817181828193810E946A32F70150
:105840006083718382839383F70160817181828198
:1058500093810E94CF29F2E0DF1621F085EF90E0DE
:105860000E94E52AD39484E090E0E80EF91E0C5FD4
:105870001F4F93E0D91609F0AFCF81EF90E00E945F
:10588000E52A68960FB6F894DEBF0FBECDBFCF9164
:10589000DF911F910F91FF90EF90DF90CF90BF901D
:1058A000AF900895BF92CF92DF92EF92FF920F9345
:1058B0001F93DF93CF93CDB7DEB72C970FB6F89435
:1058C000DEBF0FBECDBF80EE91E00E94E52A2DE243
:1058D000C22E25E0D22E96E6E92E96E0F92E8E0114
:1058E0000F5F1F4FBB24F60160817181828193811C
:1058F0000E94E633F70120813181428153810E9469
:105900004B339B01AC01F8016083718382839383E5
:105910008091A30680FF0DC0CA01B9012BE832E4D3
:1059200041E25DE30E948D35F801608371838283DB
:105930009383F80160817181828193810E94CF29D4
:10594000F2E0BF1621F08EED91E00E94E52AB394BB
:1059500084E090E0C80ED91EE80EF91E0C5F1F4FC0
:1059600093E0B91609F0BFCF8AED91E00E94E52AD5
:105970002C960FB6F894DEBF0FBECDBFCF91DF914E
:105980001F910F91FF90EF90DF90CF90BF900895FF
:105990000F931F938C0186E391E00E94E52AC801D2
:1059A0000E94F32A82E391E00E94E52A1F910F9161
:1059B0000895FF920F931F93F82E8B018BE491E0D3
:1059C0000E94E52A8F2D0E94812A89E491E00E949D
:1059D000E52AC8010E94F32A86E491E00E94E52AA4
:1059E0001F910F91FF90089580913905823091F0B9
:1059F000833028F4882341F08130B1F408C083302B
:105A000061F0853089F40CC089EB91E00BC085EB27
:105A100091E008C081EB91E005C08DEA91E002C001
:105A200088EA91E00E94E52A85EA91E00E94E52A51
:105A300080913E058A5C0E94812A80913D058130DB
:105A400041F0813018F0823059F406C080EA91E0CC
:105A500005C08BE991E002C086E991E00E94E52A49
:105A600080913B05882319F481E991E002C08CE81C
:105A700091E00E94E52A80913C05882319F487E88B
:105A800091E002C082E891E00E94E52A80913A0507
:105A9000813019F48DE791E002C088E791E00E941F
:105AA000E52A80913F05813041F0813018F0823045
:105AB00059F406C084E791E005C080E791E002C098
:105AC0008CE691E00E94E52A80914105813029F021
:105AD000813048F0823059F403C088E691E005C077
