:100000000C94CD030C94EA030C94EA030C94DB27C4
:100010000C94BF300C94EA030C94EA030C94EA03AA
:100020000C94EA030C94EA030C94EA030C94F11B7D
:100030000C94EA030C94EA030C94EA030C94EA038C
:100040000C94B4140C94EA030C94F9120C94B412AA
:100050000C94EA030C94EA030C94EA030C94EA036C
:100060000C94EA030C94EA03941F9B1F9E1FA11F8C
:10007000A41FAE1FBA1F382038203820C41FC61F47
:10008000CF1FD81FE21F38203820382038203820D2
:10009000EC1FFA1F0820122015201E2027202C20DC
:1000A000084AD73B3BCE016E84BCBFFDC12F3D6CDF
:1000B00074319ABD56833DDA3D00C77F11BED9E445
:1000C000BB4C3E916BAAAABE000000803F05A84C25
:1000D000CDB2D44EB93836A9020C50B991868808F1
:1000E0003CA6AAAA2ABE000000803F3E0D0A002CB2
:1000F00052583A002C4275663A002C002C57506F2B
:10010000733A002C002C4D506F733A003C436865E5
:10011000636B003C416C61726D003C486F6D650023
:100120003C486F6C64003C52756E003C51756575BF
:1001300065003C49646C65005D0D0A005B302E393A
:10014000672E32303134303732353A000D0A003DF7
:1001500000244E005D0D0A00204600205400204D72
:100160003800204D3900204D3500204D3400204D01
:100170003300204D3200204D3100204D300020470B
:1001800039340020473933002047393100204739BE
:1001900030002047323000204732310020473139CB
:1001A00000204731380020473137002047005B47A7
:1001B0003830005B4733005B4732005B4731005B00
:1001C0004730005D0D0A005B544C4F3A005D0D0A4C
:1001D000002C005B4739323A005D0D0A002C003AD2
:1001E000003330003238005B47005D0D0A002C0000
:1001F0005B5052423A00290D0A00206D617820744C
:10020000726176656C2C206D6D0020616363656C96
:100210002C206D6D2F7365635E3200206D61782038
:10022000726174652C206D6D2F6D696E002C2073CA
:100230007465702F6D6D007A0079007800202800B9
:100240003D0024002028686F6D696E672070756C12
:100250006C2D6F66662C206D6D290D0A00202868B4
:100260006F6D696E67206465626F756E63652C20C3
:100270006D736563290D0A2432373D002028686FAD
:100280006D696E67207365656B2C206D6D2F6D69D0
:100290006E290D0A2432363D002028686F6D696E84
:1002A0006720666565642C206D6D2F6D696E290D64
:1002B0000A2432353D00290D0A2432343D0020281D
:1002C000686F6D696E672064697220696E76657209
:1002D00074206D61736B3A002028686F6D696E67DA
:1002E000206379636C652C20626F6F6C290D0A2482
:1002F00032333D00202868617264206C696D697436
:10030000732C20626F6F6C290D0A2432323D00205D
:1003100028736F6674206C696D6974732C20626F2A
:100320006F6C290D0A2432313D0020286175746FED
:100330002073746172742C20626F6F6C290D0A2413
:1003400032303D0020287265706F727420696E63D0
:100350006865732C20626F6F6C290D0A2431343D5F
:1003600000202861726320746F6C6572616E636532
:100370002C206D6D290D0A2431333D0020286A752B
:100380006E6374696F6E20646576696174696F6EFF
:100390002C206D6D290D0A2431323D00290D0A24CF
:1003A00031313D002028737461747573207265705B
:1003B0006F7274206D61736B3A00202870726F62E7
:1003C000652070696E20696E766572742C20626F8C
:1003D0006F6C290D0A2431303D0020286C696D694D
:1003E000742070696E7320696E766572742C206259
:1003F0006F6F6C290D0A24363D00202873746570D8
:1004000020656E61626C6520696E766572742C2061
:10041000626F6F6C290D0A24353D00290D0A2434C2
:100420003D00202864697220706F727420696E76B6
:10043000657274206D61736B3A00290D0A24333D97
:100440000020287374657020706F727420696E7656
:10045000657274206D61736B3A0020287374657047
:100460002069646C652064656C61792C206D73650E
:1004700063290D0A24323D002028737465702070B2
:10048000756C73652C2075736563290D0A24313DE5
:100490000024303D002424202876696577204772A7
:1004A000626C2073657474696E6773290D0A242366
:1004B000202876696577202320706172616D6574EC
:1004C000657273290D0A24472028766965772070A4
:1004D0006172736572207374617465290D0A244911
:1004E000202876696577206275696C6420696E667C
:1004F0006F290D0A244E2028766965772073746170
:100500007274757020626C6F636B73290D0A2478A6
:100510003D76616C7565202873617665204772624F
:100520006C2073657474696E67290D0A244E783DDA
:100530006C696E65202873617665207374617274CE
:10054000757020626C6F636B290D0A244320286349
:100550006865636B2067636F6465206D6F646529F0
:100560000D0A245820286B696C6C20616C61726DD7
:10057000206C6F636B290D0A2448202872756E2049
:10058000686F6D696E67206379636C65290D0A7EFB
:1005900020286379636C65207374617274290D0A75
:1005A0002120286665656420686F6C64290D0A3F08
:1005B000202863757272656E74207374617475732C
:1005C000290D0A6374726C2D782028726573657426
:1005D000204772626C290D0A000D0A4772626C2076
:1005E000302E3967205B27242720666F72206865CC
:1005F0006C705D0D0A005D0D0A0044697361626CE8
:10060000656400456E61626C656400436175746980
:100610006F6E3A20556E6C6F636B656400272448DB
:10062000277C2724582720746F20756E6C6F636BAE
:1006300000526573657420746F20636F6E74696E09
:100640007565005B000D0A0050726F62652066617F
:10065000696C0041626F727420647572696E672004
:100660006379636C6500486172642F736F667420F0
:100670006C696D697400414C41524D3A20000D0A7D
:1006800000496E76616C69642067636F6465204918
:10069000443A00556E646566696E656420666565FA
:1006A00064207261746500556E737570706F72743A
:1006B000656420636F6D6D616E64004D6F64616C85
:1006C0002067726F75702076696F6C6174696F6EE8
:1006D000004C696E65206F766572666C6F770048B6
:1006E0006F6D696E67206E6F7420656E61626C65F8
:1006F0006400416C61726D206C6F636B004E6F74AF
:100700002069646C6500454550524F4D207265610B
:1007100064206661696C2E205573696E672064657C
:100720006661756C74730056616C7565203C20338E
:1007300020757365630053657474696E672064691E
:100740007361626C65640056616C7565203C203095
:1007500000496E76616C69642073746174656D65BF
:100760006E7400426164206E756D62657220666F02
:10077000726D617400457870656374656420636FA1
:100780006D6D616E64206C65747465720065727263
:100790006F723A20006F6B0D0A0011241FBECFEF5D
:1007A000D8E0DEBFCDBF11E0A0E0B1E0E6E9FDE6B4
:1007B00002C005900D92A030B107D9F716E0A0E075
:1007C000B1E001C01D92A73CB107E1F70E94EC0324
:1007D0000C94C9360C9400001F930E9481120E9451
:1007E0003A210E94CA140E94AE308EE1E7E2F5E0A1
:1007F000DF011D928A95E9F781E0809327057894BF
:100800008091B60684FF03C081E08093280511E043
:100810000E94F4120E9430120E9444120E94601240
:100820000E9455270E948A2B0E9459260E94881BED
:100830000E94ED210E94760810922705109229054A
:100840008091B60681FF03C01093370502C0109255
:1008500037050E941014DCCF8091290584FD1AC051
:100860008FB7F894909129059061909329058FBFD7
:100870000E9448120E94631280912805847351F0EF
:100880009FB7F894809129058062809329059FBFC6
:100890000E945C1B089584E0809328050E947927BC
:1008A00084E00E940F2883E00E940F280E945F13BB
:1008B00080912705882341F40E947608109228052C
:1008C0000E945C1B0E9455270895EF92FF920F93A0
:1008D0001F93CF93DF937B018C0180912805823099
:1008E00009F447C0C801B70120E030E040EA51E414
:1008F0000E94A2350E9436340E94CD33EB010E9443
:10090000F913C801B70120E030E04AE754E40E943F
:10091000A2357B018C0182E390E0C89FB001C99FA2
:10092000700DD89F700D112480E090E00E94F93383
:100930009B01AC01C801B7010E947F320E9436348E
:100940000E94CD33DC01CB010E94222700E911E097
:100950000EC00E945F1380912705882351F484EF15
:1009600091E0F8013197F1F70197D9F72197209796
:1009700081F7DF91CF911F910F91FF90EF90089534
:10098000DF92EF92FF920F931F93CF93DF93EC01CF
:100990007A018B01D22E8091B60685FF03C0CE016D
:1009A0000E948427809128058230D1F00E945F1335
:1009B000809127058823A1F40E94E321882319F060
:1009C0000E945213F3CFCE01B801A7012D2D0E9432
:1009D000732380912805882319F488E080932805E3
:1009E000DF91CF911F910F91FF90EF90DF900895CD
:1009F0007F928F929F92AF92BF92CF92DF92EF92AF
:100A0000FF920F931F93CF93DF936C014A015B0119
:100A1000722E0E94F91380912705882309F070C077
:100A2000C601B501A401272D0E94C00481E0809376
:100A300038059FB7F8948091290582608093290535
:100A40009FBF0E945F1380912705882309F058C03B
:100A500080912805882311F0883099F78091380516
:100A6000813041F49FB7F894809129058064809388
:100A700029059FBF0E945F1380912705882309F0F5
:100A80003FC00E94881B0E9459260E94ED2189E3E5
:100A9000E82E85E0F82EC0E0D0E086010C0F1D1F87
:100AA000F70161917191819191917F010E94FB33D6
:100AB000FE01E758F94F20813181428153810E9424
:100AC0006033F80160837183828393832496CC30F2
:100AD000D10519F7C601B501A401272D0E94C00454
:100AE0008FB7F894909129059260909329058FBF54
:100AF0000E94F91380912705882311F40E94ED2BA1
:100B0000DF91CF911F910F91FF90EF90DF90CF90E9
:100B1000BF90AF909F908F907F9008952F923F92BB
:100B20004F925F926F927F928F929F92AF92BF92FD
:100B3000CF92DF92EF92FF920F931F93DF93CF93A9
:100B4000CDB7DEB7EF970FB6F894DEBF0FBECDBFBF
:100B50009CAB8BAB7EAB6DAB3A010FAB18AF29AF43
:100B60003AAFCBAEDCAEEDAEFEAEAFAE9924880CA4
:100B7000991C880C991C880D991D9AAB89AB9A0118
:100B8000280D391D38AB2FA7D901AD90BD90CD9060
:100B9000DC90C601B501E9A9FAA920813181428121
:100BA00053810E9480326DA37EA38FA398A7659680
:100BB0006FAD6597462E5524440C551C440C551CAE
:100BC0002BA93CA9240D351D3EA72DA7C301840DDB
:100BD000951D9CA78BA7DC01ED90FD900D911C91BC
:100BE000C801B701F90120813181428153810E94FE
:100BF000803269A37AA38BA39CA3D601C501B05808
:100C00008D8F9E8FAF8FB8A3D801C701B058898F41
:100C10009A8FAB8FBC8FADA9BEA98A0E9B1EF40123
:100C200060817181828193812DA13EA14FA158A540
:100C30000E947F323B014C012DA93EA9420E531E5A
:100C4000D2016D917D918D919C9129A13AA14BA1E9
:100C50005CA10E947F325B016C016D8D7E8D8F8D5A
:100C600098A1A60195010E94A2357B018C01698D96
:100C70007A8D8B8D9C8DA40193010E94A2359B01DE
:100C8000AC01C801B7010E947F321B012C016D8DA0
:100C90007E8D8F8D98A1A40193010E94A2357B01C6
:100CA0008C01698D7A8D8B8D9C8DA60195010E949A
:100CB000A2359B01AC01C801B7010E9480329B01A3
:100CC000AC01C201B1010E94F3325B016C01809161
:100CD0004505823099F4C601B50120E030E040E0DE
:100CE00050E00E9467358823ECF0C601B5012BED7A
:100CF0003FE049EC50E40E947F3212C0C601B501CA
:100D000020E030E040E050E00E945933181654F0E3
:100D1000C601B5012BED3FE049EC50E40E94803262
:100D20005B016C01E090B206F090B3060091B4064E
:100D30001091B5066FA978AD89AD9AAD9B01AC0154
:100D40000E948032A80197010E947F329B01AC0172
:100D5000C801B7010E94A2350E942F367B018C0189
:100D6000C601B50120E030E040E05FE30E94A2351B
:100D70002FA938AD49AD5AAD0E94A2359F77A80181
:100D800097010E9460330E9436340E94CD33788FE1
:100D90006F8B6115710509F487C1BFADBB2381F06D
:100DA00080E090E00E94F9339B01AC016BAD7CAD1B
:100DB0008DAD9EAD0E94A2356BAF7CAF8DAF9EAF67
:100DC0002F89388DB90180E090E00E94F9337B01D2
:100DD0008C01C601B501A80197010E9460336B8B9D
:100DE0007C8B8D8B9E8B6696EFAD6697F0E0EE0F59
:100DF000FF1FEE0FFF1F8BA99CA98E0F9F1F9AA7A5
:100E000089A7ADA9BEA9EA0FFB1F6081718182810C
:100E10009381E9A5FAA520813181428153810E9405
:100E20007F32A80197010E9460336F87788B898B8E
:100E30009A8B6B897C898D899E899B01AC010E946C
:100E4000A2359B01AC0160E070E080E090E40E947C
:100E50007F325B016C016B897C898D899E892BEACD
:100E60003AEA4AE25EE30E94A2357B018C01C601A8
:100E7000B50120E030E040E850E40E9480329B0160
:100E8000AC01C801B7010E94A2356B877C878D87B2
:100E90009E87C601B50120E030E040E05FE30E949C
:100EA000A23569837A838B839C8321E030E03E8383
:100EB0002D839924F1C03BE0391508F446C06D8DAF
:100EC0007E8D8F8D98A12B853C854D855E850E94FA
:100ED000A2357B018C01698D7A8D8B8D9C8D29814A
:100EE0003A814B815C810E94A2359B01AC01C80113
:100EF000B7010E9480327B018C016D8D7E8D8F8DBC
:100F000098A129813A814B815C810E94A2355B01C5
:100F10006C01698D7A8D8B8D9C8D2B853C854D85E3
:100F20005E850E94A2359B01AC01C601B5010E94FD
:100F30007F326D8F7E8F8F8F98A39394C701D801D6
:100F4000898F9A8FAB8FBC8F61C0AD81BE81BD018F
:100F500080E090E00E94F9332B893C894D895E89BD
:100F60000E94A2357B018C01C8010E945D336F8312
:100F7000788789879A87B701C8010E9425363B0187
:100F80004C01EFA5F8A9E080F1800281138117FBE5
:100F9000109517F91095ABA5BCA52D903D904D90DF
:100FA0005C90C801B7012F81388549855A850E9418
:100FB000A2355B016C01C201B101A40193010E9441
:100FC000A2359B01AC01C601B5010E9480326D8F34
:100FD0007E8F8F8F98A3C801B701A40193010E944F
:100FE000A2357B018C01C201B1012F813885498571
:100FF0005A850E94A2359B01AC01C801B7010E942D
:101000007F32698F7A8F8B8F9C8F99246DA17EA1FF
:101010008FA198A52D8D3E8D4F8D58A10E948032B5
:10102000E9A9FAA9608371838283938369A17AA174
:101030008BA19CA1298D3A8D4B8D5C8D0E948032B5
:10104000ADA5BEA56D937D938D939C931397E9A554
:10105000FAA560817181828193812F8538894989C0
:101060005A890E948032A9A5BAA56D937D938D936C
:101070009C9313978BA99CA94BAD5CAD6DAD7EADD8
:101080002FAD0E94C004809127058823B1F4ED8123
:10109000FE813196FE83ED832D813E818F89988D6F
:1010A0002817390708F407CF8DA99EA94BAD5CAD71
:1010B0006DAD7EAD2FAD0E94C004EF960FB6F894D3
:1010C000DEBF0FBECDBFCF91DF911F910F91FF907B
:1010D000EF90DF90CF90BF90AF909F908F907F90D8
:1010E0006F905F904F903F902F90089560912B05E7
:1010F00070912C0580912D0590912E050E94FB3357
:101100002091790630917A0640917B0650917C06B9
:101110000E946033609358057093590580935A0577
:1011200090935B0560912F0570913005809131059A
:10113000909132050E94FB3320917D0630917E060E
:1011400040917F06509180060E94603360935C0559
:1011500070935D0580935E0590935F056091330504
:101160007091340580913505909136050E94FB33CE
:101170002091810630918206409183065091840629
:101180000E946033609360057093610580936205EF
:101190009093630508952F923F924F925F926F92C2
:1011A0007F928F929F92AF92BF92CF92DF92EF92F7
:1011B000FF920F931F93DF93CF93CDB7DEB7A8971E
:1011C0000FB6F894DEBF0FBECDBF1C01E0E8F5E01E
:1011D00089E3DF011D928A95E9F73196A5E4B5E030
:1011E0008AE00D9001928150E1F71982AA24BB2474
:1011F0001F8E1E8E1CA27724662461E0462E512C81
:101200009924939452E0852E6BC2802F81548A31A9
:1012100018F081E00C9417129F5F9983C101BE0101
:101220006F5F7F4FAE014E5F5F4F0E946A2688233B
:1012300019F482E00C941712CA80DB80EC80FD80E8
:10124000C701B6010E947C360E94CD33162F70E094
:10125000882777FD8095982F0E94FB339B01AC0176
:10126000C701B6010E947F3220E030E048EC52E432
:101270000E94A2350E9405360E94CD33262F0734E6
:1012800021F00D3409F053C10BC1163209F496C098
:101290001732F0F4143170F4113108F0BAC0143080
:1012A00009F443C0143008F489C01A3011F00C94CA
:1012B000061232C01C3181F11D3128F4163110F0B4
:1012C0000C940612C8C01E3111F00C94061224C0F2
:1012D000103509F47AC0113588F4153331F116331D
:1012E00040F41B3209F4C0C0113311F00C94061203
:1012F000BBC01C3310F00C940612CBC01C3561F03F
:101300001D3528F41A3510F40C94061292C01F35BE
:1013100010F00C94061296C0222339F4BCA1BB2312
:1013200011F00C940412E1E0ECA31C31A9F01D3182
:1013300028F4143051F01A3069F40AC0153351F111
:101340001C3561F11E3131F416C09092800502C047
:101350008092800580E0A1C0222329F02A3011F07C
:101360000C94061204C0F3E0F093800521C024E041
:10137000209380051DC0222329F02A3011F00C94FF
:10138000061204C085E08093800512C096E0909319
:1013900080050EC0A7E0A0938005DCCF222329F0B2
:1013A0002A3011F00C94061205C0B8E0B093800505
:1013B00080E0AEC0E9E0E0938005FACFFCA1FF2316
:1013C00011F00C94041282E08CA3123089F01330D7
:1013D00028F4112351F01130D1F40AC0163259F01B
:1013E000103591F0133099F403C0109281050FC0AD
:1013F000109381050CC0243111F00C94061294E076
:101400009093810581E084C0A5E0A093810581E0EF
:1014100044C0123139F0133149F0113129F41092DE
:10142000850502C09092850582E037C080928505CF
:10143000FBCF1A3519F41092840502C090928405EE
:1014400083E02BC01D3519F49092820502C01092E2
:10145000820584E022C0143119F49092830502C001
:101460001092830585E019C0BCA1BB2309F0CCC74D
:10147000113331F41092860586E0E3E0ECA348C016
:101480002A3009F0C3C79092860586E0F3E0FCA3FA
:101490003FC016531093870587E02223C9F1B8C7D0
:1014A000662309F0B5C7163018F41330B0F408C03D
:1014B000183008F4ABC71A3000F11E3109F0A6C786
:1014C000123041F01E3131F0112311F49092880551
:1014D00088E01EC080928805FBCF143039F01530AB
:1014E00041F0133041F490928A0505C080928A053C
:1014F00002C010928A0589E00BC0183019F019302B
:1015000031F403C08092890502C0109289058AE0F7
:10151000920102C0220F331F8A95E2F7C9018A2186
:101520009B21892B09F076C7A22AB32AD9C000359E
:1015300009F46BC001359CF40A34E9F10B3434F43E
:10154000063421F1093409F061C72AC00C3409F4CA
:101550004AC00C34E4F10E3409F058C748C00435D1
:1015600099F005353CF4023509F459C0033509F00A
:101570004DC75FC0093509F472C00A3509F47BC054
:10158000083509F043C75FC029E080C0C0928B05D1
:10159000D0928C05E0928D05F0928E0520E076C009
:1015A000C0928F05D0929005E0929105F09292053D
:1015B00021E0622A6BC0C0929305D0929405E0921C
:1015C0009505F092960582E0682A22E05FC0C092FD
:1015D0009705D0929805E0929905F0929A0594E0CB
:1015E000692A23E053C010939B0524E04FC0C70134
:1015F000B6010E94C83360939C0570939D0580934B
:101600009E0590939F0525E041C0C092A005D09211
:10161000A105E092A205F092A30526E037C0C09292
:10162000A405D092A505E092A605F092A70527E0B3
:101630002DC0C092A805D092A905E092AA05F0920B
:10164000AB0528E023C0C092AD05D092AE05E09274
:10165000AF05F092B005A1E07A2A2AE017C0C09247
:10166000B105D092B205E092B305F092B405B2E0B4
:101670007B2A2BE00BC0C092B505D092B605E09254
:10168000B705F092B805E4E07E2A2CE08201022E34
:1016900002C0000F111F0A94E2F78E8D9F8D8023E8
:1016A0009123892B11F089E1C2C681E693E002C043
:1016B000959587952A95E2F780FF0CC0C701B60182
:1016C00020E030E040E050E00E945933882314F4D9
:1016D00084E0ADC68E8D9F8D802B912B9F8F8E8F3A
:1016E0009981F101E90FF11D0081002309F08DCDF1
:1016F000772029F09CA1992311F4A2E0ACA3BE8D20
:10170000B5FF0FC080919C0590919D05A0919E050D
:10171000B0919F0580589649A849B04014F08BE1DC
:1017200086C680918205813039F4FCA1F230B1F592
:101730002E8D20FD33C070C680914605882371F53B
:101740008E8D80FF1BC080918305813039F56091BB
:101750008B0570918C0580918D0590918E0523E30A
:1017600033E34BEC51E40E94A23560938B057093F8
:101770008C0580938D0590938E0510C08091530544
:1017800090915405A0915505B091560580938B0515
:1017900090938C05A0938D05B0938E05AE8DBF8D73
:1017A000B0FD10C080914F0590915005A09151055A
:1017B000B09152058093A8059093A905A093AA051E
:1017C000B093AB0580918005813041F4BE8DB6FFAA
:1017D00025C6EE8DFF8DEF7BFF8FEE8F8091850507
:1017E000882341F0813061F4F2E0FBA31AA221E0EA
:1017F00029A30BC01BA281E08AA392E099A305C094
:10180000A1E0ABA3B2E0BAA319A280918305813015
:1018100059F54DEAE42E45E0F42E00E010E0C72C27
:10182000DD24C601002E02C0959587950A94E2F743
:1018300080FF11C0F701608171818281938123E370
:1018400033E34BEC51E40E94A235D7016D937D93B5
:101850008D939C9313970F5F1F4FE4E0F0E0EE0E23
:10186000FF1E03301105E9F6FCA1F33049F4809125
:101870008605813029F424E0721611F086E2D7C57E
:10188000DE011696E4E6F5E08CE001900D928150C1
:10189000E1F7A7FE12C090918705973008F0C0C508
:1018A00080914B05891749F0892FBE016A5F7F4FF0
:1018B0000E940F21882309F4B5C5809180058230EC
:1018C00021F0883009F0FDC09AC0772009F4ACC53A
:1018D0008E8D9F8D80759070892B09F49FC56091C6
:1018E000A0057091A1058091A2059091A3050E9489
:1018F0007C360E94CD33673008F092C520919B055D
:10190000243131F0223009F081C58E8D87FD7EC5EE
:10191000662319F0615068A303C09091870598A3CE
:101920008E010E5E1F4F88A1B8010E940F218823EF
:1019300009F478C578013DEA832E35E0932E28E539
:10194000C22E25E0D22E00E010E0A72CBB24C5015A
:10195000002E02C0959587950A94E2F780FF3BC060
:1019600080919B05843169F5D6016D917D918D91B2
:101970009C91139758962D913D914D915C915B9759
:101980000E947F32F40120813181428153810E9483
:101990007F32D7016D937D938D939C931397023083
:1019A000D1F420917C0530917D0540917E055091C8
:1019B0007F050E947F32F701608371838283938366
:1019C0000AC0F40180819181A281B381F7018083F3
:1019D0009183A283B3830F5F1F4F84E090E0E80EF2
:1019E000F91E880E991EC80ED91E0330110509F084
:1019F000AECFAE8DBF8DAF7ABF8FAE8FFCC07720DC
:101A000009F412C50DEA15E098E5C92E95E0D92E26
:101A100086E0882E912C8C0E9D1EEE24FF24A72C90
:101A2000BB24C5010E2C02C0959587950A94E2F758
:101A300080FF2CC0F6016081718182819381D40185
:101A40002D913D914D915C910E947F32F801208152
:101A50003181428153810E947F32D8016D937D9301
:101A60008D939C931397B2E0EB16D1F420917C05F3
:101A700030917D0540917E0550917F050E947F3217
:101A8000F80160837183828393830AC0F601808D9D
:101A9000918DA28DB38DF80180839183A283B3834E
:101AA0000894E11CF11C0C5F1F4F84E090E0C80E0D
:101AB000D91E880E991E93E0E916F10409F0B1CF02
:101AC00099C0ACA1A33009F47CC0772009F479C097
:101AD00018E5C12E15E0D12E0DEA15E0B6E0AB2ECB
:101AE000B12CAC0EBD1EEE24FF24872C9924C4011A
:101AF0000E2C02C0959587950A94E2F780FD0BC0E5
:101B0000F60180819181A281B381F8018083918364
:101B1000A283B38346C080918005873009F441C019
:101B200080918405882361F5D5016D917D918D911A
:101B30009C91F601208D318D428D538D0E94803213
:101B4000D8012D913D914D915C910E948032F80118
:101B50006083718382839383F2E0EF1611F5209105
:101B60007C0530917D0540917E0550917F050E9456
:101B70008032D8016D937D938D939C93139711C000
:101B8000F8016081718182819381D6012D913D910F
:101B90004D915C910E948032F80160837183828351
:101BA00093830894E11CF11C84E090E0C80ED91ED8
:101BB0000C5F1F4FA80EB91E93E0E916F10409F05F
:101BC00096CF80918005853031F0873069F0833081
:101BD00089F486E001C087E0BE016E5E7F4F0E94FF
:101BE0000F21882339F41EC480918105823010F0C2
:101BF0008EE11DC418A210918105153049F477209B
:101C000009F465C2ACA1A13009F461C28FE10FC42F
:101C1000BCA1B23009F05BC21123E9F060918B05E1
:101C200070918C0580918D0590918E0520E030E0BB
:101C300040E050E00E945933882309F4EDC314308A
:101C400030F4123060F4113009F041C204C0143095
:101C500009F03DC213C2772009F438C238C2772098
:101C600009F4E2C3FBA1EF2FF0E0F8A7EFA39AA1DC
:101C7000892F90E09EA38DA381E090E08C010DA0C0
:101C800002C0000F111F0A94E2F70FA002C0880FD4
:101C9000991F0A94E2F7082B192B872D90E08023D7
:101CA0009123892B11F480E2C2C3EFA1F8A5EE0FB6
:101CB000FF1FEE0FFF1FDF01AB5BBA4FE058FA4F7B
:101CC00065A576A587A590A953962D913D914D9137
:101CD0005C9156970E947F325B016C01EDA1FEA1E1
:101CE000EE0FFF1FEE0FFF1FDF01AB5BBA4FE05897
:101CF000FA4F65A576A587A590A953962D913D919C
:101D00004D915C9156970E947F321B012C01AE8D44
:101D1000A7FF02C108E515E06DEAE62E65E0F62EA4
:101D2000F8016081718182819381D7012D913D916C
:101D30004D915C910E945933882359F40C5F1F4FD9
:101D4000E4E0F0E0EE0EFF1EF5E004361F0741F779
:101D50006DC3809183058130B1F46091A4057091C9
:101D6000A5058091A6059091A70523E333E34BECED
:101D700051E40E94A2356093A4057093A505809359
:101D8000A6059093A705E090A405F090A505009105
:101D9000A6051091A705C801B70120E030E040E892
:101DA00050E40E94A235A80197010E94A2357B0150
:101DB0008C01C601B501A60195010E94A2359B01C7
:101DC000AC01C801B7010E947F327B018C01C201C6
:101DD000B101A20191010E94A2359B01AC01C80191
:101DE000B7010E947F327B018C0120E030E040E0AF
:101DF00050E00E945933882314F482E218C3C801CA
:101E0000B7010E942F367B018C01C601B501A201EA
:101E100091010E942C279B01AC0117FB109517F92B
:101E20001095C801B7010E9460337B018C0180913D
:101E30008105833021F417FB109517F910956090F8
:101E4000A4057090A5058090A6059090A705C401F3
:101E5000B30120E030E040E050E00E945933882395
:101E60007CF417FB109517F91095D401C301B058F5
:101E70008093A4059093A505A093A605B093A7050C
:101E80008E8D9F8D8F779F8F8E8FAFA1B8A5AA0F54
:101E9000BB1FAA0FBB1FAC57BA4FB8A7AFA3C20155
:101EA000B101A80197010E94A2359B01AC01C601B6
:101EB000B5010E947F3220E030E040E05FE30E9405
:101EC000A235EFA1F8A563877487858796878DA1D2
:101ED0009EA1880F991F880F991F8C579A4F9EA318
:101EE0008DA3C601B501A80197010E94A2359B01EF
:101EF000AC01C201B1010E94803220E030E040E03C
:101F00005FE30E94A235ADA1BEA11B966D937D93A8
:101F10008D939C931E97DBC0862C99240821192150
:101F2000012B11F483E283C2EE8DFF8DE17FFF8FE1
:101F3000EE8F80918305813041F53FE8E32E35E057
:101F4000F32E00E010E0C401002E02C095958795A5
:101F50000A94E2F780FF10C0D7016D917D918D91B9
:101F60009C9123E333E34BEC51E40E94A235F7014B
:101F700060837183828393830F5F1F4F84E090E0BF
:101F8000E80EF91E03301105F1F6EFA0F8A4EE0CEF
:101F9000FF1CEE0CFF1CA4E8B5E0EA0EFB1EC60118
:101FA000B501F70123853485458556850E947F322A
:101FB0005B016C010DA11EA1000F111F000F111F6D
:101FC0000C571A4FC201B101D8011B962D913D91BA
:101FD0004D915C911E970E947F329B01AC01C6011E
:101FE000B5010E942C275B016C01F70163857485A4
:101FF00085859685D8011B962D913D914D915C91DB
:102000001E970E942C273B014C016093A4057093FE
:10201000A5058093A6059093A705C601B501A40167
:1020200093010E947F327B018C01E89417F9C8016B
:10203000B7012AE037ED43EA5BE30E9467351816E3
:102040000CF045C0C801B70120E030E040E05FE39C
:102050000E94673518160CF4E9C1C401B3012FE6DC
:1020600032E143E85AE30E94A2359B01AC01C8016A
:10207000B7010E946735181654F5D8C1772009F4C6
:10208000D3C108E515E08DEAE82E85E0F82EF801C9
:102090006081718182819381D7012D913D914D9114
:1020A0005C910E945933882359F40C5F1F4FE4E080
:1020B000F0E0EE0EFF1EF5E004361F0741F7B6C153
:1020C0000E94982B882319F084E2B1C11CA28E8D46
:1020D0009F8D8E7D9C7F2CA1222321F08E8D9F8D44
:1020E0008E7D907E892B11F085E2A1C180918205C1
:1020F0008093460580918B0590918C05A0918D056C
:10210000B0918E058093530590935405A093550587
:10211000B0935605E090A805F090A9050091AA0596
:102120001091AB0560914F0570915005809151055C
:1021300090915205A80197010E945933882381F09C
:10214000E0924F05F092500500935105109352050F
:1021500080914E05882321F0B801A7010E944A1200
:102160008091AC058093570590918A0580914E052A
:10217000891769F090934E0540914F055091500595
:102180006091510570915205892F0E944A129091D9
:10219000890580914D05891729F090934D05892F68
:1021A0000E94651280918005813051F46091A005F4
:1021B0007091A1058091A2059091A3050E946504EC
:1021C000809185058093490580918305809347051B
:1021D0008CA18330D9F48091860580934A058130A3
:1021E00049F48091B5059091B605A091B705B091DD
:1021F000B80504C080E090E0A0E0B0E080937C05EA
:1022000090937D05A0937E05B0937F0590918705FF
:1022100080914B05891759F090934B05A4E6B5E0E2
:10222000FE0136968CE001900D928150E1F780918D
:1022300084058093480580918005853059F186306A
:1022400048F4833039F1843008F044C0823009F01A
:102250005AC00AC0883009F445C0893009F44CC01E
:10226000863009F050C038C08E010E5E1F4F88A125
:10227000B8010E94042180914B0598A1891709F0AB
:1022800042C0A4E6B5E0F8018CE001900D928150C7
:10229000E1F739C0ACA1AA2349F08DEA95E040E00E
:1022A00050E060E87FEB20E00E94C0048E010E5EEB
:1022B0001F4FC80140E050E060E87FEB20E00E9443
:1022C000C004A8E5B5E0F8018CE001900D928150C2
:1022D000E1F719C086E001C087E068E575E00E947B
:1022E000042111C0A0E7B5E0EDEAF5E08CE0019033
:1022F0000D928150E1F707C08CE0E0E7F5E0DF01E7
:102300001D928A95E9F78091810580934505853076
:1023100009F465C0BCA1B23009F061C0843040F45A
:10232000823008F5882341F0813009F04FC00CC09D
:10233000843009F04BC03CC08DEA95E040E050E0AD
:1023400060E87FEB20E00CC04091530550915405AC
:1023500060915505709156058DEA95E020914605EE
:102360000E94C00433C000D00091A4051091A505BF
:102370002091A6053091A705C0905305D090540533
:10238000E0905505F09056058AA1EDB7FEB7818320
:1023900099A1928388E595E06DEA75E04FE855E0F4
:1023A000A09046058BA00E948E050F900F900EC046
:1023B0004091530550915405609155057091560513
:1023C0008DEA95E0209146050E94F804A8E5B5E065
:1023D000EDEAF5E08CE001900D928150E1F78091FB
:1023E000880580934C05882311F10E94F9131092FF
:1023F000370580914C05823019F40E942C0402C0EC
:1024000010924C0580E013C088E111C084E10FC038
:1024100087E10DC085E10BC086E109C08CE107C0F2
:102420008DE105C087E003C08AE101C081E2A89682
:102430000FB6F894DEBF0FBECDBFCF91DF911F91D5
:102440000F91FF90EF90DF90CF90BF90AF909F9053
:102450008F907F906F905F904F903F902F90089556
:10246000E5E4F5E08BE3DF011D928A95E9F78091C1
:102470004B05BF01615E7F4F0E940F21882319F435
:1024800087E00E94222C0895249A259A2C9808957A
:102490002C9808951F93182F80912805823071F091
:1024A0000E9452130E94F913112311F42C9806C0B4
:1024B000113011F42D9801C02D9A2C9A1F91089576
:1024C0003B9A43980895439808951F93182F80913D
:1024D0002805823049F00E9452130E94F9131230ED
:1024E00011F4439A01C043981F91089590910101FE
:1024F00080910001891710F0891B08958058891B6D
:102500000895E0ECF0E08081826080831092C50045
:1025100080E18093C400E1ECF0E080818061808301
:102520008081886080838081806880830895282FDF
:10253000E09102019E2F9F5F903431F490E004C03F
:102540008091290584FD0FC0809103019817C1F384
:10255000F0E0E754FA4F2083909302018091C1008C
:1025600080628093C10008951F920F920FB60F9260
:1025700011248F939F93EF93FF9380910301E82F92
:10258000F0E0E754FA4F90819093C600982F9F5F38
:10259000903409F490E09093030180910201981720
:1025A00029F48091C1008F7D8093C100FF91EF914C
:1025B0009F918F910F900FBE0F901F901895909143
:1025C000010180910001891711F48FEF0895E92F1F
:1025D000F0E0E750FA4F8081E92FEF5FE03809F42F
:1025E000E0E0E093010108958091000180930101F2
:1025F00008951F920F920FB60F9211242F933F93BD
:102600004F935F936F937F938F939F93AF93BF93FA
:10261000EF93FF932091C6002132C9F0223218F4C3
:102620002831F1F41AC02F3319F02E37C9F406C03F
:102630009FB7F89480912905816005C09FB7F894F1
:10264000809129058260809329059FBF1AC09FB79A
:10265000F894809129058860F6CF0E942C0411C05F
:10266000E09100019E2F9F5F903809F490E08091E7
:102670000101981731F0F0E0E750FA4F2083909372
:102680000001FF91EF91BF91AF919F918F917F9149
:102690006F915F914F913F912F910F900FBE0F90CF
:1026A0001F90189580913705882341F09FB7F894C3
:1026B000809129058260809329059FBF0895CF935B
:1026C000DF9380912905882309F48AC0C82FD0E0C0
:1026D000CE0180769070892B39F181E080932805B6
:1026E000C6FF17C0C5FF02C08FEF01C08DEF0E946B
:1026F0008D3081E00E94C32B9FB7F894809129050B
:102700008F7E809329059FBF8091290584FFFCCF90
:1027100003C08EEF0E948D309FB7F89480912905F9
:102720008F79809329059FBFC4FF04C081E0809307
:1027300027055CC0C0FF0AC00E94892C9FB7F8948F
:10274000809129058E7F809329059FBFC3FF15C007
:1027500080912805803149F480E2809328050E9409
:10276000EC140E940E15109237059FB7F8948091D3
:102770002905877F809329059FBFC1FF1DC08091D8
:102780002805883089F480E1809328050E940E1581
:102790000E948C148091B60681FF04C081E0809372
:1027A000370502C0109237059FB7F894809129052C
:1027B0008D7F809329059FBFC2FF12C00E94D22146
:1027C000892B21F088E08093280502C0109228050B
:1027D0009FB7F894809129058B7F809329059FBF2F
:1027E00080912805847311F00E940E15DF91CF911E
:1027F000089580912805803151F481E08093370558
:1028000006C00E945F1380912705882341F40E942F
:10281000D221892BB1F780912805803191F3089559
:102820000F931F930E94BE2B80912805813021F4C5
:1028300082E00E94C32B1CC01092280584E091E026
:102840000E94FB3015C09A3011F09D3029F5E12F20
:10285000F0E0EC5FFE4F10820E945F13809127052D
:10286000882331F480910401882321F40E94222CD2
:1028700000E025C0843229F484E091E00E942731F1
:10288000F5CF80912805813011F489E0EFCF84E005
:1028900091E00E94CB08EACF002321F0993209F59C
:1028A00000E01FC09132E8F09F32D9F0983211F465
:1028B00001E017C01F3428F08BE00E94222C10E0AA
:1028C00010C0892F8156A12FB0E0E12FEF5F8A3130
:1028D00020F4AC5FBE4F905202C0AC5FBE4F9C93E1
:1028E0001E2F0E94DF12982F8F3F09F0ACCF8091EE
:1028F0003705882341F09FB7F894809129058260BD
:10290000809329059FBF0E945F138091270588232C
:1029100041F31F910F9108958091B60682FF02C086
:10292000289A01C02898809128058471E1F080914F
:10293000F4018093DC018091F3018093DB018091AD
:10294000A90690E0A0E0B0E00297A109B109880FC4
:10295000991FAA1FBB1F81958093DA0180916F0098
:10296000826080936F0008951F920F920FB60F92AE
:1029700011248F939F939BB18091F3018C71937E6F
:10298000892B8BB915BC9F918F910F900FBE0F9023
:102990001F9018958AB18C618AB9209A8AB1806E8D
:1029A0008AB9E1E8F0E080818F7E80838081886051
:1029B0008083E0E8F0E080818C7F808380818F706D
:1029C0008083EEE6F0E08081887F808314BC15BCB4
:1029D0008081816080830895CF93DF93C091F60159
:1029E000D091F7012097B9F081E08093FB0120910D
:1029F0001102309112024091130250911402CA0147
:102A0000B9010E94A235698B7A8B8B8B9C8B1092BB
:102A1000F7011092F601DF91CF9108952F923F9226
:102A20004F925F926F927F928F929F92AF92BF92DE
:102A3000CF92DF92EF92FF920F931F93DF93CF938A
:102A4000CDB7DEB7E9970FB6F894DEBF0FBECDBFA6
:102A500013C68091F6019091F701892B09F07EC28F
:102A60000E94D2219093F7018093F601892B09F4FB
:102A70000AC68091FB01882319F01092FB01CAC09D
:102A80008091FA018F5F8093FA01853011F41092E2
:102A9000FA01E091FA0121E1E29FF0011124EC5AE0
:102AA000FE4FF093F901E093F8010091F6011091C7
:102AB000F701D8018C91808311962D913D914D9114
:102AC0005C91149793E0220F331F441F551F9A9572
:102AD000D1F7218332834383548315962D913D9101
:102AE0004D915C91189783E0220F331F441F551FAF
:102AF0008A95D1F7258336834783508719962D9180
:102B00003D914D915C911C9773E0220F331F441F40
:102B1000551F7A95D1F721873287438754871D96B1
:102B20002D913D914D915C91509763E0220F331FA1
:102B3000441F551F6A95D1F7258736874787508BE5
:102B40001D966D917D918D919C9150970E94F933C6
:102B50006093FC017093FD018093FE019093FF014F
:102B6000F80125A136A147A150A50E9460339B0121
:102B7000AC01609300027093010280930202909373
:102B8000030260E070E080EA9FE30E94603360939C
:102B9000040270930502809306029093070280E07E
:102BA00090E0A0E0B0E08093080290930902A09327
:102BB0000A02B0930B02809128058032E1F4209143
:102BC000190230911A0240911B0250911C0220936D
:102BD0001102309312024093130250931402CA015F
:102BE000B9010E94A235D80151966D937D938D93C2
:102BF0009C9354970FC0F8016189728983899489E5
:102C00000E942F3660931102709312028093130278
:102C10009093140280E090E0A0E0B0E080930D0279
:102C200090930E02A0930F02B09310020091F60150
:102C30001091F701D80191968D919D910D90BC91C5
:102C4000A02D88AB99ABAAABBBAB60E070E080E095
:102C50009FE328A939A94AA95BA90E9460331B01F7
:102C60002C0180912805803209F056C0B2E0B09363
:102C70000C02F801A5A0B6A0C7A0D0A461887288F4
:102C800083889488C201B101A40193010E94A235F6
:102C90009B01AC01C601B5010E947F327B018C0112
:102CA00020E030E040E050E00E9459338823FCF4FB
:102CB00068A979A98AA99BA920E030E040E050ECFE
:102CC0000E94A235A60195010E94A2359B01AC018C
:102CD000C401B3010E9480320E942F366093190212
:102CE00070931A0280931B0290931C0237C1E092EA
:102CF0000D02F0920E0200930F021093100280E07A
:102D000090E0A0E0B0E08093190290931A02A093A3
:102D10001B02B0931C0222C110920C02F80185A183
:102D200096A1A7A1B0A580931D0290931E02A09327
:102D30001F02B09320020E9451235B016C0160933B
:102D4000190270931A0280931B0290931C02A60131
:102D500095010E94A2353B014C012091F601309172
:102D6000F70139AF28AFD90195968D919D910D90BE
:102D7000BC91A02D8B8F9C8FAD8FBE8FF901618987
:102D8000728983899489A40193010E947F329B01F7
:102D9000AC01C201B1010E94A2359B01AC016B8D57
:102DA0007C8D8D8D9E8D0E94803220E030E040E051
:102DB0005FE30E94A2357B018C0120E030E040E01F
:102DC00050E00E94673518160CF0B4C0C801B70176
:102DD0002B8D3C8D4D8D5E8D0E94593388230CF0D8
:102DE00095C0A8ADB9AD5D966D917D918D919C9189
:102DF0009097A40193010E947F329B01AC01C20114
:102E0000B1010E94A2356093210270932202809347
:102E1000230290932402A80197010E94593388232A
:102E20000CF047C0E8ADF9ADE58CF68C078D10A12C
:102E3000C801B7010E942F366093150270931602E5
:102E40008093170290931802A8ADB9AD5196AD903A
:102E5000BD90CD90DC905497C601B501A8019701B3
:102E60000E945933882321F4B1E0B0930C0276C05C
:102E7000C801B701A60195010E947F329B01AC01F8
:102E8000C201B1010E94A2359B01AC0160911D02FB
:102E900070911E0280911F02909120020E947F3249
:102EA00060931D0270931E0280931F029093200274
:102EB00055C0E0921D02F0921E0200931F02109373
:102EC0002002E0922102F09222020093230210934A
:102ED0002402E8ADF9AD21A132A143A154A1CA0158
:102EE000B9010E948032A80197010E94A235A40175
:102EF00093010E9480320E942F36609315027093D6
:102F00001602809317029093180228C0F2E0F09303
:102F10000C028091110290911202A0911302B091C3
:102F200014028093150290931602A0931702B09397
:102F3000180214C080E090E0A0E0B0E080931D0291
:102F400090931E02A0931F02B0932002A09215023C
:102F5000B0921602C0921702D09218028091F1012D
:102F6000B6E08B9FD0011124A755BE4FB9AFA8AFD3
:102F70008091FA0112968C93E091F601F091F7019D
:102F8000FA8FE98F85A196A1A7A1B0A58D8B9E8B05
:102F9000AF8BB88FBC01CD012091040230910502A6
:102FA00040910602509107020E947F326CA37DA3DC
:102FB0008EA39FA320E030E040E050E00E94593310
:102FC000882344F480E090E0A0E0B0E08CA39DA3CF
:102FD000AEA3BFA380911D0290911E02A0911F027B
:102FE000B0912002898B9A8BAB8BBC8B80911502A0
:102FF00090911602A0911702B09118028D879E87BA
:10300000AF87B88B8091210290912202A091230278
:10301000B091240289879A87AB87BC8780910D0283
:1030200090910E02A0910F02B09110028D839E83A9
:10303000AF83B8878091190290911A02A0911B0268
:10304000B0911C0289839A83AB83BC838091110267
:1030500090911202A0911302B091140288A399A337
:10306000AAA3BBA390910C029F8FAD88BE88CF8886
:10307000D88C8EE393ECAEE2B9E38CA79DA7AEA704
:10308000BFA780E090E0A0E0B0E088A799A7AAA73A
:10309000BBA70F2EFEE36F2EF3EC7F2EFEE28F2EEA
:1030A000F9E39F2EF02D9F8D992321F0913009F0A7
:1030B000B3C080C0C401B301A98DBA8D91962D9182
:1030C0003D914D915C9194970E94A2357B018C01BA
:1030D00020E030E040E05FE30E94A2359B01AC01BC
:1030E00068A179A18AA19BA10E9480329B01AC01B9
:1030F000C401B3010E94A2359B01AC01C601B50118
:103100000E947F325B016C0129893A894B895C8975
:103110000E94593388230CF040C069897A898B89D1
:103120009C8929853A854B855C850E945933882383
:1031300019F4B2E0BF8F02C0E1E0EF8F6D897E89A4
:103140008F89988D29893A894B895C890E947F32C1
:103150009B01AC010E9480327B018C0168A179A1A6
:103160008AA19BA12D853E854F8558890E9480327A
:103170009B01AC01C801B7010E9460333B014C01C7
:10318000A988BA88CB88DC888D859E85AF85B8896B
:1031900088A399A3AAA3BBA3B0C068A179A18AA15F
:1031A0009BA1A80197010E94803268A379A38AA3FA
:1031B0009BA3A3C06D857E858F859889A40193010B
:1031C0000E94A2359B01AC01C601B5010E947F326D
:1031D0007B018C0129853A854B855C850E9459339A
:1031E00087FD03C05701680188C0C601B501298564
:1031F0003A854B855C850E947F322D853E854F85C3
:1032000058890E9460333B014C01A984BA84CB8465
:10321000DC8492E09F8F71C0C401B301A98DBA8D87
:1032200091962D913D914D915C9194970E94A2357C
:103230007B018C0168A179A18AA19BA1A8019701BA
:103240000E9467351816ACF5C801B70120E030E0E0
:1032500040E05FEB0E94A2359B01AC0168A179A11F
:103260008AA19BA10E9480329B01AC01C401B301E1
:103270000E94A2359B01AC01C601B5010E947F32BC
:103280001B012C012D813E814F8158850E9467359D
:1032900018167CF468A179A18AA19BA1A8019701C5
:1032A0000E947F3268A379A38AA39BA36201510184
:1032B00024C0C601B5012D813E814F8158850E94F1
:1032C0007F329B01AC010E9480327B018C0168A19E
:1032D00079A18AA19BA129813A814B815C810E94BD
:1032E00080329B01AC01C801B7010E9460333B01F1
:1032F0004C01AD80BE80CF80D88468A579A58AA511
:103300009BA5A40193010E94803268A779A78AA790
:103310009BA72CA53DA54EA55FA50E9459338823E8
:103320002CF46CA57DA58EA59FA518C0C601B5017E
:103330002CA13DA14EA15FA10E94673518160CF586
:103340006CA57DA58EA59FA52EE333EC4EE259E337
:103350000E9480326CA77DA78EA79FA728A539A5BC
:103360004AA55BA50E947F323B014C01C601B50115
:103370002D813E814F8158850E94673518160CF4C7
:1033800092CE88A199A1AAA1BBA18093110290938A
:103390001202A0931302B09314029F8D90930C021B
:1033A000C601B50120910002309101024091020254
:1033B000509103020E94A2356CAB7DAB8EAB9FABEC
:1033C0000E9446331B012C016091FC017091FD01AC
:1033D0008091FE019091FF010E9446333B014C0118
:1033E000A20191010E947F320E94CD33A8ADB9ADF8
:1033F0006D937C93672BB1F580912805803291F510
:1034000080E090E0A0E0B0E080931102909312027F
:10341000A0931302B09314028093080290930902C0
:10342000A0930A02B0930B022092FC013092FD019E
:103430004092FE015092FF010091F6011091F701B8
:10344000C201B101209100023091010240910202BB
:10345000509103020E946033F80165A376A387A30D
:1034600090A7FEC068A579A58AA59BA52091080212
:103470003091090240910A0250910B020E94803261
:103480007B018C01C401B3012CA93DA94EA95FA900
:103490000E947F329B01AC01C801B7010E946033DA
:1034A0007B018C01C201B1012CA93DA94EA95FA9E4
:1034B0000E947F32A80197010E94A2356093080202
:1034C0007093090280930A0290930B02C801B7011E
:1034D00020EC31EE44E65EE40E94A2350E944633C1
:1034E0000E94CD33AB01BC01403DF7E05F07F0E047
:1034F0006F07F0E07F0728F4A8ADB9AD15961C92D0
:1035000033C0403ABFE05B07B0E06B07B0E07B0739
:1035100028F421E0E8ADF9AD25830FC040343FE148
:10352000530730E0630730E0730710F4E2E001C0B6
:10353000E3E0A8ADB9AD1596EC93A8ADB9AD15967D
:103540002C911597022E04C076956795579547954F
:103550000A94D2F78D919C91119702C0880F991F00
:103560002A95E2F78D939C934030B0E05B07B1E081
:103570006B07B0E07B0728F4E8ADF9AD54834383D3
:1035800008C0EFEFFFEFA8ADB9AD1496FC93EE9332
:1035900013978091F2018093F1018F5F8093F20184
:1035A000863011F41092F201C601B5012D813E81E1
:1035B0004F8158850E9467351816ACF4E091F601EA
:1035C000F091F701A5A2B6A2C7A2D0A68CA99DA989
:1035D000AEA9BFA98093FC019093FD01A093FE01C9
:1035E000B093FF0149C0C601B50120E030E040E0E2
:1035F00050E00E9467351816CCF580E090E0A0E01E
:10360000B0E08093110290931202A0931302B09342
:1036100014028093080290930902A0930A02B093C7
:103620000B022092FC013092FD014092FE0150926B
:10363000FF010091F6011091F701C201B101209143
:1036400000023091010240910202509103020E9457
:103650006033D80195966D937D938D939C93989745
:103660000E94482388E0809328050DC01092F7013E
:103670001092F6010E94BE219091F0018091F2011A
:10368000981709F0E6C9E9960FB6F894DEBF0FBEA9
:10369000CDBFCF91DF911F910F91FF90EF90DF9001
:1036A000CF90BF90AF909F908F907F906F905F90E2
:1036B0004F903F902F90089580916F008D7F809361
:1036C0006F0080918100887F8160809381001092DB
:1036D000F5019091AC069F3F21F48091290585FF6B
:1036E0000AC080912805843031F0892F90E00E9433
:1036F000222791E001C090E08091B60682FF02C0CF
:1037000081E09827992311F0289A08952898089520
:10371000FF920F931F93CF93DF930E945C1B8BE26A
:10372000EAEFF1E0DF011D928A95E9F783E2EDEC23
:10373000F1E0DF011D928A95E9F71092EF011092F6
:10374000EE011092F7011092F6011092F001109222
:10375000F10181E08093F2011092F5011092F301E2
:103760001092F401C0E0D0E00C2FFC2E8091AA064C
:1037700090E00C2E02C0959587950A94E2F780FFA1
:1037800008C01091F3018C2F0E94CD1E182B1093AE
:10379000F3018091AB0690E002C095958795FA946D
:1037A000E2F780FF08C01091F401802F0E94D71E1D
:1037B000182B1093F4012196C330D105A9F68BB1D3
:1037C000837E9091F301892B8BB98BB18F7190918E
:1037D000F401892B8BB9DF91CF911F910F91FF904D
:1037E00008951F920F920FB60F9211242F933F93BB
:1037F0004F935F936F937F938F939F93AF93BF93F9
:10380000CF93DF93EF93FF938091F501882309F025
:1038100007C29BB18091DC01807E9F71892B8BB99F
:103820008BB1837E9091DB01892B8BB98091DA017A
:1038300086BD82E085BD81E08093F501789480911A
:10384000EE019091EF01892B09F0A2C09091F00157
:103850008091F101891709F490C09091F00186E000
:10386000989FE0011124C755DE4FD093EF01C0931C
:10387000EE018B819C8190938900809388008881E0
:1038800099819093EA018093E9019A818091EB01FB
:10389000891761F19093EB01E1E19E9FF001112402
:1038A000EC5AFE4FF093ED01E093EC01858596858F
:1038B000A785B089B695A795979587958093CD01F3
:1038C0009093CE01A093CF01B093D0018093D1010A
:1038D0009093D201A093D301B093D4018093D501EA
:1038E0009093D601A093D701B093D801E091EC0159
:1038F000F091ED018091F401908189278093DC01A2
:103900002D8181819281A381B481022E04C0B6955C
:10391000A795979587950A94D2F78093DD019093A8
:10392000DE01A093DF01B093E00185819681A7813C
:10393000B085022E04C0B695A795979587950A94F1
:10394000D2F78093E1019093E201A093E301B09359
:10395000E40181859285A385B48504C0B695A795B9
:10396000979587952A95D2F78093E5019093E60184
:10397000A093E701B093E8010BC00E945C1B9FB7C6
:10398000F894809129058460809329059FBF48C1E0
:103990000E949E2B1092DB012091DD013091DE010F
:1039A0004091DF015091E0018091CD019091CE01D5
:1039B000A091CF01B091D001280F391F4A1F5B1F82
:1039C0002093CD013093CE014093CF015093D0018D
:1039D000E091EC01F091ED0185859685A785B08990
:1039E00082179307A407B507A8F584E08093DB014D
:1039F00085859685A785B089281B390B4A0B5B0BFB
:103A00002093CD013093CE014093CF015093D0014C
:103A1000808185FF0CC080912B0590912C05A09191
:103A20002D05B0912E050197A109B1090BC0809118
:103A30002B0590912C05A0912D05B0912E05019696
:103A4000A11DB11D80932B0590932C05A0932D05EE
:103A5000B0932E052091E1013091E2014091E30104
:103A60005091E4018091D1019091D201A091D301B4
:103A7000B091D401280F391F4A1F5B1F2093D10139
:103A80003093D2014093D3015093D401858596851C
:103A9000A785B08982179307A407B507B8F5809169
:103AA000DB0188608093DB0185859685A785B089D9
:103AB000281B390B4A0B5B0B2093D1013093D201A9
:103AC0004093D3015093D401808186FF0CC0809134
:103AD0002F0590913005A0913105B09132050197E5
:103AE000A109B1090BC080912F0590913005A091DB
:103AF0003105B09132050196A11DB11D80932F05AE
:103B000090933005A0933105B09332052091E501E3
:103B10003091E6014091E7015091E8018091D50193
:103B20009091D601A091D701B091D801280F391FEB
:103B30004A1F5B1F2093D5013093D6014093D701D4
:103B40005093D80185859685A785B08982179307FC
:103B5000A407B507B8F58091DB0180618093DB0194
:103B600085859685A785B089281B390B4A0B5B0B89
:103B70002093D5013093D6014093D7015093D801BB
:103B8000808187FF0CC08091330590913405A0910E
:103B90003505B09136050197A109B1090BC0809197
:103BA000330590913405A0913505B0913605019605
:103BB000A11DB11D8093330590933405A093350565
:103BC000B093360580912805843039F480912A0518
:103BD0009091DB0189238093DB018091E901909131
:103BE000EA0101979093EA018093E901892B79F426
:103BF0001092EF011092EE018091F0018F5F80939F
:103C0000F0018091F001863011F41092F001809162
:103C1000F3019091DB0189278093DB011092F5017C
:103C2000FF91EF91DF91CF91BF91AF919F918F91D4
:103C30007F916F915F914F913F912F910F900FBEA8
:103C40000F901F901895F999FECF92BD81BD81E02C
:103C50008FBB80B50895F894F999FECF92BD81BDD0
:103C600081E08FBB40B54627842F992787FD90952B
:103C7000262F30E082239323892B39F06F3F19F0F0
:103C800060BD84E006C084E104C0442321F060BD2F
:103C900084E28FBBF99A789408958F929F92AF92A5
:103CA000BF92CF92DF92EF92FF920F93DF93CF9369
:103CB00000D0CDB7DEB75C016B017A014A0100E0AC
:103CC0001EC0002319F021E030E008C0202F332768
:103CD00027FD30952227330F221F3327F6016191EC
:103CE0006F01062F020F9C012F5F3F4F3A832983FC
:103CF0000E942B1E08948108910889819A81811461
:103D00009104F9F6C7018A0D9B1D602F0E942B1E9E
:103D10000F900F90CF91DF910F91FF90EF90DF9078
:103D2000CF90BF90AF909F908F900895CF93DF93E7
:103D3000EC01FB019A0190E0B1E019C0F999FECFC6
:103D4000F2BDE1BDBFBBA0B5992319F081E090E0C1
:103D500008C0892F992787FD90958827990F881F7C
:103D6000992731969A2F980FA99321503040211509
:103D7000310521F7460F571FF999FECF52BD41BDBE
:103D800081E08FBB80B520E030E0981711F421E08E
:103D900030E0C901DF91CF910895882311F484E0C8
:103DA0000895813011F080E1089588E00895882316
:103DB00011F480E20895813011F080E8089580E4E4
:103DC0000895882311F482E00895813011F088E08D
:103DD000089584E0089580E090E00E94231E8930D9
:103DE00011F020E00CC089E796E061E070E04DE45E
:103DF00050E00E94961E20E0892B09F021E0822FDE
:103E0000089580E090E069E00E942B1E81E090E040
:103E100069E776E04DE450E00E944D1E0895CF9290
:103E2000DF92EF92FF920F931F93082F6A017B019D
:103E3000CB01BA0120E030E040E050E00E9459336D
:103E4000882314F484E015C1043608F459C00456DC
:103E500090E0033008F04BC0913089F0913030F0A1
:103E60009230D1F0933009F0FFC031C0E02FF0E084
:103E7000EE0FFF1FEE0FFF1FE758F94F08C0E02FAE
:103E8000F0E0EE0FFF1FEE0FFF1FEB57F94FC08260
:103E9000D182E282F382E8C010E0000F111F000F10
:103EA000111F0F56194FC701B60120E030E040E75F
:103EB00052E40E94A23520E030E040E752E40E9444
:103EC000A235F8016083718382839383CDC0E02F94
:103ED000F0E0EE0FFF1FEE0FFF1FE356F94FD70183
:103EE000C601B05880839183A283B383BDC00A30DA
:103EF00008F4BEC09F5F943009F4BAC00A50A9CF3D
:103F0000C701B6010E947C360E94CD33E02FF0E05D
:103F1000EC31F10508F0ACC0EC5CFF4FEE0FFF1F79
:103F20000590F491E02D0994633010F486E0A1C06F
:103F30006093A90699C06093AC0696C06093AA06E8
:103F400093C06093AB0690C0662321F08091B606C3
:103F5000846009C08091B6068B7F05C0662331F06E
:103F60008091B60680648093B6067EC08091B606C6
:103F70008F7BF9CF662321F08091B6068068F3CF5E
:103F80008091B6068F77EFCF6093AD06C092AE06F4
:103F9000D092AF06E092B006F092B10665C0C09232
:103FA000B206D092B306E092B406F092B5065CC0B9
:103FB000662321F08091B6068160D5CF8091B60648
:103FC0008E7FD1CF662321F08091B6068260CBCF61
:103FD0008091B6068D7FC7CF662341F08091B606EB
:103FE00084FD02C08AE045C08062BDCF8091B606E4
:103FF0008F7DB9CF662321F08091B606886003C01B
:104000008091B606877F8093B6060E9455272CC004
:10401000662321F08091B6068061A5CF8091B60617
:104020008F7CA1CF6093B7061FC0C092B806D09214
:10403000B906E092BA06F092BB0616C0C092BC0662
:10404000D092BD06E092BE06F092BF060DC060930E
:10405000C0061092C10608C0C092C206D092C30624
:10406000E092C406F092C5060E94011F80E001C0E4
:1040700083E01F910F91FF90EF90DF90CF90089514
:104080008AE08093A90689E18093AC061092AA0683
:1040900086E08093AB0683E08093AD068AE097EDDF
:1040A000A3EABCE38093AE069093AF06A093B0065C
:1040B000B093B1068FE692E1A3E0BBE38093B20632
:1040C0009093B306A093B406B093B5061092B706CA
:1040D00080E090E0A8ECB1E48093B8069093B90634
:1040E000A093BA06B093BB0620E030E04AEF53E459
:1040F0002093BC063093BD064093BE065093BF0686
:104100008AEF90E09093C1068093C00680E090E033
:10411000A0E8BFE38093C2069093C306A093C406B1
:10412000B093C50682E08093B60680E090E0AAE7EF
:10413000B3E48093790690937A06A0937B06B093BC
:104140007C0680937D0690937E06A0937F06B093B5
:1041500080068093810690938206A0938306B09395
:1041600084062093850630938606409387065093F5
:1041700088062093890630938A0640938B065093D5
:104180008C0620938D0630938E0640938F065093B5
:10419000900680E090EAACE0B7E4809391069093BB
:1041A0009206A0939306B0939406809395069093FD
:1041B0009606A0939706B0939806809399069093DD
:1041C0009A06A0939B06B0939C0680E090E0A8E43A
:1041D000B3EC80939D0690939E06A0939F06B093A8
:1041E000A0068093A1069093A206A093A306B09385
:1041F000A4068093A5069093A606A093A706B09365
:10420000A8060E94011F08959DE0899FC001112406
:1042100080509E4F4CE050E00E944D1E08950F9339
:104220001F93CF93DF93162F072F9DE0899FE00107
:104230001124C050DE4F862F972FBE014CE050E076
:104240000E94961E892B11F081E00FC0E12FF02F04
:104250008CE0DF011D928A95E9F7CE01612F702F66
:104260004CE050E00E944D1E80E0DF91CF911F9105
:104270000F910895EF92FF921F93DF93CF93CDB7E5
:10428000DEB72C970FB6F894DEBF0FBECDBF0E94ED
:10429000EB1E882339F487E00E94222C0E944020E4
:1042A0000E94032F10E07E010894E11CF11C812F75
:1042B000B7010E940F21882319F487E00E94222C65
:1042C0001F5F1830A1F72C960FB6F894DEBF0FBE13
:1042D000CDBFCF91DF911F91FF90EF900895BC016A
:1042E00080EE93E040E550E00E944D1E0895CF938C
:1042F000DF93EC0160EE73E040E550E00E94961E13
:10430000892B11F081E009C0188280EE93E0BE0194
:1043100040E550E00E944D1E80E0DF91CF9108956E
:1043200091E5899FC001112480509D4F40E550E0E8
:104330000E944D1E08950F931F93CF93DF938B011F
:1043400091E5899FE0011124C050DD4FCB01BE01F2
:1043500040E550E00E94961E892B11F081E009C0D3
:10436000F8011082CE01B80140E550E00E944D1ED8
:1043700080E0DF91CF911F910F9108952091070563
:1043800080910805821769F0922F9F5F923109F49E
:1043900090E080910A05281711F490930A059093F4
:1043A000070508959091070580910805891719F46C
:1043B00020E030E006C089E2989F900111242B5D37
:1043C0003D4FC901089520E09091070580910905AE
:1043D000981709F421E0822F089580912B05909180
:1043E0002C05A0912D05B0912E0580930B0590937F
:1043F0000C05A0930D05B0930E0580912F059091AB
:104400003005A0913105B091320580930F0590934E
:104410001005A0931105B09312058091330590917A
:104420003405A0913505B09136058093130590931E
:104430001405A0931505B0931605089580910805FD
:1044400090910705891710F0891B08958E5E891BCE
:1044500008954F925F926F927F928F929F92AF9248
:10446000BF92CF92DF92EF92FF920F931F93CF9361
:10447000DF9380910805882309F482E1782E7A94ED
:1044800060900A05761409F4F2C089E2789E400132
:10449000112485E292E0880E991EF401A588B68861
:1044A000C788D08C21A132A143A154A1CA01B9016E
:1044B0000E948032F40125A136A147A150A50E9497
:1044C000A2357B018C01B501C601A80197010E94AC
:1044D000593387FD04C0D801C70157016D01C501DB
:1044E000D601F401818B928BA38BB48B772011F4CE
:1044F00032E1732E7A94761409F04EC0809107054C
:10450000681609F050C00E94EC144DC0769CE00182
:104510001124CB5DDD4F772011F422E1722E7A94C5
:1045200080910705781611F40E94EC14AD88BE88BE
:10453000CF88D88C69897A898B899C89A601950155
:104540000E945933882331F129A13AA14BA15CA1E2
:10455000CA01B9010E9480322DA13EA14FA158A5E8
:104560000E94A235F40121893289438954890E942D
:1045700080327B018C01A60195010E94593388236A
:104580002CF4E98AFA8A0B8B1C8B04C0A98ABA8A9C
:10459000CB8ADC8A4E0102C099E2692E80910A051D
:1045A000781609F0B3CFA0900A05BA2CB394F2E1C3
:1045B000BF1609F4BB2489E2A89E800111240B5D7B
:1045C0001D4F5090080589E2482E4CC0B49CE00174
:1045D0001124CB5DDD4FF801C188D288E388F488CF
:1045E00069887A888B889C88C701B601A4019301E9
:1045F0000E94593388231CF5F80121A132A143A15F
:1046000054A1CA01B9010E948032F80125A136A146
:1046100047A150A50E94A2359B01AC01C701B6017C
:104620000E9480327B018C01A40193010E945933C6
:1046300088232CF4E98AFA8A0B8B1C8BAB2C6989B2
:104640007A898B899C892D893E894F89588D0E9452
:104650005933882309F4AB2CB394F2E1BF1609F463
:10466000BB248E01B51409F0B1CFA0920A05DF91E9
:10467000CF911F910F91FF90EF90DF90CF90BF905F
:10468000AF909F908F907F906F905F904F90089524
:104690000E94EC148091070580930A050E9429224C
:1046A0000895209107052F5F223109F420E08091C1
:1046B0000805281729F460E070E080E090E012C05F
:1046C00030E089E290E0289FF001299FF00D389FAB
:1046D000F00D1124EB5DFD4F618972898389948906
:1046E0000E942F3608952F923F924F925F926F92C1
:1046F0007F928F929F92AF92BF92CF92DF92EF9272
:10470000FF920F931F93DF93CF93CDB7DEB7E09760
:104710000FB6F894DEBF0FBECDBF98A78FA349A7F1
:104720005AA76BA77CA7222E9091080589E2989F33
:104730004001112425E232E0820E931ED4011D9621
:104740001D921D921D921C92509780E090E0A0E077
:10475000B0E0F40185A396A3A7A3B0A7108289E9CE
:1047600096E7A6E9BEE781A392A3A3A3B4A324017D
:10477000332466247724F301E758F94FA080B180F1
:10478000C280D380EFA1F8A5E60DF71DC601B501E3
:1047900020813181428153810E94A2350E9472356D
:1047A0009B01AC01E1E0F0E0EC0FFD1FE60DF71D11
:1047B0002083318342835383F301E55FFA4F808185
:1047C0009181A281B381281B390B4A0B5B0BDA0163
:1047D000C90157FF07C088279927DC01821B930B6B
:1047E000A40BB50BF20181839283A383B483F401FC
:1047F000E584F684078510898E159F05A007B1070B
:1048000010F4D801C701F40185879687A787B08B7C
:10481000CA01B9010E94FB33A60195010E946033D1
:104820005B016C01EDE0F0E0EC0FFD1FE60DF71D04
:10483000608371838283938320E030E040E050E026
:104840000E945933882344F4D4011C91832D0E9483
:10485000D71E182BF4011083D4019596ED90FD908E
:104860000D911C919897C601B501A60195010E9472
:10487000A2359B01AC01C801B7010E9480327B01C7
:104880008C01CB01D801F40185A396A3A7A3B0A7FF
:10489000339424E030E0620E731E420E531E33E068
:1048A000331609F068CFB701C8010E942F367B018B
:1048B0008C01D40195966D937D938D939C939897DD
:1048C0001D968D919D910D90BC91A02D0097A105F5
:1048D000B10509F4D5C169A57AA58BA59CA520E0F1
:1048E00030E040E050E00E94593388234CF489E9DD
:1048F00096E7A6E9BEE789A79AA7ABA7BCA70EC013
:10490000222061F0C801B70129A53AA54BA55CA5F5
:104910000E94603369A77AA78BA79CA760E070E02C
:1049200080E89FE3A80197010E9460336BA37CA3FA
:104930008DA39EA3DE011D96BE8FAD8FE7E1F5E04E
:10494000FC8FEB8F25E836E03A8F298F80E090E0EE
:10495000A0E0B0E08F8F98A3A9A3BAA3DE01599677
:10496000B8ABAFA7ED8DFE8DE080F18002811381A1
:10497000C801B70120E030E040E050E00E94593328
:10498000882309F47CC0C801B7012BA13CA14DA12B
:104990005EA10E94A2352B013C01AD8DBE8D6D93B1
:1049A0007D938D939C93139760E070E080E89FE384
:1049B000A30192010E9460335B016C01E894D7F877
:1049C000C601B501E98DFA8D208131814281538183
:1049D0000E94A2357B018C0169A57AA58BA59CA5B7
:1049E000A80197010E94593387FD04C0E9A6FAA6E1
:1049F0000BA71CA7D4019196BC91BDA7F401F2A10D
:104A0000FEA7D40193962C90939794963C90C60160
:104A1000B501E98DFA8D24853585468557850E9437
:104A2000A2357B018C016DA57EA5C101A80197016E
:104A30000E94593387FD05C0D801C701EDA69EA786
:104A40001D018DA59EA5D101F40181A392A3A3A36D
:104A5000B4A3C301B201AB8DBC8D2D913D914D919D
:104A60005C910E94A2359B01AC016F8D78A189A158
:104A70009AA10E947F326F8F78A389A39AA3ED8DAC
:104A8000FE8D3496FE8FED8F2B8D3C8D2C5F3F4F2E
:104A90003C8F2B8F898D9A8D04969A8F898FAFA525
:104AA000B8A9EA17FB0709F05DCF9091080580913E
:104AB0000705981771F480E090E0A0E0B0E0F40101
:104AC000818B928BA38BB48B818F928FA38FB48FAA
:104AD00052C060E070E080E89FE32F8D38A149A1CB
:104AE0005AA10E947F3220E030E040E05FE30E9464
:104AF000A2350E942F365B016C01D40191966D9115
:104B00007D918D919C9194972091AE063091AF0646
:104B10004091B0065091B1060E94A235A6019501C0
:104B20000E94A2357B018C0160E070E080E89FE389
:104B3000A60195010E947F329B01AC01C801B7011B
:104B40000E9460337B018C0120E030E040E050E0C7
:104B50000E945933882354F40F2EF0E0EF2EF0E03A
:104B6000FF2EF0E00F2FF0E01F2FF02DF401E18E6B
:104B7000F28E038F148F69A57AA58BA59CA59B0146
:104B8000AC010E94A2357B018C01D4015D966D932E
:104B90007D938D939C93909759965C9059975A96D4
:104BA0004C905A975B963C905B975C962C90D0907B
:104BB0002305C0902405B0902505A09026052D2D35
:104BC0003C2D4B2D5A2D0E94593387FD04C06D2C6E
:104BD0007C2CF50105C0D801C7013701FA2FEB2F56
:104BE000652D742D832D922D93014F2F5E2F0E94E2
:104BF000593388232CF4852D942DA32DB22D0EC06E
:104C0000C801B7012D2D3C2D4B2D5A2D0E94593333
:104C100087FD06C08D2D9C2DAB2DBA2D7C018D01FD
:104C2000F401E58AF68A078B108FA7E1B5E0FE0153
:104C30003D968CE001900D928150E1F7F401858D55
:104C4000968DA78DB0A18093230590932405A09302
:104C50002505B0932605ABE0B5E0FE0131968CE06A
:104C600001900D928150E1F780910905809308052C
:104C70008F5F823109F480E0809309050E94292228
:104C8000E0960FB6F894DEBF0FBECDBFCF91DF9197
:104C90001F910F91FF90EF90DF90CF90BF90AF905A
:104CA0009F908F907F906F905F904F903F902F904C
:104CB00008958CE1EBE0F5E0DF011D928A95E9F7BC
:104CC000109207051092080581E080930905109263
:104CD0000A0508956F927F928F929F92AF92BF9232
:104CE000CF92DF92EF92FF920F931F93CF93DF93B8
:104CF0004C013B015A01FB018081F401E80FF11DD9
:104D0000EF0189918D3229F481812196CC24C394BD
:104D100005C08B3211F481812196CC2420E030E053
:104D200040E050E0DD24E0E070E0682F60536A303E
:104D3000F8F4EF5FE930C0F47111DA94DA01C901D7
:104D4000F2E0880F991FAA1FBB1FFA95D1F7280F11
:104D5000391F4A1F5B1F220F331F441F551F260F89
:104D6000311D411D511D09C0772339F4D39405C06D
:104D70006E3F29F4772319F471E08991D6CFEE23A1
:104D800011F480E050C0CA01B9010E94F9337B01DF
:104D90008C0120E030E040E050E00E94593388234D
:104DA00069F42BC0C801B7012AE037ED43E25CE3A8
:104DB0000E94A2357B018C01F2E0DF0E8FEFD81646
:104DC0008CF3D81659F4C801B7012DEC3CEC4CEC2F
:104DD0005DE30E94A2357B018C010FC0DD2069F0EC
:104DE000C801B70120E030E040E251E40E94A23562
:104DF0007B018C01DA941D149CF3CC2049F0D8017E
:104E0000C701B058F50180839183A283B38305C0A5
:104E1000F501E082F18202831383882D80958C0F47
:104E2000F301808381E0DF91CF911F910F91FF907B
:104E3000EF90DF90CF90BF90AF909F908F907F903A
:104E40006F90089520EA3FE004C0F9013197F1F72F
:104E500001970097D1F70895AF92BF92CF92DF925A
:104E6000EF92FF920F931F937B018C0159016A010E
:104E7000A80197010E94A2357B018C01C601B501F2
:104E8000A60195010E94A2359B01AC01C801B701A2
:104E90000E9480320E942F361F910F91FF90EF9059
:104EA000DF90CF90BF90AF90089584B1817F84B997
:104EB0008091B606982F86FF03C085B1817F02C01E
:104EC00085B18E6085B993FF09C080916B008E60BB
:104ED00080936B0080916800816008C080916B00B6
:104EE000817F80936B00809168008E7F8093680043
:104EF0000895EBE6F0E08081817F8083E8E6F0E0D2
:104F000080818E7F80830895CF92DF92EF92FF920F
:104F10000F931F93CF93DF936C01C0E0D0E0F601B5
:104F2000EC0FFD1FE080F18002811381C801B70101
:104F300020E030E040E050E00E94673518166CF049
:104F4000FE01E758F94FC801B70124A135A146A1D8
:104F500057A10E945933882304F580912805803198
:104F600079F49FB7F894809129058860809329058A
:104F70009FBF0E945F13809127058823D1F312C041
:104F80000E942C049FB7F894809129058066809335
:104F900029059FBF0E945F1305C02496CC30D10520
:104FA00009F0BDCFDF91CF911F910F91FF90EF904E
:104FB000DF90CF9008951F920F920FB60F92112499
:104FC0002F933F934F935F936F937F938F939F9311
:104FD000AF93BF93EF93FF9380912805813071F0D9
:104FE0008091290585FD0AC00E942C049FB7F89482
:104FF000809129058066809329059FBFFF91EF91DD
:10500000BF91AF919F918F917F916F915F914F91E0
:105010003F912F910F900FBE0F901F9018952F92D8
:105020003F924F925F926F927F928F929F92AF9238
:10503000BF92CF92DF92EF92FF920F931F93DF9375
:10504000CF93CDB7DEB7A3970FB6F894DEBF0FBEF0
:10505000CDBF8F8F80912705882309F0E2C1809111
:10506000BC069091BD06A091BE06B091BF068F8B85
:10507000988FA98FBA8F4DE9A42E46E0B42E6624EE
:10508000772488249924CC24DD241E010894211C33
:10509000311C34E0432E512C4C0E5D1E8C2D0E9491
:1050A000E11EF101EC0DFD1D80838C2D0E94CD1EB3
:1050B000F201EC0DFD1D8083D501ED90FD900D9169
:1050C0001C91B301C401A80197010E94673518160D
:1050D00024F0C301D4017C018D010894C11CD11CB2
:1050E000E4E0F0E0AE0EBF1EF3E0CF16D10429F0ED
:1050F000D801C70137014D01D1CFC801B70120E068
:1051000030E040EC5FEB0E94A2355B016C010E9435
:10511000592601E025E02D8B27E0422E512C4C0E24
:105120005D1E9F8D892F90E099A388A335014601CC
:1051300097FA909497F890948091B60686FD02C0F5
:105140000E8B03C0A1E0A027AE8B8091B706E82E9E
:10515000FF241201920160E010E040E050E0742F63
:1051600088A199A1042E02C0959587950A94E2F72B
:10517000FC01E170F070FBA3EAA380FF10C06F5F39
:10518000002339F4D9016D927D928D929C921397F0
:105190000FC0F901A082B182C282D38209C080E02F
:1051A00090E0A0E0B0E0F90180839183A283B38313
:1051B000C70102C0959587957A95E2F780FF0AC0EE
:1051C000F90180819181A281B381B058808391835C
:1051D000A283B3838AA19BA1892B41F0E4E0F0E094
:1051E000EC0FFD1FE40FF51F8081182B4F5F5F4F01
:1051F0002C5F3F4F4330510509F0B1CF70E080E0A4
:1052000090E00E94F9330E942F369B01AC0110936D
:105210002A056F89788D898D9A8D0E94A235AB0100
:10522000BC01C20120E00E9473230E940E150E945F
:105230008C1443B19E89992311F0AEE04A2720E0F7
:1052400030E0E4E0F0E0EC0FFD1FE20FF31F90818F
:10525000812F892359F0E1E0F0E0EC0FFD1FE20F10
:10526000F31F8081842311F0909519232F5F3F4F06
:105270002330310531F710932A050E940E158091D5
:10528000290584FF03C00E945F13CBC0812F8C715E
:1052900081F60E94881B0E9459268091C006909139
:1052A000C1060E9422278091B8069091B906A0916C
:1052B000BA06B091BB068F8B988FA98FBA8F9D8944
:1052C000992329F0A1E00A2791509D8B35CF809139
:1052D000B706E82FF0E0FC8BEB8B4090C2065090B5
:1052E000C3066090C4067090C506D301C201B058D1
:1052F0008B8F9C8FAD8FBE8F9BE2C92E95E0D92EF0
:1053000089E7A82E86E0B82E8824992488A199A13F
:10531000082C02C0959587950A94E2F780FF3DC05E
:105320008B899C89082C02C0959587950A94E2F791
:1053300080FF23C0D5019496ED90FD900D911C91B6
:105340009797C301B201A80197010E948032F10131
:105350006083718382839383C801B701D5012D9146
:105360003D914D915C910E94A2350E947235F601EB
:10537000608371838283938323C08B8D9C8DAD8DDD
:10538000BE8DF10180839183A283B383D6011D92E8
:105390001D921D921C92139713C0F60160817181BA
:1053A000828193810E94FB33D5012D913D914D91D6
:1053B0005C910E946033F1016083718382839383E7
:1053C0000894811C911C24E030E0220E331EC20E92
:1053D000D31EA20EB31E33E08316910409F096CFBC
:1053E0000E94ED214091BC065091BD066091BE0621
:1053F0007091BF06CE01079620E00E94732388E0DB
:10540000809328059FB7F894809129058260809346
:1054100029059FBF0E945F130E94F91384E08093C7
:105420002805A3960FB6F894DEBF0FBECDBFCF916F
:10543000DF911F910F91FF90EF90DF90CF90BF9081
:10544000AF909F908F907F906F905F904F903F9024
:105450002F9008958F929F92AF92BF92CF92DF923A
:10546000EF92FF920F931F93DF93CF93CDB7DEB7E9
:105470002A970FB6F894DEBF0FBECDBF7B018C011B
:10548000A42E20E030E040E050E00E945933882311
:105490003CF48DE20E94971217FB109517F91095B6
:1054A000DA2C0CC0C801B70120E030E048EC52E42F
:1054B0000E94A2357B018C018EEFD80EE1E0ED1544
:1054C00088F3A0FE0AC0C801B70120E030E040E246
:1054D00051E40E94A2357B018C01C801B70120E094
:1054E00030E040E05FE30E9480320E94C8336B01ED
:1054F0007C019E012F5F3F4FF901EA0DF11D8EE205
:105500008083BB2449011EC0BA1409F4B3948401FA
:105510000B0D111DC701B6012AE030E040E050E05C
:105520000E94A736605DF8016083B394C701B6019D
:105530002AE030E040E050E00E94A736C901DA01DD
:105540006C017D01C114D104E104F104E9F606C047
:10555000FC01EB0DF11D2083B39403C0CE01019635
:1055600020E3BA14A8F3BA1489F48B2D8F5FFE01DF
:10557000E80FF11D90E39183B82EB39407C0FE01AC
:10558000EB0DF11D80810E949712BA94BB20B9F7F0
:105590002A960FB6F894DEBF0FBECDBFCF91DF9134
:1055A0001F910F91FF90EF90DF90CF90BF90AF9041
:1055B0009F908F90089543E00E942A2A08959B01AE
:1055C000AC018091B60680FF0AC0CA01B9012BE880
:1055D00032E441E25DE30E94A23541E003C0CA012A
:1055E000B90140E00E942A2A08959B01AC018091F4
:1055F000B60680FF0AC0CA01B9012BE832E441E2D5
:105600005DE30E94A23544E003C0CA01B90143E052
:105610000E942A2A08951F93DF93CF9300D00F9200
:10562000CDB7DEB7282F882321F480E30E9497129C
:105630001EC010E0AE014F5F5F4FFA01E10FF11D98
:10564000822F6AE00E949B36905D90831F5F822FBD
:105650000E949B36282F882381F707C0FE01E10FA7
:10566000F11D80810E94971211501123B9F70F90FC
:105670000F900F90CF91DF911F9108950F931F937B
:10568000DF93CF93CDB7DEB728970FB6F894DEBF80
:105690000FBECDBF982FFE0131969E01275F3F4F71
:1056A000892F817081939695E217F307C9F78E01D0
:1056B000085F1F4FF8018081805D0E9497120150A2
:1056C00010400C171D07B1F728960FB6F894DEBFEF
:1056D0000FBECDBFCF91DF911F910F910895CF9352
:1056E000DF93EC0102C00E949712FE012196849183
:1056F0008823C9F7DF91CF910895CF93DF93EC0111
:1057000003C021960E94971288818823D1F7DF91E8
:10571000CF9108953D988091B60687FF04C04598C3
:105720001092C6060895459A80E28093C6060895B1
:1057300086B180729091C6068927089580913805B8
:105740008130B1F486B180729091C606891781F0DC
:1057500010923805E9E3F5E0DF011E978CE00D902B
:1057600001928150E1F78091290588608093290595
:10577000089585E994E00E946F2B089589ED95E0E6
:105780000E946F2B08951F93182F83E496E00E94C8
:105790006F2B133091F0143028F4113041F0123097
:1057A000B1F408C0143061F0153089F40CC081E305
:1057B00096E00BC08DE196E008C08BE096E005C056
:1057C00083E096E002C08AEF95E00E946F2B86EF9F
:1057D00095E00E946F2B1F910895FF920F931F93E6
:1057E000CF93DF9380EF91E00E946F2B09E315E0E8
:1057F000C9E7D6E0FF24F80160817181828193813D
:105800000E94FB33288139814A815B810E94603389
:105810000E94F52AF2E0FF1621F08EEE91E00E9440
:105820006F2BF3940C5F1F4F249683E0F81619F743
:105830008AEE91E00E946F2BDF91CF911F910F9123
:10584000FF9008951F93182F882319F485E997E096
:105850005CC08DE897E00E946F2B1730A9F11830DB
:1058600078F4133029F1143030F41130C9F01230CB
:1058700009F042C018C0153009F1163010F51BC0F0
:105880001B3071F11C3028F4193021F11A3028F541
:105890001EC0153141F1163161F1143169F526C090
:1058A00085E797E002C083E697E00E946F2B2BC04C
:1058B00081E597E0FACF87E497E0F7CF86E397E0BA
:1058C000F4CF87E297E0F1CF86E097E0EECF8DEF5F
:1058D00096E0EBCF82EF96E0E8CF8FED96E0E5CF54
:1058E00081ED96E0E2CF8BEB96E0DFCF87EA96E0A2
:1058F000DCCF83E996E0D9CF81E896E00E946F2B58
:10590000812F0E940B2B8EE796E00E946F2B1F9138
:1059100008958F929F92AF92BF92DF92EF92FF9283
:105920000F931F93DF93CF93CDB7DEB768970FB672
:10593000F894DEBF0FBECDBFDE011196EBE2F5E0BD
:105940008CE001900D928150E1F780912805843020
:10595000E1F0853038F48130D9F0813050F0823078
:10596000F1F419C0803159F0803261F08830B9F417
:1059700003C082E391E011C08BE291E00EC086E2A9
:1059800091E00BC080E291E008C08AE191E005C09F
:1059900083E191E002C08CE091E00E946F2B809146
:1059A000AD0680FF3DC085E091E00E946F2BDD24B5
:1059B000EE24FF244E010894811C911C9DE0A92E29
:1059C000B12CAC0EBD1EF401EE0DFF1D6081718186
:1059D000828193810E94FB33F701E758F94F2081C0
:1059E0003181428153810E94603385010E0D1F1D5C
:1059F0009B01AC01F80120833183428353830E94D1
:105A0000F52AF2E0DF1621F083E091E00E946F2B8F
:105A1000D39484E090E0E80EF91E93E0D91699F64D
:105A20008091AD0681FF50C08CEF90E00E946F2BFB
:105A30008E01035F1F4F84E6E82E85E0F82EDD24FB
:105A4000F701608171818281938124853585468546
:105A500057850E9480329B01AC01F8016081718101
:105A6000828193810E947F32F801608371838283F7
:105A70009383F2E0DF1679F420917C0530917D0567
:105A800040917E0550917F050E947F32F80160832E
:105A9000718382839383F801608171818281938114
:105AA0000E94F52AF2E0DF1621F08AEF90E00E94D2
:105AB0006F2BD3940C5F1F4F84E090E0E80EF91E2B
:105AC00093E0D91609F0BCCF8091AD0682FF08C0E3
:105AD00084EF90E00E946F2B0E941E220E940B2BED
