:100000000C9421040C9433040C9433040C944B2969
:100010000C94D5310C9433040C9433040C943304B5
:100020000C9433040C9433040C9433040C94C316D2
:100030000C9433040C9433040C9433040C94330464
:100040000C94DC180C9433040C9457140C9419146D
:100050000C9433040C9433040C9433040C94330444
:100060000C9433040C943304290B0D130D13330B30
:10007000400B4D0B5A0B0D135E0B0D136C0B0D1338
:10008000760B800BB10B0D130D130D138A0B970B11
:10009000A40BD111E2110112E211051218120B1278
:1000A00011122D123312421259127D12871293121D
:1000B0009D12732279227C227F2284228C22962216
:1000C0000223022302239E22A122AA22B322022378
:1000D00002230223022302230223BB22C522D122B0
:1000E000D922DC22E522EE22F422332D362D3B2DBF
:1000F0003E2D412D442D472D4A2D4D2D502D532D54
:100100005F2D5F2D5F2D5F2D5F2D5F2D5F2D5F2D8F
:10011000592D562D5C2DA62DA92DAC2DAF2DB22D10
:10012000B52DB82D084AD73B3BCE016E84BCBFFD30
:10013000C12F3D6C74319ABD56833DDA3D00C77FB7
:1001400011BED9E4BB4C3E916BAAAABE0000008050
:100150003F05A84CCDB2D44EB93836A9020C50B9DF
:10016000918688083CA6AAAA2ABE000000803F000B
:100170003E0D0A002C4C696D3A002C52583A002C66
:100180004275663A002C002C57506F733A002C00D1
:100190002C4D506F733A003C446F6F72003C4368C3
:1001A00065636B003C416C61726D003C486F6D652E
:1001B000003C486F6C64003C52756E003C49646CB6
:1001C00065005D0D0A005B6563686F3A20005D0D98
:1001D0000A005B302E39692E3230313530353233FA
:1001E0003A000D0A003D00244E005D0D0A00205328
:1001F00000204600205400204D3800204D390020BA
:100200004D3500204D3400204D3300204D3200206C
:100210004D3100204D30002047393400204739331C
:100220000020473931002047393000204732300064
:100230002047323100204731390020473138002033
:10024000473137002047004733382E004738300009
:100250004733004732004731004730005B005D0DF7
:100260000A005B544C4F3A005D0D0A002C005B47BE
:1002700039323A005D0D0A002C003A00333000326A
:1002800038005B47005D0D0A003A002C005B5052BD
:10029000423A00290D0A00206D617820747261765F
:1002A000656C2C206D6D0020616363656C2C206D86
:1002B0006D2F7365635E3200206D6178207261740A
:1002C000652C206D6D2F6D696E002C207374657028
:1002D0002F6D6D007A00790078002028003D002401
:1002E000002028686F6D696E672070756C6C2D6FCB
:1002F00066662C206D6D290D0A002028686F6D69D7
:100300006E67206465626F756E63652C206D736522
:1003100063290D0A2432373D002028686F6D696E0D
:1003200067207365656B2C206D6D2F6D696E290DCF
:100330000A2432363D002028686F6D696E6720669A
:100340006565642C206D6D2F6D696E290D0A243250
:10035000353D00290D0A2432343D002028686F6D98
:10036000696E672064697220696E76657274206DAB
:1003700061736B3A002028686F6D696E672063793E
:10038000636C652C20626F6F6C290D0A2432333D3B
:1003900000202868617264206C696D6974732C2078
:1003A000626F6F6C290D0A2432323D002028736F72
:1003B0006674206C696D6974732C20626F6F6C2990
:1003C0000D0A2432313D0020287265706F7274204E
:1003D000696E636865732C20626F6F6C290D0A2447
:1003E00032303D00202861726320746F6C65726149
:1003F0006E63652C206D6D290D0A2431333D00207C
:10040000286A756E6374696F6E20646576696174BD
:10041000696F6E2C206D6D290D0A2431323D002943
:100420000D0A2431313D00202873746174757320E6
:100430007265706F7274206D61736B3A0020287062
:10044000726F62652070696E20696E766572742CB9
:1004500020626F6F6C290D0A2431303D0020286C1A
:10046000696D69742070696E7320696E7665727447
:100470002C20626F6F6C290D0A24363D00202873F2
:1004800074657020656E61626C6520696E76657258
:10049000742C20626F6F6C290D0A24353D00290DE4
:1004A0000A24343D00202864697220706F72742021
:1004B000696E76657274206D61736B3A00290D0A5E
:1004C00024333D0020287374657020706F7274208F
:1004D000696E76657274206D61736B3A00202873C3
:1004E0007465702069646C652064656C61792C208A
:1004F0006D736563290D0A24323D002028737465ED
:10050000702070756C73652C2075736563290D0AF6
:1005100024313D0024303D0024242028766965776D
:10052000204772626C2073657474696E6773290D5D
:100530000A24232028766965772023207061726160
:100540006D6574657273290D0A24472028766965E4
:100550007720706172736572207374617465290D00
:100560000A2449202876696577206275696C6420C1
:10057000696E666F290D0A244E20287669657720FA
:100580007374617274757020626C6F636B73290D84
:100590000A24783D76616C75652028736176652044
:1005A0004772626C2073657474696E67290D0A2442
:1005B0004E783D6C696E6520287361766520737492
:1005C000617274757020626C6F636B290D0A24432D
:1005D0002028636865636B2067636F6465206D6FB7
:1005E0006465290D0A245820286B696C6C20616CA5
:1005F00061726D206C6F636B290D0A24482028728C
:10060000756E20686F6D696E67206379636C65290C
:100610000D0A7E20286379636C652073746172749F
:10062000290D0A2120286665656420686F6C64299D
:100630000D0A3F202863757272656E7420737461B1
:10064000747573290D0A6374726C2D782028726595
:10065000736574204772626C290D0A000D0A477297
:10066000626C20302E3969205B27242720666F7248
:100670002068656C705D0D0A005D0D0A0050676DA5
:1006800020456E6400436865636B20446F6F7200A1
:1006900044697361626C656400456E61626C656497
:1006A0000043617574696F6E3A20556E6C6F636BB1
:1006B000656400272448277C2724582720746F204E
:1006C000756E6C6F636B00526573657420746F2078
:1006D000636F6E74696E7565005B000D0A00486F8C
:1006E0006D696E67206661696C0050726F6265208B
:1006F0006661696C0041626F727420647572696E24
:1007000067206379636C6500536F6674206C696D54
:1007100069740048617264206C696D697400414CB1
:1007200041524D3A20000D0A00496E76616C6964B1
:100730002067636F64652049443A00556E646566BE
:10074000696E656420666565642072617465005534
:100750006E737570706F7274656420636F6D6D6118
:100760006E64004D6F64616C2067726F75702076E7
:10077000696F6C6174696F6E004C696E65206F768D
:100780006572666C6F7700486F6D696E67206E6F7B
:100790007420656E61626C656400416C61726D20ED
:1007A0006C6F636B004E6F742069646C6500454527
:1007B00050524F4D2072656164206661696C2E2035
:1007C0005573696E672064656661756C7473005655
:1007D000616C7565203C203320757365630053653B
:1007E0007474696E672064697361626C6564005635
:1007F000616C7565203C203000496E76616C6964DF
:100800002073746174656D656E7400426164206E5E
:10081000756D62657220666F726D617400457870E7
:10082000656374656420636F6D6D616E64206C65D3
:1008300074746572006572726F723A20006F6B0D8E
:100840000A0011241FBECFEFD8E0DEBFCDBF26E0E7
:10085000A0E0B1E001C01D92AD3CB207E1F70E94FB
:1008600035040C9407380C9400000E94E7130E9492
:100870000E230E945A190E94C43180E2E7E2F5E09B
:10088000DF011D928A95E9F781E08093270578942E
:100890008091BC0684FF03C081E0809328050E94FC
:1008A000B5140E94F6080E943F130E94BF130E94D5
:1008B000FA280E94E92C0E947A240E942E190E9494
:1008C000CA270E9408091092270510922A05109243
:1008D0002B05109229050E94E515E1CFEF92FF92BA
:1008E0001F93CF93DF9300D000D0CDB7DEB77C014C
:1008F000122F8091BC0685FF0BC0C70149835A8324
:100900006B837C830E94582B7C816B815A81498147
:1009100080912805823031F149835A836B837C832F
:100920000E94BA148091270581111CC00E94C9241D
:1009300049815A816B817C81882339F00E94DC15C2
:1009400049815A816B817C81E7CF212FC7010F90AC
:100950000F900F900F90DF91CF911F91FF90EF902C
:100960000C94D1240F900F900F900F90DF91CF91A6
:100970001F91FF90EF9008952F923F924F925F92B8
:100980006F927F928F929F92AF92BF92CF92DF929F
:10099000EF92FF920F931F93CF93DF93CDB7DEB704
:1009A000E7970FB6F894DEBF0FBECDBF9C8B8B8B45
:1009B0001B013A0109871A872B873C87AF8A2D963E
:1009C0001FAD2D972E962FAD2E97298B2F963FADCD
:1009D0002F973D8B84E0889EA00111245A83498380
:1009E000AB89BC89A40FB51FB98FA88F460D571DC1
:1009F0005B8F4A8FFA0180809180A280B3802D9115
:100A00003D914D915C91C501B4010E94B5336C8F4D
:100A10007D8F8E8F9F8FF4E01F9F800111242B8983
:100A20003C89200F311F39A328A3A301400F511F78
:100A30005BA34AA3DA014D905D906D907C90F90123
:100A40002081318142815381C301B2010E94B533BB
:100A50006CA37DA38EA39FA3A501940150582D875D
:100A60003E874F87588BD301C201B0588D839E8338
:100A7000AF83B887E981FA81E20DF31D2C8D3D8D9E
:100A80004E8D5F8D60817181828193810E94B4332C
:100A90002B013C01F101E00FF11F2CA13DA14EA162
:100AA0005FA160817181828193810E94B4334B0187
:100AB0005C01A30192016D857E858F8598890E94D6
:100AC000CC3669837A838B839C83A50194016D81E5
:100AD0007E818F8198850E94CC369B01AC01698113
:100AE0007A818B819C810E94B53369837A838B8361
:100AF0009C83A50194016D857E858F8598890E94D0
:100B0000CC364B015C01A30192016D817E818F8106
:100B100098850E94CC369B01AC01C501B4010E94AE
:100B2000B43329813A814B815C810E9428342B01A6
:100B30003C019D89992399F02DEB37E346E055EB75
:100B4000C301B2010E94913687FD1DC02BED3FE02D
:100B500049EC50E4C301B2010E94B43312C02DEB42
:100B600037E346E055E3C301B2010E948E34181604
:100B700054F02BED3FE049EC50E4C301B2010E9478
:100B8000B5332B013C018090B8069090B906A09037
:100B9000BA06B090BB0629853A854B855C85CA01AB
:100BA000B9010E94B533A50194010E94B4339B01A1
:100BB000AC01C501B4010E94CC360E9459374B01EB
:100BC0005C0120E030E040E05FE3C301B2010E943D
:100BD000CC3629853A854B855C850E94CC369F773B
:100BE000A50194010E9495340E946B350E94023544
:100BF0007E8B6D8BDB01AB2B09F486C14B01A12CE5
:100C0000B12CBF89BB2361F0C501B4010E942E3510
:100C10009B01AC01C701B6010E94CC366B017C017F
:100C2000C501B4010E942E354B015C019B01AC0152
:100C3000C301B2010E94953469877A878B879C87AC
:100C4000F989E4E0FE9FC00111242B893C89280F1B
:100C5000391F3A8B298BF101E80FF91FD9012D912A
:100C60003D914D915C9160817181828193810E945F
:100C7000B433A50194010E9495346CAB7DAB8EAB6F
:100C80009FAB29853A854B855C85CA01B9010E94D5
:100C9000CC369B01AC0160E070E080E090E40E9403
:100CA000B4334B015C012BEA3AEA4AE25EE3698520
:100CB0007A858B859C850E94CC362B013C0120E0F7
:100CC00030E040E850E4C501B4010E94B5339B0117
:100CD000AC01C301B2010E94CC3668A779A78AA7EC
:100CE0009BA720E030E040E05FE3C501B4010E9433
:100CF000CC366CA77DA78EA79FA7198201E010E0D4
:100D0000ED89FE890E171F0709F4FEC0B981BC30BA
:100D100008F04AC02CA53DA54EA55FA56D817E813A
:100D20008F8198850E94CC364B015C0128A539A59E
:100D30004AA55BA56D857E858F8598890E94CC36F6
:100D4000A50194010E94B533B62EA72E982E892EA8
:100D50002CA53DA54EA55FA56D857E858F859889BF
:100D60000E94CC362B013C0128A539A54AA55BA5DC
:100D70006D817E818F8198850E94CC369B01AC016C
:100D8000C301B2010E94B4336D877E878F87988B31
:100D9000E981EF5FE9838B2D9A2DA92DB82D8D83E5
:100DA0009E83AF83B8876EC0B80180E090E00E9458
:100DB0002E3529853A854B855C850E94CC364B01C2
:100DC0005C010E9492346D837E838F839887C50176
:100DD000B4010E944F374B015C01EA8DFB8D80818D
:100DE0009181A281B3819C01AD01505829833A833E
:100DF0004B835C83AAA1BBA18D919D910D90BC9169
:100E0000A02D88AB99ABAAABBBAB2D813E814F81A6
:100E1000588569817A818B819C810E94CC362B0117
:100E20003C01A501940168A979A98AA99BA90E94FE
:100E3000CC369B01AC01C301B2010E94B5336D8772
:100E40007E878F87988BA501940169817A818B8138
:100E50009C810E94CC364B015C012D813E814F81EB
:100E6000588568A979A98AA99BA90E94CC369B01BB
:100E7000AC01C501B4010E94B4336D837E838F83BE
:100E8000988719822D853E854F8558896C8D7D8D7B
:100E90008E8D9F8D0E94B533E88DF98D60837183AF
:100EA000828393832D813E814F8158856CA17DA1E2
:100EB0008EA19FA10E94B533A8A1B9A16D937D9386
:100EC0008D939C9313972CA93DA94EA95FA9E989FD
:100ED000FA8960817181828193810E94B533A989E9
:100EE000BA896D937D938D939C9313972F89B70146
:100EF000A6018B899C890E946E048091270581112F
:100F000021C00F5F1F4FFCCE2F89B701A601C10181
:100F1000E7960FB6F894DEBF0FBECDBFDF91CF913D
:100F20001F910F91FF90EF90DF90CF90BF90AF9007
:100F30009F908F907F906F905F904F903F902F90F9
:100F40000C946E04E7960FB6F894DEBF0FBECDBFCB
:100F5000DF91CF911F910F91FF90EF90DF90CF9095
:100F6000BF90AF909F908F907F906F905F904F90C9
:100F70003F902F9008958F929F92AF92BF92CF9201
:100F8000DF92EF92FF924B015C0180912805823045
:100F900009F447C020E030E040EA51E4C501B40163
:100FA0000E94CC360E946B350E9402356B017C0199
:100FB0000E94671620E030E04AE754E4C501B4011E
:100FC0000E94CC364B015C0182E38C9DB0018D9D6B
:100FD000700D112480E090E00E942E359B01AC0141
:100FE000C501B4010E94B4330E946B350E940235E2
:100FF000CB010E94BE28C114D10499F00E94BA14FA
:1010000021E0C21AD1088091270581110AC08FEF13
:1010100090E722E0815090402040E1F700C00000BE
:10102000EACFFF90EF90DF90CF90BF90AF909F906E
:101030008F9008950E94EF2884E00E947F2983E02A
:101040000E947F290E94BA1480912705811104C053
:101050000E9408090C94FA280895CF92DF92EF922B
:101060000F93CF93DF9300D000D01F92CDB7DEB7A0
:101070006C0180912805823009F481C02D83498359
:101080005A836B837C830E94671610924605802FDB
:101090000E94EC2C0E94FE2C2D8149815A816B818B
:1010A0007C818823A1F09FB7F89480912B05806103
:1010B00080932B059FBF2D8349835A836B837C8349
:1010C0000E94BA147C816B815A8149812D81809163
:1010D0002705811154C0C6010E946E0481E08093EF
:1010E00039059FB7F89480912A05826080932A057C
:1010F0009FBF0E94BA1480912705811140C0809142
:1011000028058111F6CF809139058130A9F4EE20B0
:1011100051F08CE0ECE2F5E0AAE3B5E001900D922D
:101120008A95E1F70CC09FB7F89480912B058061F8
:1011300080932B059FBF03C081E0809346051092EA
:1011400039050E94BA1480912705811118C00E94A8
:101150002E190E947A240E94CA276CE275E0C6010B
:101160000E949A330F900F900F900F900F90DF9185
:10117000CF910F91EF90DF90CF900C942A2F0F908A
:101180000F900F900F900F90DF91CF910F91EF90F4
:10119000DF90CF90089580912A0584FD26C09FB7E7
:1011A000F89480912A05806180932A059FBF0E9450
:1011B00039130E94BD1380912805982F9C7021F44B
:1011C00090912905913089F49FB7843029F4F894DF
:1011D00080912B05806204C0F89480912B05886073
:1011E00080932B059FBF0C94981608958FE3E7E436
:1011F000F5E0DF011D928A95E9F76AE675E080E087
:101200000E94D321811103C087E00C941D2D089505
:101210006CE275E08EE595E00C949A332F923F9244
:101220004F925F926F927F928F929F92AF92BF92F6
:10123000CF92DF92EF92FF920F931F93CF93DF93A2
:10124000CDB7DEB7AB970FB6F894DEBF0FBECDBFFC
:1012500098A38F8F89E3E6E8F5E0DF011D928A9578
:10126000E9F78AE0E7E4F5E0A7E8B5E001900D9240
:101270008A95E1F71D8E212C312CA12CB12C19A2BD
:10128000512C1E8E66246394712C08E0402E992404
:10129000939485E0882E8D8DEF8DF8A1E80FF11DD8
:1012A0000081002309F480C29FEB900F9A3110F067
:1012B0000C94FF128F5F8D8FAE01475E5F4FBE01B2
:1012C000635E7F4F8F8D98A10E940C28882311F4B4
:1012D0000C940113C98CDA8CEB8CFC8CC701B60121
:1012E0000E949A370E940235162F70E080E090E04D
:1012F0000E9430359B01AC01C701B6010E94B43396
:1013000020E030E048EC52E40E94CC360E942F37B7
:101310000E940235073421F00D3409F446C188C11A
:10132000183209F428C1E8F4143160F4113108F0DE
:10133000D3C0143009F456C008F48AC01A30B9F189
:101340000C940D131C3199F128F4163108F4F3C0F4
:101350000C940D131E3159F1163209F479C00C9416
:101360000D13103509F4B5C0A8F4153309F45DC0A8
:1013700040F41B3209F4E8C0113309F4E5C00C94C1
:101380000D131C3310F00C940D13165310938D0590
:1013900089E0F6C01C3559F028F41A3508F0ABC0C6
:1013A0000C940D131F3508F4BDC00C940D1361157A
:1013B000710531F4BE8DB1110C940313E1E0EE8F91
:1013C0001C3199F038F4143069F01A3009F0D5C0A6
:1013D00082E02CC0153349F11C3559F11E3109F05A
:1013E000CCC013C090928605C8C06115710549F044
:1013F0006A30710511F00C940D1324E020938605DA
:1014000009C0F3E0F093860505C06115710521F46C
:101410008092860580E0B9C06A30710511F00C94A5
:101420000D1336E030938605F5CF87E0809386056F
:10143000A4C06115710549F06A30710511F00C9472
:101440000D1399E090938605E5CF40928605E2CF93
:10145000AE8DA1110C940313B2E0BE8F123089F04F
:1014600028F4112359F0113081F089C0163281F02F
:10147000103579F1133009F082C007C0109287054A
:101480007EC0EE8DE09387057AC01093870577C004
:101490006E317105B1F048F46431710511F00C94AE
:1014A0000D13F4E0F093870512C06832710561F006
:1014B0006233710511F00C940D1337E030938705FA
:1014C00006C08092870503C026E02093870581E04F
:1014D0005CC04092870553C0123129F0133139F0B6
:1014E00010928B0502C090928B0582E049C082E089
:1014F00080938B0545C06115710549F41A3519F4BF
:1015000010928A0502C090928A0583E03EC06A303C
:10151000710511F00C940D131A3511F40C940D1380
:1015200084E033C01D3519F49092880502C01092F2
:10153000880585E025C0143119F49092890502C010
:101540001092890586E01CC08E8D81110C940313C6
:10155000113331F410928C0588E093E09E8F15C012
:101560006A30710511F00C940D1390928C0588E08F
:10157000A3E0AE8F0AC087E003C080E001C081E035
:10158000672B19F087E10C942013F30102C0EE0FD2
:10159000FF1F8A95E2F7CF019F012A213B21232BD0
:1015A00009F443C085E10C942013672B59F71630DA
:1015B00018F4133058F017C0183010F40C940D13B1
:1015C0001A3000F11E3159F00C940D13123039F01D
:1015D0001E3129F0111120C090928E051DC082E0AD
:1015E00080938E0519C0143029F0153039F090928F
:1015F000900506C082E08093900502C0109290058D
:101600008BE00BC0193021F082E080938F0502C07F
:1016100010928F058CE001C08AE0930102C0220F76
:10162000331F8A95E2F7C901B8CFA82AB92A33CE69
:10163000802F992787FD9095A92FB92FFC01E6549B
:10164000F109E531F10508F0E8C7EC5CFF4F0C94B7
:10165000E737C0929105D0929205E0929305F092FF
:10166000940580E07FC0C0929505D0929605E092E7
:101670009705F092980539A1316039A381E072C0D5
:10168000C0929905D0929A05E0929B05F0929C0534
:1016900089A1826089A382E065C0C0929D05D09235
:1016A0009E05E0929F05F092A00599A1946099A3F0
:1016B00083E058C01093A10584E054C0C701B6016F
:1016C0000E94FD346093A2057093A3058093A40546
:1016D0009093A50585E046C0C092A605D092A705C7
:1016E000E092A805F092A90586E03CC0C092AA0548
:1016F000D092AB05E092AC05F092AD0587E032C028
:10170000C092AE05D092AF05E092B005F092B1055F
:1017100088E028C0C092B305D092B405E092B50528
:10172000F092B605A52DA1605A2E8AE01BC0C0928A
:10173000B705D092B805E092B905F092BA05B52D7B
:10174000B2605B2E8BE00EC0C092BB05D092BC0590
:10175000E092BD05F092BE05E52DE4605E2E8CE0C2
:1017600001C089E08301082E02C0000F111F0A94F6
:10177000E2F7980122213321232B09F046C721E605
:1017800033E002C0359527958A95E2F720FF09C01E
:1017900020E030E0A901C701B6010E948E3487FD28
:1017A00036C7202A312A77CD552029F03E8D3111B8
:1017B00002C082E08E8F25FE0EC08091A20590911E
:1017C000A305A091A405B091A50580389649A84924
:1017D000B1050CF01EC780918805813031F4FE8D73
:1017E000F230A1F520FE1FC731C08091480581115C
:1017F0002DC020FE1BC080918905813039F523E37F
:1018000033E34BEC51E46091910570919205809126
:101810009305909194050E94CC3660939105709346
:101820009205809393059093940510C0809155057F
:1018300090915605A0915705B09158058093910558
:1018400090939205A0939305B093940530FC10C03B
:101850008091510590915205A0915305B091540586
:101860008093AE059093AF05A093B005B093B105FA
:1018700080918605813031F426FC02C08CE1E0C6FF
:10188000E89426F880918B05882341F0813061F03F
:1018900019A682E088A791E09FA30BC022E029A7A8
:1018A00031E038A71FA205C0A1E0A9A718A6B2E0A1
:1018B000BFA380918905813021F0EE8DE33091F551
:1018C0002AC0B3EBEB2EB5E0FB2E00E010E0C52CF8
:1018D000D12CC601002E02C0959587950A94E2F797
:1018E00080FF10C023E333E34BEC51E4D7016D914B
:1018F0007D918D919C910E94CC36F701608371831C
:10190000828393830F5F1F4FF4E0EF0EF11C0330CF
:101910001105F9F6D2CF80918C05813019F424E0BD
:10192000521279C68CE0EAE6F5E0DE011D960190E0
:101930000D928A95E1F7B1FC09C0309186053F8F81
:101940003230B9F0383009F4B0C015C180918D053E
:10195000873010F08DE174C690914D05981769F3AA
:10196000BE01635F7F4F0E94D321882309F465C6BF
:10197000E4CF511002C08AE163C6C1018075992786
:10198000892B09F47BCF6091A6057091A705809102
:10199000A8059091A9050E949A370E9402356730E8
:1019A000C8F68091A105843129F0823009F035C64E
:1019B00027FC33C68FEA2822662319F061506F8F07
:1019C00003C090918D059F8FBE016F5F7F4F8F8DFC
:1019D0000E94D321882309F430C64090A10560906D
:1019E0008205709083058090840590908505DE01C6
:1019F00011967D01F3EBCF2EF5E0DF2EAEE5AA2E9A
:101A0000A5E0BA2E00E010E0E52DF0E0FEA3EDA386
:101A10008DA19EA1002E02C0959587950A94E2F7AC
:101A200080FF33C0F4E14F1226C0D50158962D91A6
:101A30003D914D915C915B976D917D918D919C91C4
:101A40000E94B433F60120813181428153810E948A
:101A5000B433D7016D937D938D939C93139702308C
:101A6000A1F4A40193010E94B433F7016083718350
:101A7000828393830AC0F60180819181A281B38120
:101A8000F70180839183A283B3830F5F1F4FF4E03C
:101A9000EF0EF11C24E0C20ED11C34E0A30EB11CE9
:101AA0000330110509F0B4CF0FC1552009F463CFFD
:101AB00060908205709083058090840590908505E4
:101AC00003EB15E0EEE5CE2EE5E0DE2E5E018DE0C7
:101AD000A80EB11CE12CF12CA52DB0E0B8A3AF8F5E
:101AE0008F8D98A10E2C02C0959587950A94E2F7E8
:101AF00080FF26C0F5012081318142815381D601CA
:101B00006D917D918D919C910E94B433F80120815B
:101B10003181428153810E94B433D8016D937D930A
:101B20008D939C931397B2E0EB1214C0A401930120
:101B30000E94B433F80160837183828393830AC067
:101B4000F601808D918DA28DB38DF80180839183F4
:101B5000A283B383FFEFEF1AFF0A0C5F1F4F24E04D
:101B6000C20ED11C34E0A30EB11C83E0E816F104D0
:101B700009F0B6CFA8C09E8D933059F4AF8DA53033
:101B800009F48FC0A73009F499C0A33009F09BC0B5
:101B900080C0552099F340908A05809082059090EE
:101BA0008305A0908405B09085057EE5C72E75E07D
:101BB000D72E03EB15E03E01BDE06B0E711CE12C4E
:101BC000F12CE52DF0E0FEA3EDA38DA19EA10E2C3E
:101BD00002C0959587950A94E2F780FD0BC0F60147
:101BE00080819181A281B381F80180839183A28356
:101BF000B3833EC0FF8DF730D9F1411028C0D60124
:101C000058962D913D914D915C915B97F3016081C8
:101C10007181828193810E94B533D8012D913D91CC
:101C20004D915C910E94B533F8016083718382838A
:101C30009383F2E0EF121CC0A50194010E94B5331A
:101C4000D8016D937D938D939C93139711C0F601EA
:101C50002081318142815381D8016D917D918D9197
:101C60009C910E94B533F8016083718382839383D2
:101C7000FFEFEF1AFF0A24E0C20ED11C0C5F1F4FCA
:101C800034E0630E711C83E0E816F10409F09DCF87
:101C900075CF511001C01E8EBE016F5F7F4F86E071
:101CA00007C0511001C01E8EBE016F5F7F4F87E0DD
:101CB0000E94D321882309F4C0C405C08091870500
:101CC000823008F0ACC41F8E10918705183041F4A3
:101CD000552009F4B3C19E8D913009F0A2C48BC286
:101CE000AE8DA23009F0AAC11123D9F020E030E076
:101CF000A901609191057091920580919305909151
:101D000094050E948E34882309F48DC4143028F47D
:101D1000123058F4113029F06EC2183008F44DC159
:101D20006AC2511068C21E8E8CC1552009F423CEA0
:101D3000FFA1EF2FF0E0FEA3EDA338A5232F30E0A5
:101D40003BA72AA781E090E03C0108A402C0660CF2
:101D5000771C0A94E2F70FA002C0880F991F0A941B
:101D6000E2F7682A792A852D90E086219721892B30
:101D700009F45BC4CF01880F991F880F991FFC01DC
:101D8000EA57FA4FDC01A95BBA4F57962D913D9166
:101D90004D915C915A9765A576A587A590A90E945B
:101DA000B4336B017C018AA59BA5880F991F880F0E
:101DB000991FFC01EA57FA4FDC01A95BBA4F57960D
:101DC0002D913D914D915C915A9765A576A587A57A
:101DD00090A90E94B4334B015C0127FE40C0E894F7
:101DE00027F82091B3053091B4054091B505509185
:101DF000B60560915E0570915F05809160059091D8
:101E000061050E948E34811120C12091B705309167
:101E1000B8054091B9055091BA056091620570917D
:101E2000630580916405909165050E948E3481114F
:101E30000CC12091BB053091BC054091BD0550916E
:101E4000BE05609166057091670580916805909167
:101E500069050E948E348111F8C081E2F1C3F9A1B5
:101E60004F2E512C64207520672809F4E0C321EF20
:101E7000222280918905813009F45AC00AA51BA548
:101E8000000F111F000F111F06571A4FD8011B9684
:101E90002D913D914D915C911E97C501B4010E9419
:101EA000B4332B013C01ADA0BEA0AA0CBB1CAA0CF4
:101EB000BB1CF501E657FA4F5F0123853485458544
:101EC0005685C701B6010E94B433A30192010E9456
:101ED000C9286B017C01D8011B962D913D914D9134
:101EE0005C911E97F50163857485858596850E94B2
:101EF000C9284B015C016093AA057093AB058093E0
:101F0000AC059093AD059B01AC01C701B6010E94E1
:101F1000B4336B017C01E894F7F82AE037ED43EA2B
:101F20005BE3C701B6010E94913618164CF163C1FC
:101F300085E9682E85E0782E00E010E0C201002ED1
:101F400002C0959587950A94E2F780FF10C023E3BD
:101F500033E34BEC51E4D3016D917D918D919C91D4
:101F60000E94CC36F30160837183828393830F5F79
:101F70001F4FF4E06F0E711C03301105F9F67ECF90
:101F800020E030E040E05FE3C701B6010E949136F7
:101F900018160CF462CF2FE632E143E85AE3C5018C
:101FA000B4010E94CC369B01AC01C701B6010E946E
:101FB000913618160CF451CF1EC1552009F4DBCC14
:101FC0002091B3053091B4054091B5055091B60507
:101FD00060915E0570915F0580916005909161054B
:101FE0000E948E34811107C12091B7053091B80548
:101FF0004091B9055091BA056091620570916305F1
:1020000080916405909165050E948E348111F3C022
:102010002091BB053091BC054091BD055091BE0596
:1020200060916605709167058091680590916905DA
:102030000E948E34882309F410CFDDC02E8D21112B
:10204000DAC0C1018E7D9C7FD9C080918905813025
:10205000B1F423E333E34BEC51E46091AA057091B2
:10206000AB058091AC059091AD050E94CC36609394
:10207000AA057093AB058093AC059093AD05409095
:10208000AA055090AB056090AC057090AD0520E0BE
:1020900030E040E850E4C301B2010E94CC36A30115
:1020A00092010E94CC362B013C01A7019601C70189
:1020B000B6010E94CC369B01AC01C301B2010E9463
:1020C000B4332B013C01A5019401C501B4010E9468
:1020D000CC369B01AC01C301B2010E94B4332B0189
:1020E0003C0120E030E0A9010E948E3487FDA7C2A8
:1020F000C301B2010E9459372B013C01A501940193
:10210000C701B6010E94C9289B01AC01C301B201FD
:1021100090580E9495342B013C01809187058330B3
:1021200021F477FA709477F870948091AA059091D1
:10213000AB05A091AC05B091AD0589A39AA3ABA363
:10214000BCA320E030E0A901BC01CD010E948E3487
:1021500087FF11C077FA709477F8709489A19AA1DB
:10216000ABA1BCA1B0588093AA059093AB05A093F6
:10217000AC05B093AD050DA11EA1000F111F000FFE
:10218000111F06571A4FA3019201C501B4010E9405
:10219000CC369B01AC01C701B6010E94B43320E0EC
:1021A00030E040E05FE30E94CC36D8011B966D938F
:1021B0007D938D939C931E970AA51BA5000F111F5D
:1021C000000F111F06571A4FA3019201C701B60154
:1021D0000E94CC369B01AC01C501B4010E94B5330D
:1021E00020E030E040E05FE30E94CC36F8016387F6
:1021F000748785879687C1018E7D907E892B09F033
:1022000018C28091A2059091A305A091A405B09158
:10221000A50580935A0590935B05A0935C05B09348
:102220005D05809188058093480580919105909186
:102230009205A0919305B0919405809355059093D4
:102240005605A0935705B0935805C090AE05D090A1
:10225000AF05E090B005F090B105A701960160913F
:1022600051057091520580915305909154050E943B
:102270008E348823C1F080915005882321F0B70166
:10228000A6010E9495138091AE059091AF05A09193
:10229000B005B091B1058093510590935205A0937C
:1022A0005305B09354058091B205809359058091F0
:1022B000900590915005981771F0409151055091FB
:1022C000520560915305709154050E9495138091B9
:1022D00090058093500580918F0590914F05981738
:1022E00031F00E94C81380918F0580934F05809133
:1022F0008605813051F46091A6057091A705809103
:10230000A8059091A9050E94BB0780918B05809339
:102310004B0580918905809349053E8D3330F9F452
:1023200080918C0580934C05813089F48091BB05A8
:102330009091BC05A091BD05B091BE05809382052A
:1023400090938305A0938405B093850508C01092EF
:102350008205109283051092840510928505809164
:102360008D0590914D05981759F080934D058CE09F
:10237000FE013D96AAE6B5E001900D928A95E1F73F
:1023800080918A0580934A058091860590E0FC0142
:102390003297E830F10508F04BC0E75BFF4F0C9433
:1023A000E737BE016F5F7F4F8F8D0E94A62080911F
:1023B0004D059F8D89133CC08CE0FE013196AAE645
:1023C000B5E01AC0AE8DAA2349F020E040E050E00D
:1023D00060E87FEB83EB95E00E946E0420E040E034
:1023E00050E060E87FEBCE0101960E946E048CE025
:1023F000FE013196AEE5B5E001900D928A95E1F7C8
:1024000017C06EE575E086E003C06EE575E087E015
:102410000E94A6200DC08CE0E3EBF5E0A6E7B5E056
:10242000EBCF8CE0E6E7F5E0DF011D928A95E9F756
:102430008091870580934705883009F498C0BE8D48
:10244000B23009F094C090E08830910508F086C061
:10245000FC01EF5AFF4F0C94E73720E040E050E0DA
:1024600060E87FEB0AC04091550550915605609198
:102470005705709158052091480583EB95E00E941F
:102480006E046CC0C0905505D0905605E09057057D
:10249000F09058050091AA051091AB052091AC056C
:1024A0003091AD0581E08F93E9A5EF93F8A5FF93F7
:1024B00015C0C0905505D0905605E0905705F09096
:1024C00058050091AA051091AB052091AC053091FB
:1024D000AD051F9289A58F9398A59F938FA0A0907B
:1024E000480545E955E063EB75E08EE595E00E940F
:1024F000BC040F900F900F9031C040915505509142
:1025000056056091570570915805E12C0AC040911D
:102510005505509156056091570570915805EE2468
:10252000E39400E015C04091550550915605609127
:10253000570570915805E12C0AC0409155055091FE
:1025400056056091570570915805EE24E39401E01B
:102550002091480583EB95E00E942D088CE0E3EB89
:10256000F5E0AEE5B5E001900D928A95E1F7809136
:102570008E0580934E05882309F45DC00E9467167E
:1025800090914E0580912805913069F48230A1F137
:102590009FB7F89480912A05886080932A059FBF91
:1025A0000E94BA1429C091E09093470510924B0500
:1025B00010924A051092480510924D051092500550
:1025C00010924F058230A9F0BE01635F7F4F80E01B
:1025D0000E94D321882389F18CE0FE013D96AAE672
:1025E000B5E001900D928A95E1F70E9439130E949F
:1025F000BD1387E00E94952D10924E051CC081E00E
:102600001FC082E01DC088E11BC089E119C084E0C1
:1026100017C08BE115C085E213C084E111C08EE1C3
:102620000FC08FE10DC086E10BC080E209C083E2DC
:1026300007C084E205C080E003C087E001C082E2F9
:10264000AB960FB6F894DEBF0FBECDBFDF91CF9132
:102650001F910F91FF90EF90DF90CF90BF90AF90C0
:102660009F908F907F906F905F904F903F902F90B2
:102670000895E0EBF0E080818F7780830895239ABE
:10268000259A0C943913CF92DF92EF92FF926A0150
:102690007B01811106C0FF90EF90DF90CF900C94EA
:1026A0003913813011F42D9801C02D9A83E880935D
:1026B000B0008091B100887F82608093B10020E0FB
:1026C00030E0A901C701B6010E948E3487FD11C018
:1026D00020E030E04AE754E4C701B6010E94913699
:1026E000181654F4C12CD12C8AE7E82E84E4F82E75
:1026F00003C0C12CD12C76012CE53FE842E85EE313
:10270000C701B6010E94CC3620E030E040E05FE334
:102710000E94B5330E946B350E9402356093B3006E
:10272000FF90EF90DF90CF900895CF93DF9300D08C
:1027300000D01F92CDB7DEB7909128059230A9F056
:102740004A835B836C837D8389830E9467164A81F9
:102750005B816C817D8189810F900F900F900F902C
:102760000F90DF91CF910C9443130F900F900F9027
:102770000F900F90DF91CF910895439808953B9A61
:102780000C94BD13823011F4439A08950C94BD1338
:10279000CF93DF931F92CDB7DEB79091280592308B
:1027A00049F089830E94671689810F90DF91CF914C
:1027B0000C94C2130F90DF91CF9108959091020174
:1027C00080910301891708F48058891B0895E0EC73
:1027D000F0E08081826080831092C50080E1809368
:1027E000C400E1ECF0E080818061808380818860BA
:1027F00080838081806880830895E091010191E069
:102800009E0F903409F490E020910001921305C0CE
:1028100020912A0524FFF8CF0895F0E0E154FA4F03
:102820008083909301018091C10080628093C100F8
:1028300008951F920F920FB60F9211248F939F93BA
:10284000EF93FF9380910001E82FF0E0E154FA4FFD
:1028500090819093C6008F5F803409F480E080936C
:10286000000190910101891305C08091C1008F7D05
:102870008093C100FF91EF919F918F910F900FBEB8
:102880000F901F9018959091020180910301891774
:1028900061F0E92FF0E0E150FA4F80819F5F9038BE
:1028A00009F490E09093020108958FEF08951F922C
:1028B0000F920FB60F9211242F933F934F935F9374
:1028C0006F937F938F939F93AF93BF93EF93FF93F8
:1028D0008091C6008F33A9F050F4883109F181321C
:1028E00011F59FB7F89480912A05886015C080344F
:1028F00071F08E37C1F49FB7F89480912A058260F9
:102900000BC09FB7F89480912A05816005C09FB7DE
:10291000F89480912A05806280932A059FBF14C095
:102920000E94CB0811C0E091030191E09E0F903806
:1029300009F490E020910201921731F0F0E0E150AB
:10294000FA4F808390930301FF91EF91BF91AF9174
:102950009F918F917F916F915F914F913F912F91B7
:102960000F900FBE0F901F901895809103018093D8
:1029700002010895EF92FF920F931F93CF93DF937D
:10298000D1E008E080E2F82E10E190E4E92EC09159
:102990002B05CC2389F1D0932805C1FF02C081E02B
:1029A0000FC0C2FF02C082E00BC0C3FF02C083E0C1
:1029B00007C0C4FF02C084E003C0C5FF03C085E0B8
:1029C0000E946B2DC0FD08C08FB7F89490912B0525
:1029D00010922B058FBF10C081E00E94952D9FB7EC
:1029E000F89480912A058F7E80932A059FBF80915D
:1029F0002A0584FFFCCFE8CFC0912A05CC2309F437
:102A0000BCC0C4FF04C081E080932705CEC0C0FFD6
:102A10000AC00E94C5309FB7F89480912A058E7F26
:102A200080932A059FBF8C2F887609F43CC0809143
:102A30002805882349F0982F9C7769F1883021F484
:102A40000E947C19D093290580912805811103C02B
:102A500092E090932905C6FF09C0883011F4E092F6
:102A6000280580912905886080932905C3FF05C04A
:102A70008091280585FF10932805C5FF0CC086E0CE
:102A80000E94952D8091290581FDC460846080930A
:102A90002905F09228059FB7F89480912A05877937
:102AA00080932A059FBFC1FF48C08C2F8876E9F527
:102AB00080912805882331F08075B9F1809129052E
:102AC00081FF33C08091290582FF1CC08091500591
:102AD000882371F040915105509152056091530542
:102AE000709154050E94431380EA9FE00E94BE2823
:102AF00080914F05882331F00E94C21388EE93E045
:102B00000E94BE280E949F24892B59F0809129059C
:102B100083FD07C0009328050E949E190E94781625
:102B200002C010922805109229059FB7F894809151
:102B30002A058D7F80932A059FBFC2FF1EC080910A
:102B40002805807371F08091290582FF04C00E94DE
:102B500039130E94BD138091290582608093290555
:102B600004C010922905109228059FB7F89480910F
:102B70002A058B7F80932A059FBF809128058C773B
:102B800011F00E949E1980912805803251F48091A5
:102B9000290581FF06C00E940E32811102C01093E8
:102BA0002805809129058111F2CEDF91CF911F91E7
:102BB0000F91FF90EF9008959FB7F894EAE2F5E047
:102BC0008081826080839FBF0895CF93DF930E94AE
:102BD000C12D80912805813021F482E00E94952D3D
:102BE0002FC00E940E32882341F080912A05806216
:102BF00080932A050E94BA1402C01092280584E02E
:102C000091E00E9410321CC08D3079F0DD2399F1E3
:102C1000893221F4D13009F04CC0D0E00E94431435
:102C20008F3F09F448C08A3079F7EC2FF0E0EC5F71
:102C3000FE4F10820E94BA1480912705882311F05C
:102C4000C0E0EBCF80910401811103C00E941D2DD3
:102C5000F7CF843229F484E091E00E942F32F6CF3E
:102C600080912805813011F489E0F0CF84E091E073
:102C70000E940E09EBCF813288F28F3279F28832CE
:102C8000B1F08B33B1F0CF3428F08BE00E941D2DD2
:102C9000C0E0C4CF2C2F30E0CF5F9FE9980FF9013F
:102CA000EC5FFE4F9A3108F480528083B7CFD1E0B9
:102CB000B5CFD2E0B3CF0E94DC150E94BA14809148
:102CC0002705882309F4AACFDF91CF9108950E94A8
:102CD000DC150E94BA1480912705811108C00E945A
:102CE0009F24892BB1F780912805883091F30895AE
:102CF0008091BC0682FF02C0289A01C0289880916A
:102D000028058C70A1F080918401809398018091B6
:102D10008501809397018091AF06880F845081953B
:102D20008093960180916F00826080936F00089578
:102D300080916F008D7F80936F0080918100887FEC
:102D4000816080938100109283018091B2068F3F51
:102D500021F490912B05992349F090912805943006
:102D600029F090E00E94BE2881E001C080E09091AF
:102D7000BC0692FF02C091E08927882311F0289AAF
:102D80000895289808951F920F920FB60F9211245C
:102D90002F933F934F935F936F937F938F939F9363
:102DA000AF93BF93CF93DF93EF93FF938091830112
:102DB0008111EFC19BB180919801807E9F71892B19
:102DC0008BB98BB1837E90919701892B8BB98091C0
:102DD000960186BD82E085BD81E080938301789471
:102DE0008091AA019091AB01892B09F0A4C0809138
:102DF000880190918701981709F492C0E0918801A9
:102E000086E0E89FF0011124E455FE4FF093AB01FA
:102E1000E093AA0183819481909389008093880034
:102E2000808191819093A6018093A501A2818091D8
:102E3000A7018A1771F1A093A70181E1A89FD00192
:102E40001124A053BE4FB093A901A093A8011D96D1
:102E50008D919D910D90BC91A02DB695A7959795BC
:102E600087958093910190939201A0939301B093E1
:102E7000940180938D0190938E01A0938F01B09364
:102E800090018093890190938A01A0938B01B09364
:102E90008C01C091A801D091A901809184019881F1
:102EA000892780939801258189819A81AB81BC8192
:102EB000022E04C0B695A795979587950A94D2F7E8
:102EC0008093990190939A01A0939B01B0939C01E8
:102ED0008D819E81AF81B885022E04C0B695A795DD
:102EE000979587950A94D2F780939D0190939E01C0
:102EF000A0939F01B093A00189859A85AB85BC857D
:102F000004C0B695A795979587952A95D2F7809393
:102F1000A1019093A201A093A301B093A4010BC0BF
:102F20000E9498169FB7F89480912A058460809338
:102F30002A059FBF2EC10E94042D109297018091F7
:102F4000990190919A01A0919B01B0919C014091AF
:102F5000890150918A0160918B0170918C01840FDD
:102F6000951FA61FB71F8093890190938A01A09394
:102F70008B01B0938C01E091A801F091A9014585E6
:102F8000568567857089481759076A077B0768F572
:102F900024E0209397014585568567857089841BB9
:102FA000950BA60BB70B8093890190938A01A09390
:102FB0008B01B0938C01208180912C0590912D057F
:102FC000A0912E05B0912F0525FF04C00197A109FE
:102FD000B10903C00196A11DB11D80932C059093EA
:102FE0002D05A0932E05B0932F0580919D01909102
:102FF0009E01A0919F01B091A00140918D0150913F
:103000008E0160918F0170919001840F951FA61F12
:10301000B71F80938D0190938E01A0938F01B09381
:1030200090014585568567857089481759076A0755
:103030007B0778F5209197012860209397014585BB
:10304000568567857089841B950BA60BB70B8093FB
:103050008D0190938E01A0938F01B09390012081F8
:103060008091300590913105A0913205B0913305E2
:1030700026FF04C00197A109B10903C00196A11D53
:10308000B11D8093300590933105A0933205B09324
:1030900033058091A1019091A201A091A301B0916B
:1030A000A40140919101509192016091930170911E
:1030B0009401840F951FA61FB71F809391019093D1
:1030C0009201A0939301B09394014585568567853D
:1030D0007089481759076A077B0778F5209197018F
:1030E0002061209397014585568567857089841BEB
:1030F000950BA60BB70B8093910190939201A0932F
:103100009301B0939401208180913405909135050D
:10311000A0913605B091370527FF04C00197A1099A
:10312000B10903C00196A11DB11D80933405909390
:103130003505A0933605B093370580912805843076
:1031400039F48091380590919701892380939701F4
:103150008091A5019091A60101979093A60180937B
:10316000A501892B69F41092AB011092AA018091FC
:1031700088018F5F80938801863011F41092880156
:1031800080918501909197018927809397011092F2
:103190008301FF91EF91DF91CF91BF91AF919F910B
:1031A0008F917F916F915F914F913F912F910F90F0
:1031B0000FBE0F901F9018951F920F920FB60F928F
:1031C00011248F939F939BB1809185018C71937E85
:1031D000892B8BB915BC9F918F910F900FBE0F90CB
:1031E0001F901895FF920F931F93CF93DF93109228
:1031F000850110928401C0E0D0E00C2F1C2F20919B
:10320000B00630E08C2F0C2E02C0359527950A941D
:10321000E2F720FF07C0F09085010E9441238F292B
:10322000809385012091B10630E002C03595279545
:103230001A95E2F720FF08C010918401802F0E94A8
:103240004B23812B809384012196C330D105A9F6AD
:10325000DF91CF911F910F91FF9008950E949816D2
:103260008BE2E4E5F1E0DF011D928A95E9F783E264
:10327000E9E8F1E0DF011D928A95E9F710928201F9
:1032800010928101109288011092870181E0809351
:103290008601109283010E94F2188BB1837E909177
:1032A0008501892B8BB98BB18F7190918401892B0A
:1032B0008BB908958AB18C618AB9209A8AB1806EDF
:1032C0008AB9E1E8F0E080818F7E80838081886028
:1032D0008083E0E8F0E080818C7F808380818F7044
:1032E0008083EEE6F0E08081887F808314BC15BC8B
:1032F0008081816080830895CF93DF93C0918101A5
:10330000D09182012097B9F081E0809355016091BE
:103310006B0170916C0180916D0190916E019B0128
:10332000AC010E94CC36698B7A8B8B8B9C8B109274
:10333000820110928101DF91CF9108952F923F92E7
:103340004F925F926F927F928F929F92AF92BF92B5
:10335000CF92DF92EF92FF920F931F93CF93DF9361
:10336000CDB7DEB7E5970FB6F894DEBF0FBECDBF81
:1033700080912805807709F40AC220E030E0A90195
:1033800060916B0170916C0180916D0190916E0163
:103390000E948E348111FBC103C6809181019091FE
:1033A0008201892B09F4FAC180918701F6E0F89F28
:1033B000F0011124E455FE4FFE83ED83809154010A
:1033C000828320918101309182013E872D87D9012E
:1033D0009596BC91BCA7F901F6A1FDA7D9019796D6
:1033E000BC91BEA7F901F0A5FFA720915E01309125
:1033F0005F0140916001509161016CA57DA58B2F0B
:103400009F2F0E94B43368A779A78AA79BA720E0C3
:1034100030E0A9010E948E3487FF04C018A619A6C7
:103420001AA61BA620917701288F30917801398F39
:10343000409179014A8F50917A015B8F80916F01A1
:103440008C8F909170019D8FA0917101AE8FB09182
:103450007201BF8FE0917B01E8A3F0917C01F9A399
:1034600020917D012AA330917E013BA34091670109
:103470004CA3509168015DA3809169018EA3909146
:103480006A019FA3209173013091740140917501ED
:103490005091760128AB39AB4AAB5BAB30916B01F5
:1034A000398340916C01498720906D0130906E0105
:1034B000509166015F878CA58C8B9DA59D8BAEA5D9
:1034C000AE8BBFA5BF8B3EE3C32E33ECD32E3EE2C3
:1034D000E32E39E3F32E188A198A1A8A1B8A2601E9
:1034E0003701EF85E111B4C3AD85BE8591962D916D
:1034F0003D914D915C919497C701B6010E94CC36E5
:103500004B015C0120E030E040E05FE30E94CC36FC
:103510009B01AC0169817985C1010E94B5339B0192
:10352000AC01C701B6010E94CC369B01AC016C898D
:103530007D898E899F890E94B4338B018DAB9CABB2
:10354000288D398D4A8D5B8D0E948E3487FF86C30E
:10355000288D398D4A8D5B8D6CA57DA58EA59FA587
:103560000E94B4339B01AC010E94B5336B017C0116
:103570002C8D3D8D4E8D5F8D69817985C1010E94B5
:10358000B5339B01AC01C701B6010E9495346B01B4
:103590007C0128A139A14AA15BA1688D798D8A8D12
:1035A0009B8D0E948E34882309F455C3B1E0BF87F8
:1035B000FC8DF9832D8D29872E8C3F8C088D198DDC
:1035C0003A8D3DAB4B8D4CABA7019601688979894B
:1035D0008A899B890E94B533688B798B8A8B9B8BF8
:1035E000A30192010E948E3487FDF2C328A539A55C
:1035F0004AA55BA5B8018DA99CA90E949136181611
:103600000CF4DCC389819985D10180936B0190937F
:103610006C01A0936D01B0936E01FF85F09366017C
:1036200040905A0150905B0160905C0170905D0188
:1036300098014DA95CA9C301B2010E94CC366983EF
:103640007A838B839C830E947B346B017C01609125
:1036500056017091570180915801909159010E9433
:103660007B344B015C01A70196010E94B4330E9498
:10367000023569877A878B879C87E985FA85AD81D2
:10368000BE81ED93FC93309709F4CDC32091620184
:103690003091630140916401509165016889798995
:1036A0008A899B890E94B5332B013C0129813A818B
:1036B0004B815C81C501B4010E94B4339B01AC0114
:1036C000C301B2010E9495344B015C0129813A810A
:1036D0004B815C81C701B6010E94B433A5019401FE
:1036E0000E94CC3660936201709363018093640101
:1036F0009093650120EC31EE44E65EE4C501B4012F
:103700000E94CC360E947B340E940235603DB7E0B7
:103710007B078105910508F0ACC3ED81FE81158220
:10372000AD81BE8114967C936E9313978091860130
:10373000809387018F5F863009F4D4C3809386011C
:1037400020916701309168014091690150916A01AF
:10375000B8018DA99CA90E94913618160CF0C5C31A
:10376000E0918101F0918201C801ADA9BCA985A3B6
:1037700096A3A7A3B0A789819A81AB81BC818093CE
:10378000560190935701A0935801B093590190911D
:10379000880180918601981300CE02C40E949F2464
:1037A0001C019093820180938101009709F4F8C372
:1037B0008091550110912805882319F01092550128
:1037C000BEC0809154018F5F853019F08093540101
:1037D00002C010925401E091540121E12E9FF001AA
:1037E0001124E053FE4FF0938001E0937F01D1015B
:1037F0008C91808311964D915D916D917C91149780
:1038000003E0440F551F661F771F0A95D1F74183C8
:1038100052836383748315964D915D916D917C9174
:10382000189783E0440F551F661F771F8A95D1F7BD
:10383000458356836783708719964D915D916D918D
:103840007C911C9793E0440F551F661F771F9A9534
:10385000D1F741875287638774871D966D917D915B
:103860008D919C9150976B017C0123E0CC0CDD1C69
:10387000EE1CFF1C2A95D1F7C586D686E786F08A0E
:103880000E942E3560935601709357018093580122
:1038900090935901F10125A136A147A150A50E949D
:1038A00095349B01AC0160935A0170935B01809346
:1038B0005C0190935D0160E070E080EA9FE30E940C
:1038C000953460935E0170935F01809360019093E3
:1038D00061011092620110926301109264011092D2
:1038E0006501812F8077E1F060917301709174011F
:1038F000809175019091760160936B0170936C01DA
:1039000080936D0190936E019B01AC010E94CC36B7
:10391000D10151966D937D938D939C9354970FC0D5
:10392000F10161897289838994890E945937609372
:103930006B0170936C0180936D0190936E011092F6
:103940006701109268011092690110926A01D10119
:1039500091968D909D90AD90BC909497A501940107
:1039600060E070E080E09FE30E9495342B013C0111
:103970001077F101C5A0D6A0E7A0F0A4112309F4A7
:103980004DC0F2E0F0936601D10151962D913D9129
:103990004D915C9154972D833E834F8358870E94AD
:1039A000CC369B01AC01C701B6010E94B4332B0198
:1039B0003C0120E030E0A9010E948E3487FF1DC049
:1039C000A5019401C501B4010E94B533A701960178
:1039D0000E94CC369B01AC016D817E818F819885E0
:1039E0000E94B4330E94593760937301709374013D
:1039F0008093750190937601D7CC409267015092E5
:103A000068016092690170926A01109273011092CC
:103A100074011092750110927601C6CC1092660165
:103A2000C0927701D0927801E0927901F0927A0108
:103A30000E94AF244B015C01609373017093740189
:103A400080937501909376019B01AC010E94CC3666
:103A500069837A838B839C83009181011091820119
:103A6000D80195962D913D914D915C91989729871C
:103A70003A874B875C8751962D913D914D915C9192
:103A800054972D833E834F8358879B01AC016D81F2
:103A90007E818F8198850E94B4339B01AC01C30164
:103AA000B2010E94CC369B01AC0169857A858B8579
:103AB0009C850E94B53320E030E040E05FE30E9447
:103AC000CC366B017C0120E030E0A9010E949136E8
:103AD00018160CF0ACC029853A854B855C85C7016A
:103AE000B6010E948E3487FF8EC0F801858C968CBB
:103AF000A78CB0A029813A814B815C81C501B401BA
:103B00000E94B4339B01AC01C301B2010E94CC36C8
:103B100060937B0170937C0180937D0190937E0183
:103B2000A70196010E948E3487FF3DC0C501B401F4
:103B30000E94593760936F017093700180937101F7
:103B400090937201A50194016D817E818F8198858A
:103B50000E948E34811104C0F1E0F093660124CC00
:103B60002D813E814F815885C501B4010E94B43337
:103B70009B01AC01C301B2010E94CC369B01AC0198
:103B800060917701709178018091790190917A012B
:103B90000E94B43360937701709378018093790128
:103BA00090937A0101CCC0927701D0927801E09293
:103BB0007901F0927A01C0927B01D0927C01E0926F
:103BC0007D01F0927E01D80191966D917D918D914C
:103BD0009C9194979B01AC010E94B533A70196017B
:103BE0000E94CC3629813A814B815C810E94B53399
:103BF0000E94593760936F01709370018093710137
:103C000090937201D1CBB2E0B093660180916B01C9
:103C100090916C01A0916D01B0916E0180936F0144
:103C200090937001A0937101B0937201BDCB10927B
:103C30007701109278011092790110927A018092A6
:103C40006F0190927001A0927101B0927201ACCBA1
:103C5000E13061F041C0E2E0EF87AACCA501940118
:103C600069817985C1010E94B5337CC0A7019601A5
:103C70006C8D7D8D8E8D9F8D0E94CC369B01AC010D
:103C80006C897D898E899F890E94B4338B018DABAD
:103C90009CAB28A139A14AA15BA10E948E3487FF69
:103CA00093CC28A139A14AA15BA16C897D898E8919
:103CB0009F890E94B4332C8D3D8D4E8D5F8D0E9467
:103CC00095346B017C0108A119A15AA15DAB8BA1B0
:103CD0008CAB92E09F8778CCAD85BE8591962D9177
:103CE0003D914D915C919497C701B6010E94CC36ED
:103CF0004B015C019B01AC0169817985C1010E9486
:103D0000913618169CF520E030E040E05FE3C501F5
:103D1000B4010E94CC369B01AC0169817985C10157
:103D20000E94B4339B01AC01C701B6010E94CC369E
:103D30009B01AC016C897D898E899F890E94B43377
:103D40008B018DAB9CAB2CA13DA14EA15FA10E942C
:103D5000913618165CF4A501940169817985C10139
:103D60000E94B433698379871C012ECC2CA13DA11C
:103D70004EA15FA16C897D898E899F890E94B43391
:103D80009B01AC010E94B5336B017C0128A939A9C4
:103D90004AA95BA969817985C1010E94B5339B015C
:103DA000AC01C701B6010E9495346B017C010CA1E6
:103DB0001DA1BEA1BDABEFA1ECAB06CC2EE333EC55
:103DC0004EE259E3C301B2010E94B5332B013C011D
:103DD000288939894A895B89C301B2010E94B433B9
:103DE0006B017C012CA13DA14EA15FA1B8018DA961
:103DF0009CA90E94913618167CF089819985D10181
:103E000080936B0190936C01A0936D01B0936E0150
:103E10003F853093660104CC0C8B1D8B4DA94E8BD6
:103E20005CA95F8B5ECB80912805807709F42ECC4E
:103E300010926B0110926C0110926D0110926E0144
:103E40001092620110926301109264011092650158
:103E5000C0925601D0925701E0925801F092590158
:103E6000A3019201C701B6010E949534AD85BE85BC
:103E700070C0603AFFE07F078105910510F4E1E032
:103E800009C06034FFE17F078105910510F4E2E08D
:103E900001C0E3E0AD81BE811596EC93AD81BE819A
:103EA00015962C911597022E04C0969587957795B7
:103EB00067950A94D2F7E985FA8502C0EE0FFF1FD5
:103EC0002A95E2F7ED93FC9361157105F1E08F07F8
:103ED000910508F425CC2FEF3FEFED81FE8134836F
:103EE000238324CC109286012BCC20E030E0A90162
:103EF000B8018DA99CA90E94913618160CF049C0F2
:103F000010926B0110926C0110926D0110926E0173
:103F10001092620110926301109264011092650187
:103F2000C0925601D0925701E0925801F092590187
:103F3000009181011091820120915A0130915B0121
:103F400040915C0150915D01C701B6010E9495341A
:103F5000D80195966D937D938D939C939897E59654
:103F60000FB6F894DEBF0FBECDBFDF91CF911F918A
:103F70000F91FF90EF90DF90CF90BF90AF909F9008
:103F80008F907F906F905F904F903F902F900C9408
:103F9000042810928201109281010E948B24F7CB99
:103FA000E5960FB6F894DEBF0FBECDBFDF91CF917F
:103FB0001F910F91FF90EF90DF90CF90BF90AF9047
:103FC0009F908F907F906F905F904F903F902F9039
:103FD0000895F999FECF92BD81BD81E08FBB80B578
:103FE0000895F894F999FECF92BD81BD81E08FBB11
:103FF00040B54627842F992787FD9095262F30E0DE
:1040000082239323892B39F06F3F19F060BD84E040
:1040100006C084E104C0442321F060BD84E28FBB6C
:10402000F99A789408959F92AF92BF92CF92DF92BF
:10403000EF92FF920F931F93CF93DF938C017A013E
:104040006B01C40ED51EEB01912C5C01A61AB70AB8
:10405000CE018A0D9B1DCC15DD0591F0911009C094
:10406000692D772767FD7095272F221F2227221F92
:1040700001C021E06991922E960E0E94F11FE8CFB7
:10408000692DC8018E0D9F1DDF91CF911F910F915A
:10409000FF90EF90DF90CF90BF90AF909F900C94E7
:1040A000F11F9F92AF92BF92CF92DF92EF92FF9259
:1040B0000F931F93CF93DF938B017A016C01C40E92
:1040C000D51EEC01912C5B01A81AB90AC5018C0F11
:1040D0009D1FCC15DD0591F00E94E91F911009C0CC
:1040E000292D332727FD3095232F221F2227221F1A
:1040F00001C021E0922E980E8993E8CFC8018E0D61
:104100009F1D0E94E91F21E030E0981611F020E089
:1041100030E0C901DF91CF911F910F91FF90EF9097
:10412000DF90CF90BF90AF909F90089521E5829F40
:10413000C001112440E550E09D5F0C94132040E540
:1041400050E0BC018EEA93E00C9413202DE0829F96
:10415000C00111244CE050E09E5F0C94132069E0F4
:1041600080E090E00E94F11F4DE450E06FE776E0C0
:1041700081E090E00C9413208AE08093AF068FEFEB
:104180008093B2061092B00685E08093B10683E07A
:104190008093B3068DEC9CECACE4BDE38093B40655
:1041A0009093B506A093B606B093B7068FE692E15A
:1041B000A3E0BBE38093B8069093B906A093BA0638
:1041C000B093BB061092BD0680E090E0A8ECB1E48D
:1041D0008093BE069093BF06A093C006B093C1061D
:1041E00080E090E0AAE7B3E48093C2069093C30610
:1041F000A093C406B093C5068AEF90E09093C706DB
:104200008093C60680E090E0A0E8BFE38093C806F4
:104210009093C906A093CA06B093CB061092BC0631
:1042200080E090E0A0E2B2E480937F069093800665
:10423000A0938106B09382068093830690938406B0
:10424000A0938506B093860680E090E0A0EAB3E4F0
:104250008093870690938806A0938906B0938A0678
:1042600080E090E4ACE9B5E480938B0690938C06F3
:10427000A0938D06B0938E0680938F069093900640
:10428000A0939106B093920680E090E0AAEFB3E489
:104290008093930690939406A0939506B093960608
:1042A00080E09AEBABE5B9E480939706909398068B
:1042B000A0939906B0939A0680939B0690939C06D0
:1042C000A0939D06B0939E0680E098ECAFE2B8E420
:1042D00080939F069093A006A093A106B093A20698
:1042E00080E090E0A1E9B3EC8093A3069093A4064C
:1042F000A093A506B093A6068093A7069093A80660
:10430000A093A906B093AA0680E090E0A8ECB2ECD6
:104310008093AB069093AC06A093AD06B093AE0627
:104320000C94AF2060E080E093E00E94F11F60E019
:1043300081E593E00C94F11F60E08EEA93E00C9429
:10434000F11F1F93CF93DF93182FEB0181E5189F87
:10435000B00111247D5F40E550E0CE010E94512064
:10436000892B39F41882BE01812F0E94962080E0AB
:1043700001C081E0DF91CF911F910895CF93DF932A
:10438000EC0140E550E06EEA73E00E945120892B79
:1043900031F41882CE010E949F2080E001C081E0AC
:1043A000DF91CF9108951F93CF93DF93182FEB01E7
:1043B0008DE0189FB00111247E5F4CE050E0CE01EB
:1043C0000E945120892B59F48CE0FE0111928A95AC
:1043D000E9F7BE01812F0E94A62080E001C081E0A4
:1043E000DF91CF911F91089580E090E00E94E91F36
:1043F000893059F44DE450E061E070E08FE796E0D9
:104400000E94512021E0892B09F420E0822F089599
:10441000CF92DF92EF92FF92CF93DF93C82F6A0182
:104420007B0120E030E0A901C701B6010E948E3473
:1044300087FDE6C0C43608F445C02CE92C0F80E0A7
:104440002330B8F530E0823079F0F901EE0FFF1F2C
:10445000EE0FFF1F833011F1813019F0E158F94F51
:1044600023C0E557F94F20C0E901CC0FDD1FCC0F69
:10447000DD1FC956D94F20E030E040E752E4C701C4
:10448000B6010E94CC3620E030E040E752E40E94C2
:10449000CC36688379838A839B83AEC0ED55F94F10
:1044A000F7FAF094F7F8F094C082D182E282F382B6
:1044B000A3C08F5F2A3008F4A5C0843009F4A2C0DD
:1044C0002A50BECFC701B6010E949A370E9402351A
:1044D0008C2F90E08C31910508F094C0FC01E75AD4
:1044E000FF4F0C94E737633008F48EC06093AF063B
:1044F00083C06093B20680C06093B00602C0609330
:10450000B1060E94F21878C08091BC06662311F0B3
:10451000846007C08B7F05C08091BC06662321F0B4
:1045200080648093BC0668C08F7BFBCF8091BC0603
:10453000662311F08068F5CF8F77F3CF6093B306D1
:104540005BC0C092B406D092B506E092B606F09277
:10455000B70652C0C092B806D092B906E092BA0629
:10456000F092BB0649C08091BC06662311F08160C1
:10457000D8CF8E7FD6CF8091BC06662321F084FFF2
:1045800045C08062CECF8F7DCCCF8091BC066623A4
:1045900011F0886001C0877F8093BC060E94FA28D2
:1045A0002BC08091BC06662311F08061BACF8F7C4E
:1045B000B8CF6093BD0620C0C092BE06D092BF06A1
:1045C000E092C006F092C10617C0C092C206D09217
:1045D000C306E092C406F092C5060EC070E0709368
:1045E000C7066093C60608C0C092C806D092C90626
:1045F000E092CA06F092CB060E94AF2080E007C08E
:1046000084E005C083E003C086E001C08AE0DF915A
:10461000CF91FF90EF90DF90CF9008951F93CF93AD
:10462000DF93CDB7DEB72C970FB6F894DEBF0FBE81
:10463000CDBF0E94F42181110BC087E00E941D2D87
:104640000E94BC200E9492210E949C210E94C92DA0
:1046500010E0BE016F5F7F4F812F0E94D321811137
:1046600003C087E00E941D2D1F5F183091F72C9624
:104670000FB6F894DEBF0FBECDBFDF91CF911F9173
:104680000895882321F0813021F488E0089584E0A2
:10469000089580E10895882321F0813021F480E499
:1046A000089580E2089580E80895882321F08130FC
:1046B00021F484E0089582E0089580E108954F9206
:1046C0005F926F927F928F929F92AF92BF92CF92A2
:1046D000DF92EF92FF920F931F93CF93DF9310918E
:1046E0004302111101C012E1115000914102101753
:1046F00009F4EFC089E2189FE0011124CB5BDD4F84
:104700008D889E88AF88B88C69A17AA18BA19CA165
:104710009B01AC010E94B5332DA13EA14FA158A52C
:104720000E94CC366B017C019B01AC01B401C50138
:104730000E948E3487FF02C064017501A601B70193
:10474000498B5A8B6B8B7C8B111101C012E1772442
:104750007A94710E701619F029E2622E27C08091AA
:104760004402081351C00E947C194EC0679C80010E
:1047700011240B5B1D4F711002C092E1792E7A94C7
:1047800080914402781202C00E947C19F801C58809
:10479000D688E788F08CA7019601618972898389A0
:1047A00094890E948E34811106C0E80180914102F3
:1047B0007812DCCF29C0F80161A172A183A194A174
:1047C0009B01AC010E94B533F80125A136A147A198
:1047D00050A50E94CC3629893A894B895C890E9470
:1047E000B5334B015C01A70196010E948E34F8019C
:1047F00087FF05C0818A928AA38AB48AD6CFC18AEC
:10480000D28AE38AF48AD1CF60904102F9E26F9EA6
:10481000800111240B5B1D4F77247394760C82E189
:10482000781201C0712C5090430289E2482E751411
:1048300009F44DC0479CE0011124CB5BDD4FF8012A
:1048400081889288A388B488C988DA88EB88FC8834
:10485000A7019601C501B4010E948E3487FF23C0D1
:10486000F80161A172A183A194A19B01AC010E94F6
:10487000B533F80125A136A147A150A50E94CC3639
:104880009B01AC01C501B4010E94B5334B015C0131
:10489000A70196010E948E3487FF05C0898A9A8AF3
:1048A000AB8ABC8A672C2D893E894F89588D6989CE
:1048B0007A898B899C890E948E34811101C0672C72
:1048C0007394F2E17F1201C0712C8E01B0CF60921F
:1048D0004102DF91CF911F910F91FF90EF90DF90F8
:1048E000CF90BF90AF909F908F907F906F905F9090
:1048F0004F9008958CE1E5E2F2E0DF011D928A9588
:10490000E9F7109244021092430281E08093420240
:1049100010924102089590914402809143028917B8
:1049200069F081E0890F823109F480E02091410231
:10493000921302C0809341028093440208958091B3
:10494000440290914302981739F029E2829FC001F6
:1049500011248B5B9D4F089580E090E00895E091D5
:104960004402EF5FE23109F4E0E080914302E8178E
:1049700061F089E2E89FF0011124EB5BFD4F618952
:104980007289838994890C94593760E070E0CB0177
:10499000089581E02091440290914202291380E021
:1049A00008952F923F924F925F926F927F928F92D3
:1049B0009F92AF92BF92CF92DF92EF92FF920F93AE
:1049C0001F93CF93DF93CDB7DEB7AD970FB6F894B3
:1049D000DEBF0FBECDBF142F052F6B8F7C8F822EB5
:1049E0002091430239E2239F10011124F101EB5B76
:1049F000FD4F1F01158616861786108A15A216A26E
:104A000017A210A6108249E956E766E97EE741A39E
:104A100052A363A374A35C014FE7E42E46E0F42E97
:104A20009E01235F3F4F38A32F8F85E292E09E8F38
:104A30008D8F6F01FE013196FAA3E9A3912CF50148
:104A400061917191819191915F01F7012081318193
:104A5000428153810E94CC360E949C36EF8DF8A192
:104A60006193719381939193F8A3EF8FED8DFE8DF8
:104A70004190519061907190FE8FED8F641975098E
:104A8000860997092B013C0197FF07C04424552450
:104A90003201461A570A680A790AF601418252829F
:104AA00063827482F10125853685478550894216D7
:104AB00053066406750610F429013A01F101458692
:104AC00056866786708A0E943035F70120813181D1
:104AD000428153810E9495342B013C01E9A1FAA146
:104AE0006193719381939193FAA3E9A320E030E05D
:104AF000A9010E948E3487FF0AC0F1019081892D9F
:104B00009DA70E944B239DA5892BF1018083A301C2
:104B10009201C301B2010E94CC36F10125A136A158
:104B200047A150A50E94B533F10165A376A387A3E1
:104B300090A79394F4E0EF0EF11C24E0C20ED11C78
:104B400033E093127CCF0E9459376B017C01F10155
:104B500065A376A387A390A785859685A785B08949
:104B6000892B8A2B8B2B09F4FCC120E030E0A901B2
:104B7000612F702F8B8D9C8D0E948E3487FD21C0FC
:104B8000882061F0A7019601612F702F8B8D9C8D7D
:104B90000E94CC36162F072F8B8F9C8F20E030E0A1
:104BA00040E85FE3612F702F8B8D9C8D0E948E34C7
:104BB00087FF0DC010E000E030E83B8F8FE38C8F63
:104BC00006C019E906E7F6E9FB8F2EE72C8FA7014F
:104BD000960160E070E080E89FE30E94953469A749
:104BE0007AA78BA79CA7E1E3F2E0FAA3E9A32BE85D
:104BF00036E038A32F8FCE010D969A8F898FFE0154
:104C00003196FE8FED8FC12CD12C7601ED8DFE8D6E
:104C100080809180A280B38020E030E0A901C501AE
:104C2000B4010E948E34882309F47FC029A53AA5D7
:104C30004BA55CA5C501B4010E94CC364B015C01BB
:104C4000ED8DFE8D60837183828393839B01AC0124
:104C500060E070E080E89FE30E9495342B013C0106
:104C6000E89477F8EF8DF8A120813181428153815A
:104C7000C301B2010E94CC366BA37CA38DA39EA37B
:104C80009B01AC01612F702F8B8D9C8D0E948E3407
:104C900087FF06C01BA30CA3FB8DFDA32C8D2EA3A9
:104CA000F101F1A1FB8FF101F2A1FC8FF101F3A160
:104CB000FFA3F101F4A1F8A7EF8DF8A124853585B4
:104CC00046855785C301B2010E94CC363B018C0159
:104CD0009B01AC016B8D7C8D8FA198A50E948E34B9
:104CE00087FF04C06B8C7C8C0FA118A5C301D80171
:104CF000F10181A392A3A3A3B4A3E9A1FAA1208106
:104D0000318142815381C501B4010E94CC369B019F
:104D1000AC01C701B6010E94B4336B017C011BA139
:104D20000CA1FDA1FB8F2EA12C8F8D8D9E8D049645
:104D30009E8F8D8FE9A1FAA13496FAA3E9A32F8D56
:104D400038A12C5F3F4F38A32F8FE98DFA8D8E1736
:104D50009F0709F05BCF9091430280914402981322
:104D600006C0F101118A128A138A148A0BC024EA40
:104D700030E74DE75FE3C701B6010E949136181690
:104D800034F4F101118E128E138E148E5BC024EA5E
:104D900030E74DE75FEBC701B6010E949136181668
:104DA00044F034EAC32E30E7D32E3DE7E32E3FEB49
:104DB000F32EA701960160E070E080E89FE30E9477
:104DC000B43320E030E040E05FE30E94CC360E9444
:104DD00059376B017C012091B4063091B5064091A2
:104DE000B6065091B706F10161A172A183A194A109
:104DF0000E94CC36A70196010E94CC364B015C0183
:104E0000A701960160E070E080E89FE30E94B43360
:104E10009B01AC01C501B4010E9495346B017C017A
:104E200020E030E0A9010E948E3487FF04C0C12C2D
:104E3000D12CE12CF12CA601B701F101418F528F49
:104E4000638F748F212F302F4B8D5C8D612F702FCE
:104E50008B8D9C8D0E94CC36162F072FF82EE92EB5
:104E6000862F902FAF2DBE2DF101858F968FA78FA6
:104E7000B0A3A18CB28CC38CD48C60903D02709096
:104E80003E0280903F02909040029301A401612F66
:104E9000702F8F2D9E2D0E948E3487FD0BC09301A5
:104EA000A401B501C6010E948E3487FD11C05301D3
:104EB00064010EC0212F302F4F2D5E2DB501C6018C
:104EC0000E948E3487FD04C0A12EB02ECF2CDE2C84
:104ED000C501D601F101858B968BA78BB08F8CE035
:104EE000FE013196A1E3B2E001900D928A95E1F7BF
:104EF000812F902FAF2DBE2D80933D0290933E02C7
:104F0000A0933F02B09340028CE0FE013D96A5E2E3
:104F1000B2E001900D928A95E1F780914202809370
:104F200043028F5F823109F480E080934202AD96A4
:104F30000FB6F894DEBF0FBECDBFDF91CF911F91AA
:104F40000F91FF90EF90DF90CF90BF90AF909F9028
:104F50008F907F906F905F904F903F902F900C9428
:104F60005F23AD960FB6F894DEBF0FBECDBFDF91C5
:104F7000CF911F910F91FF90EF90DF90CF90BF9056
:104F8000AF909F908F907F906F905F904F903F90E9
:104F90002F90089580912C0590912D05A0912E05BC
:104FA000B0912F058093250290932602A0932702AB
:104FB000B09328028091300590913105A09132057F
:104FC000B09133058093290290932A02A0932B027B
:104FD000B0932C028091340590913505A09136054F
:104FE000B091370580932D0290932E02A0932F024B
:104FF000B093300208958091430290914402891742
:1050000008F48E5E891B08950E947C1980914402E9
:10501000809341020C945F236F927F928F929F92B4
:10502000AF92BF92CF92DF92EF92FF920F931F93B6
:10503000CF93DF937C018B016A01FB018081F70133
:10504000E80FF11D2081EF012D3229F422962181F4
:105050006624639407C02B3211F0219602C0229679
:105060002181612CA12CB12C712C60E070E0CB016E
:10507000FE0130ED932E920E29E02915C8F0B3946D
:1050800028E02B1588F0A1107A94A5E0B0E09B01F0
:10509000AC010E94ED37660F771F881F991F690DBD
:1050A000711D811D911D0BC0A11009C0739407C013
:1050B0002EEF921207C0A11005C0AA24A394219636
:1050C0002081D6CFBB2009F449C00E942E354B0168
:1050D0005C0120E030E0A9010E948E34882361F158
:1050E0008FEF78166CF42AE037ED43E25CE3C501FC
:1050F000B4010E94CC364B015C0173947394F0CFE1
:1051000078120BC02DEC3CEC4CEC5DE3C501B40116
:105110000E94CC364B015C010FC0772069F020E083
:1051200030E040E251E4C501B4010E94CC364B01AD
:105130005C017A9417149CF3662021F0B7FAB094BE
:10514000B7F8B094F60180829182A282B382CE1920
:10515000DF09C150F801C08381E001C080E0DF9128
:10516000CF911F910F91FF90EF90DF90CF90BF9064
:10517000AF909F908F907F906F900895009741F02F
:10518000EFE9FFE03197F1F700C000000197F6CF9B
:1051900008958F929F92AF92BF92CF92DF92EF923B
:1051A000FF9269017A019B01AC010E94CC364B0150
:1051B0005C01A7019601C701B6010E94CC369B0194
:1051C000AC01C501B4010E94B533FF90EF90DF90B0
:1051D000CF90BF90AF909F908F900C945937EBE693
:1051E000F0E08081897E8083E8E6F0E080818E7F38
:1051F0008083089584B1897E84B985B1866185B93B
:105200008091BC0683FF0BC080916B008661809308
:105210006B008091680081608093680008950C9411
:10522000EF28CF92DF92FF920F931F93CF93DF93DC
:105230001F92CDB7DEB793B196718091BC0686FD03
:1052400002C086E198279923D9F0C12CD12CF12CEA
:1052500001E010E08C2D99830E94552399818923C8
:1052600039F098010C2C01C0220F0A94EAF7F22AB7
:105270008FEFC81AD80AE3E0CE16D10459F701C05F
:10528000F12C8F2D0F90DF91CF911F910F91FF90F7
:10529000DF90CF9008951F920F920FB60F921124B6
:1052A0002F933F934F935F936F937F938F939F932E
:1052B000AF93BF93EF93FF9380912805813071F0F6
:1052C00080912B0581110AC00E94CB089FB7F894EA
:1052D00080912B05836080932B059FBFFF91EF91F9
:1052E000BF91AF919F918F917F916F915F914F91FE
:1052F0003F912F910F900FBE0F901F9018952F92F6
:105300003F924F925F926F927F928F929F92AF9255
:10531000BF92CF92DF92EF92FF920F931F93CF93A2
:10532000DF93CDB7DEB767970FB6F894DEBF0FBE39
:10533000CDBF582E809127058111A1C123EAA22E4D
:1053400026E0B22E9E01235F3F4F190100E010E0DE
:10535000C12CD12C7601652C712C802F0E94412309
:10536000D1018D931D01C301002E02C09595879533
:105370000A94E2F780FF1AC020E030E040EC5FEBD7
:10538000F50160817181828193810E94CC36688BA6
:10539000472E4C01262F372FAC01C701B6010E94C2
:1053A000913618161CF0C888D42C74010F5F1F4F5B
:1053B000F4E0AF0EB11C0330110579F68090C206FF
:1053C0009090C306A090C406B090C50624E0288B38
:1053D00001E06CE275E0CE0101960E949A332090C4
:1053E000BD06312CFE0131968CE295E09F8B8E8BB1
:1053F00080E090E0412C10E0B701A60170589301C5
:10540000082E02C0359527950A94E2F720FF28C0A0
:105410004394AE89BF891D921D921D921C921397D1
:105420009101082E02C0359527950A94E2F720FFD6
:1054300003C0002319F007C0002329F0C082D182E5
:10544000E282F38204C040835183628373832DE040
:1054500030E02C0F3D1F280F391FD9012C91122B42
:10546000019634962E893F892C5F3F4F3F8B2E8BC0
:105470008330910521F6642D70E080E090E00E9479
:105480002E350E9459379B01AC01C501B4010E9421
:10549000CC36AB01BC01109338054A8B5B8B6C8B0F
:1054A0007D8B0E94CA2720E04A895B896C897D89AF
:1054B000CE0101960E94D1240E949E190E94781666
:1054C0000023E9F00E941129FE013D9620E030E022
:1054D00090E06191462F412359F0AC01022E02C0A9
:1054E000559547950A94E2F740FF02C06095162350
:1054F0002F5F3F4F2330310561F7109338050E942D
:105500009E1980912A058473C1F080912A058073C9
:1055100029F00E94CB080E94BA14B1C00111AAC0A0
:105520000E9411298521A9F79FB7F89480912A0537
:105530008B7F80932A059FBF04C0812F8C7109F057
:10554000BFCF0E942E190E947A248091C6069091A6
:10555000C7060E94BE2831E00327C9F020E030E0F2
:1055600040EA50E46091C8067091C9068091CA066D
:105570009091CB060E94CC366B017C018090BE06D8
:105580009090BF06A090C006B090C10610C0C09019
:10559000C806D090C906E090CA06F090CB0680906D
:1055A000C2069090C306A090C406B090C506888934
:1055B0008150888B81110DCF8091BD06A82FB0E05E
:1055C000B98BA88BC090C806D090C906E090CA06D7
:1055D000F090CB061601270157FA509457F85094D3
:1055E0008FE7A82E86E0B82E9CE2892E95E0992EB2
:1055F00000E010E0C301002E02C0959587950A9443
:10560000E2F780FF29C088899989002E02C095950C
:1056100087950A94E2F7F50180FF0EC024A135A119
:1056200046A157A1C701B6010E94B533D5012D91FE
:105630003D914D915C9106C0208131814281538121
:10564000C201B1010E94CC360E949C36D4016D93F8
:105650007D938D939C9313970F5F1F4FB4E08B0E38
:10566000911CE4E0AE0EB11C0330110519F60E9446
:10567000CA2705C080912A0582FF56CF4ACF679678
:105680000FB6F894DEBF0FBECDBFDF91CF911F9153
:105690000F91FF90EF90DF90CF90BF90AF909F90D1
:1056A0008F907F906F905F904F903F902F900895D4
:1056B000CF92DF92EF92FF920F931F93CF93DF93DE
:1056C0008C01C3EAD6E0F801C190D190E190F1904D
:1056D0008F0120E030E0A901C701B6010E94913698
:1056E000181654F02991399149915991C701B60181
:1056F0000E948E3487FF2BC0809128058830A1F04E
:105700000E94CB089FB7F89480912B058560809309
:105710002B059FBFDF91CF911F910F91FF90EF90CD
:10572000DF90CF900C94BA149FB7F89480912A051B
:10573000886080932A059FBF0E94BA148091270534
:1057400081110AC0809128058111F6CFD9CFF6E0EA
:10575000CF3ADF0709F0B7CFDF91CF911F910F91BB
:10576000FF90EF90DF90CF900895CF93DF93EC01FF
:105770008991882319F00E94FD13FACFDF91CF9110
:105780000895CF93DF93FC018491EF012196882344
:1057900021F00E94FD13FE01F7CFDF91CF91089514
:1057A000EF92FF920F931F93CF93DF931F92CDB78A
:1057B000DEB7262FEDB6FEB66DB77EB7641B710956
:1057C0000FB6F8947EBF0FBE6DBF0DB71EB70F5F4B
:1057D0001F4F302FF8019E2F931B941728F4622F30
:1057E0000E94B9379193F7CF442361F0F801E40F99
:1057F000F11D31978081805D49830E94FD134981AD
:105800004150F2CF0FB6F894FEBE0FBEEDBE0F9022
:10581000DF91CF911F910F91FF90EF90089548E095
:1058200062E00C94D02B8A3020F0843620F442E0E1
:1058300003C041E001C043E06AE00C94D02B8F929A
:105840009F92AF92BF92CF92DF92EF92FF920F930F
:105850001F93CF93DF93CDB7DEB72A970FB6F89497
:10586000DEBF0FBECDBF6B017C01142F20E030E006
:10587000A9010E948E3487FF07C08DE20E94FD13AC
:10588000F7FAF094F7F8F094012F023060F020E07E
:1058900030E048EC52E4C701B6010E94CC366B01FF
:1058A0007C010250F2CF10FF0AC020E030E040E25D
:1058B00051E4C701B6010E94CC366B017C0120E0A7
:1058C00030E040E05FE3C701B6010E94B5330E94BB
:1058D000FD34E1E0F0E0EC0FFD1FE10FF11D2EE2E1
:1058E0002083D12C5AE0852E912CA12CB12C61154E
:1058F000710581059105A9F0D11201C0D394EE2460
:10590000E394F12CEC0EFD1EED0CF11CA5019401AD
:105910000E94C537605DF7016083B901CA01D39465
:10592000E6CF80E3D11648F4E1E0F0E0EC0FFD1F94
:10593000ED0DF11D8083D394F5CF8D2DD1120BC0C9
:10594000D394D3948F5FE1E0F0E0EC0FFD1FE80FFC
:10595000F11D80E38083DD2041F0FE01ED0DF11D9E
:1059600080810E94FD13DA94F6CF2A960FB6F89440
:10597000DEBF0FBECDBFDF91CF911F910F91FF9082
:10598000EF90DF90CF90BF90AF909F908F90089551
:105990002091BC0620FF08C02BE832E441E25DE321
:1059A0000E94CC3644E001C043E00C941F2C2091AF
:1059B000BC0620FF08C02BE832E441E25DE30E9410
:1059C000CC3641E001C040E00C941F2C43E00C9425
:1059D0001F2C3D98459A08951092CC069091BC06D4
:1059E00097FD03C090E29093CC06882331F080911C
:1059F000CC0690E289278093CC06089586B1807208
:105A00009091CC0689270895809139058130A1F4C1
:105A10000E94FE2C882381F0109239058CE0ECE284
:105A2000F5E0AAE3B5E001900D928A95E1F7809147
:105A30002A05806480932A050895CF93C82F811189
:105A400003C08DE398E044C085E398E00E94C12B39
:105A50004C2F50E0FA013197E631F10580F5EB5813
:105A6000FF4F0C94E7378DE198E002C08BE098E09F
:105A70000E94C12B2BC089EF97E0FACF8FEE97E001
:105A8000F7CF8EED97E0F4CF8FEC97E0F1CF8EEA71
:105A900097E0EECF85EA97E0EBCF8AE997E0E8CF91
:105AA00087E897E0E5CF89E797E0E2CF83E697E0E4
:105AB000DFCF8FE497E0DCCF8BE397E0D9CF89E2AB
:105AC00097E00E94C12B8C2F0E94132C86E297E056
:105AD000CF910C94C12BCF93C82F8EE197E00E94F9
