:100000000C94BC030C94D9030C94D9030C94FF27D3
:100010000C9482120C94D9030C94D9030C94C3153C
:100020000C94D9030C94D9030C94D9030C94D903E0
:100030000C94D9030C94D9030C94D9030C94D903D0
:100040000C941A150C94D9030C9430120C94E911E9
:100050000C94D9030C94D9030C94D9030C94D903B0
:100060000C94D9030C94D903CD19CD19CD19E419E9
:10007000ED19F619FF19161A2D1A441A591A621A8F
:100080006B1A741A801A891A921A9B1AAD1AC11A1D
:10009000D31AE91AFB1A041B0D1B161B211B084A55
:1000A000D73B3BCE016E84BCBFFDC12F3D6C74318C
:1000B0009ABD56833DDA3D00C77F11BED9E4BB4CE3
:1000C0003E916BAAAABE000000803F05A84CCDB2AD
:1000D000D44EB93836A9020C50B9918688083CA68E
:1000E000AAAA2ABE000000803F3E0D0A002C00573D
:1000F000506F733A002C002C4D506F733A003C4304
:100100006865636B003C416C61726D003C486F6DCB
:1001100065003C486F6C64003C52756E003C517544
:10012000657565003C49646C65000D0A003D00245E
:100130004E005D0D0A00204600205400204D38007E
:10014000204D3900204D3500204D3400204D330026
:10015000204D3200204D3100204D300020473934F1
:10016000002047393300204739310020473930001B
:1001700020473231002047323000204731390020FB
:100180004731380020473137002047005B4738307F
:10019000005B4733005B4732005B4731005B473011
:1001A000005D0D0A002C005B4739323A005D0D0AF4
:1001B000002C0033303A0032383A0035393A0035F5
:1001C000383A0035373A0035363A0035353A003599
:1001D000343A005B47002028686F6D696E672070B5
:1001E000756C6C2D6F66662C206D6D290D0A0020D4
:1001F00028686F6D696E67206465626F756E6365F0
:100200002C206D736563290D0A2432363D002028A9
:10021000686F6D696E67207365656B2C206D6D2F3F
:100220006D696E290D0A2432353D002028686F6DF6
:10023000696E6720666565642C206D6D2F6D696E33
:10024000290D0A2432343D00290D0A2432333D00A1
:100250002028686F6D696E672064697220696E7608
:10026000657274206D61736B2C20696E743A002086
:1002700028686F6D696E67206379636C652C2062F6
:100280006F6F6C290D0A2432323D0020286861729C
:1002900064206C696D6974732C20626F6F6C290D1A
:1002A0000A2432313D002028696E7665727420730D
:1002B00074657020656E61626C652C20626F6F6C76
:1002C000290D0A2432303D0020286175746F207397
:1002D000746172742C20626F6F6C290D0A2431399D
:1002E0003D0020287265706F727420696E636865C6
:1002F000732C20626F6F6C290D0A2431383D002069
:10030000286E2D646563696D616C732C20696E7451
:10031000290D0A2431373D0020286E2D617263209B
:10032000636F7272656374696F6E2C20696E7429D5
:100330000D0A2431363D0020286172632C206D6D3A
:100340002F7365676D656E74290D0A2431353D0084
:1003500020286A756E6374696F6E206465766961C2
:1003600074696F6E2C206D6D290D0A2431343D00A7
:100370002028737465702069646C652064656C6105
:10038000792C206D736563290D0A2431333D0029D2
:100390000D0A2431323D0020287374657020706F7F
:1003A000727420696E76657274206D61736B2C2097
:1003B000696E743A00202864656661756C74206605
:1003C0006565642C206D6D2F6D696E290D0A2431D1
:1003D000313D002028737465702070756C73652C36
:1003E0002075736563290D0A2431303D0020287A79
:1003F00020616363656C2C206D6D2F7365635E32C5
:10040000290D0A24393D0020287920616363656C39
:100410002C206D6D2F7365635E32290D0A24383DE3
:100420000020287820616363656C2C206D6D2F732C
:1004300065635E32290D0A24373D0020287A207634
:100440005F6D61782C206D6D2F6D696E290D0A240A
:10045000363D0020287920765F6D61782C206D6D07
:100460002F6D696E290D0A24353D002028782076ED
:100470005F6D61782C206D6D2F6D696E290D0A24DA
:10048000343D0020287A2C20737465702F6D6D29FF
:100490000D0A24333D002028792C20737465702FB9
:1004A0006D6D290D0A24323D002028782C207374AC
:1004B00065702F6D6D290D0A24313D0024303D00FB
:1004C0002424202876696577204772626C20736542
:1004D0007474696E6773290D0A2423202876696570
:1004E00077202320706172616D6574657273290DC8
:1004F0000A244720287669657720706172736572D7
:10050000207374617465290D0A244E20287669656C
:1005100077207374617274757020626C6F636B7393
:10052000290D0A24783D76616C7565202873617603
:1005300065204772626C2073657474696E67290D5B
:100540000A244E783D6C696E6520287361766520BB
:100550007374617274757020626C6F636B290D0A1D
:1005600024432028636865636B2067636F6465209C
:100570006D6F6465290D0A245820286B696C6C2006
:10058000616C61726D206C6F636B290D0A244820C9
:100590002872756E20686F6D696E67206379636C71
:1005A00065290D0A7E20286379636C652073746168
:1005B0007274290D0A2120286665656420686F6CB5
:1005C00064290D0A3F202863757272656E7420736A
:1005D0007461747573290D0A6374726C2D78202808
:1005E0007265736574204772626C290D0A000D0AEA
:1005F0004772626C20302E3961205B2724272066E9
:100600006F722068656C705D0D0A005D0D0A004414
:10061000697361626C656400456E61626C6564005B
:1006200043617574696F6E3A20556E6C6F636B65CC
:100630006400272448277C2724582720746F2075BE
:100640006E6C6F636B00526573657420746F20630A
:100650006F6E74696E7565005B002E204D506F7370
:100660003F0D0A0041626F727420647572696E6793
:10067000206379636C650048617264206C696D6900
:100680007400414C41524D3A20000D0A00416C610A
:10069000726D206C6F636B0042757379206F7220EE
:1006A00071756575656400454550524F4D20726502
:1006B0006164206661696C2E205573696E672064E1
:1006C000656661756C74730056616C7565203C20BD
:1006D0003320757365630056616C7565203C20306E
:1006E0002E300053657474696E67206469736162AB
:1006F0006C656400496E76616C6964207374617422
:10070000656D656E74004D6F64616C2067726F7506
:10071000702076696F6C6174696F6E00496E7661E6
:100720006C69642072616469757300556E737570CD
:10073000706F727465642073746174656D656E7436
:1007400000457870656374656420636F6D6D616EDC
:1007500064206C657474657200426164206E756D0E
:1007600062657220666F726D6174006572726F727D
:100770003A20006F6B0D0A0011241FBECFEFD8E0A6
:10078000DEBFCDBF11E0A0E0B1E0EEEBF6E602C0C7
:1007900005900D92A030B107D9F716E0A0E0B1E0C6
:1007A00001C01D92AF3EB107E1F70E94DB030C943C
:1007B0005D330C9400000F931F930E94B6110E94AA
:1007C000491C0E949B15789480E1E0EAF5E0DF0186
:1007D0001D928A95E9F781E08093A0058093A10599
:1007E00006E011E08091A005882389F10E942B1278
:1007F0000E940F240E944C110E94D8140E947A116A
:100800000E949E110E9465250E9472150E946D240F
:100810001092A0051092A2058091D006982F81FF1A
:1008200002C01093AF058091A105813021F494FF9F
:1008300002C00093A1058091A105863021F482E0D9
:100840000E94A62904C01092A1050E941F130E94B5
:10085000BE120E9489148091AF05882319F20E946C
:100860003015C0CF8091A20584FD15C08091A205EE
:1008700080618093A2050E9480110E94A311809143
:10088000A1058350833038F48091A2058062809363
:10089000A2050E9480150895EF92FF920F931F9377
:1008A000CF93DF937B018C0120E030E040EA51E4FC
:1008B0000E9442320E943F300E94D62FEB010E94DC
:1008C000E023C801B70120E030E04AE754E40E9489
:1008D00042327B018C0182E390E0C89FB001C99F46
:1008E000700DD89F700D112480E090E00E940230BE
:1008F0009B01AC01C801B7010E94882E0E943F30C5
:100900000E94D62FDC01CB010E94232400E911E0D4
:100910000EC00E94BE128091A005882351F484EF7E
:1009200091E0F8013197F1F70197D9F721972097D6
:1009300081F7DF91CF911F910F91FF90EF90089574
:100940004F925F926F927F928F92AF92BF92CF92AF
:10095000DF92EF92FF920F931F93DF93CF9300D01C
:1009600000D0CDB7DEB72B013C0129833A834B83FE
:100970005C838091A1058730C9F00E94BE128091EE
:10098000A005882399F40E94FD238823B1F7C301B1
:10099000B20129813A814B815C810E94401F809184
:1009A000A105882319F482E08093A1050F900F9090
:1009B0000F900F90CF91DF911F910F91FF90EF90CB
:1009C000DF90CF90BF90AF908F907F906F905F90AF
:1009D0004F9008952F923F924F925F926F927F9225
:1009E0008F929F92AF92BF92CF92DF92EF92FF923F
:1009F0000F931F9385E08093A10580916B00817F09
:100A000080936B000E94A5278091A005882309F0A0
:100A100070C08CE0E3EAF5E0DF011D928A95E9F70A
:100A20000E946D241092A1053091D106232F35FD2F
:100A300002C06FEF01C061E026FD03C0DD24DA943F
:100A400002C0DD24D39437FD03C0CC24CA9402C075
:100A5000CC24C394E090DC06F090DD060091DE0625
:100A60001091DF06772767FD7095872F972F0E94DB
:100A70000430A80197010E9442321B012C016D2D08
:100A8000772767FD7095872F972F0E940430A80164
:100A900097010E9442323B014C016C2D772767FD84
:100AA0007095872F972F0E940430A80197010E940C
:100AB00042327B018C01A090D606B090D706C09040
:100AC000D806D090D906C201B101A40193018824AF
:100AD0000E94A0040E9430150E94E0230E946D2411
:100AE0008091D00683FF05C080916B008E6080935B
:100AF0006B001F910F91FF90EF90DF90CF90BF9010
:100B0000AF909F908F907F906F905F904F903F90AD
:100B10002F9008952F923F924F925F926F927F9203
:100B20008F929F92AF92BF92CF92DF92EF92FF92FD
:100B30000F931F93DF93CF93CDB7DEB7CE54D04042
:100B40000FB6F894DEBF0FBECDBF3C017EAF6DAFD8
:100B500021965FAF4EAF219722962FAF2297239613
:100B60000FAF23972496EFAE24972896ACAEBDAE78
:100B7000CEAEDFAE289729968FAE2997E22EFF24BE
:100B8000EE0CFF1CEE0CFF1C4E0D5F1D5CAF4BAF5F
:100B9000DA012D903D904D905C90FC01EE0DFF1D13
:100BA000C201B10120813181428153810E94892E8D
:100BB00069AB7AAB8BAB9CAB10E0000F111F000F41
:100BC000111F2196EEADFFAD2197E00FF11FFAAF97
:100BD000E9AFA080B180C280D380F301E00FF11FA4
:100BE000C601B50120813181428153810E94892E45
:100BF0006DA77EA78FA798AB24962FAD2497E22FE1
:100C0000F0E0EE0FFF1FEE0FFF1F6E0E7F1ED301F1
:100C10008D919D910D90BC91A02D8DAB9EABAFABF6
:100C2000B8AF2DAD3EADE20FF31F608171818281BF
:100C300093812DA93EA94FA958AD0E94882E69A77E
:100C40007AA78BA79CA7D201C101B0588DA39EA300
:100C5000AFA3B8A7A6019501505829A33AA34BA367
:100C60005CA34DAD5EADE40EF51ED7016D917D9197
:100C70008D919C9129A93AA94BA95CA90E94882E23
:100C80003B014C01EDADFEAD0E0F1F1FD8016D9164
:100C90007D918D919C912DA53EA54FA558A90E94AF
:100CA000882E5B016C016DA17EA18FA198A5A60184
:100CB00095010E9442327B018C0169A17AA18BA12E
:100CC0009CA1A40193010E9442329B01AC01C80186
:100CD000B7010E94882E1B012C016DA17EA18FA15E
:100CE00098A5A40193010E9442327B018C0169A165
:100CF0007AA18BA19CA1A60195010E9442329B0181
:100D0000AC01C801B7010E94892E9B01AC01C20150
:100D1000B1010E94FC2E5B016C01A8968FADA897D3
:100D2000882399F0C601B50120E030E040E050E0B2
:100D30000E9470318823ECF0C601B5012BED3FE035
:100D400049EC50E40E94882E12C0C601B50120E093
:100D500030E040E050E00E94622F181654F0C601C7
:100D6000B5012BED3FE049EC50E40E94892E5B0178
:100D70006C01C601B501A7962CAD3DAD4EAD5FAD82
:100D8000A7970E94423229A53AA54BA55CA50E94CF
:100D90007D317B018C0120E030E040E050E00E949A
:100DA000622F882309F4D5C1C801B7012091BC0680
:100DB0003091BD064091BE065091BF060E94692F3A
:100DC0000E943F300E94D62F78A36F8F2996BFAD27
:100DD0002997BB23A1F080E090E00E9402309B01A4
:100DE000AC0128966CAD7DAD8EAD9FAD28970E946D
:100DF000423228966CAF7DAF8EAF9FAF28972F8D74
:100E000038A1B90180E090E00E9402307B018C01A2
:100E1000C601B501A80197010E94692F6B8F7C8FD5
:100E20008D8F9E8F69A57AA58BA59CA5A80197019A
:100E30000E94692F6F8B788F898F9A8F6B8D7C8D35
:100E40008D8D9E8D20E030E040E05FEB0E944232CD
:100E50002B8D3C8D4D8D5E8D0E94423220E030E026
:100E600040E85FE30E94892E6B8B7C8B8D8B9E8B81
:100E700024963FAD2497E32FF0E0EE0FFF1FEE0F17
:100E8000FF1FCE010196E80FF91F2DA93EA94FA91A
:100E900058AD208331834283538341E050E05E8725
:100EA0004D8766242296BFAD2297AB2FB0E0AA0FE4
:100EB000BB1FAA0FBB1FA80FB91F2B96BFAFAEAFAA
:100EC0002B9723963FAD2397232F30E0220F331F1C
:100ED000220F331F280F391F2D963FAF2EAF2D97AE
:100EE0002F96FFAFEEAF2F970EC1262D332727FD8C
:100EF00030958091E20690E0281739070CF046C043
:100F00006DA17EA18FA198A52B8D3C8D4D8D5E8D01
:100F10000E9442327B018C0169A17AA18BA19CA124
:100F20002B893C894D895E890E9442329B01AC012C
:100F3000C801B7010E94892E7B018C016DA17EA1A1
:100F40008FA198A52B893C894D895E890E944232E8
:100F50005B016C0169A17AA18BA19CA12B8D3C8DB9
:100F60004D8D5E8D0E9442329B01AC01C601B501E0
:100F70000E94882E6DA37EA38FA398A76394C701B8
:100F8000D80189A39AA3ABA3BCA361C04D855E859C
:100F9000BA0180E090E00E9402302B8D3C8D4D8D97
:100FA0005E8D0E9442327B018C01C8010E94662F37
:100FB0006F87788B898B9A8BB701C8010E94C532E5
:100FC0003B014C01ABADBCADED90FD900D911C9182
:100FD00017FB109517F91095E9ADFAAD2080318017
:100FE00042805380C801B7012F85388949895A89C1
:100FF0000E9442325B016C01C201B101A401930164
:101000000E9442329B01AC01C601B5010E94892EAB
:101010006DA37EA38FA398A7C801B701A401930174
:101020000E9442327B018C01C201B1012F853889B7
:1010300049895A890E9442329B01AC01C801B7011B
:101040000E94882E69A37AA38BA39CA3662469A916
:101050007AA98BA99CA92DA13EA14FA158A50E94B8
:10106000892E2B96AEADBFAD2B976D937D938D934F
:101070009C9313976DA57EA58FA598A929A13AA148
:101080004BA15CA10E94892E2D96EEADFFAD2D9750
:1010900060837183828393832F96AEADBFAD2F970C
:1010A0006D917D918D919C912F89388D498D5A8DAF
:1010B0000E94892E2F96EEADFFAD2F97608371832E
:1010C0008283938369817A818B819C812D813E818A
:1010D0004F815885E984FA840B851C852896ACAC31
:1010E000BDACCEACDFAC289729968FAC29970E9477
:1010F000A0048091A005882361F52D853E852F5F92
:101100003F4F3E872D874D855E858F8D98A148176F
:10111000590708F4EACEADADBEAD6D917D918D91CC
:101120009C91139714962D913D914D915C91179739
:101130001896ED90FD900D911C911B972896ACACE4
:10114000BDACCEACDFAC289729968FAC29970E9416
:10115000A004C25BDF4F0FB6F894DEBF0FBECDBF59
:10116000CF91DF911F910F91FF90EF90DF90CF9083
:10117000BF90AF909F908F907F906F905F904F90B7
:101180003F902F900895AF92BF92CF92DF92EF924F
:10119000FF920F931F9359016A010E94043020911E
:1011A000A5063091A6064091A7065091A8060E9478
:1011B000692F6093BC057093BD058093BE05909325
:1011C000BF05C601B5010E9404302091A9063091E7
:1011D000AA064091AB065091AC060E94692F60931D
:1011E000C0057093C1058093C2059093C305C801E3
:1011F000B7010E9404302091AD063091AE064091B7
:10120000AF065091B0060E94692F6093C405709399
:10121000C5058093C6059093C7051F910F91FF9058
:10122000EF90DF90CF90BF90AF9008952F923F92B4
:101230004F925F926F927F928F929F92AF92BF92E6
:10124000CF92DF92EF92FF920F931F93DF93CF9392
:10125000CDB7DEB7EE970FB6F894DEBF0FBECDBFA9
:101260003C018091A105863011F48CE0BFC7198242
:101270008CE0FE013696DF01482F1D924A95E9F772
:10128000FE017296DF011D928A95E9F71092B00572
:101290004424552422241AAE33243A94A3E0AA2EDF
:1012A000F2E0BF2E01E0E1E08E2E912CA5C12E319F
:1012B0003105C9F12F313105D4F42431310584F4DD
:1012C00021313105A4F52430310569F1253031058E
:1012D0001CF437FF2AC025C02A30310511F523C080
:1012E0002631310554F12C313105D9F41CC02C358F
:1012F00031058CF42A353105E4F42C3331053CF406
:1013000026333105E4F42533310559F40CC020357A
:10131000310539F40AC02C35310529F02F35310556
:1013200054F010E00DC011E00BC012E009C013E052
:1013300007C014E005C016E003C017E001C019E0C3
:101340002531310509F494C026313105A4F5243046
:10135000310509F467C025303105A4F42130310589
:1013600009F465C02230310524F4232B09F45CC054
:101370002EC12230310509F45DC02330310509F05A
:1013800026C15BC02231310509F461C0233131052A
:101390004CF42A30310509F443C02131310509F0FC
:1013A00016C14EC02331310509F458C0243131052E
:1013B00009F00DC15AC02035310509F491C021351D
:1013C0003105ACF42533310509F482C026333105EB
:1013D0004CF42C31310509F44EC02E31310509F0A1
:1013E000F6C049C02C3331050CF0F1C074C02C3567
:1013F000310509F47FC02D3531054CF42A3531050E
:1014000009F472C02B35310509F0E1C070C02D35EB
:10141000310509F489C02E35310509F0D8C087C0DF
:10142000B2E04EC0E1E04FC01092B105D2C00093CF
:10143000B105CFC0B092B105CCC0A092B105C9C072
:101440001092C9050093CA05B092CB05C2C0109294
:10145000C905B092CA050093CB05BBC00093C9056E
:10146000B092CA051092CB05B4C00093B305B1C0C9
:101470001092B305AEC0C701B60120E030E040E2F3
:1014800051E40E9442320E941C330E94D12FF1E0AD
:1014900069317F0791F041E06A3174072CF468519B
:1014A000714009F094C00BC081E06C32780751F0B4
:1014B0006D52714009F08BC008C0A4E033C0B3E0A6
:1014C000BAAF87C0E5E0EAAF84C0F6E0FAAF81C00A
:1014D000222423947EC0822F86538093CC0579C02A
:1014E00044E04093B10575C00093B40572C01092FA
:1014F000B4056FC0C701B60120E030E040E251E41E
:101500000E9442320E941C330E94D12F53E068395E
:10151000750739F06959734009F059C098E09AAFDE
:1015200058C0A7E0AAAF55C00093B20552C01092B0
:10153000B2054FC02630310534F42330310554F460
:10154000772334F403C02E31310511F010E003C0CD
:1015500015E001C018E02430310569F1253031056E
:1015600084F421303105A9F1223031051CF4232BFC
:10157000C9F02DC022303105C1F02330310539F5D5
:1015800017C028303105E9F02930310524F4253021
:101590003105E9F413C029303105B1F02E313105A0
:1015A000B1F403C00093B50514C0B092B50511C0E5
:1015B0000093B6050EC03092B6050BC01092B6056A
:1015C00008C00093B70505C01092B70502C0A092ED
:1015D000B005112389F0940102C0220F331F1A9520
:1015E000E2F7C90184219521892B21F0B5E0B09360
:1015F000B00502C0422A532A9981F301E90FF11D77
:1016000010811123B9F0812F81548A3110F082E0CA
:101610000FC09F5F9983C301BE016F5F7F4FAE0113
:101620004E5F5F4F0E94AA24892B09F0F8C581E024
:101630008093B0058091B005882309F0D7C5198241
:1016400099241BAE1CAEE0E8EDAFFFEBFEAF0F2E12
:10165000F0E0AF2EF0E0BF2EF0E0CF2EF0E0DF2E76
:10166000F02DAEAABFAAC8AED9AE882476E0372E38
:1016700010C1EA80FB800C811D81C801B70120E008
:1016800030E040E050E00E94622F181614F03092D3
:10169000B0058091B205882381F08091B30588233D
:1016A00009F4F1C0C801B70123E333E34BEC51E483
:1016B0000E9442327B018C01E6C08091B3058823F1
:1016C00051F0C801B70123E333E34BEC51E40E942E
:1016D00042327B018C01E092B805F092B90500938B
:1016E000BA051093BB05C9C02A813B814C815D813D
:1016F0008091B305882351F0CA01B90123E333E394
:101700004BEC51E40E9442329B01AC01E12FFF27D8
:10171000E7FDF095E954F040EE0FFF1FEE0FFF1FBD
:1017200061E070E06C0F7D1FE60FF71F218B328B9D
:10173000438B548BA2C06A817B818C819D810E94E6
:101740001C330E94D62F862E98C0AA80BB80CC80E6
:10175000DD8093C08A819B81AC81BD818EAB9FABC4
:10176000A8AFB9AF8091B305882309F486C06EA9EC
:101770007FA988AD99AD23E333E34BEC51E40E949C
:1017800042326EAB7FAB88AF99AF77C06A817B8105
:101790008C819D8120E030E040E050E00E94622F8B
:1017A00088230CF06AC03092B00567C0EA80FB80E5
:1017B0000C811D81C801B70120E030E040E050E01D
:1017C0000E94622F882314F43092B005C801B7013B
:1017D0000E941C330E94D62F6093C8054EC02A81F8
:1017E0003B814C815D818091B305882351F0CA0112
:1017F000B90123E333E34BEC51E40E9442329B01F5
:10180000AC012E833F834887598791E0992A35C0E0
:101810002A813B814C815D818091B305882351F001
:10182000CA01B90123E333E34BEC51E40E94423295
:101830009B01AC012A873B874C875D87A2E09A2AEF
:101840001CC02A813B814C815D818091B305882336
:1018500051F0CA01B90123E333E34BEC51E40E9498
:1018600042329B01AC012E873F87488B598BB4E0F5
:101870009B2A03C0E3E0E093B0058BAD9CADADAD1A
:10188000BEAD7C018D01D801C701EBAE9CAFADAF01
:10189000BEAF9981F301E90FF11D10811123B9F059
:1018A000812F81548A3110F082E00FC09F5F9983AD
:1018B000C301BE016F5F7F4FAE014E5F5F4F0E945D
:1018C000AA24892B09F0BDC481E08093B0058091E2
:1018D000B005882309F08AC48091A105873041F0C2
:1018E0008091B6050E9482118091B7050E94A511D2
:1018F00051FE13C08E01025E1F4F8091CC05B801CE
:101900000E941E1C882309F470C4ADECB5E0F801F8
:101910008CE001900D928150E1F7FAADF43009F4BA
:1019200061C1F53048F4F23051F1F33008F0AAC04B
:10193000F13009F0AFC10EC04AAD463009F452C1D2
:10194000463008F49FC0473009F457C1483009F0C9
:10195000A1C197C1C601B50120E030E040E050E0F0
:101960000E94622F88230CF44AC18091A105873020
:1019700009F490C1C601B5010E944C048BC152E02C
:10198000851619F064E1861651F4C601B5010E946E
:101990001C330E94D12FCB010197069720F083E0E2
:1019A0008093B00576C1992021F482E0881609F46D
:1019B00026C17B010894E108F10894E18916B1F48D
:1019C0008E2D6CEB75E00E94131C8091CC0590E08D
:1019D0008E159F0509F05DC1EDECF5E0DF01519733
:1019E0008CE00D9001928150E1F753C18E2C3EE1C5
:1019F000A32EB12CAC0EBD1E8E2DB5010E941E1C57
:101A0000882309F4F2C300E010E040E050E0C92C64
:101A1000DD24BE016A5F7F4FC601002E02C095958E
:101A200087950A94E2F780FF0FC09501240F351FB8
:101A3000FB01E40FF51F80819181A281B381F9013F
:101A400080839183A283B3830F5F1F4F4C5F5F4FEF
:101A50000330110509F78E01025E1F4F882DB80172
:101A60000E94131C8091CC0590E08E159F0509F013
:101A700010C1ADECB5E0F8018CE001900D92815001
:101A8000E1F707C1992009F47AC08E010A5F1F4F60
:101A90002CEBE22E25E0F22ECC24DD24A92CBB2455
:101AA000C5010C2C02C0959587950A94E2F780FF3A
:101AB00035C08091B4058823F9F0D70151966D9116
:101AC0007D918D919C9154975D962D913D914D9175
:101AD0005C9190970E94892E9B01AC01F801608176
:101AE0007181828193810E94892ED8016D937D93AB
:101AF0008D939C9313971CC0F80160817181828142
:101B00009381D7012D913D914D915C910E94892E39
:101B1000F80160837183828393830AC0F701808117
:101B20009181A281B381F80180839183A283B383E1
:101B30000894C11CD11C0C5F1F4F44E050E0E40E20
:101B4000F51E53E0C516D10409F0AACF6E817F813E
:101B5000888599852A853B854C855D85EE84FF8443
:101B6000088919890F2EF0E0AF2EF0E0BF2EF0E8C3
:101B7000CF2EFFEBDF2EF02D88240E94A0046AAD4B
:101B8000653011F487E001C086E09AE2692E712C7D
:101B90006C0E7D1EB3010E941E1C882309F425C310
:101BA0006AA57BA58CA59DA52EA53FA548A959A9E9
:101BB000EAA8FBA80CA91DA90F2EF0E0AF2EF0E0BB
:101BC000BF2EF0E8CF2EFFEBDF2EF02D88240E94F1
:101BD000A004ACEBB5E0F3018CE001900D928150D4
:101BE000E1F757C07AAD763011F487E001C086E0A6
:101BF0006CEB75E00E94131C4DC0992021F486E027
:101C00008093B00547C00CEB15E086E0C82ED12CC0
:101C1000CC0EDD1EEE24FF24A92CBB24C5010E2C06
:101C200002C0959587950A94E2F780FF1CC0D80101
:101C30006D917D918D919C91139751962D913D9130
:101C40004D915C9154970E94882EF601208131813C
:101C5000428153810E94882ED8015D966D937D93B9
:101C60008D939C9390970894E11CF11C0C5F1F4F7F
:101C7000E4E0F0E0CE0EDF1EF3E0EF16F10471F6C3
:101C800008C08CE0E9EDF5E0DF011D928A95E9F7E7
:101C900001C0992442FC03C0992009F492C28091AA
:101CA000B205882399F06BAD7CAD8DAD9EAD20E083
:101CB00030E040E050E00E94622F88233CF48091A5
:101CC000B105843019F086E08093B005222039F008
:101CD0008091B105823018F086E08093B005809144
:101CE000B005882309F082C28E010A5F1F4FBCEB4A
:101CF000EB2EB5E0FB2ECC24DD24A92CBB24C501A2
:101D00000C2C02C0959587950A94E2F780FF33C0AA
:101D10002220D9F58091B4058823D1F0F70161899B
:101D2000728983899489258D368D478D50A10E94B3
:101D3000892E9B01AC01D8016D917D918D919C9173
:101D40000E94892EF80160837183828393831DC072
:101D5000D8016D917D918D919C91F7012081318108
:101D6000428153810E94892ED8016D937D938D937A
:101D70009C9313970AC0F70180819181A281B3815E
:101D8000F80180839183A283B3830894C11CD11C82
:101D90000C5F1F4F44E050E0E40EF51E53E0C51603
:101DA000D10409F0ACCF8091B105843048F4823081
:101DB00008F04EC0882359F0813009F0F5C122C0E7
:101DC000843009F0F1C1992009F4EEC18DC0992049
:101DD00009F48AC06E817F81888599852A853B8533
:101DE0004C855D85EE84FF84088919890F2EF0E00B
:101DF000AF2EF0E0BF2EF0E8CF2EFFEBDF2EF02D60
:101E0000882423C0992009F46FC06E817F81888562
:101E100099852A853B854C855D85EE84FF840889FC
:101E200019898090B205882061F4A091B805ABAF04
:101E3000B091B905BCAFE091BA05EDAFF091BB052B
:101E4000FEAFABACBCACCDACDEAC0E94A004ACC170
:101E500081E090E00090CB0502C0880F991F0A94A2
:101E6000E2F78095982209F43FC06EA97FA988AD5A
:101E700099AD20E030E040E050E00E94622F8823DE
:101E800009F043C0E091C905F0E0EE0FFF1FEE0F2F
:101E9000FF1F8E010F5F1F4FE00FF11FC188D28817
:101EA000E388F488C701B60120E030E040E050E06C
:101EB0000E94622F8823E1F48091CA0590E0880F88
:101EC000991F880F991F080F191FD80151966D91FE
:101ED0007D918D919C91549720E030E040E050E05E
:101EE0000E94622F882321F486E08093B0055CC1B4
:101EF0006EA97FA988AD99AD20E030E040E050E0C8
:101F00000E94622F882309F4F8C0E091C905F0E02F
:101F1000EE0FFF1FEE0FFF1F8E010F5F1F4FD80147
:101F2000AE0FBF1FE454FA4F15966D917D918D91C0
:101F30009C91189720813181428153810E94882E83
:101F40001B012C01E091CA05F0E0EE0FFF1FEE0F20
:101F5000FF1F0E0F1F1FE454FA4FD80115966D9105
:101F60007D918D919C91189720813181428153817F
:101F70000E94882E3B014C018CE0FE017296DF012D
:101F80001D928A95E9F76EA97FA988AD99AD20E0E9
:101F900030E040E850E40E9442322EA93FA948AD0B
:101FA00059AD0E9442327B018C01C201B101A201F4
:101FB00091010E9442329B01AC01C801B7010E940D
:101FC000882E7B018C01C401B301A40193010E94FE
:101FD00042329B01AC01C801B7010E94882E7B01EF
:101FE0008C0120E030E040E050E00E94622F882326
:101FF00024F484E08093B005F9C0C801B7010E94C1
:10200000CF327B018C01C201B101A40193010E9476
:102010007D319B01AC0117FB109517F91095C80194
:10202000B7010E94692F6B017C018091B10583305B
:1020300021F4F7FAF094F7F8F0946EA97FA988AD2F
:1020400099AD20E030E040E050E00E94622F88230C
:102050006CF4F7FAF094F7F8F0944EA95FA968AD24
:1020600079AD70584EAB5FAB68AF79AF0091C905E1
:10207000A02EBB24AA0CBB1CAA0CBB1C8E010F5F9C
:102080001F4FA00EB11EC401B301A70196010E940B
:1020900042329B01AC01C201B1010E94882E20E0B6
:1020A00030E040E05FE30E944232D50151966D93EB
:1020B0007D938D939C9354978091CA0590E0880FEF
:1020C000991F880F991F080F191FC201B101A7019D
:1020D00096010E9442329B01AC01C401B3010E94EF
:1020E000892E20E030E040E05FE30E944232F801B8
:1020F000618B728B838B948B15C0E091CA05F0E0E5
:10210000EE0FFF1FEE0FFF1FEC0FFD1F228933891B
:1021100044895589C701B6010E947D316EAB7FAB02
:1021200088AF99AF9091B1052091C9050091CA057A
:10213000E090CB058090B205882061F4F091B8055D
:10214000FBAF4091B9054CAF5091BA055DAF6091BE
:10215000BB056EAF00D000D00F92EDB7FEB7319641
:102160004EA95FA968AD79ADADB7BEB711964D93D5
:102170005D936D937C93149780E0923009F481E035
:1021800084838CEB95E0BE016A5F7F4FAE014E5EAB
:102190005F4FABACBCACCDACDEAC0E948A050F90FF
:1021A0000F900F900F900F908091B0058823F1F45D
:1021B000ACEBB5E0FE0136968CE001900D928150BB
:1021C000E1F78091B505882369F00E94E023109221
:1021D000AF058091B505823019F40E94320402C027
:1021E0001092B5058091B00501C08AE0EE960FB659
:1021F000F894DEBF0FBECDBFCF91DF911F910F913D
:10220000FF90EF90DF90CF90BF90AF909F908F9016
:102210007F906F905F904F903F902F900895CA806D
:10222000DB80EC80FD80C701B6010E941C330E9458
:10223000D12F9B01173409F43AC81D3409F0DCC9C9
:1022400079C91F3484F41D340CF017CB1C340CF006
:1022500072CA19340CF048CA163409F40ACA173481
:1022600009F008CB0ACB143509F4A0CA153554F48B
:10227000123509F46FCA13350CF088CA103509F00D
:10228000F9CA63CA193509F4C3CA1A3509F4D9CA97
:10229000183509F0EFCAA3CAE0EBF5E085E3DF01EA
:1022A0001D928A95E9F78091B3069091B406A091AA
:1022B000B506B091B6068093B8059093B905A09382
:1022C000BA05B093BB051092C90591E09093CA0579
:1022D00082E08093CB059093B4058091CC05BF013B
:1022E000635E7F4F0E941E1C882319F48AE00E94BF
:1022F000E729089510920001249A259A2C980895B0
:102300002C9808951F93182F282F332727FD3095D9
:102310008091000190E02817390771F00E94E023B6
:10232000112339F0111614F42D9801C02D9A2C9A0E
:1023300001C02C98109300011F9108951092010183
:102340003B9A43980895439808951F93182F8091BE
:102350000101181749F00E94E023113011F4439A4B
:1023600001C04398109301011F910895E0ECF0E043
:1023700080818D7F80831092C50087E68093C400A2
:10238000E1ECF0E0808180618083808188608083DF
:102390008081806880830895282FE09104019E2F1A
:1023A0009F5F903431F490E004C08091A20584FDD9
:1023B0000FC0809105019817C1F3F0E0EB59F94F78
:1023C0002083909304018091C10080628093C100BA
:1023D00008951F920F920FB60F9211248F939F931F
:1023E000EF93FF9380910501E82FF0E0EB59F94F4F
:1023F00090819093C600982F9F5F903409F490E0ED
:102400009093050180910401981729F48091C100EF
:102410008F7D8093C100FF91EF919F918F910F90DD
:102420000FBE0F901F9018959091030180910201AB
:10243000891711F4EFEF0DC0E92FF0E0EB51FA4FDF
:10244000E081892F8F5F80930301803811F410920F
:1024500003018E2F08958091020180930301089556
:102460001F920F920FB60F9211242F933F934F9309
:102470005F936F937F938F939F93AF93BF93EF93EC
:10248000FF932091C6002132A1F0223218F42831A6
:10249000B9F413C02F3319F02E3791F404C0809192
:1024A000A205816003C08091A20582608093A2058D
:1024B00018C08091A2058860F9CF0E94320411C033
:1024C000E09102019E2F9F5F903809F490E0809187
:1024D0000301981731F0F0E0EB51FA4F208390930D
:1024E0000201FF91EF91BF91AF919F918F917F91E9
:1024F0006F915F914F913F912F910F900FBE0F9071
:102500001F9018951F920F920FB60F9211242F93C0
:102510003F934F935F936F937F938F939F93AF936B
:10252000BF93EF93FF9386B190E08095909587706D
:102530009070892B91F0309903C00E9432040DC035
:10254000319904C08091A205886005C0329905C008
:102550008091A20582608093A205FF91EF91BF91C7
:10256000AF919F918F917F916F915F914F913F912B
:102570002F910F900FBE0F901F901895CF93DF9360
:102580008091A205882309F457C08091A205C82F25
:10259000D0E0CE0180769070892BE9F086E08093C0
:1025A000A105C6FF10C08FEF0E94D02981E00E94D4
:1025B000A6298091A2058F7E8093A2058091A20515
:1025C00084FFFCCF03C08EEF0E94D0298091A2052A
:1025D0008F798093A205C4FF04C081E08093A00599
:1025E0002BC0C0FF07C00E943F2A8091A2058E7FAA
:1025F0008093A205C3FF07C00E943A158091A205EF
:10260000877F8093A205C2FF07C00E944415809176
:10261000A2058B7F8093A205C1FF0EC00E943015DA
:102620008091D00681FF03C081E08093AF05809147
:10263000A2058D7F8093A205DF91CF91089580E060
:1026400066E071E00E948A1C882369F0809106018F
:10265000882361F086E091E00E948F2986E091E076
:102660000E94160901C08AE00E94E72981E066E025
:1026700071E00E948A1C882321F48AE00E94E729E5
:10268000089580910601882351F086E091E00E9430
:102690008F2986E091E00E9416090E94E72908959B
:1026A000DF92EF92FF920F931F93DF93CF93CDB7FB
:1026B000DEB729970FB6F894DEBF0FBECDBF7C0101
:1026C000FC018081843209F009C181E08983818124
:1026D000873481F1883474F48432C1F0853234F463
:1026E000882389F0833209F097C01AC0833409F037
:1026F00093C02AC08E3409F469C08835F1F188345A
:1027000009F08AC04CC00E949C29F3C082E08983F2
:10271000F7018281882309F0E6C00E94E62CE9C017
:1027200082E08983F7018281882309F0DCC00E945E
:10273000282CDFC082E08983F7018281882309F099
:10274000D2C00E943C2BD5C082E08983F7018281F0
:10275000882309F0C8C08091A105873021F40E9428
:10276000320485E007C0882309F0BFC087E080936A
:10277000A10584E00E94A629BCC082E08983F701FC
:102780008281882309F0AFC08091A105863009F0CD
:10279000B0C083E00E94A6291092A105AAC0809132
:1027A000D00684FD02C017E0A5C08091A105882352
:1027B00019F0863009F099C00E94EA048091A005C2
:1027C000882309F096C00E941F1393C082E089837A
:1027D000F7018281882319F0DD24D3941EC080E0A4
:1027E000B7010E948A1C882329F080E0B7010E946B
:1027F000032C03C08AE00E94E72981E0B7010E9410
:102800008A1C882321F48AE00E94E72972C081E0B3
:10281000B7010E94032C6DC0DD24C7018E010F5F3C
:102820001F4FB801AE014E5F5F4F0E94AA24892B53
:1028300009F45DC09981F701E90FF11D80818D33A5
:1028400009F051C0892F8F5F8983DD2041F1482F26
:1028500050E02981822F90E0FC01E41BF50BEE0D86
:10286000FF1DD701A80FB91F8C9180838C912F5F1A
:102870002983882371F7C7010E941609182F88231E
:10288000C9F56A817B818C819D810E941C330E94E5
:10289000D62FDC01CB01B7010E947F1C2BC0C701E2
:1028A000B801AE014A5F5F4F0E94AA24892BF9F05C
:1028B0008981E80EF11CF70180818823A1F46A81E7
:1028C0007B818C819D810E94D12FDC01CB014E81C7
:1028D0005F81688579850E94B61903C0C7010E948F
:1028E0001609182F07C013E005C01BE003C011E054
:1028F00001C010E0812F29960FB6F894DEBF0FBEFD
:10290000CDBFCF91DF911F910F91FF90EF90DF909E
:1029100008951F9311E044C02A3011F02D30D1F4F6
:102920000E94BE128091A005882309F03FC0E0916B
:102930003801EE2349F0F0E0EA5FFE4F108286E0B6
:1029400091E00E94501301C080E00E94E72910929C
:10295000380106C080913901882329F0293201F518
:10296000109239011DC02132D8F02F32C9F028321F
:1029700019F41093390114C090913801913380F407
:10298000822F8156E92FF0E09F5F8A3120F4EA5FC1
:10299000FE4F205202C0EA5FFE4F20839093380121
:1029A0000E941412282F8F3F09F0B6CF1F9108956F
:1029B00010923801109239010E94A12987B1887FB5
:1029C00087B988B1876088B9ECE6F0E080818760DC
:1029D0008083E8E6F0E080818260808308958091C2
:1029E000D00682FF02C0289A01C028988091A105D4
:1029F0008330F9F48091BB0680935F018091B20629
:102A000090E0A0E0B0E00297A109B109880F991FFA
:102A1000AA1FBB1F819580935E0110925B011092EB
:102A2000B2008091700082608093700082E0809399
:102A3000B10008951F920F920FB60F9211248F9339
:102A40009F939BB18091BB068C71937E892B8BB930
:102A500015BC9F918F910F900FBE0F901F901895EE
:102A60008091A105823029F483E08093A1050E9422
:102A7000EF1408958091A105833029F484E08093B8
:102A8000A1051092AF05089580915C0190915D01C0
:102A9000892B29F160914A0170914B0180914C0181
:102AA00090914D010E94F11E81E080935A0184E6CD
:102AB00090E0A0E0B0E08093560190935701A0937E
:102AC0005801B093590110924E0110924F0110928B
:102AD00050011092510182E08093A1050895109257
:102AE000A105089582E2EAE3F1E0DF011D928A95F3
:102AF000E9F710925D0110925C0110926001089557
:102B0000809170008D7F809370001092B100909141
:102B1000E0069F3F21F48091A20585FF0BC0892F1D
:102B200090E00E9423248091D00682FF02C0289862
:102B30000895289A08958AB18C6F8AB98BB18370F1
:102B40009091BB06892B8BB9209AE0E7F0E0808159
:102B50008D7F80831092B1001092B20082E080934A
:102B6000B00083E68093B300EEE6F0E080818E7FD4
:102B7000808314BC15BC8081816080830E94EF1427
:102B80000E94801508951F920F920FB60F92112484
:102B9000AF92BF92CF92DF92EF92FF920F931F936B
:102BA0002F933F934F935F936F937F938F939F9355
:102BB000AF93BF93EF93FF9380916001882309F057
:102BC00004C380915B01882369F010925B018BB193
:102BD000837090915F01892B8BB980915E0186BDD6
:102BE00082E085BD81E080936001789480915C01F2
:102BF00090915D01892B09F089C00E94BC1CFC01E9
:102C000090935D0180935C01009709F472C18091FB
:102C1000BB069081892780935F0161E060935B012F
:102C20002585368547855089DA01C901B595A7956F
:102C30009795879580933A0190933B01A0933C012F
:102C4000B0933D0180933E0190933F01A0934001DA
:102C5000B09341018093420190934301A0934401BA
:102C6000B0934501209346013093470140934801BA
:102C70005093490120934A0130934B0140934C01FA
:102C800050934D018091A105833009F03FC086A982
:102C900097A9A0ADB1AD8093520190935301A09339
:102CA0005401B0935501E6A0F7A000A511A5E0924C
:102CB0004E01F0924F01009350011093510184E6B0
:102CC00090E0A0E0B0E08093560190935701A0936C
:102CD0005801B093590186A597A5A0A9B1A92817B5
:102CE00039074A075B0721F482E080935A010EC03E
:102CF00082A993A9A4A9B5A9E816F9060A071B0792
:102D000019F410925A0102C060935A0120915A019D
:102D1000222309F47EC08091560190915701A09121
:102D20005801B09159010197A109B1098093560149
:102D300090935701A0935801B09359010097A105B2
:102D4000B10509F066C088EC90E0A0E0B0E08093A7
:102D5000560190935701A0935801B0935901213027
:102D600081F5E0915C01F0915D0182A593A5A4A598
:102D7000B5A520914E0130914F01409150015091E5
:102D80005101820F931FA41FB51F80934E01909392
:102D90004F01A0935001B093510122A933A944A936
:102DA00055A982179307A407B50798F110925A0105
:102DB00020934E0130934F014093500150935101A5
:102DC00028C0223031F580914E0190914F01A091A1
:102DD0005001B0915101E0915C01F0915D0122A59B
:102DE00033A544A555A5281739074A075B072CF4D6
:102DF000821B930BA40BB50B04C0B595A7959795B3
:102E0000879580934E0190934F01A0935001B0930A
:102E10005101A0904E01B0904F01C0905001D09050
:102E2000510188EEA81683E0B80680E0C80680E06D
:102E3000D8066CF48091520190915301A0915401F5
:102E4000B0915501885E9340A040B0400CC0809185
:102E5000520190915301A0915401B09155018A19EA
:102E60009B09AC09BD098093520190935301A09333
:102E70005401B0935501209152013091530140917A
:102E800054015091550157FF9EC1E0915C01F091B2
:102E90005D0186A997A9A0ADB1AD280F391F4A1FC2
:102EA0005B1F209352013093530140935401509380
:102EB00055018091A105843021F580915A0182301D
:102EC00079F082E080935A0184E690E0A0E0B0E0DF
:102ED0008093560190935701A0935801B0935901E4
:102EE00082A593A5A4A5B5A58A159B05AC05BD052E
:102EF00044F00E9480158091A20584608093A20511
:102F000062C1208120935F0181E080935B01409149
:102F10003A0150913B0160913C0170913D018181EA
:102F20009281A381B481481B590B6A0B7B0B4093A0
:102F30003A0150933B0160933C0170933D0177FF50
:102F400038C0246020935F01809146019091470131
:102F5000A0914801B0914901480F591F6A1F7B1F7A
:102F600040933A0150933B0160933C0170933D01C3
:102F700025FF0CC08091A3059091A405A091A50503
:102F8000B091A6050197A109B1090BC08091A305D5
:102F90009091A405A091A505B091A6050196A11D4B
:102FA000B11D8093A3059093A405A093A505B093AC
:102FB000A60540913E0150913F0160914001709102
:102FC000410185819681A781B085481B590B6A0B09
:102FD0007B0B40933E0150933F01609340017093FF
:102FE000410177FF3AC020915F01286020935F0183
:102FF0008091460190914701A0914801B09149010B
:10300000480F591F6A1F7B1F40933E0150933F0199
:10301000609340017093410126FF0CC08091A70589
:103020009091A805A091A905B091AA050197A109C1
:10303000B1090BC08091A7059091A805A091A905A1
:10304000B091AA050196A11DB11D8093A70590938B
:10305000A805A093A905B093AA05409142015091FB
:103060004301609144017091450181859285A3855A
:10307000B485481B590B6A0B7B0B4093420150935C
:103080004301609344017093450177FF3AC020915A
:103090005F01206120935F0180914601909147017B
:1030A000A0914801B0914901480F591F6A1F7B1F29
:1030B0004093420150934301609344017093450152
:1030C00027FF0CC08091AB059091AC05A091AD0598
:1030D000B091AE050197A109B1090BC08091AB0574
:1030E0009091AC05A091AD05B091AE050196A11DE2
:1030F000B11D8093AB059093AC05A093AD05B09343
:10310000AE0520914A0130914B0140914C01509104
:103110004D01215030404040504020934A013093AF
:103120004B0140934C0150934D0121153105410550
:103130005105E1F180915A018230F1F1E6A4F7A442
:1031400000A911A9E216F30604071507A8F182E009
:1031500080935A012E153F054007510769F582A952
:1031600093A9A4A9B5A9A816B906CA06DB0629F42D
:1031700084E690E0A0E0B0E010C088EC90E0A0E031
:10318000B0E0209156013091570140915801509183
:103190005901821B930BA40BB50B8093560190939E
:1031A0005701A0935801B093590106C010925D01D8
:1031B00010925C010E94AD1C80915F019091BB0652
:1031C000892780935F0110926001FF91EF91BF9179
:1031D000AF919F918F917F916F915F914F913F91AF
:1031E0002F911F910F91FF90EF90DF90CF90BF90A4
:1031F000AF900F900FBE0F901F901895F999FECFCA
:1032000092BD81BD81E08FBB80B50895F894F99996
:10321000FECF92BD81BD81E08FBB40B54627842F94
:10322000992787FD9095262F30E082239323892BC1
:1032300039F06F3F19F060BD84E006C084E104C03E
:10324000442321F060BD84E28FBBF99A78940895FD
:103250008F929F92AF92BF92CF92DF92EF92FF92A6
:103260000F93DF93CF9300D0CDB7DEB75C016B0136
:103270007A014A0100E01EC0002319F021E030E08D
:1032800008C0202F332727FD30952227330F221F18
:103290003327F60161916F01062F020F9C012F5F0A
:1032A0003F4F3A8329830E940619089481089108A8
:1032B00089819A8181149104F9F6C7018A0D9B1DB9
:1032C000602F0E9406190F900F90CF91DF910F9100
:1032D000FF90EF90DF90CF90BF90AF909F908F9036
:1032E0000895CF93DF93EC01FB019A0190E0B1E0E8
:1032F00019C0F999FECFF2BDE1BDBFBBA0B59923BE
:1033000019F081E090E008C0892F992787FD9095FA
:103310008827990F881F992731969A2F980FA9937C
:10332000215030402115310521F7460F571FF999DB
:10333000FECF52BD41BD81E08FBB80B520E030E0C3
:10334000981711F421E030E0C901DF91CF91089581
:1033500080E090E063E30E94061981E090E065EA76
:1033600076E04AE450E00E9428190895EF92FF9217
:103370000F931F93CF93DF93EC017A018B01FC0134
:103380008B31910540F4EC5CFF4FEE0FFF1F059071
:10339000F491E02D099486E05FC1CB01BA0120E0F1
:1033A00030E040E050E00E94622F181614F088E0F0
:1033B00053C1CC0FDD1FCC0FDD1FCB55D94FE88299
:1033C000F9820A831B8345C14093E3065093E406C8
:1033D0006093E5067093E6063CC14093E706509380
:1033E000E8066093E9067093EA0633C14093EB0662
:1033F0005093EC066093ED067093EE062AC1CB0164
:10340000BA0120E030E040E752E40E94423220E07E
:1034100030E040E752E40E9442326093C00670936D
:10342000C1068093C2069093C30613C1CB01BA01B3
:1034300020E030E040E752E40E94423220E030E0F9
:1034400040E752E40E9442326093C4067093C5067E
:103450008093C6069093C706FCC0CB01BA0120E05A
:1034600030E040E752E40E94423220E030E040E7A2
:1034700052E40E9442326093C8067093C90680935A
:10348000CA069093CB06E5C0CB01BA0120E030E03C
:1034900040E450E40E94622F882314F489E0DCC0E9
:1034A000C801B7010E94A5320E94D62F6093B206D0
:1034B000D0C04093B3065093B4066093B5067093A2
:1034C000B606C7C0CB01BA010E941C330E94D62F9A
:1034D0006093BB06BEC0CB01BA010E94A5320E9418
:1034E000D62F6093E006B5C0DB01CA01BF77809399
:1034F000CC069093CD06A093CE06B093CF06A9C07C
:103500004093BC065093BD066093BE067093BF0601
:10351000A0C0CB01BA010E94A5320E94D62F6093B1
:10352000E20697C0CB01BA010E94A5320E94D62FB5
:103530006093E1068EC0CB01BA0120E030E040E0AC
:1035400050E00E94622F882321F08091D006816094
:1035500011C08091D0068E7F0DC0CB01BA0120E052
:1035600030E040E050E00E94622F882331F08091EB
:10357000D00682608093D0066CC08091D0068D7F8B
:10358000F9CFCB01BA0120E030E040E050E00E94EA
:10359000622F882321F08091D0068460EBCF809148
:1035A000D0068B7FE7CFCB01BA0120E030E040E0CE
:1035B00050E00E94622F882321F08091D00688601D
:1035C00003C08091D006877F8093D0060E94652536
:1035D00040C0CB01BA0120E030E040E050E00E9462
:1035E000622F882321F08091D0068061C3CF809123
:1035F000D0068F7EBFCFCB01BA010E941C330E9440
:10360000D62F6093D10625C04093D2065093D3069F
:103610006093D4067093D5061CC04093D606509391
:10362000D7066093D8067093D90613C0CB01BA01B0
:103630000E94A5320E94D62F7093DB066093DA06B3
:1036400008C04093DC065093DD066093DE0670935D
:10365000DF060E94A81980E0DF91CF911F910F91A2
:10366000FF90EF900895882309F47AC080E090E0FD
:10367000AAE7B3E48093A5069093A606A093A706B5
:10368000B093A8068093A9069093AA06A093AB06D0
:10369000B093AC068093AD069093AE06A093AF06B0
:1036A000B093B0062AE02093B2068093B3069093BD
:1036B000B406A093B506B093B60680E090E0AAEFFA
:1036C000B3E48093E3069093E406A093E506B093F9
:1036D000E6068093E7069093E806A093E906B09388
:1036E000EA068093EB069093EC06A093ED06B09368
:1036F000EE0680E090EAACE0B7E48093C0069093D9
:10370000C106A093C206B093C3068093C4069093EB
:10371000C506A093C606B093C7068093C8069093CB
:10372000C906A093CA06B093CB068DEC9CECACEC1A
:10373000BDE38093BC069093BD06A093BE06B093F4
:10374000BF0680EC8093BB068DEC9CECACE4BDE343
:103750008093CC069093CD06A093CE06B093CF066F
:1037600082E08093D0061092D10680E090E0A8EC31
:10377000B1E48093D2069093D306A093D406B0937D
:10378000D50680E090E0AAE7B3E48093D606909354
:10379000D706A093D806B093D90684E690E090931C
:1037A000DB068093DA0680E090E0A0E8BFE3809338
:1037B000DC069093DD06A093DE06B093DF0699E168
:1037C0009093E00683E08093E1069093E2060E94E6
:1037D000A819089580E090E00E94FE18833379F4E0
:1037E00085EA96E061E070E04AE450E00E947119D9
:1037F00020E0892B09F421E081E0282712C08530E0
:1038000078F485EA96E061E070E04FE150E00E94D4
:103810007119892B29F080E00E94331B21E001C03F
:1038200020E0822F08959DE0899FC00111248050DF
:103830009E4F4CE050E00E94281908950F931F936B
:10384000CF93DF93162F072F9DE0899FE00111246E
:10385000C050DE4F862F972FBE014CE050E00E94F3
:103860007119892B11F081E00FC0E12FF02F8CE04E
:10387000DF011D928A95E9F7CE01612F702F4CE090
:1038800050E00E94281980E0DF91CF911F910F91A5
:103890000895EF92FF921F93DF93CF93CDB7DEB7DA
:1038A0002C970FB6F894DEBF0FBECDBF0E94EA1B67
:1038B000882341F48AE00E94E72981E00E94331BBB
:1038C0000E94E62C10E07E010894E11CF11C812F7F
:1038D000B7010E941E1C882319F48AE00E94E72980
:1038E0001F5F1830A1F72C960FB6F894DEBF0FBEFD
:1038F000CDBFCF91DF911F91FF90EF90089593E39B
:10390000899FC001112480509D4F42E350E00E94E6
:10391000281908950F931F93CF93DF938B0193E39F
:10392000899FE0011124C050DD4FCB01BE0142E36D
:1039300050E00E947119892B11F081E009C0F80153
:103940001082CE01B80142E350E00E94281980E0C5
:10395000DF91CF911F910F910895909175058091FE
:103960007605981741F0809176058F5F823109F4D2
:1039700080E0809376050895909175058091760595
:10398000981719F420E030E008C0909176058AE39A
:10399000989F900111242F593E4FC9010895AF926D
:1039A000BF92CF92DF92EF92FF920F931F93590134
:1039B0006A01609378057093790580937A059093F6
:1039C0007B0520937C0530937D0540937E055093C5
:1039D0007F05E0928005F0928105009382051093A7
:1039E00083050E9404302091A5063091A6064091DF
:1039F000A7065091A8060E94692F609394057093C2
:103A000095058093960590939705C601B5010E9490
:103A100004302091A9063091AA064091AB0650913E
:103A2000AC060E94692F6093980570939905809366
:103A30009A0590939B05C801B7010E94043020911C
:103A4000AD063091AE064091AF065091B0060E948F
:103A5000692F60939C0570939D0580939E059093BC
:103A60009F051F910F91FF90EF90DF90CF90BF9037
:103A7000AF9008952F923F924F925F926F927F92F4
:103A80008F929F92AF92BF92CF92DF92EF92FF926E
:103A90000F931F93CF93DF93EC015A016B01180131
:103AA0002901CB01BA010E94CF322BEA3AEA46EA59
:103AB00052E40E9442320E944F2F0E94D62F6EA3E2
:103AC0007FA388A799A76D857E858F8598890E9499
:103AD00004307B018C0129A13AA14BA15CA1CA0150
:103AE000B9010E94892E2D8D3E8D4F8D58A10E94C7
:103AF00042329B01AC01C801B7010E94692F3B0112
:103B00004C01C601B501A20191010E94882E9B01C2
:103B1000AC01C401B3010E9442329B01AC01C80157
:103B2000B7010E94892E20E030E040E05FE30E9470
:103B300042320E944F2F0E94D12F7B018C0116161A
:103B40001706180619062CF01EA61FA618AA19AAF1
:103B500030C069897A898B899C89A20191010E9470
:103B6000882E9B01AC01C401B3010E9442320E9425
:103B70004F2F0E94D62F6EA77FA788AB99ABE61672
:103B8000F7060807190720F4EEA6FFA608AB19AB45
:103B90002D853E854F8558898EA59FA5A8A9B9A9D1
:103BA000281739074A075B0720F42EA73FA748AB21
:103BB00059ABDF91CF911F910F91FF90EF90DF9064
:103BC000CF90BF90AF909F908F907F906F905F90BD
:103BD0004F903F902F9008955F926F927F928F92B7
:103BE0009F92AF92BF92CF92DF92EF92FF920F938C
:103BF0001F93CF93DF9380917505882309F482E1A9
:103C0000982F915080917605981711F4992E07C03E
:103C1000992311F482E101C0892F982E9A948AE3A6
:103C2000989F800111240F591E4F2AE3722E882479
:103C300083944BC0979CE0011124CF59DE4FA98C8F
:103C4000BA8CCB8CDC8C6D897E898F89988DA6018E
:103C500095010E94622F882391F1AD8ABE8ACF8A96
:103C6000D88E8DA2F801E588F6880789108DC801E5
:103C7000B701A60195010E94622F882304F529A1AE
:103C80003AA14BA15CA1CA01B9010E94892E2D8DD8
:103C90003E8D4F8D58A10E9442329B01AC01C8015C
:103CA000B7010E94892E7B018C01A60195010E941B
:103CB000622F882324F4ED8AFE8A0F8B188F9920B7
:103CC00011F492E1992E9A948E01809176059816BE
:103CD00009F0B0CF709076057394F2E17F1609F485
:103CE0007724909176058AE3989FE0011124CF59BB
:103CF000DE4F8AE3582E6624639450C0759C6001A1
:103D0000112481E691E0C80ED91EF60185889688B7
:103D1000A788B08CC801B701A50194010E94622F49
:103D2000882314F529A13AA14BA15CA1CA01B901CC
:103D30000E94892E2D8D3E8D4F8D58A10E944232BA
:103D40009B01AC01C801B7010E94892E7B018C0147
:103D5000A50194010E94622F882334F4F601E58ABC
:103D6000F68A078B108F65A28DA1882321F4F601B6
:103D700085A1882369F04D895E896F89788DF60168
:103D8000058916892789308DCE010E943A1D1DA212
:103D90007394F2E17F1609F47724E60180917505AA
:103DA000ED88FE880F89188D781609F0A7CFCE010F
:103DB000B801A70100E010E020E030E00E943A1DC9
:103DC0001DA2DF91CF911F910F91FF90EF90DF9097
:103DD000CF90BF90AF909F908F907F906F905F90AB
:103DE0000895AF92BF92CF92DF92EF92FF920F931E
:103DF0001F93CF93DF935B016C01909176058AE36B
:103E0000989FE0011124CF59DE4FC601B5010E94F1
:103E100004302D8D3E8D4F8D58A10E9442327B0182
:103E20008C016D857E858F8598890E9404309B0169
:103E3000AC01C801B7010E94692F6D8F7E8F8F8FF3
:103E400098A3AD86BE86CF86D88A80E090E0A0E0B9
:103E5000B0E08D8B9E8BAF8BB88F898F9A8FAB8F95
:103E6000BC8F81E08DA30E94EC1DDF91CF911F914B
:103E70000F91FF90EF90DF90CF90BF90AF9008959B
:103E80002F923F924F925F926F927F928F929F926A
:103E9000AF92BF92CF92DF92EF92FF920F931F9358
:103EA000DF93CF93CDB7DEB7CC54D0400FB6F894A4
:103EB000DEBF0FBECDBF6DA77EA78FA798AB29AB86
:103EC0003AAB4BAB5CABEDAAFEAA0FAB18AFA9AEF9
:103ED000BAAECBAEDCAE382C909175058AE3989FD4
:103EE0002001112421E631E0420E531E6DA57EA56E
:103EF0008FA598A92091A5063091A6064091A70606
:103F00005091A8060E9442320E9412326DAF7EAFDD
:103F10008FAF21969FAF219769A97AA98BA99CA9F8
:103F20002091A9063091AA064091AB065091AC06AB
:103F30000E9442320E94123222966FAF229723963D
:103F40007FAF239724968FAF249725969FAF259711
:103F5000C801B7012091AD063091AE064091AF0681
:103F60005091B0060E9442320E94123226966FAFE4
:103F7000269727967FAF279728968FAF2897299661
:103F80009FAF29978091780590917905A0917A0546
:103F9000B0917B0521962CAD3DAD4EAD5FAD219727
:103FA000281B390B4A0B5B0BDA01C90157FF07C00D
:103FB000B095A095909581959F4FAF4FBF4FF2015F
:103FC00081839283A383B48380917C0590917D0546
:103FD000A0917E05B0917F0525962CAD3DAD4EADEF
:103FE0005FAD2597281B390B4A0B5B0BDA01C90122
:103FF00057FF07C0B095A095909581959F4FAF4F03
:10400000BF4FF20185839683A783B0878091800597
:1040100090918105A0918205B091830529962CADE0
:104020003DAD4EAD5FAD2997281B390B4A0B5B0B9D
:1040300057FF07C050954095309521953F4F4F4F02
:104040005F4FD20119962D933D934D935C931C972E
:104050001596ED90FD900D911C91189711968D91EC
:104060009D910D90BC91A02D8E159F05A007B107C5
:1040700010F4D801C70182179307A407B50710F4FD
:10408000DA01C901F20185879687A787B08B00976F
:10409000A105B10509F47AC36DA57EA58FA598A9E0
:1040A0002091940530919505409196055091970582
:1040B0000E94882E5B016C016D877E878F87988BAD
:1040C00069A97AA98BA99CA9209198053091990595
:1040D00040919A0550919B050E94882E7B018C018E
:1040E000698B7A8B8B8B9C8B6DA97EA98FA998ADE0
:1040F00020919C0530919D0540919E0550919F0512
:104100000E94882E3B014C016D8B7E8B8F8B988F8C
:10411000C601B501A60195010E9442325B016C0106
:10412000C801B701A80197010E9442329B01AC016E
:10413000C601B5010E94892E7B018C01C401B30127
:10414000A40193010E9442329B01AC01C801B70156
:104150000E94892E0E94CF327B018C01D2015D9694
:104160006D937D938D939C93909769AD7AAD8BAD54
:104170009CAD20E030E040E050E00E94622F8823B8
:104180004CF420E034E244E759E429AF3AAF4BAFB6
:104190005CAF0EC0332061F0C801B70129AD3AAD64
:1041A0004BAD5CAD0E94692F69AF7AAF8BAF9CAF0E
:1041B00060E070E080E89FE3A80197010E94692F0A
:1041C00069A77AA78BA79CA780E094E2A4E7B9E44B
:1041D000F20181A392A3A3A3B4A39E01235F3F4F47
:1041E00038A72FA339E1232E312C2C0E3D1E40EC95
:1041F00056E05EA34DA32D963FAE2EAE2D97AFA1F8
:10420000B8A5ED90FD900D911C91C801B70120E07B
:1042100030E040E050E00E94622F882351F480E0BB
:1042200090E0A0E0B0E0F10180839183A283B383AA
:1042300070C0C801B70129A53AA54BA55CA50E948D
:1042400042329B01AC01D1016D937D938D939C9380
:10425000139760E070E080E89FE30E94692F0E945E
:10426000D12F9B0177FF03C0309521953F4FB901B6
:10427000882777FD8095982F0E9404305B016C01A0
:10428000EDA1FEA123A134A145A156A10E94423275
:104290007B018C0169AD7AAD8BAD9CADA801970116
:1042A0000E94622F87FD04C0E9AEFAAE0BAF1CAFCF
:1042B000D20191967C90919792969C90929793962A
:1042C0006C90939794968C90C601B501EDA1FEA1D8
:1042D00020813181428153810E9442327B018C01D5
:1042E000672D792D862D982DA80197010E94622FA8
:1042F00087FD06C0D801C7017E2C992E6A2E8B2E11
:10430000872D992DA62DB82DF20181A392A3A3A3E9
:10431000B4A32FA138A52C5F3F4F38A72FA344E0AB
:1043200050E0240E351E8DA19EA104969EA38DA360
:104330002D96AEADBFAD2D972A173B0709F05FCF85
:1043400069AD7AAD8BAD9CAD9B01AC010E94423250
:10435000F201618B728B838B948B69AD7AAD8BADDF
:104360009CAD2BEA3AEA46EA52E40E9442320E94AD
:104370004F2F0E94D62FD201D2966D937D938D93AD
:104380009C93D59791966D917D918D919C919497E9
:1043900029E33EE843E65CE30E9442320E944F2F4D
:1043A0000E94D12FF20162A773A784A795A7658DFC
:1043B000768D878D90A120E23CEB4EEB5CE40E9471
:1043C00042327B018C01D2011D966D917D918D91C0
:1043D0009C9150970E9404309B01AC01C801B70129
:1043E0000E94692F0E944F2F0E94D62FF20166ABC8
:1043F00077AB80AF91AF1082E98CFA8C0B8D1C8D5E
:10440000C801B70120E030E040E050E00E94622F98
:1044100088231CF480E2D2018C936D8C7E8C8F8C6F
:1044200098A0C401B30120E030E040E050E00E94D9
:10443000622F882324F4F201808180648083A9A004
:10444000BAA0CBA0DCA0C601B50120E030E040E07E
:1044500050E00E94622F882324F4D2018C9180685E
:104460008C9380E090E0A0E0B0E0F201818F928F29
:10447000A38FB48F9091750580917605981709F4F4
:10448000DBC03090900520909105F09192052A961E
:10449000FFAF2A97209193052B962FAF2B97632D73
:1044A000722D8F2F922F20E030E040E050E00E94EC
:1044B000703118160CF0C0C06091840570918505AC
:1044C00080918605909187059058A80197010E94D8
:1044D00042327B018C01C401B301209188053091E7
:1044E000890540918A0550918B050E9442329B01BB
:1044F000AC01C801B7010E94882E7B018C01C60166
:10450000B50120918C0530918D0540918E0550911B
:104510008F050E9442329B01AC01C801B7010E9485
:10452000882E7B018C0123E333E343E75FE30E94A2
:10453000622F88230CF080C0D20151966C90519765
:1045400052967C90529753968C90539754969C9089
:10455000B301C401232D322D2A964FAD2A972B96F5
:104560005FAD2B970E94622F87FD08C0632C722CD1
:104570002A968FAC2A972B969FAC2B97C301D40118
:10458000F201818F928FA38FB48FC801B70123E30B
:1045900033E343E75FEB0E94703118160CF04CC018
:1045A00060E070E080E89FE3A80197010E94882EF8
:1045B00020E030E040E05FE30E9442320E94CF32D0
:1045C0005B016C01D20191966D917D918D919C91D1
:1045D00094972091CC063091CD064091CE06509113
:1045E000CF060E944232A60195010E9442327B0111
:1045F0008C0160E070E080E89FE3A60195010E94D5
:10460000882E9B01AC01C801B7010E94692F7B0174
:104610008C01B301C401A80197010E94622F87FD9C
:1046200004C0D801C70137014D01C301D401F20113
:10463000818F928FA38FB48FD2015996AC905997E6
:104640005A96BC905A975B96CC905B975C96DC90A0
:104650005C9791962D913D914D915C919497CA01F3
:10466000B9010E94892EF201258D368D478D50A10A
:104670000E94423220E030E040E050E00E94892E6B
:104680007B018C01B501C601A80197010E94622F30
:1046900087FD04C0D801C70157016D01C501D601CE
:1046A000F201858B968BA78BB08F81E085A329962D
:1046B0002CAD3DAD4EAD5FAD299729873A874B872D
:1046C0005C8725968CAD9DADAEADBFAD25978D8336
:1046D0009E83AF83B88721962CAD3DAD4EAD5FADC7
:1046E000219729833A834B835C83A4E8B5E0FE01DC
:1046F00079968CE001900D928150E1F7F201818969
:104700009289A389B4898093900590939105A09391
:104710009205B0939305A8E7B5E0FE0131968CE0D1
:1047200001900D928150E1F72DA53EA54FA558A906
:1047300020939405309395054093960550939705E3
:1047400089A99AA9ABA9BCA98093980590939905CA
:10475000A0939A05B0939B052DA93EA94FA958ADEA
:1047600020939C0530939D0540939E0550939F0593
:104770008091770580937505809175058F5F8231F3
:1047800009F480E0809377050E94EC1DC45BDF4F45
:104790000FB6F894DEBF0FBECDBFCF91DF911F9152
:1047A0000F91FF90EF90DF90CF90BF90AF909F90D0
:1047B0008F907F906F905F904F903F902F900895D3
:1047C0001F931AE306C00E94BE128091A0058823A1
:1047D00091F49091750580917605981741F080913C
:1047E0007605819FC00111248F599E4F61F78091FA
:1047F000A105833041F31F91089590917605809132
:104800007705981711F080E008958091AF0588230F
:1048100011F481E008950E94301581E0089580919F
:10482000750580937605809175058F5F823109F457
:1048300080E08093770588E2E8E7F5E0DF011D92EC
:104840008A95E9F7089520EA3FE004C0F90131971D
:10485000F1F701970097D1F708951F93A0EABFE001
:1048600040E951E015E335E031C06A30710581055A
:10487000910540F4232F2A95F1F761507040804054
:10488000904024C0643671058105910540F4212FC4
:104890002A95F1F76A5070408040904017C0683EFA
:1048A00023E0720720E0820720E0920740F4FA013B
:1048B0003197F1F7645670408040904007C0FD0189
:1048C0003197F1F7685E7340804090406115710543
:1048D0008105910551F61F910895EF92FF920F9374
:1048E0001F936091A3057091A4058091A5059091F7
:1048F000A6052091A7053091A8054091A9055091E2
:10490000AA05E090AB05F090AC050091AD051091C3
:10491000AE050E94CF1C6091A3057091A405809103
:10492000A5059091A6052091A7053091A805409175
:10493000A9055091AA05E090AB05F090AC05009157
:10494000AD051091AE050E94C3081F910F91FF9015
:10495000EF9008956F927F928F929F92AF92BF9245
:10496000CF92DF92EF92FF920F931F93CF93DF933B
:104970004C013B015A01FB018081F401E80FF11D5C
:10498000EF0189918D3229F481812196CC24C39441
:1049900005C08B3211F481812196CC2420E030E0D7
:1049A00040E050E0DD24E0E070E0682F60536A30C2
:1049B000F8F4EF5FE930C0F47111DA94DA01C9015B
:1049C000F2E0880F991FAA1FBB1FFA95D1F7280F95
:1049D000391F4A1F5B1F220F331F441F551F260F0D
:1049E000311D411D511D09C0772339F4D39405C0F1
:1049F0006E3F29F4772319F471E08991D6CFEE2325
:104A000019F420E030E051C0CA01B9010E9402301F
:104A10007B018C0120E030E040E050E00E94622FFA
:104A2000882369F42BC0C801B7012AE037ED43E2BF
:104A30005CE30E9442327B018C01F2E0DF0E8FEFDB
:104A4000D8168CF3D81659F4C801B7012DEC3CECFC
:104A50004CEC5DE30E9442327B018C010FC0DD20F3
:104A600069F0C801B70120E030E040E251E40E9463
:104A700042327B018C01DA941D149CF3CC2049F066
:104A8000D801C701B058F50180839183A283B38315
:104A900005C0F501E082F18202831383882D8095A1
:104AA0008C0FF301808321E030E0C901DF91CF91C9
:104AB0001F910F91FF90EF90DF90CF90BF90AF903C
:104AC0009F908F907F906F90089584B1817F84B97B
:104AD00085B18E6085B98091D00683FF09C0809131
:104AE0006B008E6080936B0080916800816008C0CD
:104AF00080916B00817F80936B00809168008E7F36
:104B00008093680008952F923F924F925F926F9228
:104B10007F928F929F92AF92BF92CF92DF92EF924D
:104B2000FF920F931F93DF93CF93CDB7DEB7A99773
:104B30000FB6F894DEBF0FBECDBF382E562E49A754
:104B400038014901FE0131968CE0DF011D928A9502
:104B5000E9F7032D30FC02C010E00FC06091A506FC
:104B60007091A6068091A7069091A8060E94123225
:104B700069837A838B839C8311E001FF0FC01F5FE1
:104B80006091A9067091AA068091AB069091AC063F
:104B90000E9412326D837E838F83988702FF0FC03D
:104BA0001F5F6091AD067091AE068091AF06909147
:104BB000B0060E94123269877A878B879C87898525
:104BC0009A85AB85BC852D813E814F8158852DA36B
:104BD0003EA34FA358A7281739074A075B0720F4BD
:104BE0008DA39EA3AFA3B8A789819A81AB81BC8115
:104BF0004DA15EA16FA178A5481759076A077B07E9
:104C000020F48DA39EA3AFA3B8A7612F70E080E02E
:104C100090E00E9402300E94CF325B016C016DA1D6
:104C20007EA18FA198A50E940230A60195010E9445
:104C3000692F7B018C012091C0063091C106409103
:104C4000C2065091C3060E94423220E030E84BEB8E
:104C500055E40E94692F0E944F2F0E94D62F69A30E
:104C60007AA38BA39CA3C401B301A60195010E9462
:104C700042329B01AC01C801B7010E9442329B0144
:104C8000AC0160EC71EE84E69CE40E94692F0E9406
:104C900012327B018C0158EFE51654E2F50651E023
:104CA000050750E0150718F45701680107C038EFF1
:104CB000A32E34E2B32E31E0C32ED12C4090D10686
:104CC00060EE46228091BB064826552011F480EE06
:104CD00048268DA19EA1AFA1B8A5B695A795979599
:104CE0008795662477244301681A790A8A0A9B0A01
:104CF0008091B206A6019501281B3109410951098D
:104D00002D8B3E8B4F8B588F6D8E7E8E8F8E98A203
:104D1000698E7A8E8B8E9C8E198A1A8A1B8A1C8ABF
:104D200048E853E160E070E04D875E876F87788BDD
:104D300084E0282E242423B159A5552311F06EE0D8
:104D4000262730FE1DC089819A81AB81BC81680E07
:104D5000791E8A1E9B1E161417041804190484F465
:104D600021FF02C0522C03C07EEF3722542C8DA1AC
:104D70009EA1AFA1B8A5681A790A8A0A9B0A01C048
:104D8000542C31FE2CC08D819E81AF81B8854D8D14
:104D90005E8D6F8D78A1480F591F6A1F7B1F4D8F45
:104DA0005E8F6F8F78A31416150616061706BCF4CF
:104DB00022FF03C058E0552602C06DEF36228D8DCC
:104DC0009E8DAF8DB8A14DA15EA16FA178A5841B6A
:104DD000950BA60BB70B8D8F9E8FAF8FB8A332FEAE
:104DE0002CC089859A85AB85BC85498D5A8D6B8D84
:104DF0007C8D480F591F6A1F7B1F498F5A8F6B8FFD
:104E00007C8F1416150616061706BCF423FF03C084
:104E100050E1552602C06BEF3622898D9A8DAB8DFD
:104E2000BC8D2DA13EA14FA158A5821B930BA40BB5
:104E3000B50B898F9A8FAB8FBC8F0E94BE12332027
:104E400009F46AC08091A005882309F065C08BB180
:104E50003CE15322837E582A5BB86091B20670E031
:104E600080E090E00E942D244BB86D897E898F8967
:104E7000988D0E942D24EA14FB040C051D0508F0F2
:104E80005ACF4D855E856F8578894A0D5B1D6C1DF7
:104E90007D1D4D875E876F87788B413187E258078C
:104EA00080E0680780E0780708F445CF405157421A
:104EB000604070404D875E876F87788B29893A897B
:104EC0004B895C8969A17AA18BA19CA1260F371F10
:104ED000481F591F298B3A8B4B8B5C8B60E077E81E
:104EE00083E993E00E943B33C901DA015C016D0163
:104EF000AE14BF04C006D10610F4570168018091BA
:104F0000B206A6019501281B3109410951092D8BD3
:104F10003E8B4F8B588F0FCFA9960FB6F894DEBFFC
:104F20000FBECDBFCF91DF911F910F91FF90EF90FA
:104F3000DF90CF90BF90AF909F908F907F906F90B9
:104F40005F904F903F902F900895FF920F931F9383
:104F50000E94EF140091D6061091D7062091D80632
:104F60003091D90684E061E040E00E948325009101
:104F7000D6061091D7062091D8063091D90683E045
:104F800061E040E00E9483258091DA069091DB0683
:104F90000E94232442E0F42EFA940091D20610914C
:104FA000D3062091D4063091D50687E060E041E039
:104FB0000E9483258091DA069091DB060E942324CB
:104FC00081E0F816A1F40091D2061091D306209149
:104FD000D4063091D50687E061E040E00E94832549
:104FE0008091DA069091DB060E942324D5CFFF2022
:104FF00099F60E9480151F910F91FF9008951F92BE
:105000000F920FB60F9211242F933F934F935F93FC
:105010006F937F938F939F93AF93BF93EF93FF9380
:105020008091A105863059F08091A20585FD07C0C9
:105030000E9432048091A20580648093A205FF91B2
:10504000EF91BF91AF919F918F917F916F915F9100
:105050004F913F912F910F900FBE0F901F90189579
:105060008F929F92AF92BF92CF92DF92EF92FF9278
:105070000F931F93DF93CF93CDB7DEB72A970FB669
:10508000F894DEBF0FBECDBF7B018C0120E030E085
:1050900040E050E00E94622F88233CF48DE20E94A1
:1050A000CC1117FB109517F91095A090E106DA2C9A
:1050B0000CC0C801B70120E030E048EC52E40E9487
:1050C00042327B018C018EEFD80EE1E0ED1588F3C2
:1050D000A0FE0AC0C801B70120E030E040E251E480
:1050E0000E9442327B018C01C801B70120E030E010
:1050F00040E05FE30E94892E0E94D12F6B017C016A
:105100009E012F5F3F4FF901EA0DF11D8EE2808372
:10511000BB2449011EC0BA1409F4B39484010B0DD9
:10512000111DC701B6012AE030E040E050E00E94C6
:105130003B33605DF8016083B394C701B6012AE098
:1051400030E040E050E00E943B33C901DA016C01DD
:105150007D01C114D104E104F104E9F606C0FC01AB
:10516000EB0DF11D2083B39403C0CE01019620E323
:10517000BA14A8F3BA1489F48B2D8F5FFE01E80FDF
:10518000F11D90E39183B82EB39407C0FE01EB0D9F
:10519000F11D80810E94CC11BA94BB20B9F72A96E8
:1051A0000FB6F894DEBF0FBECDBFCF91DF911F9138
:1051B0000F91FF90EF90DF90CF90BF90AF909F90B6
:1051C0008F9008958F929F92BF92CF92DF92EF922D
:1051D000FF920F931F93DF93CF93CDB7DEB72A973C
:1051E0000FB6F894DEBF0FBECDBF7B018C0197FFD9
:1051F0000BC08DE20E94CC1110950095F094E094C4
:10520000E11CF11C011D111D67017801C114D104BD
:10521000E104F10421F480E30E94CC112FC0BB24EF
:105220004E010894811C911C84010B0D111DC701B6
:10523000B6012AE030E040E050E00E943B33605D80
:10524000F8016083B394C701B6012AE030E040E082
:1052500050E00E943B33C901DA016C017D01C114A9
:10526000D104E104F10401F707C0FE01EB0DF11DCB
:1052700080810E94CC11BA94BB20B9F72A960FB650
:10528000F894DEBF0FBECDBFCF91DF911F910F917C
:10529000FF90EF90DF90CF90BF909F908F900895F8
:1052A0000F931F93DF93CF93CDB7DEB728970FB639
:1052B000F894DEBF0FBECDBF982FFE0131969E0140
:1052C000275F3F4F892F817081939695E217F307EF
:1052D000C9F78E01085F1F4FF8018081805D0E9431
:1052E000CC11015010400C171D07B1F728960FB6CE
:1052F000F894DEBF0FBECDBFCF91DF911F910F910C
:105300000895CF93DF93EC0102C00E94CC11FE01FF
:10531000219684918823C9F7DF91CF910895CF9387
:10532000DF93EC0103C021960E94CC118881882371
:10533000D1F7DF91CF91089580EC94E00E9481290C
:1053400008958EEE95E00E94812908951F93182FED
:1053500088E596E00E948129133091F0143028F4FA
:10536000113041F01230B1F408C0143061F0153042
:1053700089F40CC086E496E00BC082E396E008C096
:1053800080E296E005C088E196E002C08FE096E0FA
:105390000E9481298BE096E00E9481291F91089547
:1053A0001F93182F82E896E00E9481291E3F29F062
:1053B0001F3F39F487E796E002C084E696E00E943A
:1053C00081298AE596E00E9481291F9108951F9303
:1053D000182F882319F483E797E04DC08BE697E0F8
:1053E0000E948129163079F1173070F4133011F1D1
:1053F000143028F41130C1F01230D9F518C014302F
:10540000E1F01530B1F51CC0193031F11A3028F433
:105410001730E1F0183069F51CC01B3019F11B3052
:10542000F0F01C3031F521C089E597E020C081E41F
:1054300097E01DC08BE297E01AC08CE197E017C09F
:1054400086E097E014C084EF96E011C083EE96E00A
:105450000EC087ED96E00BC088EC96E008C087EAA6
:1054600096E005C088E996E002C08DE896E00E94CB
:1054700081298AE896E00E9481291F910895AF92C0
:10548000BF92CF92DF92EF92FF920F931F93DF9321
:10549000CF93CDB7DEB768970FB6F894DEBF0FBED7
:1054A000CDBFDE011196E3EAF5E08CE001900D92AC
:1054B0008150E1F78091A1058430C9F0853038F43E
:1054C000823079F0833080F4882341F01DC086302B
:1054D000A1F0863078F08730B9F412C084E291E010
:1054E00011C08DE191E00EC088E191E00BC082E136
:1054F00091E008C08CE091E005C085E091E002C039
:105500008EEF90E00E94812987EF90E00E94812930
:105510008DE0E82EF12CEC0EFD1E670100E010E09E
:105520005E010894A11CB11CF501E00FF11F608120
:105530007181828193810E940430F801EB55F94F0B
:1055400020813181428153810E94692F9B01AC01EE
:10555000F60160837183828393838091D00680FFFC
:105560000DC0CA01B9012BE832E441E25DE30E94BB
:105570004232F6016083718382839383F6016191E5
:105580007191819191916F010E94302885EF90E097
:105590000E9481290C5F1F4F0C30110529F68FEEF8
:1055A00090E00E9481290DEC15E0DD248091D00669
:1055B00080FF1BC0F8016081718182819381248505
:1055C0003585468557850E94892E2BE832E441E2D5
:1055D0005DEB0E9442329B01AC01F7016081718159
:1055E000828193810E94892E14C0F80160817181AB
:1055F0008281938124853585468557850E94892E31
:105600009B01AC01F70160817181828193810E94CD
:10561000882EF7016083718382839383F701608111
:105620007181828193810E943028F2E0DF1621F09F
:105630008DEE90E00E948129D39484E090E0E80E02
:10564000F91E0C5F1F4F93E0D91609F0AFCF89EE1A
:1056500090E00E94812968960FB6F894DEBF0FBED5
:10566000CDBFCF91DF911F910F91FF90EF90DF9011
:10567000CF90BF90AF9008958091B105823091F0A6
:10568000833028F4882341F08130B1F408C083309E
:1056900061F0843089F40CC08DE991E00BC089E998
:1056A00091E008C085E991E005C081E991E002C080
:1056B0008CE891E00E94812989E891E00E9481298B
:1056C0006091CC0570E06A5C7F4F882777FD8095FC
:1056D000982F0E94E2288091C905882351F4809177
:1056E000CA05813019F484E891E005C08FE791E0A4
:1056F00002C08AE791E00E9481298091B305882346
:1057000019F085E791E002C080E791E00E948129CD
:105710008091B405882319F08BE691E002C086E6FB
:1057200091E00E9481298091B205882319F081E6D9
:1057300091E002C08CE591E00E9481298091B5053D
:10574000813041F0813018F0823059F406C088E58C
:1057500091E005C084E591E002C080E591E00E94FF
:1057600081298091B605882359F0813019F08F3F47
:1057700059F403C08CE491E005C088E491E002C0D4
:1057800084E491E00E9481298091B705882319F073
:10579000813041F403C080E491E002C08CE391E0E9
:1057A0000E94812989E391E00E9481296091C805C6
:1057B00070E080E090E00E94E22886E391E00E94A1
:1057C00081298091B305882379F06091B8057091A3
:1057D000B9058091BA059091BB052BE832E441E20E
:1057E0005DE30E94423208C06091B8057091B9052E
:1057F0008091BA059091BB050E94302882E391E028
:105800000E9481290895CF92DF92EF92FF920F9329
:105810001F93E82E6B018FE291E00E948129FF2403
:1058200000E010E0C801B7010E94E2288DE291E09B
:105830000E948129C6010E948F298AE291E00E947C
:1058400081291F910F91FF90EF90DF90CF900895E5
:10585000CF92DF92EF92FF920F931F93DF93CF933C
:10586000CDB7DEB72C970FB6F894DEBF0FBECDBF15
:10587000FF246E010894C11CD11C8F2DB6010E941B
:105880001E1C882321F48AE00E94E72990C083ED42
:1058900091E00E94812983E0F816E9F08F1530F03D
:1058A000E1E0FE1691F0EF1598F00CC0F5E0FF1660
:1058B000C1F0FF1698F086E0F816B1F0E7E0FE16AA
:1058C000D1F415C08FEC91E014C08BEC91E011C0C5
:1058D00087EC91E00EC083EC91E00BC08FEB91E080
:1058E00008C08BEB91E005C087EB91E002C083EB31
:1058F00091E00E9481298601EE248091D00680FFEC
:105900000CC0F80160817181828193812BE832E4BF
:1059100041E25DE30E94423205C0F801608171817D
:10592000828193810E943028F2E0EF1619F081EB1A
:1059300091E002C08DEA91E00E948129E3940C5F1E
:105940001F4F83E0E816C9F6F394E8E0FE1609F06D
:1059500094CF87EA91E00E94812909ED15E0FF24A8
:105960008091D00680FF0CC0F80160817181828136
:1059700093812BE832E441E25DE30E94423205C0AC
:10598000F80160817181828193810E943028F2E068
:10599000FF1619F085EA91E002C081EA91E00E94C9
:1059A0008129F3940C5F1F4F83E0F816C9F62C96FB
:1059B0000FB6F894DEBF0FBECDBFCF91DF911F9120
:1059C0000F91FF90EF90DF90CF9008958CEB94E0D3
:1059D0000E9481296091A5067091A6068091A70674
:1059E0009091A8060E94302889EA94E00E948129BB
:1059F0006091A9067091AA068091AB069091AC06C1
:105A00000E94302886E994E00E9481296091AD06C9
:105A10007091AE068091AF069091B0060E9430283A
:105A200083E894E00E9481296091E3067091E40686
:105A30008091E5069091E6060E9430288BE694E07E
:105A40000E9481296091E7067091E8068091E9063D
:105A50009091EA060E94302883E594E00E94812913
:105A60006091EB067091EC068091ED069091EE0648
:105A70000E9430288BE394E00E9481296091C00647
:105A80007091C1068091C2069091C30620E030E07B
:105A900041E655E40E94692F0E94302881E294E09B
:105AA0000E9481296091C4067091C5068091C60646
:105AB0009091C70620E030E041E655E40E94692F4E
:105AC0000E94302887E094E00E9481296091C806F6
:105AD0007091C9068091CA069091CB0620E030E013
